{
  "_format": "hh-sol-artifact-1",
  "contractName": "Validator",
  "sourceName": "contracts/Validator.sol",
  "abi": [
    {
      "inputs": [
        {
          "internalType": "address",
          "name": "gateway_",
          "type": "address"
        },
        {
          "internalType": "address",
          "name": "gasReceiver_",
          "type": "address"
        }
      ],
      "stateMutability": "nonpayable",
      "type": "constructor"
    },
    {
      "anonymous": false,
      "inputs": [
        {
          "indexed": false,
          "internalType": "address",
          "name": "newNftAddress",
          "type": "address"
        }
      ],
      "name": "NewWhitelistedNFT",
      "type": "event"
    },
    {
      "inputs": [],
      "name": "gasReceiver",
      "outputs": [
        {
          "internalType": "contract IAxelarGasService",
          "name": "",
          "type": "address"
        }
      ],
      "stateMutability": "view",
      "type": "function"
    },
    {
      "inputs": [],
      "name": "gateway",
      "outputs": [
        {
          "internalType": "contract IAxelarGateway",
          "name": "",
          "type": "address"
        }
      ],
      "stateMutability": "view",
      "type": "function"
    },
    {
      "inputs": [
        {
          "internalType": "address",
          "name": "",
          "type": "address"
        }
      ],
      "name": "nftIsSpent",
      "outputs": [
        {
          "internalType": "bool",
          "name": "",
          "type": "bool"
        }
      ],
      "stateMutability": "view",
      "type": "function"
    },
    {
      "inputs": [
        {
          "internalType": "string",
          "name": "destinationChain",
          "type": "string"
        },
        {
          "internalType": "string",
          "name": "destinationAddress",
          "type": "string"
        },
        {
          "internalType": "address",
          "name": "_nftAddress",
          "type": "address"
        },
        {
          "internalType": "uint256",
          "name": "_nftId",
          "type": "uint256"
        },
        {
          "internalType": "uint256",
          "name": "_souldFundId",
          "type": "uint256"
        }
      ],
      "name": "validateAndClaim",
      "outputs": [],
      "stateMutability": "payable",
      "type": "function"
    },
    {
      "inputs": [
        {
          "internalType": "address",
          "name": "_newNftAddress",
          "type": "address"
        }
      ],
      "name": "whitelistNft",
      "outputs": [],
      "stateMutability": "nonpayable",
      "type": "function"
    },
    {
      "inputs": [
        {
          "internalType": "address",
          "name": "",
          "type": "address"
        }
      ],
      "name": "whitelistedNfts",
      "outputs": [
        {
          "internalType": "bool",
          "name": "",
          "type": "bool"
        }
      ],
      "stateMutability": "view",
      "type": "function"
    }
  ],
  "bytecode": "0x60c06040523480156200001157600080fd5b5060405162000fd238038062000fd2833981810160405281019062000037919062000111565b8073ffffffffffffffffffffffffffffffffffffffff1660808173ffffffffffffffffffffffffffffffffffffffff16815250508173ffffffffffffffffffffffffffffffffffffffff1660a08173ffffffffffffffffffffffffffffffffffffffff1681525050505062000158565b600080fd5b600073ffffffffffffffffffffffffffffffffffffffff82169050919050565b6000620000d982620000ac565b9050919050565b620000eb81620000cc565b8114620000f757600080fd5b50565b6000815190506200010b81620000e0565b92915050565b600080604083850312156200012b576200012a620000a7565b5b60006200013b85828601620000fa565b92505060206200014e85828601620000fa565b9150509250929050565b60805160a051610e4d62000185600039600061017301526000818161032d01526103ce0152610e4d6000f3fe6080604052600436106100555760003560e01c8063116191b61461005a57806324dbbd091461008557806380d14b4a146100ae578063a58c940a146100d9578063ae882a8a14610116578063d218519814610153575b600080fd5b34801561006657600080fd5b5061006f61016f565b60405161007c9190610715565b60405180910390f35b34801561009157600080fd5b506100ac60048036038101906100a79190610778565b610197565b005b3480156100ba57600080fd5b506100c361032b565b6040516100d091906107c6565b60405180910390f35b3480156100e557600080fd5b5061010060048036038101906100fb9190610778565b61034f565b60405161010d91906107fc565b60405180910390f35b34801561012257600080fd5b5061013d60048036038101906101389190610778565b61036f565b60405161014a91906107fc565b60405180910390f35b61016d600480360381019061016891906108b2565b61038f565b005b60007f0000000000000000000000000000000000000000000000000000000000000000905090565b60001515600160008373ffffffffffffffffffffffffffffffffffffffff1673ffffffffffffffffffffffffffffffffffffffff16815260200190815260200160002060009054906101000a900460ff1615151461022a576040517f08c379a0000000000000000000000000000000000000000000000000000000008152600401610221906109f1565b60405180910390fd5b600073ffffffffffffffffffffffffffffffffffffffff168173ffffffffffffffffffffffffffffffffffffffff16141561029a576040517f08c379a000000000000000000000000000000000000000000000000000000000815260040161029190610a83565b60405180910390fd5b60018060008373ffffffffffffffffffffffffffffffffffffffff1673ffffffffffffffffffffffffffffffffffffffff16815260200190815260200160002060006101000a81548160ff0219169083151502179055507f4864b3cb8ddce996e7c5f8ec0a006b69d432e6a5df2acff97f2a5ae75ff78f97816040516103209190610ab2565b60405180910390a150565b7f000000000000000000000000000000000000000000000000000000000000000081565b60026020528060005260406000206000915054906101000a900460ff1681565b60016020528060005260406000206000915054906101000a900460ff1681565b600061039b84846104ea565b9050600081836040516020016103b2929190610adc565b60405160208183030381529060405290506000341115610465577f000000000000000000000000000000000000000000000000000000000000000073ffffffffffffffffffffffffffffffffffffffff16630c93e3bb34308c8c8c8c88336040518963ffffffff1660e01b81526004016104329796959493929190610bda565b6000604051808303818588803b15801561044b57600080fd5b505af115801561045f573d6000803e3d6000fd5b50505050505b61046d61016f565b73ffffffffffffffffffffffffffffffffffffffff16631c92115f8a8a8a8a866040518663ffffffff1660e01b81526004016104ad959493929190610c46565b600060405180830381600087803b1580156104c757600080fd5b505af11580156104db573d6000803e3d6000fd5b50505050505050505050505050565b6000600160008473ffffffffffffffffffffffffffffffffffffffff1673ffffffffffffffffffffffffffffffffffffffff16815260200190815260200160002060009054906101000a900460ff16610578576040517f08c379a000000000000000000000000000000000000000000000000000000000815260040161056f90610d08565b60405180910390fd5b600260008473ffffffffffffffffffffffffffffffffffffffff1673ffffffffffffffffffffffffffffffffffffffff16815260200190815260200160002060009054906101000a900460ff1615610605576040517f08c379a00000000000000000000000000000000000000000000000000000000081526004016105fc90610d9a565b60405180910390fd5b8273ffffffffffffffffffffffffffffffffffffffff16636352211e836040518263ffffffff1660e01b815260040161063e9190610dba565b60206040518083038186803b15801561065657600080fd5b505afa15801561066a573d6000803e3d6000fd5b505050506040513d601f19601f8201168201806040525081019061068e9190610dea565b905092915050565b600073ffffffffffffffffffffffffffffffffffffffff82169050919050565b6000819050919050565b60006106db6106d66106d184610696565b6106b6565b610696565b9050919050565b60006106ed826106c0565b9050919050565b60006106ff826106e2565b9050919050565b61070f816106f4565b82525050565b600060208201905061072a6000830184610706565b92915050565b600080fd5b600080fd5b600061074582610696565b9050919050565b6107558161073a565b811461076057600080fd5b50565b6000813590506107728161074c565b92915050565b60006020828403121561078e5761078d610730565b5b600061079c84828501610763565b91505092915050565b60006107b0826106e2565b9050919050565b6107c0816107a5565b82525050565b60006020820190506107db60008301846107b7565b92915050565b60008115159050919050565b6107f6816107e1565b82525050565b600060208201905061081160008301846107ed565b92915050565b600080fd5b600080fd5b600080fd5b60008083601f84011261083c5761083b610817565b5b8235905067ffffffffffffffff8111156108595761085861081c565b5b60208301915083600182028301111561087557610874610821565b5b9250929050565b6000819050919050565b61088f8161087c565b811461089a57600080fd5b50565b6000813590506108ac81610886565b92915050565b600080600080600080600060a0888a0312156108d1576108d0610730565b5b600088013567ffffffffffffffff8111156108ef576108ee610735565b5b6108fb8a828b01610826565b9750975050602088013567ffffffffffffffff81111561091e5761091d610735565b5b61092a8a828b01610826565b9550955050604061093d8a828b01610763565b935050606061094e8a828b0161089d565b925050608061095f8a828b0161089d565b91505092959891949750929550565b600082825260208201905092915050565b7f76616c696461746f722e77686974656c6973744e66743a20616464726573732060008201527f616c726561647920616464656400000000000000000000000000000000000000602082015250565b60006109db602d8361096e565b91506109e68261097f565b604082019050919050565b60006020820190508181036000830152610a0a816109ce565b9050919050565b7f76616c696461746f722e77686974656c6973744e66743a2063616e6e6f74206160008201527f6464203020616464726573730000000000000000000000000000000000000000602082015250565b6000610a6d602c8361096e565b9150610a7882610a11565b604082019050919050565b60006020820190508181036000830152610a9c81610a60565b9050919050565b610aac8161073a565b82525050565b6000602082019050610ac76000830184610aa3565b92915050565b610ad68161087c565b82525050565b6000604082019050610af16000830185610aa3565b610afe6020830184610acd565b9392505050565b82818337600083830152505050565b6000601f19601f8301169050919050565b6000610b31838561096e565b9350610b3e838584610b05565b610b4783610b14565b840190509392505050565b600081519050919050565b600082825260208201905092915050565b60005b83811015610b8c578082015181840152602081019050610b71565b83811115610b9b576000848401525b50505050565b6000610bac82610b52565b610bb68185610b5d565b9350610bc6818560208601610b6e565b610bcf81610b14565b840191505092915050565b600060a082019050610bef600083018a610aa3565b8181036020830152610c0281888a610b25565b90508181036040830152610c17818688610b25565b90508181036060830152610c2b8185610ba1565b9050610c3a6080830184610aa3565b98975050505050505050565b60006060820190508181036000830152610c61818789610b25565b90508181036020830152610c76818587610b25565b90508181036040830152610c8a8184610ba1565b90509695505050505050565b7f536f756c46756e642e636c61696d46756e64734561726c793a204e4654206e6f60008201527f742077686974656c697374656400000000000000000000000000000000000000602082015250565b6000610cf2602d8361096e565b9150610cfd82610c96565b604082019050919050565b60006020820190508181036000830152610d2181610ce5565b9050919050565b7f536f756c46756e642e636c61696d46756e64734561726c793a20436c61696d2060008201527f746f6b656e204e46542068617320616c7265616479206265656e207370656e74602082015250565b6000610d8460408361096e565b9150610d8f82610d28565b604082019050919050565b60006020820190508181036000830152610db381610d77565b9050919050565b6000602082019050610dcf6000830184610acd565b92915050565b600081519050610de48161074c565b92915050565b600060208284031215610e0057610dff610730565b5b6000610e0e84828501610dd5565b9150509291505056fea264697066735822122028e00de46c77d68fc898b42ac0dea0aafcdc5b02693a2aa96e2be8e30db8bc2764736f6c63430008090033",
  "linkReferences": {},
  "deployedLinkReferences": {}
}