{
  "contracts/Jury.sol": {
    "Jury": {
      "abi": [
        {
          "inputs": [
            {
              "internalType": "address[]",
              "name": "_initialJuryMembers",
              "type": "address[]"
            },
            {
              "internalType": "uint96",
              "name": "_jurySwap",
              "type": "uint96"
            },
            {
              "internalType": "uint8",
              "name": "_minJurySize",
              "type": "uint8"
            }
          ],
          "stateMutability": "nonpayable",
          "type": "constructor"
        },
        {
          "anonymous": false,
          "inputs": [
            {
              "indexed": true,
              "internalType": "uint256",
              "name": "disputeId",
              "type": "uint256"
            },
            {
              "indexed": false,
              "internalType": "uint256",
              "name": "newDeadline",
              "type": "uint256"
            }
          ],
          "name": "DisputeDeadlinePostponed",
          "type": "event"
        },
        {
          "anonymous": false,
          "inputs": [
            {
              "indexed": true,
              "internalType": "uint256",
              "name": "disputeId",
              "type": "uint256"
            },
            {
              "indexed": false,
              "internalType": "bool",
              "name": "verdict",
              "type": "bool"
            }
          ],
          "name": "DisputeResolved",
          "type": "event"
        },
        {
          "anonymous": false,
          "inputs": [
            {
              "indexed": true,
              "internalType": "uint256",
              "name": "juryId",
              "type": "uint256"
            },
            {
              "indexed": true,
              "internalType": "uint256[]",
              "name": "juryMembers",
              "type": "uint256[]"
            }
          ],
          "name": "JuryDutyAdded",
          "type": "event"
        },
        {
          "anonymous": false,
          "inputs": [
            {
              "indexed": true,
              "internalType": "uint256",
              "name": "juryId",
              "type": "uint256"
            }
          ],
          "name": "JuryDutyCompleted",
          "type": "event"
        },
        {
          "anonymous": false,
          "inputs": [
            {
              "indexed": true,
              "internalType": "uint256",
              "name": "juryId",
              "type": "uint256"
            },
            {
              "indexed": true,
              "internalType": "uint256",
              "name": "disputeId",
              "type": "uint256"
            },
            {
              "indexed": false,
              "internalType": "uint256",
              "name": "deadline",
              "type": "uint256"
            }
          ],
          "name": "NewDispute",
          "type": "event"
        },
        {
          "anonymous": false,
          "inputs": [
            {
              "indexed": true,
              "internalType": "address",
              "name": "proposer",
              "type": "address"
            },
            {
              "indexed": true,
              "internalType": "uint256",
              "name": "juryId",
              "type": "uint256"
            },
            {
              "indexed": true,
              "internalType": "uint256",
              "name": "proposedId",
              "type": "uint256"
            },
            {
              "indexed": false,
              "internalType": "uint256",
              "name": "deadline",
              "type": "uint256"
            }
          ],
          "name": "NewDisputeProposal",
          "type": "event"
        },
        {
          "anonymous": false,
          "inputs": [
            {
              "indexed": true,
              "internalType": "address",
              "name": "juryMember",
              "type": "address"
            },
            {
              "indexed": true,
              "internalType": "uint256",
              "name": "jurorId",
              "type": "uint256"
            }
          ],
          "name": "NewJuryPoolMember",
          "type": "event"
        },
        {
          "anonymous": false,
          "inputs": [
            {
              "indexed": false,
              "internalType": "uint256",
              "name": "juryId",
              "type": "uint256"
            },
            {
              "indexed": true,
              "internalType": "uint256[]",
              "name": "juryMembers",
              "type": "uint256[]"
            },
            {
              "indexed": false,
              "internalType": "uint256",
              "name": "expiration",
              "type": "uint256"
            }
          ],
          "name": "NewLiveJury",
          "type": "event"
        },
        {
          "anonymous": false,
          "inputs": [
            {
              "indexed": false,
              "internalType": "address",
              "name": "account",
              "type": "address"
            }
          ],
          "name": "Paused",
          "type": "event"
        },
        {
          "anonymous": false,
          "inputs": [
            {
              "indexed": true,
              "internalType": "uint256",
              "name": "proposedId",
              "type": "uint256"
            },
            {
              "indexed": true,
              "internalType": "uint256",
              "name": "jurorId",
              "type": "uint256"
            }
          ],
          "name": "ProposalPassed",
          "type": "event"
        },
        {
          "anonymous": false,
          "inputs": [
            {
              "indexed": false,
              "internalType": "address",
              "name": "account",
              "type": "address"
            }
          ],
          "name": "Unpaused",
          "type": "event"
        },
        {
          "anonymous": false,
          "inputs": [
            {
              "indexed": true,
              "internalType": "uint256",
              "name": "jurorId",
              "type": "uint256"
            },
            {
              "indexed": true,
              "internalType": "uint256",
              "name": "disputeId",
              "type": "uint256"
            },
            {
              "indexed": false,
              "internalType": "bool",
              "name": "decision",
              "type": "bool"
            }
          ],
          "name": "Voted",
          "type": "event"
        },
        {
          "inputs": [
            {
              "internalType": "uint256",
              "name": "_disputeProposalId",
              "type": "uint256"
            }
          ],
          "name": "approveDisputeProposal",
          "outputs": [],
          "stateMutability": "nonpayable",
          "type": "function"
        },
        {
          "inputs": [
            {
              "internalType": "uint256",
              "name": "",
              "type": "uint256"
            }
          ],
          "name": "disputeProposals",
          "outputs": [
            {
              "internalType": "address",
              "name": "proposer",
              "type": "address"
            },
            {
              "internalType": "uint256",
              "name": "juryId",
              "type": "uint256"
            },
            {
              "internalType": "bool",
              "name": "isApproved",
              "type": "bool"
            },
            {
              "internalType": "uint256",
              "name": "deadline",
              "type": "uint256"
            }
          ],
          "stateMutability": "view",
          "type": "function"
        },
        {
          "inputs": [
            {
              "internalType": "uint256",
              "name": "",
              "type": "uint256"
            }
          ],
          "name": "disputes",
          "outputs": [
            {
              "internalType": "uint256",
              "name": "juryId",
              "type": "uint256"
            },
            {
              "internalType": "uint256",
              "name": "deadline",
              "type": "uint256"
            },
            {
              "internalType": "bool",
              "name": "verdict",
              "type": "bool"
            },
            {
              "internalType": "bool",
              "name": "resolved",
              "type": "bool"
            }
          ],
          "stateMutability": "view",
          "type": "function"
        },
        {
          "inputs": [
            {
              "internalType": "uint256",
              "name": "_disputeId",
              "type": "uint256"
            }
          ],
          "name": "extendDisputeDeadline",
          "outputs": [],
          "stateMutability": "nonpayable",
          "type": "function"
        },
        {
          "inputs": [
            {
              "internalType": "uint256",
              "name": "",
              "type": "uint256"
            },
            {
              "internalType": "uint256",
              "name": "",
              "type": "uint256"
            }
          ],
          "name": "juries",
          "outputs": [
            {
              "internalType": "uint256",
              "name": "",
              "type": "uint256"
            }
          ],
          "stateMutability": "view",
          "type": "function"
        },
        {
          "inputs": [
            {
              "internalType": "uint256",
              "name": "",
              "type": "uint256"
            }
          ],
          "name": "juryExpiration",
          "outputs": [
            {
              "internalType": "uint256",
              "name": "",
              "type": "uint256"
            }
          ],
          "stateMutability": "view",
          "type": "function"
        },
        {
          "inputs": [
            {
              "internalType": "address",
              "name": "",
              "type": "address"
            }
          ],
          "name": "juryPoolMembers",
          "outputs": [
            {
              "internalType": "uint256",
              "name": "",
              "type": "uint256"
            }
          ],
          "stateMutability": "view",
          "type": "function"
        },
        {
          "inputs": [
            {
              "internalType": "uint256",
              "name": "_deadline",
              "type": "uint256"
            }
          ],
          "name": "newDisputeProposal",
          "outputs": [],
          "stateMutability": "nonpayable",
          "type": "function"
        },
        {
          "inputs": [],
          "name": "paused",
          "outputs": [
            {
              "internalType": "bool",
              "name": "",
              "type": "bool"
            }
          ],
          "stateMutability": "view",
          "type": "function"
        },
        {
          "inputs": [
            {
              "internalType": "uint256",
              "name": "_disputeId",
              "type": "uint256"
            },
            {
              "internalType": "bool",
              "name": "_vote",
              "type": "bool"
            }
          ],
          "name": "vote",
          "outputs": [],
          "stateMutability": "nonpayable",
          "type": "function"
        }
      ],
      "evm": {
        "bytecode": {
          "linkReferences": {},
          "object": "60806040523480156200001157600080fd5b5060405162002c1a38038062002c1a83398181016040528101906200003791906200082d565b60008060006101000a81548160ff02191690831515021790555060018160ff16116200009a576040517f08c379a000000000000000000000000000000000000000000000000000000000815260040162000091906200092f565b60405180910390fd5b6000600282620000ab919062000980565b60ff1611620000f1576040517f08c379a0000000000000000000000000000000000000000000000000000000008152600401620000e89062000a2e565b60405180910390fd5b60028162000100919062000a7f565b60ff168351101562000149576040517f08c379a0000000000000000000000000000000000000000000000000000000008152600401620001409062000b37565b60405180910390fd5b60005b835181101562000329576000600a600086848151811062000172576200017162000b59565b5b602002602001015173ffffffffffffffffffffffffffffffffffffffff1673ffffffffffffffffffffffffffffffffffffffff1681526020019081526020016000205414620001f8576040517f08c379a0000000000000000000000000000000000000000000000000000000008152600401620001ef9062000bfe565b60405180910390fd5b60018162000207919062000c2a565b600a600086848151811062000221576200022062000b59565b5b602002602001015173ffffffffffffffffffffffffffffffffffffffff1673ffffffffffffffffffffffffffffffffffffffff168152602001908152602001600020819055506001600960006001846200027c919062000c2a565b815260200190815260200160002060000160006101000a81548160ff021916908315150217905550600181620002b3919062000c2a565b848281518110620002c957620002c862000b59565b5b602002602001015173ffffffffffffffffffffffffffffffffffffffff167f6cf89f4a284d6bcbbba4e04a53e34c6a8ea0c335352b68732736fdafce388dc760405160405180910390a38080620003209062000c87565b9150506200014c565b50600160048190555082516003819055508060ff16600281905550816bffffffffffffffffffffffff166001819055506200039a42446001604051602001620003759392919062000cfa565b6040516020818303038152906040528051906020012060001c620003a360201b60201c565b50505062000f1c565b60008060035490506000600454905060005b6002548110156200051f5760006001848787604051602001620003da92919062000d3d565b6040516020818303038152906040528051906020012060001c620003ff919062000d6d565b6200040b919062000c2a565b90506000600960008381526020019081526020016000206040518060800160405290816000820160009054906101000a900460ff1615151515815260200160018201548152602001600282015481526020016003820154815250509050806000015180156200049b57506000816020015114806200049a5750836001826020015162000498919062000c2a565b105b5b156200050757836009600084815260200190815260200160002060010181905550600b60008581526020019081526020016000208290806001815401808255809150506001900390600052602060002001600090919091909150558280620005039062000c87565b9350505b8580620005149062000c87565b9650505050620003b5565b5060006001544262000532919062000c2a565b905080600c600084815260200190815260200160002081905550600b60008381526020019081526020016000206040516200056e919062000ec5565b60405180910390207fb3c30fe9cd13f86c80318bef190e0071e5fecf6d2465f4ebbe0f923899af700c8383604051620005a992919062000eef565b60405180910390a25050505050565b6000604051905090565b600080fd5b600080fd5b600080fd5b6000601f19601f8301169050919050565b7f4e487b7100000000000000000000000000000000000000000000000000000000600052604160045260246000fd5b6200061c82620005d1565b810181811067ffffffffffffffff821117156200063e576200063d620005e2565b5b80604052505050565b600062000653620005b8565b905062000661828262000611565b919050565b600067ffffffffffffffff821115620006845762000683620005e2565b5b602082029050602081019050919050565b600080fd5b600073ffffffffffffffffffffffffffffffffffffffff82169050919050565b6000620006c7826200069a565b9050919050565b620006d981620006ba565b8114620006e557600080fd5b50565b600081519050620006f981620006ce565b92915050565b600062000716620007108462000666565b62000647565b905080838252602082019050602084028301858111156200073c576200073b62000695565b5b835b81811015620007695780620007548882620006e8565b8452602084019350506020810190506200073e565b5050509392505050565b600082601f8301126200078b576200078a620005cc565b5b81516200079d848260208601620006ff565b91505092915050565b60006bffffffffffffffffffffffff82169050919050565b620007c981620007a6565b8114620007d557600080fd5b50565b600081519050620007e981620007be565b92915050565b600060ff82169050919050565b6200080781620007ef565b81146200081357600080fd5b50565b6000815190506200082781620007fc565b92915050565b600080600060608486031215620008495762000848620005c2565b5b600084015167ffffffffffffffff8111156200086a5762000869620005c7565b5b620008788682870162000773565b93505060206200088b86828701620007d8565b92505060406200089e8682870162000816565b9150509250925092565b600082825260208201905092915050565b7f4a7572792e636f6e7374727563746f723a206a7572792073697a65206174206c60008201527f6561737420330000000000000000000000000000000000000000000000000000602082015250565b600062000917602683620008a8565b91506200092482620008b9565b604082019050919050565b600060208201905081810360008301526200094a8162000908565b9050919050565b7f4e487b7100000000000000000000000000000000000000000000000000000000600052601260045260246000fd5b60006200098d82620007ef565b91506200099a83620007ef565b925082620009ad57620009ac62000951565b5b828206905092915050565b7f4a7572792e636f6e7374727563746f723a206a7572792073697a65206d75737460008201527f206265206f646400000000000000000000000000000000000000000000000000602082015250565b600062000a16602783620008a8565b915062000a2382620009b8565b604082019050919050565b6000602082019050818103600083015262000a498162000a07565b9050919050565b7f4e487b7100000000000000000000000000000000000000000000000000000000600052601160045260246000fd5b600062000a8c82620007ef565b915062000a9983620007ef565b92508160ff048311821515161562000ab65762000ab562000a50565b5b828202905092915050565b7f4a7572792e636f6e7374727563746f723a206e6f7420656e6f756768206a757260008201527f79206d656d626572730000000000000000000000000000000000000000000000602082015250565b600062000b1f602983620008a8565b915062000b2c8262000ac1565b604082019050919050565b6000602082019050818103600083015262000b528162000b10565b9050919050565b7f4e487b7100000000000000000000000000000000000000000000000000000000600052603260045260246000fd5b7f4a7572792e636f6e7374727563746f723a206475706c6963617465204a75727960008201527f206d656d62657200000000000000000000000000000000000000000000000000602082015250565b600062000be6602783620008a8565b915062000bf38262000b88565b604082019050919050565b6000602082019050818103600083015262000c198162000bd7565b9050919050565b6000819050919050565b600062000c378262000c20565b915062000c448362000c20565b9250827fffffffffffffffffffffffffffffffffffffffffffffffffffffffffffffffff0382111562000c7c5762000c7b62000a50565b5b828201905092915050565b600062000c948262000c20565b91507fffffffffffffffffffffffffffffffffffffffffffffffffffffffffffffffff82141562000cca5762000cc962000a50565b5b600182019050919050565b6000819050919050565b62000cf462000cee8262000c20565b62000cd5565b82525050565b600062000d08828662000cdf565b60208201915062000d1a828562000cdf565b60208201915062000d2c828462000cdf565b602082019150819050949350505050565b600062000d4b828562000cdf565b60208201915062000d5d828462000cdf565b6020820191508190509392505050565b600062000d7a8262000c20565b915062000d878362000c20565b92508262000d9a5762000d9962000951565b5b828206905092915050565b600081549050919050565b600081905092915050565b60008190508160005260206000209050919050565b62000ddb8162000c20565b82525050565b600062000def838362000dd0565b60208301905092915050565b60008160001c9050919050565b6000819050919050565b600062000e2962000e238362000dfb565b62000e08565b9050919050565b600062000e3e825462000e12565b9050919050565b6000600182019050919050565b600062000e5f8262000da5565b62000e6b818562000db0565b935062000e788362000dbb565b8060005b8381101562000eb85762000e908262000e30565b62000e9c888262000de1565b975062000ea98362000e45565b92505060018101905062000e7c565b5085935050505092915050565b600062000ed3828462000e52565b915081905092915050565b62000ee98162000c20565b82525050565b600060408201905062000f06600083018562000ede565b62000f15602083018462000ede565b9392505050565b611cee8062000f2c6000396000f3fe608060405234801561001057600080fd5b506004361061009e5760003560e01c8063a94c8f3d11610066578063a94c8f3d14610170578063c9d27afe146101a3578063ccd0429d146101bf578063d652ef1a146101db578063e922de501461020b5761009e565b806301144f44146100a3578063564a565d146100d35780635c975abb1461010657806364ca6b1414610124578063a414abb414610140575b600080fd5b6100bd60048036038101906100b891906111dd565b610227565b6040516100ca919061122c565b60405180910390f35b6100ed60048036038101906100e89190611247565b610258565b6040516100fd949392919061128f565b60405180910390f35b61010e6102a2565b60405161011b91906112d4565b60405180910390f35b61013e60048036038101906101399190611247565b6102b8565b005b61015a60048036038101906101559190611247565b61038d565b604051610167919061122c565b60405180910390f35b61018a60048036038101906101859190611247565b6103a5565b60405161019a9493929190611330565b60405180910390f35b6101bd60048036038101906101b891906113a1565b610402565b005b6101d960048036038101906101d49190611247565b610622565b005b6101f560048036038101906101f0919061140d565b6107fb565b604051610202919061122c565b60405180910390f35b61022560048036038101906102209190611247565b610813565b005b600b602052816000526040600020818154811061024357600080fd5b90600052602060002001600091509150505481565b60076020528060005260406000206000915090508060000154908060010154908060020160009054906101000a900460ff16908060020160019054906101000a900460ff16905084565b60008060009054906101000a900460ff16905090565b6102c0610aed565b6102df6007600083815260200190815260200160002060000154610b99565b61031e576040517f08c379a0000000000000000000000000000000000000000000000000000000008152600401610315906114bd565b60405180910390fd5b600062015180600760008481526020019081526020016000206001016000828254610349919061150c565b9250508190559050817f4da9b675e578acf05cb72712fc12154fc303610a9bef918062e80e7b25aa045f82604051610381919061122c565b60405180910390a25050565b600c6020528060005260406000206000915090505481565b60086020528060005260406000206000915090508060000160009054906101000a900473ffffffffffffffffffffffffffffffffffffffff16908060010154908060020160009054906101000a900460ff16908060030154905084565b60006007600084815260200190815260200160002060405180608001604052908160008201548152602001600182015481526020016002820160009054906101000a900460ff161515151581526020016002820160019054906101000a900460ff16151515158152505090508060600151156104b3576040517f08c379a00000000000000000000000000000000000000000000000000000000081526004016104aa906115d4565b60405180910390fd5b6104c08160000151610b99565b6104ff576040517f08c379a00000000000000000000000000000000000000000000000000000000081526004016104f690611640565b60405180910390fd5b6000600a60003373ffffffffffffffffffffffffffffffffffffffff1673ffffffffffffffffffffffffffffffffffffffff168152602001908152602001600020549050816020015142106105615761055c848360000151610c55565b61061c565b6040518060400160405280841515815260200160011515815250600d6000868152602001908152602001600020600083815260200190815260200160002060008201518160000160006101000a81548160ff02191690831515021790555060208201518160000160016101000a81548160ff02191690831515021790555090505083817f67b60bc862e9c013a238015361df4bb95a4abfe78309ba4a4d7a04d2fe29e4328560405161061391906112d4565b60405180910390a35b50505050565b61062a610aed565b6000600454905061063a81610b99565b1561067a576040517f08c379a0000000000000000000000000000000000000000000000000000000008152600401610671906116d2565b60405180910390fd5b4282116106bc576040517f08c379a00000000000000000000000000000000000000000000000000000000081526004016106b390611764565b60405180910390fd5b60006006549050600660008154809291906106d690611784565b919050555060405180608001604052803373ffffffffffffffffffffffffffffffffffffffff168152602001838152602001600015158152602001848152506008600083815260200190815260200160002060008201518160000160006101000a81548173ffffffffffffffffffffffffffffffffffffffff021916908373ffffffffffffffffffffffffffffffffffffffff1602179055506020820151816001015560408201518160020160006101000a81548160ff0219169083151502179055506060820151816003015590505080823373ffffffffffffffffffffffffffffffffffffffff167f75e358a93c74512dfb976defba1141797850778e28171591715e8cfd4107980f866040516107ee919061122c565b60405180910390a4505050565b600a6020528060005260406000206000915090505481565b6000600a60003373ffffffffffffffffffffffffffffffffffffffff1673ffffffffffffffffffffffffffffffffffffffff1681526020019081526020016000205411610895576040517f08c379a000000000000000000000000000000000000000000000000000000000815260040161088c90611819565b60405180910390fd5b61089d610aed565b6000600860008381526020019081526020016000206040518060800160405290816000820160009054906101000a900473ffffffffffffffffffffffffffffffffffffffff1673ffffffffffffffffffffffffffffffffffffffff1673ffffffffffffffffffffffffffffffffffffffff168152602001600182015481526020016002820160009054906101000a900460ff161515151581526020016003820154815250509050806040015115610989576040517f08c379a0000000000000000000000000000000000000000000000000000000008152600401610980906118ab565b60405180910390fd5b806000015173ffffffffffffffffffffffffffffffffffffffff163373ffffffffffffffffffffffffffffffffffffffff1614156109fc576040517f08c379a00000000000000000000000000000000000000000000000000000000081526004016109f39061193d565b60405180910390fd5b80606001514210610a42576040517f08c379a0000000000000000000000000000000000000000000000000000000008152600401610a39906119cf565b60405180910390fd5b60016008600084815260200190815260200160002060020160006101000a81548160ff02191690831515021790555060096000600a60003373ffffffffffffffffffffffffffffffffffffffff1673ffffffffffffffffffffffffffffffffffffffff1681526020019081526020016000205481526020019081526020016000206002016000815480929190610ad790611784565b9190505550610ae98160600151610eaf565b5050565b60006004549050600c6000828152602001908152602001600020544210610b9657807fc796ad74732d2a065b3161c4bf85138cb8d4b0561d078cc02aa237d2e29141db60405160405180910390a260046000815480929190610b4e90611784565b9190505550610b954244600184610b65919061150c565b604051602001610b7793929190611a10565b6040516020818303038152906040528051906020012060001c610fa4565b5b50565b60008060096000600a60003373ffffffffffffffffffffffffffffffffffffffff1673ffffffffffffffffffffffffffffffffffffffff1681526020019081526020016000205481526020019081526020016000206040518060800160405290816000820160009054906101000a900460ff16151515158152602001600182015481526020016002820154815260200160038201548152505090508281602001511415610c4a576001915050610c50565b60009150505b919050565b6000600b6000838152602001908152602001600020805480602002602001604051908101604052809291908181526020018280548015610cb457602002820191906000526020600020905b815481526020019060010190808311610ca0575b50505050509050600080600090505b82518160ff161015610dd6576000600d60008781526020019081526020016000206000858460ff1681518110610cfc57610cfb611a4d565b5b602002602001015181526020019081526020016000206040518060400160405290816000820160009054906101000a900460ff161515151581526020016000820160019054906101000a900460ff1615151515815250509050806020015115610dc257806000015115610d78578280610d7490611a89565b9350505b60096000858460ff1681518110610d9257610d91611a4d565b5b602002602001015181526020019081526020016000206003016000815480929190610dbc90611784565b91905055505b508080610dce90611a89565b915050610cc3565b508060ff1660028054610de99190611ae2565b1015610e1f5760016007600086815260200190815260200160002060020160006101000a81548160ff0219169083151502179055505b60016007600086815260200190815260200160002060020160016101000a81548160ff021916908315150217905550837f5a87909bff68caaaaf0b3fd9c74eeccc928832f879315e5c6fb7a73612f26c0c6007600087815260200190815260200160002060020160009054906101000a900460ff16604051610ea191906112d4565b60405180910390a250505050565b600060055490506000600454905060056000815480929190610ed090611784565b919050555060405180608001604052808281526020018481526020016000151581526020016000151581525060076000848152602001908152602001600020600082015181600001556020820151816001015560408201518160020160006101000a81548160ff02191690831515021790555060608201518160020160016101000a81548160ff02191690831515021790555090505080827fd739c8b7fe870f381c5442416ff79d9f44c3e1d54a16ce39fc0fbe8206c4a6e885604051610f97919061122c565b60405180910390a3505050565b60008060035490506000600454905060005b60025481101561110f5760006001848787604051602001610fd8929190611b13565b6040516020818303038152906040528051906020012060001c610ffb9190611b3f565b611005919061150c565b90506000600960008381526020019081526020016000206040518060800160405290816000820160009054906101000a900460ff16151515158152602001600182015481526020016002820154815260200160038201548152505090508060000151801561109157506000816020015114806110905750836001826020015161108e919061150c565b105b5b156110fa57836009600084815260200190815260200160002060010181905550600b600085815260200190815260200160002082908060018154018082558091505060019003906000526020600020016000909190919091505582806110f690611784565b9350505b858061110590611784565b9650505050610fb6565b50600060015442611120919061150c565b905080600c600084815260200190815260200160002081905550600b600083815260200190815260200160002060405161115a9190611c78565b60405180910390207fb3c30fe9cd13f86c80318bef190e0071e5fecf6d2465f4ebbe0f923899af700c8383604051611193929190611c8f565b60405180910390a25050505050565b600080fd5b6000819050919050565b6111ba816111a7565b81146111c557600080fd5b50565b6000813590506111d7816111b1565b92915050565b600080604083850312156111f4576111f36111a2565b5b6000611202858286016111c8565b9250506020611213858286016111c8565b9150509250929050565b611226816111a7565b82525050565b6000602082019050611241600083018461121d565b92915050565b60006020828403121561125d5761125c6111a2565b5b600061126b848285016111c8565b91505092915050565b60008115159050919050565b61128981611274565b82525050565b60006080820190506112a4600083018761121d565b6112b1602083018661121d565b6112be6040830185611280565b6112cb6060830184611280565b95945050505050565b60006020820190506112e96000830184611280565b92915050565b600073ffffffffffffffffffffffffffffffffffffffff82169050919050565b600061131a826112ef565b9050919050565b61132a8161130f565b82525050565b60006080820190506113456000830187611321565b611352602083018661121d565b61135f6040830185611280565b61136c606083018461121d565b95945050505050565b61137e81611274565b811461138957600080fd5b50565b60008135905061139b81611375565b92915050565b600080604083850312156113b8576113b76111a2565b5b60006113c6858286016111c8565b92505060206113d78582860161138c565b9150509250929050565b6113ea8161130f565b81146113f557600080fd5b50565b600081359050611407816113e1565b92915050565b600060208284031215611423576114226111a2565b5b6000611431848285016113f8565b91505092915050565b600082825260208201905092915050565b7f4a7572792e657874656e6444697370757465446561646c696e653a206e6f742060008201527f696e206a75727900000000000000000000000000000000000000000000000000602082015250565b60006114a760278361143a565b91506114b28261144b565b604082019050919050565b600060208201905081810360008301526114d68161149a565b9050919050565b7f4e487b7100000000000000000000000000000000000000000000000000000000600052601160045260246000fd5b6000611517826111a7565b9150611522836111a7565b9250827fffffffffffffffffffffffffffffffffffffffffffffffffffffffffffffffff03821115611557576115566114dd565b5b828201905092915050565b7f4a7572792e766f74653a206469737075746520616c7265616479207265736f6c60008201527f7665640000000000000000000000000000000000000000000000000000000000602082015250565b60006115be60238361143a565b91506115c982611562565b604082019050919050565b600060208201905081810360008301526115ed816115b1565b9050919050565b7f4a7572792e766f74653a206d656d626572206e6f7420696e206a757279000000600082015250565b600061162a601d8361143a565b9150611635826115f4565b602082019050919050565b600060208201905081810360008301526116598161161d565b9050919050565b7f4a7572792e6e65774469737075746550726f706f73616c3a206a75726f72206160008201527f6c726561647920696e206a757279000000000000000000000000000000000000602082015250565b60006116bc602e8361143a565b91506116c782611660565b604082019050919050565b600060208201905081810360008301526116eb816116af565b9050919050565b7f4a7572792e6e65774469737075746550726f706f73616c3a20646561646c696e60008201527f652068617320616c726561647920706173740000000000000000000000000000602082015250565b600061174e60328361143a565b9150611759826116f2565b604082019050919050565b6000602082019050818103600083015261177d81611741565b9050919050565b600061178f826111a7565b91507fffffffffffffffffffffffffffffffffffffffffffffffffffffffffffffffff8214156117c2576117c16114dd565b5b600182019050919050565b7f63616c6c6572206d757374206265206a75727920706f6f6c206d656d62657200600082015250565b6000611803601f8361143a565b915061180e826117cd565b602082019050919050565b60006020820190508181036000830152611832816117f6565b9050919050565b7f4a7572792e617070726f76654469737075746550726f706f73616c3a20616c7260008201527f6561647920617070726f76656400000000000000000000000000000000000000602082015250565b6000611895602d8361143a565b91506118a082611839565b604082019050919050565b600060208201905081810360008301526118c481611888565b9050919050565b7f4a7572792e617070726f7665644469737075746550726f706f73616c3a20707260008201527f6f706f7365722063616e206e6f7420617070726f766520646973707574650000602082015250565b6000611927603e8361143a565b9150611932826118cb565b604082019050919050565b600060208201905081810360008301526119568161191a565b9050919050565b7f4a7572792e617070726f76654469737075746550726f706f73616c3a2064656160008201527f646c696e65206861732070617374000000000000000000000000000000000000602082015250565b60006119b9602e8361143a565b91506119c48261195d565b604082019050919050565b600060208201905081810360008301526119e8816119ac565b9050919050565b6000819050919050565b611a0a611a05826111a7565b6119ef565b82525050565b6000611a1c82866119f9565b602082019150611a2c82856119f9565b602082019150611a3c82846119f9565b602082019150819050949350505050565b7f4e487b7100000000000000000000000000000000000000000000000000000000600052603260045260246000fd5b600060ff82169050919050565b6000611a9482611a7c565b915060ff821415611aa857611aa76114dd565b5b600182019050919050565b7f4e487b7100000000000000000000000000000000000000000000000000000000600052601260045260246000fd5b6000611aed826111a7565b9150611af8836111a7565b925082611b0857611b07611ab3565b5b828204905092915050565b6000611b1f82856119f9565b602082019150611b2f82846119f9565b6020820191508190509392505050565b6000611b4a826111a7565b9150611b55836111a7565b925082611b6557611b64611ab3565b5b828206905092915050565b600081549050919050565b600081905092915050565b60008190508160005260206000209050919050565b611ba4816111a7565b82525050565b6000611bb68383611b9b565b60208301905092915050565b60008160001c9050919050565b6000819050919050565b6000611bec611be783611bc2565b611bcf565b9050919050565b6000611bff8254611bd9565b9050919050565b6000600182019050919050565b6000611c1e82611b70565b611c288185611b7b565b9350611c3383611b86565b8060005b83811015611c6b57611c4882611bf3565b611c528882611baa565b9750611c5d83611c06565b925050600181019050611c37565b5085935050505092915050565b6000611c848284611c13565b915081905092915050565b6000604082019050611ca4600083018561121d565b611cb1602083018461121d565b939250505056fea2646970667358221220498a9763b9294087d32d56d4aec0954115c50639d9d44164d0ecbc1fe43fc16c64736f6c63430008090033",
          "opcodes": "PUSH1 0x80 PUSH1 0x40 MSTORE CALLVALUE DUP1 ISZERO PUSH3 0x11 JUMPI PUSH1 0x0 DUP1 REVERT JUMPDEST POP PUSH1 0x40 MLOAD PUSH3 0x2C1A CODESIZE SUB DUP1 PUSH3 0x2C1A DUP4 CODECOPY DUP2 DUP2 ADD PUSH1 0x40 MSTORE DUP2 ADD SWAP1 PUSH3 0x37 SWAP2 SWAP1 PUSH3 0x82D JUMP JUMPDEST PUSH1 0x0 DUP1 PUSH1 0x0 PUSH2 0x100 EXP DUP2 SLOAD DUP2 PUSH1 0xFF MUL NOT AND SWAP1 DUP4 ISZERO ISZERO MUL OR SWAP1 SSTORE POP PUSH1 0x1 DUP2 PUSH1 0xFF AND GT PUSH3 0x9A JUMPI PUSH1 0x40 MLOAD PUSH32 0x8C379A000000000000000000000000000000000000000000000000000000000 DUP2 MSTORE PUSH1 0x4 ADD PUSH3 0x91 SWAP1 PUSH3 0x92F JUMP JUMPDEST PUSH1 0x40 MLOAD DUP1 SWAP2 SUB SWAP1 REVERT JUMPDEST PUSH1 0x0 PUSH1 0x2 DUP3 PUSH3 0xAB SWAP2 SWAP1 PUSH3 0x980 JUMP JUMPDEST PUSH1 0xFF AND GT PUSH3 0xF1 JUMPI PUSH1 0x40 MLOAD PUSH32 0x8C379A000000000000000000000000000000000000000000000000000000000 DUP2 MSTORE PUSH1 0x4 ADD PUSH3 0xE8 SWAP1 PUSH3 0xA2E JUMP JUMPDEST PUSH1 0x40 MLOAD DUP1 SWAP2 SUB SWAP1 REVERT JUMPDEST PUSH1 0x2 DUP2 PUSH3 0x100 SWAP2 SWAP1 PUSH3 0xA7F JUMP JUMPDEST PUSH1 0xFF AND DUP4 MLOAD LT ISZERO PUSH3 0x149 JUMPI PUSH1 0x40 MLOAD PUSH32 0x8C379A000000000000000000000000000000000000000000000000000000000 DUP2 MSTORE PUSH1 0x4 ADD PUSH3 0x140 SWAP1 PUSH3 0xB37 JUMP JUMPDEST PUSH1 0x40 MLOAD DUP1 SWAP2 SUB SWAP1 REVERT JUMPDEST PUSH1 0x0 JUMPDEST DUP4 MLOAD DUP2 LT ISZERO PUSH3 0x329 JUMPI PUSH1 0x0 PUSH1 0xA PUSH1 0x0 DUP7 DUP5 DUP2 MLOAD DUP2 LT PUSH3 0x172 JUMPI PUSH3 0x171 PUSH3 0xB59 JUMP JUMPDEST JUMPDEST PUSH1 0x20 MUL PUSH1 0x20 ADD ADD MLOAD PUSH20 0xFFFFFFFFFFFFFFFFFFFFFFFFFFFFFFFFFFFFFFFF AND PUSH20 0xFFFFFFFFFFFFFFFFFFFFFFFFFFFFFFFFFFFFFFFF AND DUP2 MSTORE PUSH1 0x20 ADD SWAP1 DUP2 MSTORE PUSH1 0x20 ADD PUSH1 0x0 KECCAK256 SLOAD EQ PUSH3 0x1F8 JUMPI PUSH1 0x40 MLOAD PUSH32 0x8C379A000000000000000000000000000000000000000000000000000000000 DUP2 MSTORE PUSH1 0x4 ADD PUSH3 0x1EF SWAP1 PUSH3 0xBFE JUMP JUMPDEST PUSH1 0x40 MLOAD DUP1 SWAP2 SUB SWAP1 REVERT JUMPDEST PUSH1 0x1 DUP2 PUSH3 0x207 SWAP2 SWAP1 PUSH3 0xC2A JUMP JUMPDEST PUSH1 0xA PUSH1 0x0 DUP7 DUP5 DUP2 MLOAD DUP2 LT PUSH3 0x221 JUMPI PUSH3 0x220 PUSH3 0xB59 JUMP JUMPDEST JUMPDEST PUSH1 0x20 MUL PUSH1 0x20 ADD ADD MLOAD PUSH20 0xFFFFFFFFFFFFFFFFFFFFFFFFFFFFFFFFFFFFFFFF AND PUSH20 0xFFFFFFFFFFFFFFFFFFFFFFFFFFFFFFFFFFFFFFFF AND DUP2 MSTORE PUSH1 0x20 ADD SWAP1 DUP2 MSTORE PUSH1 0x20 ADD PUSH1 0x0 KECCAK256 DUP2 SWAP1 SSTORE POP PUSH1 0x1 PUSH1 0x9 PUSH1 0x0 PUSH1 0x1 DUP5 PUSH3 0x27C SWAP2 SWAP1 PUSH3 0xC2A JUMP JUMPDEST DUP2 MSTORE PUSH1 0x20 ADD SWAP1 DUP2 MSTORE PUSH1 0x20 ADD PUSH1 0x0 KECCAK256 PUSH1 0x0 ADD PUSH1 0x0 PUSH2 0x100 EXP DUP2 SLOAD DUP2 PUSH1 0xFF MUL NOT AND SWAP1 DUP4 ISZERO ISZERO MUL OR SWAP1 SSTORE POP PUSH1 0x1 DUP2 PUSH3 0x2B3 SWAP2 SWAP1 PUSH3 0xC2A JUMP JUMPDEST DUP5 DUP3 DUP2 MLOAD DUP2 LT PUSH3 0x2C9 JUMPI PUSH3 0x2C8 PUSH3 0xB59 JUMP JUMPDEST JUMPDEST PUSH1 0x20 MUL PUSH1 0x20 ADD ADD MLOAD PUSH20 0xFFFFFFFFFFFFFFFFFFFFFFFFFFFFFFFFFFFFFFFF AND PUSH32 0x6CF89F4A284D6BCBBBA4E04A53E34C6A8EA0C335352B68732736FDAFCE388DC7 PUSH1 0x40 MLOAD PUSH1 0x40 MLOAD DUP1 SWAP2 SUB SWAP1 LOG3 DUP1 DUP1 PUSH3 0x320 SWAP1 PUSH3 0xC87 JUMP JUMPDEST SWAP2 POP POP PUSH3 0x14C JUMP JUMPDEST POP PUSH1 0x1 PUSH1 0x4 DUP2 SWAP1 SSTORE POP DUP3 MLOAD PUSH1 0x3 DUP2 SWAP1 SSTORE POP DUP1 PUSH1 0xFF AND PUSH1 0x2 DUP2 SWAP1 SSTORE POP DUP2 PUSH12 0xFFFFFFFFFFFFFFFFFFFFFFFF AND PUSH1 0x1 DUP2 SWAP1 SSTORE POP PUSH3 0x39A TIMESTAMP DIFFICULTY PUSH1 0x1 PUSH1 0x40 MLOAD PUSH1 0x20 ADD PUSH3 0x375 SWAP4 SWAP3 SWAP2 SWAP1 PUSH3 0xCFA JUMP JUMPDEST PUSH1 0x40 MLOAD PUSH1 0x20 DUP2 DUP4 SUB SUB DUP2 MSTORE SWAP1 PUSH1 0x40 MSTORE DUP1 MLOAD SWAP1 PUSH1 0x20 ADD KECCAK256 PUSH1 0x0 SHR PUSH3 0x3A3 PUSH1 0x20 SHL PUSH1 0x20 SHR JUMP JUMPDEST POP POP POP PUSH3 0xF1C JUMP JUMPDEST PUSH1 0x0 DUP1 PUSH1 0x3 SLOAD SWAP1 POP PUSH1 0x0 PUSH1 0x4 SLOAD SWAP1 POP PUSH1 0x0 JUMPDEST PUSH1 0x2 SLOAD DUP2 LT ISZERO PUSH3 0x51F JUMPI PUSH1 0x0 PUSH1 0x1 DUP5 DUP8 DUP8 PUSH1 0x40 MLOAD PUSH1 0x20 ADD PUSH3 0x3DA SWAP3 SWAP2 SWAP1 PUSH3 0xD3D JUMP JUMPDEST PUSH1 0x40 MLOAD PUSH1 0x20 DUP2 DUP4 SUB SUB DUP2 MSTORE SWAP1 PUSH1 0x40 MSTORE DUP1 MLOAD SWAP1 PUSH1 0x20 ADD KECCAK256 PUSH1 0x0 SHR PUSH3 0x3FF SWAP2 SWAP1 PUSH3 0xD6D JUMP JUMPDEST PUSH3 0x40B SWAP2 SWAP1 PUSH3 0xC2A JUMP JUMPDEST SWAP1 POP PUSH1 0x0 PUSH1 0x9 PUSH1 0x0 DUP4 DUP2 MSTORE PUSH1 0x20 ADD SWAP1 DUP2 MSTORE PUSH1 0x20 ADD PUSH1 0x0 KECCAK256 PUSH1 0x40 MLOAD DUP1 PUSH1 0x80 ADD PUSH1 0x40 MSTORE SWAP1 DUP2 PUSH1 0x0 DUP3 ADD PUSH1 0x0 SWAP1 SLOAD SWAP1 PUSH2 0x100 EXP SWAP1 DIV PUSH1 0xFF AND ISZERO ISZERO ISZERO ISZERO DUP2 MSTORE PUSH1 0x20 ADD PUSH1 0x1 DUP3 ADD SLOAD DUP2 MSTORE PUSH1 0x20 ADD PUSH1 0x2 DUP3 ADD SLOAD DUP2 MSTORE PUSH1 0x20 ADD PUSH1 0x3 DUP3 ADD SLOAD DUP2 MSTORE POP POP SWAP1 POP DUP1 PUSH1 0x0 ADD MLOAD DUP1 ISZERO PUSH3 0x49B JUMPI POP PUSH1 0x0 DUP2 PUSH1 0x20 ADD MLOAD EQ DUP1 PUSH3 0x49A JUMPI POP DUP4 PUSH1 0x1 DUP3 PUSH1 0x20 ADD MLOAD PUSH3 0x498 SWAP2 SWAP1 PUSH3 0xC2A JUMP JUMPDEST LT JUMPDEST JUMPDEST ISZERO PUSH3 0x507 JUMPI DUP4 PUSH1 0x9 PUSH1 0x0 DUP5 DUP2 MSTORE PUSH1 0x20 ADD SWAP1 DUP2 MSTORE PUSH1 0x20 ADD PUSH1 0x0 KECCAK256 PUSH1 0x1 ADD DUP2 SWAP1 SSTORE POP PUSH1 0xB PUSH1 0x0 DUP6 DUP2 MSTORE PUSH1 0x20 ADD SWAP1 DUP2 MSTORE PUSH1 0x20 ADD PUSH1 0x0 KECCAK256 DUP3 SWAP1 DUP1 PUSH1 0x1 DUP2 SLOAD ADD DUP1 DUP3 SSTORE DUP1 SWAP2 POP POP PUSH1 0x1 SWAP1 SUB SWAP1 PUSH1 0x0 MSTORE PUSH1 0x20 PUSH1 0x0 KECCAK256 ADD PUSH1 0x0 SWAP1 SWAP2 SWAP1 SWAP2 SWAP1 SWAP2 POP SSTORE DUP3 DUP1 PUSH3 0x503 SWAP1 PUSH3 0xC87 JUMP JUMPDEST SWAP4 POP POP JUMPDEST DUP6 DUP1 PUSH3 0x514 SWAP1 PUSH3 0xC87 JUMP JUMPDEST SWAP7 POP POP POP POP PUSH3 0x3B5 JUMP JUMPDEST POP PUSH1 0x0 PUSH1 0x1 SLOAD TIMESTAMP PUSH3 0x532 SWAP2 SWAP1 PUSH3 0xC2A JUMP JUMPDEST SWAP1 POP DUP1 PUSH1 0xC PUSH1 0x0 DUP5 DUP2 MSTORE PUSH1 0x20 ADD SWAP1 DUP2 MSTORE PUSH1 0x20 ADD PUSH1 0x0 KECCAK256 DUP2 SWAP1 SSTORE POP PUSH1 0xB PUSH1 0x0 DUP4 DUP2 MSTORE PUSH1 0x20 ADD SWAP1 DUP2 MSTORE PUSH1 0x20 ADD PUSH1 0x0 KECCAK256 PUSH1 0x40 MLOAD PUSH3 0x56E SWAP2 SWAP1 PUSH3 0xEC5 JUMP JUMPDEST PUSH1 0x40 MLOAD DUP1 SWAP2 SUB SWAP1 KECCAK256 PUSH32 0xB3C30FE9CD13F86C80318BEF190E0071E5FECF6D2465F4EBBE0F923899AF700C DUP4 DUP4 PUSH1 0x40 MLOAD PUSH3 0x5A9 SWAP3 SWAP2 SWAP1 PUSH3 0xEEF JUMP JUMPDEST PUSH1 0x40 MLOAD DUP1 SWAP2 SUB SWAP1 LOG2 POP POP POP POP POP JUMP JUMPDEST PUSH1 0x0 PUSH1 0x40 MLOAD SWAP1 POP SWAP1 JUMP JUMPDEST PUSH1 0x0 DUP1 REVERT JUMPDEST PUSH1 0x0 DUP1 REVERT JUMPDEST PUSH1 0x0 DUP1 REVERT JUMPDEST PUSH1 0x0 PUSH1 0x1F NOT PUSH1 0x1F DUP4 ADD AND SWAP1 POP SWAP2 SWAP1 POP JUMP JUMPDEST PUSH32 0x4E487B7100000000000000000000000000000000000000000000000000000000 PUSH1 0x0 MSTORE PUSH1 0x41 PUSH1 0x4 MSTORE PUSH1 0x24 PUSH1 0x0 REVERT JUMPDEST PUSH3 0x61C DUP3 PUSH3 0x5D1 JUMP JUMPDEST DUP2 ADD DUP2 DUP2 LT PUSH8 0xFFFFFFFFFFFFFFFF DUP3 GT OR ISZERO PUSH3 0x63E JUMPI PUSH3 0x63D PUSH3 0x5E2 JUMP JUMPDEST JUMPDEST DUP1 PUSH1 0x40 MSTORE POP POP POP JUMP JUMPDEST PUSH1 0x0 PUSH3 0x653 PUSH3 0x5B8 JUMP JUMPDEST SWAP1 POP PUSH3 0x661 DUP3 DUP3 PUSH3 0x611 JUMP JUMPDEST SWAP2 SWAP1 POP JUMP JUMPDEST PUSH1 0x0 PUSH8 0xFFFFFFFFFFFFFFFF DUP3 GT ISZERO PUSH3 0x684 JUMPI PUSH3 0x683 PUSH3 0x5E2 JUMP JUMPDEST JUMPDEST PUSH1 0x20 DUP3 MUL SWAP1 POP PUSH1 0x20 DUP2 ADD SWAP1 POP SWAP2 SWAP1 POP JUMP JUMPDEST PUSH1 0x0 DUP1 REVERT JUMPDEST PUSH1 0x0 PUSH20 0xFFFFFFFFFFFFFFFFFFFFFFFFFFFFFFFFFFFFFFFF DUP3 AND SWAP1 POP SWAP2 SWAP1 POP JUMP JUMPDEST PUSH1 0x0 PUSH3 0x6C7 DUP3 PUSH3 0x69A JUMP JUMPDEST SWAP1 POP SWAP2 SWAP1 POP JUMP JUMPDEST PUSH3 0x6D9 DUP2 PUSH3 0x6BA JUMP JUMPDEST DUP2 EQ PUSH3 0x6E5 JUMPI PUSH1 0x0 DUP1 REVERT JUMPDEST POP JUMP JUMPDEST PUSH1 0x0 DUP2 MLOAD SWAP1 POP PUSH3 0x6F9 DUP2 PUSH3 0x6CE JUMP JUMPDEST SWAP3 SWAP2 POP POP JUMP JUMPDEST PUSH1 0x0 PUSH3 0x716 PUSH3 0x710 DUP5 PUSH3 0x666 JUMP JUMPDEST PUSH3 0x647 JUMP JUMPDEST SWAP1 POP DUP1 DUP4 DUP3 MSTORE PUSH1 0x20 DUP3 ADD SWAP1 POP PUSH1 0x20 DUP5 MUL DUP4 ADD DUP6 DUP2 GT ISZERO PUSH3 0x73C JUMPI PUSH3 0x73B PUSH3 0x695 JUMP JUMPDEST JUMPDEST DUP4 JUMPDEST DUP2 DUP2 LT ISZERO PUSH3 0x769 JUMPI DUP1 PUSH3 0x754 DUP9 DUP3 PUSH3 0x6E8 JUMP JUMPDEST DUP5 MSTORE PUSH1 0x20 DUP5 ADD SWAP4 POP POP PUSH1 0x20 DUP2 ADD SWAP1 POP PUSH3 0x73E JUMP JUMPDEST POP POP POP SWAP4 SWAP3 POP POP POP JUMP JUMPDEST PUSH1 0x0 DUP3 PUSH1 0x1F DUP4 ADD SLT PUSH3 0x78B JUMPI PUSH3 0x78A PUSH3 0x5CC JUMP JUMPDEST JUMPDEST DUP2 MLOAD PUSH3 0x79D DUP5 DUP3 PUSH1 0x20 DUP7 ADD PUSH3 0x6FF JUMP JUMPDEST SWAP2 POP POP SWAP3 SWAP2 POP POP JUMP JUMPDEST PUSH1 0x0 PUSH12 0xFFFFFFFFFFFFFFFFFFFFFFFF DUP3 AND SWAP1 POP SWAP2 SWAP1 POP JUMP JUMPDEST PUSH3 0x7C9 DUP2 PUSH3 0x7A6 JUMP JUMPDEST DUP2 EQ PUSH3 0x7D5 JUMPI PUSH1 0x0 DUP1 REVERT JUMPDEST POP JUMP JUMPDEST PUSH1 0x0 DUP2 MLOAD SWAP1 POP PUSH3 0x7E9 DUP2 PUSH3 0x7BE JUMP JUMPDEST SWAP3 SWAP2 POP POP JUMP JUMPDEST PUSH1 0x0 PUSH1 0xFF DUP3 AND SWAP1 POP SWAP2 SWAP1 POP JUMP JUMPDEST PUSH3 0x807 DUP2 PUSH3 0x7EF JUMP JUMPDEST DUP2 EQ PUSH3 0x813 JUMPI PUSH1 0x0 DUP1 REVERT JUMPDEST POP JUMP JUMPDEST PUSH1 0x0 DUP2 MLOAD SWAP1 POP PUSH3 0x827 DUP2 PUSH3 0x7FC JUMP JUMPDEST SWAP3 SWAP2 POP POP JUMP JUMPDEST PUSH1 0x0 DUP1 PUSH1 0x0 PUSH1 0x60 DUP5 DUP7 SUB SLT ISZERO PUSH3 0x849 JUMPI PUSH3 0x848 PUSH3 0x5C2 JUMP JUMPDEST JUMPDEST PUSH1 0x0 DUP5 ADD MLOAD PUSH8 0xFFFFFFFFFFFFFFFF DUP2 GT ISZERO PUSH3 0x86A JUMPI PUSH3 0x869 PUSH3 0x5C7 JUMP JUMPDEST JUMPDEST PUSH3 0x878 DUP7 DUP3 DUP8 ADD PUSH3 0x773 JUMP JUMPDEST SWAP4 POP POP PUSH1 0x20 PUSH3 0x88B DUP7 DUP3 DUP8 ADD PUSH3 0x7D8 JUMP JUMPDEST SWAP3 POP POP PUSH1 0x40 PUSH3 0x89E DUP7 DUP3 DUP8 ADD PUSH3 0x816 JUMP JUMPDEST SWAP2 POP POP SWAP3 POP SWAP3 POP SWAP3 JUMP JUMPDEST PUSH1 0x0 DUP3 DUP3 MSTORE PUSH1 0x20 DUP3 ADD SWAP1 POP SWAP3 SWAP2 POP POP JUMP JUMPDEST PUSH32 0x4A7572792E636F6E7374727563746F723A206A7572792073697A65206174206C PUSH1 0x0 DUP3 ADD MSTORE PUSH32 0x6561737420330000000000000000000000000000000000000000000000000000 PUSH1 0x20 DUP3 ADD MSTORE POP JUMP JUMPDEST PUSH1 0x0 PUSH3 0x917 PUSH1 0x26 DUP4 PUSH3 0x8A8 JUMP JUMPDEST SWAP2 POP PUSH3 0x924 DUP3 PUSH3 0x8B9 JUMP JUMPDEST PUSH1 0x40 DUP3 ADD SWAP1 POP SWAP2 SWAP1 POP JUMP JUMPDEST PUSH1 0x0 PUSH1 0x20 DUP3 ADD SWAP1 POP DUP2 DUP2 SUB PUSH1 0x0 DUP4 ADD MSTORE PUSH3 0x94A DUP2 PUSH3 0x908 JUMP JUMPDEST SWAP1 POP SWAP2 SWAP1 POP JUMP JUMPDEST PUSH32 0x4E487B7100000000000000000000000000000000000000000000000000000000 PUSH1 0x0 MSTORE PUSH1 0x12 PUSH1 0x4 MSTORE PUSH1 0x24 PUSH1 0x0 REVERT JUMPDEST PUSH1 0x0 PUSH3 0x98D DUP3 PUSH3 0x7EF JUMP JUMPDEST SWAP2 POP PUSH3 0x99A DUP4 PUSH3 0x7EF JUMP JUMPDEST SWAP3 POP DUP3 PUSH3 0x9AD JUMPI PUSH3 0x9AC PUSH3 0x951 JUMP JUMPDEST JUMPDEST DUP3 DUP3 MOD SWAP1 POP SWAP3 SWAP2 POP POP JUMP JUMPDEST PUSH32 0x4A7572792E636F6E7374727563746F723A206A7572792073697A65206D757374 PUSH1 0x0 DUP3 ADD MSTORE PUSH32 0x206265206F646400000000000000000000000000000000000000000000000000 PUSH1 0x20 DUP3 ADD MSTORE POP JUMP JUMPDEST PUSH1 0x0 PUSH3 0xA16 PUSH1 0x27 DUP4 PUSH3 0x8A8 JUMP JUMPDEST SWAP2 POP PUSH3 0xA23 DUP3 PUSH3 0x9B8 JUMP JUMPDEST PUSH1 0x40 DUP3 ADD SWAP1 POP SWAP2 SWAP1 POP JUMP JUMPDEST PUSH1 0x0 PUSH1 0x20 DUP3 ADD SWAP1 POP DUP2 DUP2 SUB PUSH1 0x0 DUP4 ADD MSTORE PUSH3 0xA49 DUP2 PUSH3 0xA07 JUMP JUMPDEST SWAP1 POP SWAP2 SWAP1 POP JUMP JUMPDEST PUSH32 0x4E487B7100000000000000000000000000000000000000000000000000000000 PUSH1 0x0 MSTORE PUSH1 0x11 PUSH1 0x4 MSTORE PUSH1 0x24 PUSH1 0x0 REVERT JUMPDEST PUSH1 0x0 PUSH3 0xA8C DUP3 PUSH3 0x7EF JUMP JUMPDEST SWAP2 POP PUSH3 0xA99 DUP4 PUSH3 0x7EF JUMP JUMPDEST SWAP3 POP DUP2 PUSH1 0xFF DIV DUP4 GT DUP3 ISZERO ISZERO AND ISZERO PUSH3 0xAB6 JUMPI PUSH3 0xAB5 PUSH3 0xA50 JUMP JUMPDEST JUMPDEST DUP3 DUP3 MUL SWAP1 POP SWAP3 SWAP2 POP POP JUMP JUMPDEST PUSH32 0x4A7572792E636F6E7374727563746F723A206E6F7420656E6F756768206A7572 PUSH1 0x0 DUP3 ADD MSTORE PUSH32 0x79206D656D626572730000000000000000000000000000000000000000000000 PUSH1 0x20 DUP3 ADD MSTORE POP JUMP JUMPDEST PUSH1 0x0 PUSH3 0xB1F PUSH1 0x29 DUP4 PUSH3 0x8A8 JUMP JUMPDEST SWAP2 POP PUSH3 0xB2C DUP3 PUSH3 0xAC1 JUMP JUMPDEST PUSH1 0x40 DUP3 ADD SWAP1 POP SWAP2 SWAP1 POP JUMP JUMPDEST PUSH1 0x0 PUSH1 0x20 DUP3 ADD SWAP1 POP DUP2 DUP2 SUB PUSH1 0x0 DUP4 ADD MSTORE PUSH3 0xB52 DUP2 PUSH3 0xB10 JUMP JUMPDEST SWAP1 POP SWAP2 SWAP1 POP JUMP JUMPDEST PUSH32 0x4E487B7100000000000000000000000000000000000000000000000000000000 PUSH1 0x0 MSTORE PUSH1 0x32 PUSH1 0x4 MSTORE PUSH1 0x24 PUSH1 0x0 REVERT JUMPDEST PUSH32 0x4A7572792E636F6E7374727563746F723A206475706C6963617465204A757279 PUSH1 0x0 DUP3 ADD MSTORE PUSH32 0x206D656D62657200000000000000000000000000000000000000000000000000 PUSH1 0x20 DUP3 ADD MSTORE POP JUMP JUMPDEST PUSH1 0x0 PUSH3 0xBE6 PUSH1 0x27 DUP4 PUSH3 0x8A8 JUMP JUMPDEST SWAP2 POP PUSH3 0xBF3 DUP3 PUSH3 0xB88 JUMP JUMPDEST PUSH1 0x40 DUP3 ADD SWAP1 POP SWAP2 SWAP1 POP JUMP JUMPDEST PUSH1 0x0 PUSH1 0x20 DUP3 ADD SWAP1 POP DUP2 DUP2 SUB PUSH1 0x0 DUP4 ADD MSTORE PUSH3 0xC19 DUP2 PUSH3 0xBD7 JUMP JUMPDEST SWAP1 POP SWAP2 SWAP1 POP JUMP JUMPDEST PUSH1 0x0 DUP2 SWAP1 POP SWAP2 SWAP1 POP JUMP JUMPDEST PUSH1 0x0 PUSH3 0xC37 DUP3 PUSH3 0xC20 JUMP JUMPDEST SWAP2 POP PUSH3 0xC44 DUP4 PUSH3 0xC20 JUMP JUMPDEST SWAP3 POP DUP3 PUSH32 0xFFFFFFFFFFFFFFFFFFFFFFFFFFFFFFFFFFFFFFFFFFFFFFFFFFFFFFFFFFFFFFFF SUB DUP3 GT ISZERO PUSH3 0xC7C JUMPI PUSH3 0xC7B PUSH3 0xA50 JUMP JUMPDEST JUMPDEST DUP3 DUP3 ADD SWAP1 POP SWAP3 SWAP2 POP POP JUMP JUMPDEST PUSH1 0x0 PUSH3 0xC94 DUP3 PUSH3 0xC20 JUMP JUMPDEST SWAP2 POP PUSH32 0xFFFFFFFFFFFFFFFFFFFFFFFFFFFFFFFFFFFFFFFFFFFFFFFFFFFFFFFFFFFFFFFF DUP3 EQ ISZERO PUSH3 0xCCA JUMPI PUSH3 0xCC9 PUSH3 0xA50 JUMP JUMPDEST JUMPDEST PUSH1 0x1 DUP3 ADD SWAP1 POP SWAP2 SWAP1 POP JUMP JUMPDEST PUSH1 0x0 DUP2 SWAP1 POP SWAP2 SWAP1 POP JUMP JUMPDEST PUSH3 0xCF4 PUSH3 0xCEE DUP3 PUSH3 0xC20 JUMP JUMPDEST PUSH3 0xCD5 JUMP JUMPDEST DUP3 MSTORE POP POP JUMP JUMPDEST PUSH1 0x0 PUSH3 0xD08 DUP3 DUP7 PUSH3 0xCDF JUMP JUMPDEST PUSH1 0x20 DUP3 ADD SWAP2 POP PUSH3 0xD1A DUP3 DUP6 PUSH3 0xCDF JUMP JUMPDEST PUSH1 0x20 DUP3 ADD SWAP2 POP PUSH3 0xD2C DUP3 DUP5 PUSH3 0xCDF JUMP JUMPDEST PUSH1 0x20 DUP3 ADD SWAP2 POP DUP2 SWAP1 POP SWAP5 SWAP4 POP POP POP POP JUMP JUMPDEST PUSH1 0x0 PUSH3 0xD4B DUP3 DUP6 PUSH3 0xCDF JUMP JUMPDEST PUSH1 0x20 DUP3 ADD SWAP2 POP PUSH3 0xD5D DUP3 DUP5 PUSH3 0xCDF JUMP JUMPDEST PUSH1 0x20 DUP3 ADD SWAP2 POP DUP2 SWAP1 POP SWAP4 SWAP3 POP POP POP JUMP JUMPDEST PUSH1 0x0 PUSH3 0xD7A DUP3 PUSH3 0xC20 JUMP JUMPDEST SWAP2 POP PUSH3 0xD87 DUP4 PUSH3 0xC20 JUMP JUMPDEST SWAP3 POP DUP3 PUSH3 0xD9A JUMPI PUSH3 0xD99 PUSH3 0x951 JUMP JUMPDEST JUMPDEST DUP3 DUP3 MOD SWAP1 POP SWAP3 SWAP2 POP POP JUMP JUMPDEST PUSH1 0x0 DUP2 SLOAD SWAP1 POP SWAP2 SWAP1 POP JUMP JUMPDEST PUSH1 0x0 DUP2 SWAP1 POP SWAP3 SWAP2 POP POP JUMP JUMPDEST PUSH1 0x0 DUP2 SWAP1 POP DUP2 PUSH1 0x0 MSTORE PUSH1 0x20 PUSH1 0x0 KECCAK256 SWAP1 POP SWAP2 SWAP1 POP JUMP JUMPDEST PUSH3 0xDDB DUP2 PUSH3 0xC20 JUMP JUMPDEST DUP3 MSTORE POP POP JUMP JUMPDEST PUSH1 0x0 PUSH3 0xDEF DUP4 DUP4 PUSH3 0xDD0 JUMP JUMPDEST PUSH1 0x20 DUP4 ADD SWAP1 POP SWAP3 SWAP2 POP POP JUMP JUMPDEST PUSH1 0x0 DUP2 PUSH1 0x0 SHR SWAP1 POP SWAP2 SWAP1 POP JUMP JUMPDEST PUSH1 0x0 DUP2 SWAP1 POP SWAP2 SWAP1 POP JUMP JUMPDEST PUSH1 0x0 PUSH3 0xE29 PUSH3 0xE23 DUP4 PUSH3 0xDFB JUMP JUMPDEST PUSH3 0xE08 JUMP JUMPDEST SWAP1 POP SWAP2 SWAP1 POP JUMP JUMPDEST PUSH1 0x0 PUSH3 0xE3E DUP3 SLOAD PUSH3 0xE12 JUMP JUMPDEST SWAP1 POP SWAP2 SWAP1 POP JUMP JUMPDEST PUSH1 0x0 PUSH1 0x1 DUP3 ADD SWAP1 POP SWAP2 SWAP1 POP JUMP JUMPDEST PUSH1 0x0 PUSH3 0xE5F DUP3 PUSH3 0xDA5 JUMP JUMPDEST PUSH3 0xE6B DUP2 DUP6 PUSH3 0xDB0 JUMP JUMPDEST SWAP4 POP PUSH3 0xE78 DUP4 PUSH3 0xDBB JUMP JUMPDEST DUP1 PUSH1 0x0 JUMPDEST DUP4 DUP2 LT ISZERO PUSH3 0xEB8 JUMPI PUSH3 0xE90 DUP3 PUSH3 0xE30 JUMP JUMPDEST PUSH3 0xE9C DUP9 DUP3 PUSH3 0xDE1 JUMP JUMPDEST SWAP8 POP PUSH3 0xEA9 DUP4 PUSH3 0xE45 JUMP JUMPDEST SWAP3 POP POP PUSH1 0x1 DUP2 ADD SWAP1 POP PUSH3 0xE7C JUMP JUMPDEST POP DUP6 SWAP4 POP POP POP POP SWAP3 SWAP2 POP POP JUMP JUMPDEST PUSH1 0x0 PUSH3 0xED3 DUP3 DUP5 PUSH3 0xE52 JUMP JUMPDEST SWAP2 POP DUP2 SWAP1 POP SWAP3 SWAP2 POP POP JUMP JUMPDEST PUSH3 0xEE9 DUP2 PUSH3 0xC20 JUMP JUMPDEST DUP3 MSTORE POP POP JUMP JUMPDEST PUSH1 0x0 PUSH1 0x40 DUP3 ADD SWAP1 POP PUSH3 0xF06 PUSH1 0x0 DUP4 ADD DUP6 PUSH3 0xEDE JUMP JUMPDEST PUSH3 0xF15 PUSH1 0x20 DUP4 ADD DUP5 PUSH3 0xEDE JUMP JUMPDEST SWAP4 SWAP3 POP POP POP JUMP JUMPDEST PUSH2 0x1CEE DUP1 PUSH3 0xF2C PUSH1 0x0 CODECOPY PUSH1 0x0 RETURN INVALID PUSH1 0x80 PUSH1 0x40 MSTORE CALLVALUE DUP1 ISZERO PUSH2 0x10 JUMPI PUSH1 0x0 DUP1 REVERT JUMPDEST POP PUSH1 0x4 CALLDATASIZE LT PUSH2 0x9E JUMPI PUSH1 0x0 CALLDATALOAD PUSH1 0xE0 SHR DUP1 PUSH4 0xA94C8F3D GT PUSH2 0x66 JUMPI DUP1 PUSH4 0xA94C8F3D EQ PUSH2 0x170 JUMPI DUP1 PUSH4 0xC9D27AFE EQ PUSH2 0x1A3 JUMPI DUP1 PUSH4 0xCCD0429D EQ PUSH2 0x1BF JUMPI DUP1 PUSH4 0xD652EF1A EQ PUSH2 0x1DB JUMPI DUP1 PUSH4 0xE922DE50 EQ PUSH2 0x20B JUMPI PUSH2 0x9E JUMP JUMPDEST DUP1 PUSH4 0x1144F44 EQ PUSH2 0xA3 JUMPI DUP1 PUSH4 0x564A565D EQ PUSH2 0xD3 JUMPI DUP1 PUSH4 0x5C975ABB EQ PUSH2 0x106 JUMPI DUP1 PUSH4 0x64CA6B14 EQ PUSH2 0x124 JUMPI DUP1 PUSH4 0xA414ABB4 EQ PUSH2 0x140 JUMPI JUMPDEST PUSH1 0x0 DUP1 REVERT JUMPDEST PUSH2 0xBD PUSH1 0x4 DUP1 CALLDATASIZE SUB DUP2 ADD SWAP1 PUSH2 0xB8 SWAP2 SWAP1 PUSH2 0x11DD JUMP JUMPDEST PUSH2 0x227 JUMP JUMPDEST PUSH1 0x40 MLOAD PUSH2 0xCA SWAP2 SWAP1 PUSH2 0x122C JUMP JUMPDEST PUSH1 0x40 MLOAD DUP1 SWAP2 SUB SWAP1 RETURN JUMPDEST PUSH2 0xED PUSH1 0x4 DUP1 CALLDATASIZE SUB DUP2 ADD SWAP1 PUSH2 0xE8 SWAP2 SWAP1 PUSH2 0x1247 JUMP JUMPDEST PUSH2 0x258 JUMP JUMPDEST PUSH1 0x40 MLOAD PUSH2 0xFD SWAP5 SWAP4 SWAP3 SWAP2 SWAP1 PUSH2 0x128F JUMP JUMPDEST PUSH1 0x40 MLOAD DUP1 SWAP2 SUB SWAP1 RETURN JUMPDEST PUSH2 0x10E PUSH2 0x2A2 JUMP JUMPDEST PUSH1 0x40 MLOAD PUSH2 0x11B SWAP2 SWAP1 PUSH2 0x12D4 JUMP JUMPDEST PUSH1 0x40 MLOAD DUP1 SWAP2 SUB SWAP1 RETURN JUMPDEST PUSH2 0x13E PUSH1 0x4 DUP1 CALLDATASIZE SUB DUP2 ADD SWAP1 PUSH2 0x139 SWAP2 SWAP1 PUSH2 0x1247 JUMP JUMPDEST PUSH2 0x2B8 JUMP JUMPDEST STOP JUMPDEST PUSH2 0x15A PUSH1 0x4 DUP1 CALLDATASIZE SUB DUP2 ADD SWAP1 PUSH2 0x155 SWAP2 SWAP1 PUSH2 0x1247 JUMP JUMPDEST PUSH2 0x38D JUMP JUMPDEST PUSH1 0x40 MLOAD PUSH2 0x167 SWAP2 SWAP1 PUSH2 0x122C JUMP JUMPDEST PUSH1 0x40 MLOAD DUP1 SWAP2 SUB SWAP1 RETURN JUMPDEST PUSH2 0x18A PUSH1 0x4 DUP1 CALLDATASIZE SUB DUP2 ADD SWAP1 PUSH2 0x185 SWAP2 SWAP1 PUSH2 0x1247 JUMP JUMPDEST PUSH2 0x3A5 JUMP JUMPDEST PUSH1 0x40 MLOAD PUSH2 0x19A SWAP5 SWAP4 SWAP3 SWAP2 SWAP1 PUSH2 0x1330 JUMP JUMPDEST PUSH1 0x40 MLOAD DUP1 SWAP2 SUB SWAP1 RETURN JUMPDEST PUSH2 0x1BD PUSH1 0x4 DUP1 CALLDATASIZE SUB DUP2 ADD SWAP1 PUSH2 0x1B8 SWAP2 SWAP1 PUSH2 0x13A1 JUMP JUMPDEST PUSH2 0x402 JUMP JUMPDEST STOP JUMPDEST PUSH2 0x1D9 PUSH1 0x4 DUP1 CALLDATASIZE SUB DUP2 ADD SWAP1 PUSH2 0x1D4 SWAP2 SWAP1 PUSH2 0x1247 JUMP JUMPDEST PUSH2 0x622 JUMP JUMPDEST STOP JUMPDEST PUSH2 0x1F5 PUSH1 0x4 DUP1 CALLDATASIZE SUB DUP2 ADD SWAP1 PUSH2 0x1F0 SWAP2 SWAP1 PUSH2 0x140D JUMP JUMPDEST PUSH2 0x7FB JUMP JUMPDEST PUSH1 0x40 MLOAD PUSH2 0x202 SWAP2 SWAP1 PUSH2 0x122C JUMP JUMPDEST PUSH1 0x40 MLOAD DUP1 SWAP2 SUB SWAP1 RETURN JUMPDEST PUSH2 0x225 PUSH1 0x4 DUP1 CALLDATASIZE SUB DUP2 ADD SWAP1 PUSH2 0x220 SWAP2 SWAP1 PUSH2 0x1247 JUMP JUMPDEST PUSH2 0x813 JUMP JUMPDEST STOP JUMPDEST PUSH1 0xB PUSH1 0x20 MSTORE DUP2 PUSH1 0x0 MSTORE PUSH1 0x40 PUSH1 0x0 KECCAK256 DUP2 DUP2 SLOAD DUP2 LT PUSH2 0x243 JUMPI PUSH1 0x0 DUP1 REVERT JUMPDEST SWAP1 PUSH1 0x0 MSTORE PUSH1 0x20 PUSH1 0x0 KECCAK256 ADD PUSH1 0x0 SWAP2 POP SWAP2 POP POP SLOAD DUP2 JUMP JUMPDEST PUSH1 0x7 PUSH1 0x20 MSTORE DUP1 PUSH1 0x0 MSTORE PUSH1 0x40 PUSH1 0x0 KECCAK256 PUSH1 0x0 SWAP2 POP SWAP1 POP DUP1 PUSH1 0x0 ADD SLOAD SWAP1 DUP1 PUSH1 0x1 ADD SLOAD SWAP1 DUP1 PUSH1 0x2 ADD PUSH1 0x0 SWAP1 SLOAD SWAP1 PUSH2 0x100 EXP SWAP1 DIV PUSH1 0xFF AND SWAP1 DUP1 PUSH1 0x2 ADD PUSH1 0x1 SWAP1 SLOAD SWAP1 PUSH2 0x100 EXP SWAP1 DIV PUSH1 0xFF AND SWAP1 POP DUP5 JUMP JUMPDEST PUSH1 0x0 DUP1 PUSH1 0x0 SWAP1 SLOAD SWAP1 PUSH2 0x100 EXP SWAP1 DIV PUSH1 0xFF AND SWAP1 POP SWAP1 JUMP JUMPDEST PUSH2 0x2C0 PUSH2 0xAED JUMP JUMPDEST PUSH2 0x2DF PUSH1 0x7 PUSH1 0x0 DUP4 DUP2 MSTORE PUSH1 0x20 ADD SWAP1 DUP2 MSTORE PUSH1 0x20 ADD PUSH1 0x0 KECCAK256 PUSH1 0x0 ADD SLOAD PUSH2 0xB99 JUMP JUMPDEST PUSH2 0x31E JUMPI PUSH1 0x40 MLOAD PUSH32 0x8C379A000000000000000000000000000000000000000000000000000000000 DUP2 MSTORE PUSH1 0x4 ADD PUSH2 0x315 SWAP1 PUSH2 0x14BD JUMP JUMPDEST PUSH1 0x40 MLOAD DUP1 SWAP2 SUB SWAP1 REVERT JUMPDEST PUSH1 0x0 PUSH3 0x15180 PUSH1 0x7 PUSH1 0x0 DUP5 DUP2 MSTORE PUSH1 0x20 ADD SWAP1 DUP2 MSTORE PUSH1 0x20 ADD PUSH1 0x0 KECCAK256 PUSH1 0x1 ADD PUSH1 0x0 DUP3 DUP3 SLOAD PUSH2 0x349 SWAP2 SWAP1 PUSH2 0x150C JUMP JUMPDEST SWAP3 POP POP DUP2 SWAP1 SSTORE SWAP1 POP DUP2 PUSH32 0x4DA9B675E578ACF05CB72712FC12154FC303610A9BEF918062E80E7B25AA045F DUP3 PUSH1 0x40 MLOAD PUSH2 0x381 SWAP2 SWAP1 PUSH2 0x122C JUMP JUMPDEST PUSH1 0x40 MLOAD DUP1 SWAP2 SUB SWAP1 LOG2 POP POP JUMP JUMPDEST PUSH1 0xC PUSH1 0x20 MSTORE DUP1 PUSH1 0x0 MSTORE PUSH1 0x40 PUSH1 0x0 KECCAK256 PUSH1 0x0 SWAP2 POP SWAP1 POP SLOAD DUP2 JUMP JUMPDEST PUSH1 0x8 PUSH1 0x20 MSTORE DUP1 PUSH1 0x0 MSTORE PUSH1 0x40 PUSH1 0x0 KECCAK256 PUSH1 0x0 SWAP2 POP SWAP1 POP DUP1 PUSH1 0x0 ADD PUSH1 0x0 SWAP1 SLOAD SWAP1 PUSH2 0x100 EXP SWAP1 DIV PUSH20 0xFFFFFFFFFFFFFFFFFFFFFFFFFFFFFFFFFFFFFFFF AND SWAP1 DUP1 PUSH1 0x1 ADD SLOAD SWAP1 DUP1 PUSH1 0x2 ADD PUSH1 0x0 SWAP1 SLOAD SWAP1 PUSH2 0x100 EXP SWAP1 DIV PUSH1 0xFF AND SWAP1 DUP1 PUSH1 0x3 ADD SLOAD SWAP1 POP DUP5 JUMP JUMPDEST PUSH1 0x0 PUSH1 0x7 PUSH1 0x0 DUP5 DUP2 MSTORE PUSH1 0x20 ADD SWAP1 DUP2 MSTORE PUSH1 0x20 ADD PUSH1 0x0 KECCAK256 PUSH1 0x40 MLOAD DUP1 PUSH1 0x80 ADD PUSH1 0x40 MSTORE SWAP1 DUP2 PUSH1 0x0 DUP3 ADD SLOAD DUP2 MSTORE PUSH1 0x20 ADD PUSH1 0x1 DUP3 ADD SLOAD DUP2 MSTORE PUSH1 0x20 ADD PUSH1 0x2 DUP3 ADD PUSH1 0x0 SWAP1 SLOAD SWAP1 PUSH2 0x100 EXP SWAP1 DIV PUSH1 0xFF AND ISZERO ISZERO ISZERO ISZERO DUP2 MSTORE PUSH1 0x20 ADD PUSH1 0x2 DUP3 ADD PUSH1 0x1 SWAP1 SLOAD SWAP1 PUSH2 0x100 EXP SWAP1 DIV PUSH1 0xFF AND ISZERO ISZERO ISZERO ISZERO DUP2 MSTORE POP POP SWAP1 POP DUP1 PUSH1 0x60 ADD MLOAD ISZERO PUSH2 0x4B3 JUMPI PUSH1 0x40 MLOAD PUSH32 0x8C379A000000000000000000000000000000000000000000000000000000000 DUP2 MSTORE PUSH1 0x4 ADD PUSH2 0x4AA SWAP1 PUSH2 0x15D4 JUMP JUMPDEST PUSH1 0x40 MLOAD DUP1 SWAP2 SUB SWAP1 REVERT JUMPDEST PUSH2 0x4C0 DUP2 PUSH1 0x0 ADD MLOAD PUSH2 0xB99 JUMP JUMPDEST PUSH2 0x4FF JUMPI PUSH1 0x40 MLOAD PUSH32 0x8C379A000000000000000000000000000000000000000000000000000000000 DUP2 MSTORE PUSH1 0x4 ADD PUSH2 0x4F6 SWAP1 PUSH2 0x1640 JUMP JUMPDEST PUSH1 0x40 MLOAD DUP1 SWAP2 SUB SWAP1 REVERT JUMPDEST PUSH1 0x0 PUSH1 0xA PUSH1 0x0 CALLER PUSH20 0xFFFFFFFFFFFFFFFFFFFFFFFFFFFFFFFFFFFFFFFF AND PUSH20 0xFFFFFFFFFFFFFFFFFFFFFFFFFFFFFFFFFFFFFFFF AND DUP2 MSTORE PUSH1 0x20 ADD SWAP1 DUP2 MSTORE PUSH1 0x20 ADD PUSH1 0x0 KECCAK256 SLOAD SWAP1 POP DUP2 PUSH1 0x20 ADD MLOAD TIMESTAMP LT PUSH2 0x561 JUMPI PUSH2 0x55C DUP5 DUP4 PUSH1 0x0 ADD MLOAD PUSH2 0xC55 JUMP JUMPDEST PUSH2 0x61C JUMP JUMPDEST PUSH1 0x40 MLOAD DUP1 PUSH1 0x40 ADD PUSH1 0x40 MSTORE DUP1 DUP5 ISZERO ISZERO DUP2 MSTORE PUSH1 0x20 ADD PUSH1 0x1 ISZERO ISZERO DUP2 MSTORE POP PUSH1 0xD PUSH1 0x0 DUP7 DUP2 MSTORE PUSH1 0x20 ADD SWAP1 DUP2 MSTORE PUSH1 0x20 ADD PUSH1 0x0 KECCAK256 PUSH1 0x0 DUP4 DUP2 MSTORE PUSH1 0x20 ADD SWAP1 DUP2 MSTORE PUSH1 0x20 ADD PUSH1 0x0 KECCAK256 PUSH1 0x0 DUP3 ADD MLOAD DUP2 PUSH1 0x0 ADD PUSH1 0x0 PUSH2 0x100 EXP DUP2 SLOAD DUP2 PUSH1 0xFF MUL NOT AND SWAP1 DUP4 ISZERO ISZERO MUL OR SWAP1 SSTORE POP PUSH1 0x20 DUP3 ADD MLOAD DUP2 PUSH1 0x0 ADD PUSH1 0x1 PUSH2 0x100 EXP DUP2 SLOAD DUP2 PUSH1 0xFF MUL NOT AND SWAP1 DUP4 ISZERO ISZERO MUL OR SWAP1 SSTORE POP SWAP1 POP POP DUP4 DUP2 PUSH32 0x67B60BC862E9C013A238015361DF4BB95A4ABFE78309BA4A4D7A04D2FE29E432 DUP6 PUSH1 0x40 MLOAD PUSH2 0x613 SWAP2 SWAP1 PUSH2 0x12D4 JUMP JUMPDEST PUSH1 0x40 MLOAD DUP1 SWAP2 SUB SWAP1 LOG3 JUMPDEST POP POP POP POP JUMP JUMPDEST PUSH2 0x62A PUSH2 0xAED JUMP JUMPDEST PUSH1 0x0 PUSH1 0x4 SLOAD SWAP1 POP PUSH2 0x63A DUP2 PUSH2 0xB99 JUMP JUMPDEST ISZERO PUSH2 0x67A JUMPI PUSH1 0x40 MLOAD PUSH32 0x8C379A000000000000000000000000000000000000000000000000000000000 DUP2 MSTORE PUSH1 0x4 ADD PUSH2 0x671 SWAP1 PUSH2 0x16D2 JUMP JUMPDEST PUSH1 0x40 MLOAD DUP1 SWAP2 SUB SWAP1 REVERT JUMPDEST TIMESTAMP DUP3 GT PUSH2 0x6BC JUMPI PUSH1 0x40 MLOAD PUSH32 0x8C379A000000000000000000000000000000000000000000000000000000000 DUP2 MSTORE PUSH1 0x4 ADD PUSH2 0x6B3 SWAP1 PUSH2 0x1764 JUMP JUMPDEST PUSH1 0x40 MLOAD DUP1 SWAP2 SUB SWAP1 REVERT JUMPDEST PUSH1 0x0 PUSH1 0x6 SLOAD SWAP1 POP PUSH1 0x6 PUSH1 0x0 DUP2 SLOAD DUP1 SWAP3 SWAP2 SWAP1 PUSH2 0x6D6 SWAP1 PUSH2 0x1784 JUMP JUMPDEST SWAP2 SWAP1 POP SSTORE POP PUSH1 0x40 MLOAD DUP1 PUSH1 0x80 ADD PUSH1 0x40 MSTORE DUP1 CALLER PUSH20 0xFFFFFFFFFFFFFFFFFFFFFFFFFFFFFFFFFFFFFFFF AND DUP2 MSTORE PUSH1 0x20 ADD DUP4 DUP2 MSTORE PUSH1 0x20 ADD PUSH1 0x0 ISZERO ISZERO DUP2 MSTORE PUSH1 0x20 ADD DUP5 DUP2 MSTORE POP PUSH1 0x8 PUSH1 0x0 DUP4 DUP2 MSTORE PUSH1 0x20 ADD SWAP1 DUP2 MSTORE PUSH1 0x20 ADD PUSH1 0x0 KECCAK256 PUSH1 0x0 DUP3 ADD MLOAD DUP2 PUSH1 0x0 ADD PUSH1 0x0 PUSH2 0x100 EXP DUP2 SLOAD DUP2 PUSH20 0xFFFFFFFFFFFFFFFFFFFFFFFFFFFFFFFFFFFFFFFF MUL NOT AND SWAP1 DUP4 PUSH20 0xFFFFFFFFFFFFFFFFFFFFFFFFFFFFFFFFFFFFFFFF AND MUL OR SWAP1 SSTORE POP PUSH1 0x20 DUP3 ADD MLOAD DUP2 PUSH1 0x1 ADD SSTORE PUSH1 0x40 DUP3 ADD MLOAD DUP2 PUSH1 0x2 ADD PUSH1 0x0 PUSH2 0x100 EXP DUP2 SLOAD DUP2 PUSH1 0xFF MUL NOT AND SWAP1 DUP4 ISZERO ISZERO MUL OR SWAP1 SSTORE POP PUSH1 0x60 DUP3 ADD MLOAD DUP2 PUSH1 0x3 ADD SSTORE SWAP1 POP POP DUP1 DUP3 CALLER PUSH20 0xFFFFFFFFFFFFFFFFFFFFFFFFFFFFFFFFFFFFFFFF AND PUSH32 0x75E358A93C74512DFB976DEFBA1141797850778E28171591715E8CFD4107980F DUP7 PUSH1 0x40 MLOAD PUSH2 0x7EE SWAP2 SWAP1 PUSH2 0x122C JUMP JUMPDEST PUSH1 0x40 MLOAD DUP1 SWAP2 SUB SWAP1 LOG4 POP POP POP JUMP JUMPDEST PUSH1 0xA PUSH1 0x20 MSTORE DUP1 PUSH1 0x0 MSTORE PUSH1 0x40 PUSH1 0x0 KECCAK256 PUSH1 0x0 SWAP2 POP SWAP1 POP SLOAD DUP2 JUMP JUMPDEST PUSH1 0x0 PUSH1 0xA PUSH1 0x0 CALLER PUSH20 0xFFFFFFFFFFFFFFFFFFFFFFFFFFFFFFFFFFFFFFFF AND PUSH20 0xFFFFFFFFFFFFFFFFFFFFFFFFFFFFFFFFFFFFFFFF AND DUP2 MSTORE PUSH1 0x20 ADD SWAP1 DUP2 MSTORE PUSH1 0x20 ADD PUSH1 0x0 KECCAK256 SLOAD GT PUSH2 0x895 JUMPI PUSH1 0x40 MLOAD PUSH32 0x8C379A000000000000000000000000000000000000000000000000000000000 DUP2 MSTORE PUSH1 0x4 ADD PUSH2 0x88C SWAP1 PUSH2 0x1819 JUMP JUMPDEST PUSH1 0x40 MLOAD DUP1 SWAP2 SUB SWAP1 REVERT JUMPDEST PUSH2 0x89D PUSH2 0xAED JUMP JUMPDEST PUSH1 0x0 PUSH1 0x8 PUSH1 0x0 DUP4 DUP2 MSTORE PUSH1 0x20 ADD SWAP1 DUP2 MSTORE PUSH1 0x20 ADD PUSH1 0x0 KECCAK256 PUSH1 0x40 MLOAD DUP1 PUSH1 0x80 ADD PUSH1 0x40 MSTORE SWAP1 DUP2 PUSH1 0x0 DUP3 ADD PUSH1 0x0 SWAP1 SLOAD SWAP1 PUSH2 0x100 EXP SWAP1 DIV PUSH20 0xFFFFFFFFFFFFFFFFFFFFFFFFFFFFFFFFFFFFFFFF AND PUSH20 0xFFFFFFFFFFFFFFFFFFFFFFFFFFFFFFFFFFFFFFFF AND PUSH20 0xFFFFFFFFFFFFFFFFFFFFFFFFFFFFFFFFFFFFFFFF AND DUP2 MSTORE PUSH1 0x20 ADD PUSH1 0x1 DUP3 ADD SLOAD DUP2 MSTORE PUSH1 0x20 ADD PUSH1 0x2 DUP3 ADD PUSH1 0x0 SWAP1 SLOAD SWAP1 PUSH2 0x100 EXP SWAP1 DIV PUSH1 0xFF AND ISZERO ISZERO ISZERO ISZERO DUP2 MSTORE PUSH1 0x20 ADD PUSH1 0x3 DUP3 ADD SLOAD DUP2 MSTORE POP POP SWAP1 POP DUP1 PUSH1 0x40 ADD MLOAD ISZERO PUSH2 0x989 JUMPI PUSH1 0x40 MLOAD PUSH32 0x8C379A000000000000000000000000000000000000000000000000000000000 DUP2 MSTORE PUSH1 0x4 ADD PUSH2 0x980 SWAP1 PUSH2 0x18AB JUMP JUMPDEST PUSH1 0x40 MLOAD DUP1 SWAP2 SUB SWAP1 REVERT JUMPDEST DUP1 PUSH1 0x0 ADD MLOAD PUSH20 0xFFFFFFFFFFFFFFFFFFFFFFFFFFFFFFFFFFFFFFFF AND CALLER PUSH20 0xFFFFFFFFFFFFFFFFFFFFFFFFFFFFFFFFFFFFFFFF AND EQ ISZERO PUSH2 0x9FC JUMPI PUSH1 0x40 MLOAD PUSH32 0x8C379A000000000000000000000000000000000000000000000000000000000 DUP2 MSTORE PUSH1 0x4 ADD PUSH2 0x9F3 SWAP1 PUSH2 0x193D JUMP JUMPDEST PUSH1 0x40 MLOAD DUP1 SWAP2 SUB SWAP1 REVERT JUMPDEST DUP1 PUSH1 0x60 ADD MLOAD TIMESTAMP LT PUSH2 0xA42 JUMPI PUSH1 0x40 MLOAD PUSH32 0x8C379A000000000000000000000000000000000000000000000000000000000 DUP2 MSTORE PUSH1 0x4 ADD PUSH2 0xA39 SWAP1 PUSH2 0x19CF JUMP JUMPDEST PUSH1 0x40 MLOAD DUP1 SWAP2 SUB SWAP1 REVERT JUMPDEST PUSH1 0x1 PUSH1 0x8 PUSH1 0x0 DUP5 DUP2 MSTORE PUSH1 0x20 ADD SWAP1 DUP2 MSTORE PUSH1 0x20 ADD PUSH1 0x0 KECCAK256 PUSH1 0x2 ADD PUSH1 0x0 PUSH2 0x100 EXP DUP2 SLOAD DUP2 PUSH1 0xFF MUL NOT AND SWAP1 DUP4 ISZERO ISZERO MUL OR SWAP1 SSTORE POP PUSH1 0x9 PUSH1 0x0 PUSH1 0xA PUSH1 0x0 CALLER PUSH20 0xFFFFFFFFFFFFFFFFFFFFFFFFFFFFFFFFFFFFFFFF AND PUSH20 0xFFFFFFFFFFFFFFFFFFFFFFFFFFFFFFFFFFFFFFFF AND DUP2 MSTORE PUSH1 0x20 ADD SWAP1 DUP2 MSTORE PUSH1 0x20 ADD PUSH1 0x0 KECCAK256 SLOAD DUP2 MSTORE PUSH1 0x20 ADD SWAP1 DUP2 MSTORE PUSH1 0x20 ADD PUSH1 0x0 KECCAK256 PUSH1 0x2 ADD PUSH1 0x0 DUP2 SLOAD DUP1 SWAP3 SWAP2 SWAP1 PUSH2 0xAD7 SWAP1 PUSH2 0x1784 JUMP JUMPDEST SWAP2 SWAP1 POP SSTORE POP PUSH2 0xAE9 DUP2 PUSH1 0x60 ADD MLOAD PUSH2 0xEAF JUMP JUMPDEST POP POP JUMP JUMPDEST PUSH1 0x0 PUSH1 0x4 SLOAD SWAP1 POP PUSH1 0xC PUSH1 0x0 DUP3 DUP2 MSTORE PUSH1 0x20 ADD SWAP1 DUP2 MSTORE PUSH1 0x20 ADD PUSH1 0x0 KECCAK256 SLOAD TIMESTAMP LT PUSH2 0xB96 JUMPI DUP1 PUSH32 0xC796AD74732D2A065B3161C4BF85138CB8D4B0561D078CC02AA237D2E29141DB PUSH1 0x40 MLOAD PUSH1 0x40 MLOAD DUP1 SWAP2 SUB SWAP1 LOG2 PUSH1 0x4 PUSH1 0x0 DUP2 SLOAD DUP1 SWAP3 SWAP2 SWAP1 PUSH2 0xB4E SWAP1 PUSH2 0x1784 JUMP JUMPDEST SWAP2 SWAP1 POP SSTORE POP PUSH2 0xB95 TIMESTAMP DIFFICULTY PUSH1 0x1 DUP5 PUSH2 0xB65 SWAP2 SWAP1 PUSH2 0x150C JUMP JUMPDEST PUSH1 0x40 MLOAD PUSH1 0x20 ADD PUSH2 0xB77 SWAP4 SWAP3 SWAP2 SWAP1 PUSH2 0x1A10 JUMP JUMPDEST PUSH1 0x40 MLOAD PUSH1 0x20 DUP2 DUP4 SUB SUB DUP2 MSTORE SWAP1 PUSH1 0x40 MSTORE DUP1 MLOAD SWAP1 PUSH1 0x20 ADD KECCAK256 PUSH1 0x0 SHR PUSH2 0xFA4 JUMP JUMPDEST JUMPDEST POP JUMP JUMPDEST PUSH1 0x0 DUP1 PUSH1 0x9 PUSH1 0x0 PUSH1 0xA PUSH1 0x0 CALLER PUSH20 0xFFFFFFFFFFFFFFFFFFFFFFFFFFFFFFFFFFFFFFFF AND PUSH20 0xFFFFFFFFFFFFFFFFFFFFFFFFFFFFFFFFFFFFFFFF AND DUP2 MSTORE PUSH1 0x20 ADD SWAP1 DUP2 MSTORE PUSH1 0x20 ADD PUSH1 0x0 KECCAK256 SLOAD DUP2 MSTORE PUSH1 0x20 ADD SWAP1 DUP2 MSTORE PUSH1 0x20 ADD PUSH1 0x0 KECCAK256 PUSH1 0x40 MLOAD DUP1 PUSH1 0x80 ADD PUSH1 0x40 MSTORE SWAP1 DUP2 PUSH1 0x0 DUP3 ADD PUSH1 0x0 SWAP1 SLOAD SWAP1 PUSH2 0x100 EXP SWAP1 DIV PUSH1 0xFF AND ISZERO ISZERO ISZERO ISZERO DUP2 MSTORE PUSH1 0x20 ADD PUSH1 0x1 DUP3 ADD SLOAD DUP2 MSTORE PUSH1 0x20 ADD PUSH1 0x2 DUP3 ADD SLOAD DUP2 MSTORE PUSH1 0x20 ADD PUSH1 0x3 DUP3 ADD SLOAD DUP2 MSTORE POP POP SWAP1 POP DUP3 DUP2 PUSH1 0x20 ADD MLOAD EQ ISZERO PUSH2 0xC4A JUMPI PUSH1 0x1 SWAP2 POP POP PUSH2 0xC50 JUMP JUMPDEST PUSH1 0x0 SWAP2 POP POP JUMPDEST SWAP2 SWAP1 POP JUMP JUMPDEST PUSH1 0x0 PUSH1 0xB PUSH1 0x0 DUP4 DUP2 MSTORE PUSH1 0x20 ADD SWAP1 DUP2 MSTORE PUSH1 0x20 ADD PUSH1 0x0 KECCAK256 DUP1 SLOAD DUP1 PUSH1 0x20 MUL PUSH1 0x20 ADD PUSH1 0x40 MLOAD SWAP1 DUP2 ADD PUSH1 0x40 MSTORE DUP1 SWAP3 SWAP2 SWAP1 DUP2 DUP2 MSTORE PUSH1 0x20 ADD DUP3 DUP1 SLOAD DUP1 ISZERO PUSH2 0xCB4 JUMPI PUSH1 0x20 MUL DUP3 ADD SWAP2 SWAP1 PUSH1 0x0 MSTORE PUSH1 0x20 PUSH1 0x0 KECCAK256 SWAP1 JUMPDEST DUP2 SLOAD DUP2 MSTORE PUSH1 0x20 ADD SWAP1 PUSH1 0x1 ADD SWAP1 DUP1 DUP4 GT PUSH2 0xCA0 JUMPI JUMPDEST POP POP POP POP POP SWAP1 POP PUSH1 0x0 DUP1 PUSH1 0x0 SWAP1 POP JUMPDEST DUP3 MLOAD DUP2 PUSH1 0xFF AND LT ISZERO PUSH2 0xDD6 JUMPI PUSH1 0x0 PUSH1 0xD PUSH1 0x0 DUP8 DUP2 MSTORE PUSH1 0x20 ADD SWAP1 DUP2 MSTORE PUSH1 0x20 ADD PUSH1 0x0 KECCAK256 PUSH1 0x0 DUP6 DUP5 PUSH1 0xFF AND DUP2 MLOAD DUP2 LT PUSH2 0xCFC JUMPI PUSH2 0xCFB PUSH2 0x1A4D JUMP JUMPDEST JUMPDEST PUSH1 0x20 MUL PUSH1 0x20 ADD ADD MLOAD DUP2 MSTORE PUSH1 0x20 ADD SWAP1 DUP2 MSTORE PUSH1 0x20 ADD PUSH1 0x0 KECCAK256 PUSH1 0x40 MLOAD DUP1 PUSH1 0x40 ADD PUSH1 0x40 MSTORE SWAP1 DUP2 PUSH1 0x0 DUP3 ADD PUSH1 0x0 SWAP1 SLOAD SWAP1 PUSH2 0x100 EXP SWAP1 DIV PUSH1 0xFF AND ISZERO ISZERO ISZERO ISZERO DUP2 MSTORE PUSH1 0x20 ADD PUSH1 0x0 DUP3 ADD PUSH1 0x1 SWAP1 SLOAD SWAP1 PUSH2 0x100 EXP SWAP1 DIV PUSH1 0xFF AND ISZERO ISZERO ISZERO ISZERO DUP2 MSTORE POP POP SWAP1 POP DUP1 PUSH1 0x20 ADD MLOAD ISZERO PUSH2 0xDC2 JUMPI DUP1 PUSH1 0x0 ADD MLOAD ISZERO PUSH2 0xD78 JUMPI DUP3 DUP1 PUSH2 0xD74 SWAP1 PUSH2 0x1A89 JUMP JUMPDEST SWAP4 POP POP JUMPDEST PUSH1 0x9 PUSH1 0x0 DUP6 DUP5 PUSH1 0xFF AND DUP2 MLOAD DUP2 LT PUSH2 0xD92 JUMPI PUSH2 0xD91 PUSH2 0x1A4D JUMP JUMPDEST JUMPDEST PUSH1 0x20 MUL PUSH1 0x20 ADD ADD MLOAD DUP2 MSTORE PUSH1 0x20 ADD SWAP1 DUP2 MSTORE PUSH1 0x20 ADD PUSH1 0x0 KECCAK256 PUSH1 0x3 ADD PUSH1 0x0 DUP2 SLOAD DUP1 SWAP3 SWAP2 SWAP1 PUSH2 0xDBC SWAP1 PUSH2 0x1784 JUMP JUMPDEST SWAP2 SWAP1 POP SSTORE POP JUMPDEST POP DUP1 DUP1 PUSH2 0xDCE SWAP1 PUSH2 0x1A89 JUMP JUMPDEST SWAP2 POP POP PUSH2 0xCC3 JUMP JUMPDEST POP DUP1 PUSH1 0xFF AND PUSH1 0x2 DUP1 SLOAD PUSH2 0xDE9 SWAP2 SWAP1 PUSH2 0x1AE2 JUMP JUMPDEST LT ISZERO PUSH2 0xE1F JUMPI PUSH1 0x1 PUSH1 0x7 PUSH1 0x0 DUP7 DUP2 MSTORE PUSH1 0x20 ADD SWAP1 DUP2 MSTORE PUSH1 0x20 ADD PUSH1 0x0 KECCAK256 PUSH1 0x2 ADD PUSH1 0x0 PUSH2 0x100 EXP DUP2 SLOAD DUP2 PUSH1 0xFF MUL NOT AND SWAP1 DUP4 ISZERO ISZERO MUL OR SWAP1 SSTORE POP JUMPDEST PUSH1 0x1 PUSH1 0x7 PUSH1 0x0 DUP7 DUP2 MSTORE PUSH1 0x20 ADD SWAP1 DUP2 MSTORE PUSH1 0x20 ADD PUSH1 0x0 KECCAK256 PUSH1 0x2 ADD PUSH1 0x1 PUSH2 0x100 EXP DUP2 SLOAD DUP2 PUSH1 0xFF MUL NOT AND SWAP1 DUP4 ISZERO ISZERO MUL OR SWAP1 SSTORE POP DUP4 PUSH32 0x5A87909BFF68CAAAAF0B3FD9C74EECCC928832F879315E5C6FB7A73612F26C0C PUSH1 0x7 PUSH1 0x0 DUP8 DUP2 MSTORE PUSH1 0x20 ADD SWAP1 DUP2 MSTORE PUSH1 0x20 ADD PUSH1 0x0 KECCAK256 PUSH1 0x2 ADD PUSH1 0x0 SWAP1 SLOAD SWAP1 PUSH2 0x100 EXP SWAP1 DIV PUSH1 0xFF AND PUSH1 0x40 MLOAD PUSH2 0xEA1 SWAP2 SWAP1 PUSH2 0x12D4 JUMP JUMPDEST PUSH1 0x40 MLOAD DUP1 SWAP2 SUB SWAP1 LOG2 POP POP POP POP JUMP JUMPDEST PUSH1 0x0 PUSH1 0x5 SLOAD SWAP1 POP PUSH1 0x0 PUSH1 0x4 SLOAD SWAP1 POP PUSH1 0x5 PUSH1 0x0 DUP2 SLOAD DUP1 SWAP3 SWAP2 SWAP1 PUSH2 0xED0 SWAP1 PUSH2 0x1784 JUMP JUMPDEST SWAP2 SWAP1 POP SSTORE POP PUSH1 0x40 MLOAD DUP1 PUSH1 0x80 ADD PUSH1 0x40 MSTORE DUP1 DUP3 DUP2 MSTORE PUSH1 0x20 ADD DUP5 DUP2 MSTORE PUSH1 0x20 ADD PUSH1 0x0 ISZERO ISZERO DUP2 MSTORE PUSH1 0x20 ADD PUSH1 0x0 ISZERO ISZERO DUP2 MSTORE POP PUSH1 0x7 PUSH1 0x0 DUP5 DUP2 MSTORE PUSH1 0x20 ADD SWAP1 DUP2 MSTORE PUSH1 0x20 ADD PUSH1 0x0 KECCAK256 PUSH1 0x0 DUP3 ADD MLOAD DUP2 PUSH1 0x0 ADD SSTORE PUSH1 0x20 DUP3 ADD MLOAD DUP2 PUSH1 0x1 ADD SSTORE PUSH1 0x40 DUP3 ADD MLOAD DUP2 PUSH1 0x2 ADD PUSH1 0x0 PUSH2 0x100 EXP DUP2 SLOAD DUP2 PUSH1 0xFF MUL NOT AND SWAP1 DUP4 ISZERO ISZERO MUL OR SWAP1 SSTORE POP PUSH1 0x60 DUP3 ADD MLOAD DUP2 PUSH1 0x2 ADD PUSH1 0x1 PUSH2 0x100 EXP DUP2 SLOAD DUP2 PUSH1 0xFF MUL NOT AND SWAP1 DUP4 ISZERO ISZERO MUL OR SWAP1 SSTORE POP SWAP1 POP POP DUP1 DUP3 PUSH32 0xD739C8B7FE870F381C5442416FF79D9F44C3E1D54A16CE39FC0FBE8206C4A6E8 DUP6 PUSH1 0x40 MLOAD PUSH2 0xF97 SWAP2 SWAP1 PUSH2 0x122C JUMP JUMPDEST PUSH1 0x40 MLOAD DUP1 SWAP2 SUB SWAP1 LOG3 POP POP POP JUMP JUMPDEST PUSH1 0x0 DUP1 PUSH1 0x3 SLOAD SWAP1 POP PUSH1 0x0 PUSH1 0x4 SLOAD SWAP1 POP PUSH1 0x0 JUMPDEST PUSH1 0x2 SLOAD DUP2 LT ISZERO PUSH2 0x110F JUMPI PUSH1 0x0 PUSH1 0x1 DUP5 DUP8 DUP8 PUSH1 0x40 MLOAD PUSH1 0x20 ADD PUSH2 0xFD8 SWAP3 SWAP2 SWAP1 PUSH2 0x1B13 JUMP JUMPDEST PUSH1 0x40 MLOAD PUSH1 0x20 DUP2 DUP4 SUB SUB DUP2 MSTORE SWAP1 PUSH1 0x40 MSTORE DUP1 MLOAD SWAP1 PUSH1 0x20 ADD KECCAK256 PUSH1 0x0 SHR PUSH2 0xFFB SWAP2 SWAP1 PUSH2 0x1B3F JUMP JUMPDEST PUSH2 0x1005 SWAP2 SWAP1 PUSH2 0x150C JUMP JUMPDEST SWAP1 POP PUSH1 0x0 PUSH1 0x9 PUSH1 0x0 DUP4 DUP2 MSTORE PUSH1 0x20 ADD SWAP1 DUP2 MSTORE PUSH1 0x20 ADD PUSH1 0x0 KECCAK256 PUSH1 0x40 MLOAD DUP1 PUSH1 0x80 ADD PUSH1 0x40 MSTORE SWAP1 DUP2 PUSH1 0x0 DUP3 ADD PUSH1 0x0 SWAP1 SLOAD SWAP1 PUSH2 0x100 EXP SWAP1 DIV PUSH1 0xFF AND ISZERO ISZERO ISZERO ISZERO DUP2 MSTORE PUSH1 0x20 ADD PUSH1 0x1 DUP3 ADD SLOAD DUP2 MSTORE PUSH1 0x20 ADD PUSH1 0x2 DUP3 ADD SLOAD DUP2 MSTORE PUSH1 0x20 ADD PUSH1 0x3 DUP3 ADD SLOAD DUP2 MSTORE POP POP SWAP1 POP DUP1 PUSH1 0x0 ADD MLOAD DUP1 ISZERO PUSH2 0x1091 JUMPI POP PUSH1 0x0 DUP2 PUSH1 0x20 ADD MLOAD EQ DUP1 PUSH2 0x1090 JUMPI POP DUP4 PUSH1 0x1 DUP3 PUSH1 0x20 ADD MLOAD PUSH2 0x108E SWAP2 SWAP1 PUSH2 0x150C JUMP JUMPDEST LT JUMPDEST JUMPDEST ISZERO PUSH2 0x10FA JUMPI DUP4 PUSH1 0x9 PUSH1 0x0 DUP5 DUP2 MSTORE PUSH1 0x20 ADD SWAP1 DUP2 MSTORE PUSH1 0x20 ADD PUSH1 0x0 KECCAK256 PUSH1 0x1 ADD DUP2 SWAP1 SSTORE POP PUSH1 0xB PUSH1 0x0 DUP6 DUP2 MSTORE PUSH1 0x20 ADD SWAP1 DUP2 MSTORE PUSH1 0x20 ADD PUSH1 0x0 KECCAK256 DUP3 SWAP1 DUP1 PUSH1 0x1 DUP2 SLOAD ADD DUP1 DUP3 SSTORE DUP1 SWAP2 POP POP PUSH1 0x1 SWAP1 SUB SWAP1 PUSH1 0x0 MSTORE PUSH1 0x20 PUSH1 0x0 KECCAK256 ADD PUSH1 0x0 SWAP1 SWAP2 SWAP1 SWAP2 SWAP1 SWAP2 POP SSTORE DUP3 DUP1 PUSH2 0x10F6 SWAP1 PUSH2 0x1784 JUMP JUMPDEST SWAP4 POP POP JUMPDEST DUP6 DUP1 PUSH2 0x1105 SWAP1 PUSH2 0x1784 JUMP JUMPDEST SWAP7 POP POP POP POP PUSH2 0xFB6 JUMP JUMPDEST POP PUSH1 0x0 PUSH1 0x1 SLOAD TIMESTAMP PUSH2 0x1120 SWAP2 SWAP1 PUSH2 0x150C JUMP JUMPDEST SWAP1 POP DUP1 PUSH1 0xC PUSH1 0x0 DUP5 DUP2 MSTORE PUSH1 0x20 ADD SWAP1 DUP2 MSTORE PUSH1 0x20 ADD PUSH1 0x0 KECCAK256 DUP2 SWAP1 SSTORE POP PUSH1 0xB PUSH1 0x0 DUP4 DUP2 MSTORE PUSH1 0x20 ADD SWAP1 DUP2 MSTORE PUSH1 0x20 ADD PUSH1 0x0 KECCAK256 PUSH1 0x40 MLOAD PUSH2 0x115A SWAP2 SWAP1 PUSH2 0x1C78 JUMP JUMPDEST PUSH1 0x40 MLOAD DUP1 SWAP2 SUB SWAP1 KECCAK256 PUSH32 0xB3C30FE9CD13F86C80318BEF190E0071E5FECF6D2465F4EBBE0F923899AF700C DUP4 DUP4 PUSH1 0x40 MLOAD PUSH2 0x1193 SWAP3 SWAP2 SWAP1 PUSH2 0x1C8F JUMP JUMPDEST PUSH1 0x40 MLOAD DUP1 SWAP2 SUB SWAP1 LOG2 POP POP POP POP POP JUMP JUMPDEST PUSH1 0x0 DUP1 REVERT JUMPDEST PUSH1 0x0 DUP2 SWAP1 POP SWAP2 SWAP1 POP JUMP JUMPDEST PUSH2 0x11BA DUP2 PUSH2 0x11A7 JUMP JUMPDEST DUP2 EQ PUSH2 0x11C5 JUMPI PUSH1 0x0 DUP1 REVERT JUMPDEST POP JUMP JUMPDEST PUSH1 0x0 DUP2 CALLDATALOAD SWAP1 POP PUSH2 0x11D7 DUP2 PUSH2 0x11B1 JUMP JUMPDEST SWAP3 SWAP2 POP POP JUMP JUMPDEST PUSH1 0x0 DUP1 PUSH1 0x40 DUP4 DUP6 SUB SLT ISZERO PUSH2 0x11F4 JUMPI PUSH2 0x11F3 PUSH2 0x11A2 JUMP JUMPDEST JUMPDEST PUSH1 0x0 PUSH2 0x1202 DUP6 DUP3 DUP7 ADD PUSH2 0x11C8 JUMP JUMPDEST SWAP3 POP POP PUSH1 0x20 PUSH2 0x1213 DUP6 DUP3 DUP7 ADD PUSH2 0x11C8 JUMP JUMPDEST SWAP2 POP POP SWAP3 POP SWAP3 SWAP1 POP JUMP JUMPDEST PUSH2 0x1226 DUP2 PUSH2 0x11A7 JUMP JUMPDEST DUP3 MSTORE POP POP JUMP JUMPDEST PUSH1 0x0 PUSH1 0x20 DUP3 ADD SWAP1 POP PUSH2 0x1241 PUSH1 0x0 DUP4 ADD DUP5 PUSH2 0x121D JUMP JUMPDEST SWAP3 SWAP2 POP POP JUMP JUMPDEST PUSH1 0x0 PUSH1 0x20 DUP3 DUP5 SUB SLT ISZERO PUSH2 0x125D JUMPI PUSH2 0x125C PUSH2 0x11A2 JUMP JUMPDEST JUMPDEST PUSH1 0x0 PUSH2 0x126B DUP5 DUP3 DUP6 ADD PUSH2 0x11C8 JUMP JUMPDEST SWAP2 POP POP SWAP3 SWAP2 POP POP JUMP JUMPDEST PUSH1 0x0 DUP2 ISZERO ISZERO SWAP1 POP SWAP2 SWAP1 POP JUMP JUMPDEST PUSH2 0x1289 DUP2 PUSH2 0x1274 JUMP JUMPDEST DUP3 MSTORE POP POP JUMP JUMPDEST PUSH1 0x0 PUSH1 0x80 DUP3 ADD SWAP1 POP PUSH2 0x12A4 PUSH1 0x0 DUP4 ADD DUP8 PUSH2 0x121D JUMP JUMPDEST PUSH2 0x12B1 PUSH1 0x20 DUP4 ADD DUP7 PUSH2 0x121D JUMP JUMPDEST PUSH2 0x12BE PUSH1 0x40 DUP4 ADD DUP6 PUSH2 0x1280 JUMP JUMPDEST PUSH2 0x12CB PUSH1 0x60 DUP4 ADD DUP5 PUSH2 0x1280 JUMP JUMPDEST SWAP6 SWAP5 POP POP POP POP POP JUMP JUMPDEST PUSH1 0x0 PUSH1 0x20 DUP3 ADD SWAP1 POP PUSH2 0x12E9 PUSH1 0x0 DUP4 ADD DUP5 PUSH2 0x1280 JUMP JUMPDEST SWAP3 SWAP2 POP POP JUMP JUMPDEST PUSH1 0x0 PUSH20 0xFFFFFFFFFFFFFFFFFFFFFFFFFFFFFFFFFFFFFFFF DUP3 AND SWAP1 POP SWAP2 SWAP1 POP JUMP JUMPDEST PUSH1 0x0 PUSH2 0x131A DUP3 PUSH2 0x12EF JUMP JUMPDEST SWAP1 POP SWAP2 SWAP1 POP JUMP JUMPDEST PUSH2 0x132A DUP2 PUSH2 0x130F JUMP JUMPDEST DUP3 MSTORE POP POP JUMP JUMPDEST PUSH1 0x0 PUSH1 0x80 DUP3 ADD SWAP1 POP PUSH2 0x1345 PUSH1 0x0 DUP4 ADD DUP8 PUSH2 0x1321 JUMP JUMPDEST PUSH2 0x1352 PUSH1 0x20 DUP4 ADD DUP7 PUSH2 0x121D JUMP JUMPDEST PUSH2 0x135F PUSH1 0x40 DUP4 ADD DUP6 PUSH2 0x1280 JUMP JUMPDEST PUSH2 0x136C PUSH1 0x60 DUP4 ADD DUP5 PUSH2 0x121D JUMP JUMPDEST SWAP6 SWAP5 POP POP POP POP POP JUMP JUMPDEST PUSH2 0x137E DUP2 PUSH2 0x1274 JUMP JUMPDEST DUP2 EQ PUSH2 0x1389 JUMPI PUSH1 0x0 DUP1 REVERT JUMPDEST POP JUMP JUMPDEST PUSH1 0x0 DUP2 CALLDATALOAD SWAP1 POP PUSH2 0x139B DUP2 PUSH2 0x1375 JUMP JUMPDEST SWAP3 SWAP2 POP POP JUMP JUMPDEST PUSH1 0x0 DUP1 PUSH1 0x40 DUP4 DUP6 SUB SLT ISZERO PUSH2 0x13B8 JUMPI PUSH2 0x13B7 PUSH2 0x11A2 JUMP JUMPDEST JUMPDEST PUSH1 0x0 PUSH2 0x13C6 DUP6 DUP3 DUP7 ADD PUSH2 0x11C8 JUMP JUMPDEST SWAP3 POP POP PUSH1 0x20 PUSH2 0x13D7 DUP6 DUP3 DUP7 ADD PUSH2 0x138C JUMP JUMPDEST SWAP2 POP POP SWAP3 POP SWAP3 SWAP1 POP JUMP JUMPDEST PUSH2 0x13EA DUP2 PUSH2 0x130F JUMP JUMPDEST DUP2 EQ PUSH2 0x13F5 JUMPI PUSH1 0x0 DUP1 REVERT JUMPDEST POP JUMP JUMPDEST PUSH1 0x0 DUP2 CALLDATALOAD SWAP1 POP PUSH2 0x1407 DUP2 PUSH2 0x13E1 JUMP JUMPDEST SWAP3 SWAP2 POP POP JUMP JUMPDEST PUSH1 0x0 PUSH1 0x20 DUP3 DUP5 SUB SLT ISZERO PUSH2 0x1423 JUMPI PUSH2 0x1422 PUSH2 0x11A2 JUMP JUMPDEST JUMPDEST PUSH1 0x0 PUSH2 0x1431 DUP5 DUP3 DUP6 ADD PUSH2 0x13F8 JUMP JUMPDEST SWAP2 POP POP SWAP3 SWAP2 POP POP JUMP JUMPDEST PUSH1 0x0 DUP3 DUP3 MSTORE PUSH1 0x20 DUP3 ADD SWAP1 POP SWAP3 SWAP2 POP POP JUMP JUMPDEST PUSH32 0x4A7572792E657874656E6444697370757465446561646C696E653A206E6F7420 PUSH1 0x0 DUP3 ADD MSTORE PUSH32 0x696E206A75727900000000000000000000000000000000000000000000000000 PUSH1 0x20 DUP3 ADD MSTORE POP JUMP JUMPDEST PUSH1 0x0 PUSH2 0x14A7 PUSH1 0x27 DUP4 PUSH2 0x143A JUMP JUMPDEST SWAP2 POP PUSH2 0x14B2 DUP3 PUSH2 0x144B JUMP JUMPDEST PUSH1 0x40 DUP3 ADD SWAP1 POP SWAP2 SWAP1 POP JUMP JUMPDEST PUSH1 0x0 PUSH1 0x20 DUP3 ADD SWAP1 POP DUP2 DUP2 SUB PUSH1 0x0 DUP4 ADD MSTORE PUSH2 0x14D6 DUP2 PUSH2 0x149A JUMP JUMPDEST SWAP1 POP SWAP2 SWAP1 POP JUMP JUMPDEST PUSH32 0x4E487B7100000000000000000000000000000000000000000000000000000000 PUSH1 0x0 MSTORE PUSH1 0x11 PUSH1 0x4 MSTORE PUSH1 0x24 PUSH1 0x0 REVERT JUMPDEST PUSH1 0x0 PUSH2 0x1517 DUP3 PUSH2 0x11A7 JUMP JUMPDEST SWAP2 POP PUSH2 0x1522 DUP4 PUSH2 0x11A7 JUMP JUMPDEST SWAP3 POP DUP3 PUSH32 0xFFFFFFFFFFFFFFFFFFFFFFFFFFFFFFFFFFFFFFFFFFFFFFFFFFFFFFFFFFFFFFFF SUB DUP3 GT ISZERO PUSH2 0x1557 JUMPI PUSH2 0x1556 PUSH2 0x14DD JUMP JUMPDEST JUMPDEST DUP3 DUP3 ADD SWAP1 POP SWAP3 SWAP2 POP POP JUMP JUMPDEST PUSH32 0x4A7572792E766F74653A206469737075746520616C7265616479207265736F6C PUSH1 0x0 DUP3 ADD MSTORE PUSH32 0x7665640000000000000000000000000000000000000000000000000000000000 PUSH1 0x20 DUP3 ADD MSTORE POP JUMP JUMPDEST PUSH1 0x0 PUSH2 0x15BE PUSH1 0x23 DUP4 PUSH2 0x143A JUMP JUMPDEST SWAP2 POP PUSH2 0x15C9 DUP3 PUSH2 0x1562 JUMP JUMPDEST PUSH1 0x40 DUP3 ADD SWAP1 POP SWAP2 SWAP1 POP JUMP JUMPDEST PUSH1 0x0 PUSH1 0x20 DUP3 ADD SWAP1 POP DUP2 DUP2 SUB PUSH1 0x0 DUP4 ADD MSTORE PUSH2 0x15ED DUP2 PUSH2 0x15B1 JUMP JUMPDEST SWAP1 POP SWAP2 SWAP1 POP JUMP JUMPDEST PUSH32 0x4A7572792E766F74653A206D656D626572206E6F7420696E206A757279000000 PUSH1 0x0 DUP3 ADD MSTORE POP JUMP JUMPDEST PUSH1 0x0 PUSH2 0x162A PUSH1 0x1D DUP4 PUSH2 0x143A JUMP JUMPDEST SWAP2 POP PUSH2 0x1635 DUP3 PUSH2 0x15F4 JUMP JUMPDEST PUSH1 0x20 DUP3 ADD SWAP1 POP SWAP2 SWAP1 POP JUMP JUMPDEST PUSH1 0x0 PUSH1 0x20 DUP3 ADD SWAP1 POP DUP2 DUP2 SUB PUSH1 0x0 DUP4 ADD MSTORE PUSH2 0x1659 DUP2 PUSH2 0x161D JUMP JUMPDEST SWAP1 POP SWAP2 SWAP1 POP JUMP JUMPDEST PUSH32 0x4A7572792E6E65774469737075746550726F706F73616C3A206A75726F722061 PUSH1 0x0 DUP3 ADD MSTORE PUSH32 0x6C726561647920696E206A757279000000000000000000000000000000000000 PUSH1 0x20 DUP3 ADD MSTORE POP JUMP JUMPDEST PUSH1 0x0 PUSH2 0x16BC PUSH1 0x2E DUP4 PUSH2 0x143A JUMP JUMPDEST SWAP2 POP PUSH2 0x16C7 DUP3 PUSH2 0x1660 JUMP JUMPDEST PUSH1 0x40 DUP3 ADD SWAP1 POP SWAP2 SWAP1 POP JUMP JUMPDEST PUSH1 0x0 PUSH1 0x20 DUP3 ADD SWAP1 POP DUP2 DUP2 SUB PUSH1 0x0 DUP4 ADD MSTORE PUSH2 0x16EB DUP2 PUSH2 0x16AF JUMP JUMPDEST SWAP1 POP SWAP2 SWAP1 POP JUMP JUMPDEST PUSH32 0x4A7572792E6E65774469737075746550726F706F73616C3A20646561646C696E PUSH1 0x0 DUP3 ADD MSTORE PUSH32 0x652068617320616C726561647920706173740000000000000000000000000000 PUSH1 0x20 DUP3 ADD MSTORE POP JUMP JUMPDEST PUSH1 0x0 PUSH2 0x174E PUSH1 0x32 DUP4 PUSH2 0x143A JUMP JUMPDEST SWAP2 POP PUSH2 0x1759 DUP3 PUSH2 0x16F2 JUMP JUMPDEST PUSH1 0x40 DUP3 ADD SWAP1 POP SWAP2 SWAP1 POP JUMP JUMPDEST PUSH1 0x0 PUSH1 0x20 DUP3 ADD SWAP1 POP DUP2 DUP2 SUB PUSH1 0x0 DUP4 ADD MSTORE PUSH2 0x177D DUP2 PUSH2 0x1741 JUMP JUMPDEST SWAP1 POP SWAP2 SWAP1 POP JUMP JUMPDEST PUSH1 0x0 PUSH2 0x178F DUP3 PUSH2 0x11A7 JUMP JUMPDEST SWAP2 POP PUSH32 0xFFFFFFFFFFFFFFFFFFFFFFFFFFFFFFFFFFFFFFFFFFFFFFFFFFFFFFFFFFFFFFFF DUP3 EQ ISZERO PUSH2 0x17C2 JUMPI PUSH2 0x17C1 PUSH2 0x14DD JUMP JUMPDEST JUMPDEST PUSH1 0x1 DUP3 ADD SWAP1 POP SWAP2 SWAP1 POP JUMP JUMPDEST PUSH32 0x63616C6C6572206D757374206265206A75727920706F6F6C206D656D62657200 PUSH1 0x0 DUP3 ADD MSTORE POP JUMP JUMPDEST PUSH1 0x0 PUSH2 0x1803 PUSH1 0x1F DUP4 PUSH2 0x143A JUMP JUMPDEST SWAP2 POP PUSH2 0x180E DUP3 PUSH2 0x17CD JUMP JUMPDEST PUSH1 0x20 DUP3 ADD SWAP1 POP SWAP2 SWAP1 POP JUMP JUMPDEST PUSH1 0x0 PUSH1 0x20 DUP3 ADD SWAP1 POP DUP2 DUP2 SUB PUSH1 0x0 DUP4 ADD MSTORE PUSH2 0x1832 DUP2 PUSH2 0x17F6 JUMP JUMPDEST SWAP1 POP SWAP2 SWAP1 POP JUMP JUMPDEST PUSH32 0x4A7572792E617070726F76654469737075746550726F706F73616C3A20616C72 PUSH1 0x0 DUP3 ADD MSTORE PUSH32 0x6561647920617070726F76656400000000000000000000000000000000000000 PUSH1 0x20 DUP3 ADD MSTORE POP JUMP JUMPDEST PUSH1 0x0 PUSH2 0x1895 PUSH1 0x2D DUP4 PUSH2 0x143A JUMP JUMPDEST SWAP2 POP PUSH2 0x18A0 DUP3 PUSH2 0x1839 JUMP JUMPDEST PUSH1 0x40 DUP3 ADD SWAP1 POP SWAP2 SWAP1 POP JUMP JUMPDEST PUSH1 0x0 PUSH1 0x20 DUP3 ADD SWAP1 POP DUP2 DUP2 SUB PUSH1 0x0 DUP4 ADD MSTORE PUSH2 0x18C4 DUP2 PUSH2 0x1888 JUMP JUMPDEST SWAP1 POP SWAP2 SWAP1 POP JUMP JUMPDEST PUSH32 0x4A7572792E617070726F7665644469737075746550726F706F73616C3A207072 PUSH1 0x0 DUP3 ADD MSTORE PUSH32 0x6F706F7365722063616E206E6F7420617070726F766520646973707574650000 PUSH1 0x20 DUP3 ADD MSTORE POP JUMP JUMPDEST PUSH1 0x0 PUSH2 0x1927 PUSH1 0x3E DUP4 PUSH2 0x143A JUMP JUMPDEST SWAP2 POP PUSH2 0x1932 DUP3 PUSH2 0x18CB JUMP JUMPDEST PUSH1 0x40 DUP3 ADD SWAP1 POP SWAP2 SWAP1 POP JUMP JUMPDEST PUSH1 0x0 PUSH1 0x20 DUP3 ADD SWAP1 POP DUP2 DUP2 SUB PUSH1 0x0 DUP4 ADD MSTORE PUSH2 0x1956 DUP2 PUSH2 0x191A JUMP JUMPDEST SWAP1 POP SWAP2 SWAP1 POP JUMP JUMPDEST PUSH32 0x4A7572792E617070726F76654469737075746550726F706F73616C3A20646561 PUSH1 0x0 DUP3 ADD MSTORE PUSH32 0x646C696E65206861732070617374000000000000000000000000000000000000 PUSH1 0x20 DUP3 ADD MSTORE POP JUMP JUMPDEST PUSH1 0x0 PUSH2 0x19B9 PUSH1 0x2E DUP4 PUSH2 0x143A JUMP JUMPDEST SWAP2 POP PUSH2 0x19C4 DUP3 PUSH2 0x195D JUMP JUMPDEST PUSH1 0x40 DUP3 ADD SWAP1 POP SWAP2 SWAP1 POP JUMP JUMPDEST PUSH1 0x0 PUSH1 0x20 DUP3 ADD SWAP1 POP DUP2 DUP2 SUB PUSH1 0x0 DUP4 ADD MSTORE PUSH2 0x19E8 DUP2 PUSH2 0x19AC JUMP JUMPDEST SWAP1 POP SWAP2 SWAP1 POP JUMP JUMPDEST PUSH1 0x0 DUP2 SWAP1 POP SWAP2 SWAP1 POP JUMP JUMPDEST PUSH2 0x1A0A PUSH2 0x1A05 DUP3 PUSH2 0x11A7 JUMP JUMPDEST PUSH2 0x19EF JUMP JUMPDEST DUP3 MSTORE POP POP JUMP JUMPDEST PUSH1 0x0 PUSH2 0x1A1C DUP3 DUP7 PUSH2 0x19F9 JUMP JUMPDEST PUSH1 0x20 DUP3 ADD SWAP2 POP PUSH2 0x1A2C DUP3 DUP6 PUSH2 0x19F9 JUMP JUMPDEST PUSH1 0x20 DUP3 ADD SWAP2 POP PUSH2 0x1A3C DUP3 DUP5 PUSH2 0x19F9 JUMP JUMPDEST PUSH1 0x20 DUP3 ADD SWAP2 POP DUP2 SWAP1 POP SWAP5 SWAP4 POP POP POP POP JUMP JUMPDEST PUSH32 0x4E487B7100000000000000000000000000000000000000000000000000000000 PUSH1 0x0 MSTORE PUSH1 0x32 PUSH1 0x4 MSTORE PUSH1 0x24 PUSH1 0x0 REVERT JUMPDEST PUSH1 0x0 PUSH1 0xFF DUP3 AND SWAP1 POP SWAP2 SWAP1 POP JUMP JUMPDEST PUSH1 0x0 PUSH2 0x1A94 DUP3 PUSH2 0x1A7C JUMP JUMPDEST SWAP2 POP PUSH1 0xFF DUP3 EQ ISZERO PUSH2 0x1AA8 JUMPI PUSH2 0x1AA7 PUSH2 0x14DD JUMP JUMPDEST JUMPDEST PUSH1 0x1 DUP3 ADD SWAP1 POP SWAP2 SWAP1 POP JUMP JUMPDEST PUSH32 0x4E487B7100000000000000000000000000000000000000000000000000000000 PUSH1 0x0 MSTORE PUSH1 0x12 PUSH1 0x4 MSTORE PUSH1 0x24 PUSH1 0x0 REVERT JUMPDEST PUSH1 0x0 PUSH2 0x1AED DUP3 PUSH2 0x11A7 JUMP JUMPDEST SWAP2 POP PUSH2 0x1AF8 DUP4 PUSH2 0x11A7 JUMP JUMPDEST SWAP3 POP DUP3 PUSH2 0x1B08 JUMPI PUSH2 0x1B07 PUSH2 0x1AB3 JUMP JUMPDEST JUMPDEST DUP3 DUP3 DIV SWAP1 POP SWAP3 SWAP2 POP POP JUMP JUMPDEST PUSH1 0x0 PUSH2 0x1B1F DUP3 DUP6 PUSH2 0x19F9 JUMP JUMPDEST PUSH1 0x20 DUP3 ADD SWAP2 POP PUSH2 0x1B2F DUP3 DUP5 PUSH2 0x19F9 JUMP JUMPDEST PUSH1 0x20 DUP3 ADD SWAP2 POP DUP2 SWAP1 POP SWAP4 SWAP3 POP POP POP JUMP JUMPDEST PUSH1 0x0 PUSH2 0x1B4A DUP3 PUSH2 0x11A7 JUMP JUMPDEST SWAP2 POP PUSH2 0x1B55 DUP4 PUSH2 0x11A7 JUMP JUMPDEST SWAP3 POP DUP3 PUSH2 0x1B65 JUMPI PUSH2 0x1B64 PUSH2 0x1AB3 JUMP JUMPDEST JUMPDEST DUP3 DUP3 MOD SWAP1 POP SWAP3 SWAP2 POP POP JUMP JUMPDEST PUSH1 0x0 DUP2 SLOAD SWAP1 POP SWAP2 SWAP1 POP JUMP JUMPDEST PUSH1 0x0 DUP2 SWAP1 POP SWAP3 SWAP2 POP POP JUMP JUMPDEST PUSH1 0x0 DUP2 SWAP1 POP DUP2 PUSH1 0x0 MSTORE PUSH1 0x20 PUSH1 0x0 KECCAK256 SWAP1 POP SWAP2 SWAP1 POP JUMP JUMPDEST PUSH2 0x1BA4 DUP2 PUSH2 0x11A7 JUMP JUMPDEST DUP3 MSTORE POP POP JUMP JUMPDEST PUSH1 0x0 PUSH2 0x1BB6 DUP4 DUP4 PUSH2 0x1B9B JUMP JUMPDEST PUSH1 0x20 DUP4 ADD SWAP1 POP SWAP3 SWAP2 POP POP JUMP JUMPDEST PUSH1 0x0 DUP2 PUSH1 0x0 SHR SWAP1 POP SWAP2 SWAP1 POP JUMP JUMPDEST PUSH1 0x0 DUP2 SWAP1 POP SWAP2 SWAP1 POP JUMP JUMPDEST PUSH1 0x0 PUSH2 0x1BEC PUSH2 0x1BE7 DUP4 PUSH2 0x1BC2 JUMP JUMPDEST PUSH2 0x1BCF JUMP JUMPDEST SWAP1 POP SWAP2 SWAP1 POP JUMP JUMPDEST PUSH1 0x0 PUSH2 0x1BFF DUP3 SLOAD PUSH2 0x1BD9 JUMP JUMPDEST SWAP1 POP SWAP2 SWAP1 POP JUMP JUMPDEST PUSH1 0x0 PUSH1 0x1 DUP3 ADD SWAP1 POP SWAP2 SWAP1 POP JUMP JUMPDEST PUSH1 0x0 PUSH2 0x1C1E DUP3 PUSH2 0x1B70 JUMP JUMPDEST PUSH2 0x1C28 DUP2 DUP6 PUSH2 0x1B7B JUMP JUMPDEST SWAP4 POP PUSH2 0x1C33 DUP4 PUSH2 0x1B86 JUMP JUMPDEST DUP1 PUSH1 0x0 JUMPDEST DUP4 DUP2 LT ISZERO PUSH2 0x1C6B JUMPI PUSH2 0x1C48 DUP3 PUSH2 0x1BF3 JUMP JUMPDEST PUSH2 0x1C52 DUP9 DUP3 PUSH2 0x1BAA JUMP JUMPDEST SWAP8 POP PUSH2 0x1C5D DUP4 PUSH2 0x1C06 JUMP JUMPDEST SWAP3 POP POP PUSH1 0x1 DUP2 ADD SWAP1 POP PUSH2 0x1C37 JUMP JUMPDEST POP DUP6 SWAP4 POP POP POP POP SWAP3 SWAP2 POP POP JUMP JUMPDEST PUSH1 0x0 PUSH2 0x1C84 DUP3 DUP5 PUSH2 0x1C13 JUMP JUMPDEST SWAP2 POP DUP2 SWAP1 POP SWAP3 SWAP2 POP POP JUMP JUMPDEST PUSH1 0x0 PUSH1 0x40 DUP3 ADD SWAP1 POP PUSH2 0x1CA4 PUSH1 0x0 DUP4 ADD DUP6 PUSH2 0x121D JUMP JUMPDEST PUSH2 0x1CB1 PUSH1 0x20 DUP4 ADD DUP5 PUSH2 0x121D JUMP JUMPDEST SWAP4 SWAP3 POP POP POP JUMP INVALID LOG2 PUSH5 0x6970667358 0x22 SLT KECCAK256 0x49 DUP11 SWAP8 PUSH4 0xB9294087 0xD3 0x2D JUMP 0xD4 0xAE 0xC0 SWAP6 COINBASE ISZERO 0xC5 MOD CODECOPY 0xD9 0xD4 COINBASE PUSH5 0xD0ECBC1FE4 EXTCODEHASH 0xC1 PUSH13 0x64736F6C634300080900330000 "
        },
        "methodIdentifiers": {
          "approveDisputeProposal(uint256)": "e922de50",
          "disputeProposals(uint256)": "a94c8f3d",
          "disputes(uint256)": "564a565d",
          "extendDisputeDeadline(uint256)": "64ca6b14",
          "juries(uint256,uint256)": "01144f44",
          "juryExpiration(uint256)": "a414abb4",
          "juryPoolMembers(address)": "d652ef1a",
          "newDisputeProposal(uint256)": "ccd0429d",
          "paused()": "5c975abb",
          "vote(uint256,bool)": "c9d27afe"
        }
      },
      "storageLayout": {
        "storage": [
          {
            "astId": 17,
            "contract": "contracts/Jury.sol:Jury",
            "label": "_paused",
            "offset": 0,
            "slot": "0",
            "type": "t_bool"
          },
          {
            "astId": 143,
            "contract": "contracts/Jury.sol:Jury",
            "label": "s_jurySwap",
            "offset": 0,
            "slot": "1",
            "type": "t_uint256"
          },
          {
            "astId": 145,
            "contract": "contracts/Jury.sol:Jury",
            "label": "s_minJurySize",
            "offset": 0,
            "slot": "2",
            "type": "t_uint256"
          },
          {
            "astId": 147,
            "contract": "contracts/Jury.sol:Jury",
            "label": "s_jurorLength",
            "offset": 0,
            "slot": "3",
            "type": "t_uint256"
          },
          {
            "astId": 149,
            "contract": "contracts/Jury.sol:Jury",
            "label": "s_juryId",
            "offset": 0,
            "slot": "4",
            "type": "t_uint256"
          },
          {
            "astId": 151,
            "contract": "contracts/Jury.sol:Jury",
            "label": "disputeId",
            "offset": 0,
            "slot": "5",
            "type": "t_uint256"
          },
          {
            "astId": 153,
            "contract": "contracts/Jury.sol:Jury",
            "label": "disputeProposalId",
            "offset": 0,
            "slot": "6",
            "type": "t_uint256"
          },
          {
            "astId": 159,
            "contract": "contracts/Jury.sol:Jury",
            "label": "disputes",
            "offset": 0,
            "slot": "7",
            "type": "t_mapping(t_uint256,t_struct(Dispute)890_storage)"
          },
          {
            "astId": 164,
            "contract": "contracts/Jury.sol:Jury",
            "label": "disputeProposals",
            "offset": 0,
            "slot": "8",
            "type": "t_mapping(t_uint256,t_struct(DisputeProposal)881_storage)"
          },
          {
            "astId": 169,
            "contract": "contracts/Jury.sol:Jury",
            "label": "juryPool",
            "offset": 0,
            "slot": "9",
            "type": "t_mapping(t_uint256,t_struct(JuryMember)872_storage)"
          },
          {
            "astId": 173,
            "contract": "contracts/Jury.sol:Jury",
            "label": "juryPoolMembers",
            "offset": 0,
            "slot": "10",
            "type": "t_mapping(t_address,t_uint256)"
          },
          {
            "astId": 178,
            "contract": "contracts/Jury.sol:Jury",
            "label": "juries",
            "offset": 0,
            "slot": "11",
            "type": "t_mapping(t_uint256,t_array(t_uint256)dyn_storage)"
          },
          {
            "astId": 182,
            "contract": "contracts/Jury.sol:Jury",
            "label": "juryExpiration",
            "offset": 0,
            "slot": "12",
            "type": "t_mapping(t_uint256,t_uint256)"
          },
          {
            "astId": 189,
            "contract": "contracts/Jury.sol:Jury",
            "label": "juryMemberVote",
            "offset": 0,
            "slot": "13",
            "type": "t_mapping(t_uint256,t_mapping(t_uint256,t_struct(Vote)863_storage))"
          }
        ],
        "types": {
          "t_address": {
            "encoding": "inplace",
            "label": "address",
            "numberOfBytes": "20"
          },
          "t_array(t_uint256)dyn_storage": {
            "base": "t_uint256",
            "encoding": "dynamic_array",
            "label": "uint256[]",
            "numberOfBytes": "32"
          },
          "t_bool": {
            "encoding": "inplace",
            "label": "bool",
            "numberOfBytes": "1"
          },
          "t_mapping(t_address,t_uint256)": {
            "encoding": "mapping",
            "key": "t_address",
            "label": "mapping(address => uint256)",
            "numberOfBytes": "32",
            "value": "t_uint256"
          },
          "t_mapping(t_uint256,t_array(t_uint256)dyn_storage)": {
            "encoding": "mapping",
            "key": "t_uint256",
            "label": "mapping(uint256 => uint256[])",
            "numberOfBytes": "32",
            "value": "t_array(t_uint256)dyn_storage"
          },
          "t_mapping(t_uint256,t_mapping(t_uint256,t_struct(Vote)863_storage))": {
            "encoding": "mapping",
            "key": "t_uint256",
            "label": "mapping(uint256 => mapping(uint256 => struct IJury.Vote))",
            "numberOfBytes": "32",
            "value": "t_mapping(t_uint256,t_struct(Vote)863_storage)"
          },
          "t_mapping(t_uint256,t_struct(Dispute)890_storage)": {
            "encoding": "mapping",
            "key": "t_uint256",
            "label": "mapping(uint256 => struct IJury.Dispute)",
            "numberOfBytes": "32",
            "value": "t_struct(Dispute)890_storage"
          },
          "t_mapping(t_uint256,t_struct(DisputeProposal)881_storage)": {
            "encoding": "mapping",
            "key": "t_uint256",
            "label": "mapping(uint256 => struct IJury.DisputeProposal)",
            "numberOfBytes": "32",
            "value": "t_struct(DisputeProposal)881_storage"
          },
          "t_mapping(t_uint256,t_struct(JuryMember)872_storage)": {
            "encoding": "mapping",
            "key": "t_uint256",
            "label": "mapping(uint256 => struct IJury.JuryMember)",
            "numberOfBytes": "32",
            "value": "t_struct(JuryMember)872_storage"
          },
          "t_mapping(t_uint256,t_struct(Vote)863_storage)": {
            "encoding": "mapping",
            "key": "t_uint256",
            "label": "mapping(uint256 => struct IJury.Vote)",
            "numberOfBytes": "32",
            "value": "t_struct(Vote)863_storage"
          },
          "t_mapping(t_uint256,t_uint256)": {
            "encoding": "mapping",
            "key": "t_uint256",
            "label": "mapping(uint256 => uint256)",
            "numberOfBytes": "32",
            "value": "t_uint256"
          },
          "t_struct(Dispute)890_storage": {
            "encoding": "inplace",
            "label": "struct IJury.Dispute",
            "members": [
              {
                "astId": 883,
                "contract": "contracts/Jury.sol:Jury",
                "label": "juryId",
                "offset": 0,
                "slot": "0",
                "type": "t_uint256"
              },
              {
                "astId": 885,
                "contract": "contracts/Jury.sol:Jury",
                "label": "deadline",
                "offset": 0,
                "slot": "1",
                "type": "t_uint256"
              },
              {
                "astId": 887,
                "contract": "contracts/Jury.sol:Jury",
                "label": "verdict",
                "offset": 0,
                "slot": "2",
                "type": "t_bool"
              },
              {
                "astId": 889,
                "contract": "contracts/Jury.sol:Jury",
                "label": "resolved",
                "offset": 1,
                "slot": "2",
                "type": "t_bool"
              }
            ],
            "numberOfBytes": "96"
          },
          "t_struct(DisputeProposal)881_storage": {
            "encoding": "inplace",
            "label": "struct IJury.DisputeProposal",
            "members": [
              {
                "astId": 874,
                "contract": "contracts/Jury.sol:Jury",
                "label": "proposer",
                "offset": 0,
                "slot": "0",
                "type": "t_address"
              },
              {
                "astId": 876,
                "contract": "contracts/Jury.sol:Jury",
                "label": "juryId",
                "offset": 0,
                "slot": "1",
                "type": "t_uint256"
              },
              {
                "astId": 878,
                "contract": "contracts/Jury.sol:Jury",
                "label": "isApproved",
                "offset": 0,
                "slot": "2",
                "type": "t_bool"
              },
              {
                "astId": 880,
                "contract": "contracts/Jury.sol:Jury",
                "label": "deadline",
                "offset": 0,
                "slot": "3",
                "type": "t_uint256"
              }
            ],
            "numberOfBytes": "128"
          },
          "t_struct(JuryMember)872_storage": {
            "encoding": "inplace",
            "label": "struct IJury.JuryMember",
            "members": [
              {
                "astId": 865,
                "contract": "contracts/Jury.sol:Jury",
                "label": "valid",
                "offset": 0,
                "slot": "0",
                "type": "t_bool"
              },
              {
                "astId": 867,
                "contract": "contracts/Jury.sol:Jury",
                "label": "lastJuryId",
                "offset": 0,
                "slot": "1",
                "type": "t_uint256"
              },
              {
                "astId": 869,
                "contract": "contracts/Jury.sol:Jury",
                "label": "disputesApproved",
                "offset": 0,
                "slot": "2",
                "type": "t_uint256"
              },
              {
                "astId": 871,
                "contract": "contracts/Jury.sol:Jury",
                "label": "disputesResolved",
                "offset": 0,
                "slot": "3",
                "type": "t_uint256"
              }
            ],
            "numberOfBytes": "128"
          },
          "t_struct(Vote)863_storage": {
            "encoding": "inplace",
            "label": "struct IJury.Vote",
            "members": [
              {
                "astId": 860,
                "contract": "contracts/Jury.sol:Jury",
                "label": "decision",
                "offset": 0,
                "slot": "0",
                "type": "t_bool"
              },
              {
                "astId": 862,
                "contract": "contracts/Jury.sol:Jury",
                "label": "voted",
                "offset": 1,
                "slot": "0",
                "type": "t_bool"
              }
            ],
            "numberOfBytes": "32"
          },
          "t_uint256": {
            "encoding": "inplace",
            "label": "uint256",
            "numberOfBytes": "32"
          }
        }
      }
    }
  }
}