{
  "_format": "hh-sol-artifact-1",
  "contractName": "SoulFundFactory",
  "sourceName": "contracts/SoulFundFactory.sol",
  "abi": [
    {
      "inputs": [
        {
          "internalType": "address",
          "name": "_data",
          "type": "address"
        },
        {
          "internalType": "address",
          "name": "_gateway",
          "type": "address"
        },
        {
          "internalType": "address",
          "name": "_gasReceiver",
          "type": "address"
        }
      ],
      "stateMutability": "nonpayable",
      "type": "constructor"
    },
    {
      "anonymous": false,
      "inputs": [
        {
          "indexed": true,
          "internalType": "address",
          "name": "tokenAddress",
          "type": "address"
        },
        {
          "indexed": true,
          "internalType": "address",
          "name": "granter",
          "type": "address"
        },
        {
          "indexed": false,
          "internalType": "uint256",
          "name": "vestingDate",
          "type": "uint256"
        }
      ],
      "name": "NewSoulFundTokenDeployed",
      "type": "event"
    },
    {
      "inputs": [
        {
          "internalType": "uint256",
          "name": "_vestingDate",
          "type": "uint256"
        }
      ],
      "name": "deployNewSoulFund",
      "outputs": [],
      "stateMutability": "nonpayable",
      "type": "function"
    }
  ],
  "bytecode": "0x608060405234801561001057600080fd5b50604051615cd7380380615cd78339818101604052810190610032919061015f565b82600260006101000a81548173ffffffffffffffffffffffffffffffffffffffff021916908373ffffffffffffffffffffffffffffffffffffffff160217905550806000806101000a81548173ffffffffffffffffffffffffffffffffffffffff021916908373ffffffffffffffffffffffffffffffffffffffff16021790555081600160006101000a81548173ffffffffffffffffffffffffffffffffffffffff021916908373ffffffffffffffffffffffffffffffffffffffff1602179055505050506101b2565b600080fd5b600073ffffffffffffffffffffffffffffffffffffffff82169050919050565b600061012c82610101565b9050919050565b61013c81610121565b811461014757600080fd5b50565b60008151905061015981610133565b92915050565b600080600060608486031215610178576101776100fc565b5b60006101868682870161014a565b93505060206101978682870161014a565b92505060406101a88682870161014a565b9150509250925092565b615b16806101c16000396000f3fe60806040523480156200001157600080fd5b50600436106200002e5760003560e01c8063f8fb2bf91462000033575b600080fd5b6200005160048036038101906200004b9190620001fa565b62000053565b005b42811162000098576040517f08c379a00000000000000000000000000000000000000000000000000000000081526004016200008f90620002d9565b60405180910390fd5b60003382600260009054906101000a900473ffffffffffffffffffffffffffffffffffffffff16600160009054906101000a900473ffffffffffffffffffffffffffffffffffffffff1660008054906101000a900473ffffffffffffffffffffffffffffffffffffffff166040516200011190620001ac565b6200012195949392919062000351565b604051809103906000f0801580156200013e573d6000803e3d6000fd5b5090503373ffffffffffffffffffffffffffffffffffffffff168173ffffffffffffffffffffffffffffffffffffffff167f11989d940a556962fe8b4d826ab4daffd12183c8afdc4ace46e77764c8d1491384604051620001a09190620003ae565b60405180910390a35050565b61571580620003cc83390190565b600080fd5b6000819050919050565b620001d481620001bf565b8114620001e057600080fd5b50565b600081359050620001f481620001c9565b92915050565b600060208284031215620002135762000212620001ba565b5b60006200022384828501620001e3565b91505092915050565b600082825260208201905092915050565b7f536f756c46756e64466163746f72792e6465706c6f794e6577536f756c46756e60008201527f643a2076657374696e67206d75737420626520736f6d6574696d6520696e207460208201527f6865206675747572650000000000000000000000000000000000000000000000604082015250565b6000620002c16049836200022c565b9150620002ce826200023d565b606082019050919050565b60006020820190508181036000830152620002f481620002b2565b9050919050565b600073ffffffffffffffffffffffffffffffffffffffff82169050919050565b60006200032882620002fb565b9050919050565b6200033a816200031b565b82525050565b6200034b81620001bf565b82525050565b600060a0820190506200036860008301886200032f565b62000377602083018762000340565b6200038660408301866200032f565b6200039560608301856200032f565b620003a460808301846200032f565b9695505050505050565b6000602082019050620003c5600083018462000340565b9291505056fe60c06040526040516200571538038062005715833981810160405281019062000029919062000485565b6040518060400160405280600881526020017f536f756c46756e640000000000000000000000000000000000000000000000008152506040518060400160405280600381526020017f534c4600000000000000000000000000000000000000000000000000000000008152508160009080519060200190620000ad92919062000330565b508060019080519060200190620000c692919062000330565b505050620000de6000801b86620001cb60201b60201c565b620001107f2dee5dd865e09c7ce6788d674a03682994f0b44339403ca07ac129a9de4bed6a86620001cb60201b60201c565b83600a8190555082601060006101000a81548173ffffffffffffffffffffffffffffffffffffffff021916908373ffffffffffffffffffffffffffffffffffffffff1602179055508073ffffffffffffffffffffffffffffffffffffffff1660808173ffffffffffffffffffffffffffffffffffffffff16815250508173ffffffffffffffffffffffffffffffffffffffff1660a08173ffffffffffffffffffffffffffffffffffffffff1681525050505050505062000572565b620001dd8282620002bd60201b60201c565b620002b95760016006600084815260200190815260200160002060000160008373ffffffffffffffffffffffffffffffffffffffff1673ffffffffffffffffffffffffffffffffffffffff16815260200190815260200160002060006101000a81548160ff0219169083151502179055506200025e6200032860201b60201c565b73ffffffffffffffffffffffffffffffffffffffff168173ffffffffffffffffffffffffffffffffffffffff16837f2f8788117e7eff1d82e926ec794901d17c78024a50270940304540a733656f0d60405160405180910390a45b5050565b60006006600084815260200190815260200160002060000160008373ffffffffffffffffffffffffffffffffffffffff1673ffffffffffffffffffffffffffffffffffffffff16815260200190815260200160002060009054906101000a900460ff16905092915050565b600033905090565b8280546200033e906200053c565b90600052602060002090601f016020900481019282620003625760008555620003ae565b82601f106200037d57805160ff1916838001178555620003ae565b82800160010185558215620003ae579182015b82811115620003ad57825182559160200191906001019062000390565b5b509050620003bd9190620003c1565b5090565b5b80821115620003dc576000816000905550600101620003c2565b5090565b600080fd5b600073ffffffffffffffffffffffffffffffffffffffff82169050919050565b60006200041282620003e5565b9050919050565b620004248162000405565b81146200043057600080fd5b50565b600081519050620004448162000419565b92915050565b6000819050919050565b6200045f816200044a565b81146200046b57600080fd5b50565b6000815190506200047f8162000454565b92915050565b600080600080600060a08688031215620004a457620004a3620003e0565b5b6000620004b48882890162000433565b9550506020620004c7888289016200046e565b9450506040620004da8882890162000433565b9350506060620004ed8882890162000433565b9250506080620005008882890162000433565b9150509295509295909350565b7f4e487b7100000000000000000000000000000000000000000000000000000000600052602260045260246000fd5b600060028204905060018216806200055557607f821691505b602082108114156200056c576200056b6200050d565b5b50919050565b60805160a05161517d620005986000396000610b5b015260006111c8015261517d6000f3fe6080604052600436106102255760003560e01c806391d1485411610123578063c87b56dd116100ab578063d8f5df661161006f578063d8f5df6614610848578063db4796c014610873578063e985e9c5146108b0578063f94c0a11146108ed578063fedce7a81461091857610225565b8063c87b56dd1461075e578063ced3a4031461079b578063cef5234f146107c6578063d547741f14610803578063d67063281461082c57610225565b8063a217fddf116100f2578063a217fddf14610678578063a22cb465146106a3578063b0fa8444146106cc578063b7134dfa146106f7578063b88d4fde1461073557610225565b806391d14854146105b75780639590cf75146105f457806395d89b41146106105780639e42ce181461063b57610225565b80632f2ff15d116101b1578063491606581161017557806349160658146104be5780636352211e146104e757806370a08231146105245780637ef656091461056157806380d14b4a1461058c57610225565b80632f2ff15d146103dd57806336568abe1461040657806340d097c31461042f57806342842e0e14610458578063438a8ece1461048157610225565b8063116191b6116101f8578063116191b6146102f85780631a98b2e0146103235780631c6ffa461461034c57806323b872dd14610377578063248a9ca3146103a057610225565b806301ffc9a71461022a57806306fdde0314610267578063081812fc14610292578063095ea7b3146102cf575b600080fd5b34801561023657600080fd5b50610251600480360381019061024c9190613314565b610955565b60405161025e919061335c565b60405180910390f35b34801561027357600080fd5b5061027c610967565b6040516102899190613410565b60405180910390f35b34801561029e57600080fd5b506102b960048036038101906102b49190613468565b6109f9565b6040516102c691906134d6565b60405180910390f35b3480156102db57600080fd5b506102f660048036038101906102f1919061351d565b610a3f565b005b34801561030457600080fd5b5061030d610b57565b60405161031a91906135bc565b60405180910390f35b34801561032f57600080fd5b5061034a600480360381019061034591906136c8565b610b7f565b005b34801561035857600080fd5b50610361610c91565b60405161036e9190613410565b60405180910390f35b34801561038357600080fd5b5061039e600480360381019061039991906137d8565b610d1f565b005b3480156103ac57600080fd5b506103c760048036038101906103c2919061382b565b610d7f565b6040516103d49190613867565b60405180910390f35b3480156103e957600080fd5b5061040460048036038101906103ff9190613882565b610d9f565b005b34801561041257600080fd5b5061042d60048036038101906104289190613882565b610dc0565b005b34801561043b57600080fd5b50610456600480360381019061045191906138c2565b610e43565b005b34801561046457600080fd5b5061047f600480360381019061047a91906137d8565b610ec5565b005b34801561048d57600080fd5b506104a860048036038101906104a391906138ef565b610ee5565b6040516104b5919061393e565b60405180910390f35b3480156104ca57600080fd5b506104e560048036038101906104e09190613959565b610f0a565b005b3480156104f357600080fd5b5061050e60048036038101906105099190613468565b611056565b60405161051b91906134d6565b60405180910390f35b34801561053057600080fd5b5061054b600480360381019061054691906138c2565b611108565b604051610558919061393e565b60405180910390f35b34801561056d57600080fd5b506105766111c0565b604051610583919061393e565b60405180910390f35b34801561059857600080fd5b506105a16111c6565b6040516105ae9190613a43565b60405180910390f35b3480156105c357600080fd5b506105de60048036038101906105d99190613882565b6111ea565b6040516105eb919061335c565b60405180910390f35b61060e60048036038101906106099190613468565b611255565b005b34801561061c57600080fd5b5061062561131b565b6040516106329190613410565b60405180910390f35b34801561064757600080fd5b50610662600480360381019061065d9190613468565b6113ad565b60405161066f919061393e565b60405180910390f35b34801561068457600080fd5b5061068d6113c5565b60405161069a9190613867565b60405180910390f35b3480156106af57600080fd5b506106ca60048036038101906106c59190613a8a565b6113cc565b005b3480156106d857600080fd5b506106e16113e2565b6040516106ee9190613410565b60405180910390f35b34801561070357600080fd5b5061071e60048036038101906107199190613aca565b611470565b60405161072c929190613b0a565b60405180910390f35b34801561074157600080fd5b5061075c60048036038101906107579190613c63565b6114c7565b005b34801561076a57600080fd5b5061078560048036038101906107809190613468565b611529565b6040516107929190613410565b60405180910390f35b3480156107a757600080fd5b506107b061162c565b6040516107bd9190613867565b60405180910390f35b3480156107d257600080fd5b506107ed60048036038101906107e891906138ef565b611650565b6040516107fa919061335c565b60405180910390f35b34801561080f57600080fd5b5061082a60048036038101906108259190613882565b61167f565b005b61084660048036038101906108419190613ce6565b6116a0565b005b34801561085457600080fd5b5061085d611ac7565b60405161086a919061393e565b60405180910390f35b34801561087f57600080fd5b5061089a60048036038101906108959190613468565b611acd565b6040516108a79190613e22565b60405180910390f35b3480156108bc57600080fd5b506108d760048036038101906108d29190613e3e565b611b92565b6040516108e4919061335c565b60405180910390f35b3480156108f957600080fd5b50610902611c26565b60405161090f9190613867565b60405180910390f35b34801561092457600080fd5b5061093f600480360381019061093a91906138ef565b611c4a565b60405161094c919061335c565b60405180910390f35b600061096082611c79565b9050919050565b60606000805461097690613ead565b80601f01602080910402602001604051908101604052809291908181526020018280546109a290613ead565b80156109ef5780601f106109c4576101008083540402835291602001916109ef565b820191906000526020600020905b8154815290600101906020018083116109d257829003601f168201915b5050505050905090565b6000610a0482611cf3565b6004600083815260200190815260200160002060009054906101000a900473ffffffffffffffffffffffffffffffffffffffff169050919050565b6000610a4a82611056565b90508073ffffffffffffffffffffffffffffffffffffffff168373ffffffffffffffffffffffffffffffffffffffff161415610abb576040517f08c379a0000000000000000000000000000000000000000000000000000000008152600401610ab290613f51565b60405180910390fd5b8073ffffffffffffffffffffffffffffffffffffffff16610ada611d3e565b73ffffffffffffffffffffffffffffffffffffffff161480610b095750610b0881610b03611d3e565b611b92565b5b610b48576040517f08c379a0000000000000000000000000000000000000000000000000000000008152600401610b3f90613fe3565b60405180910390fd5b610b528383611d46565b505050565b60007f0000000000000000000000000000000000000000000000000000000000000000905090565b60008585604051610b91929190614033565b60405180910390209050610ba3610b57565b73ffffffffffffffffffffffffffffffffffffffff16631876eed98c8c8c8c8c878b8b8b6040518a63ffffffff1660e01b8152600401610beb99989796959493929190614079565b602060405180830381600087803b158015610c0557600080fd5b505af1158015610c19573d6000803e3d6000fd5b505050506040513d601f19601f82011682018060405250810190610c3d919061410a565b610c73576040517f500c44b400000000000000000000000000000000000000000000000000000000815260040160405180910390fd5b610c848a8a8a8a8a8a8a8a8a611dff565b5050505050505050505050565b60078054610c9e90613ead565b80601f0160208091040260200160405190810160405280929190818152602001828054610cca90613ead565b8015610d175780601f10610cec57610100808354040283529160200191610d17565b820191906000526020600020905b815481529060010190602001808311610cfa57829003601f168201915b505050505081565b610d30610d2a611d3e565b82611e0a565b610d6f576040517f08c379a0000000000000000000000000000000000000000000000000000000008152600401610d66906141a9565b60405180910390fd5b610d7a838383611e9f565b505050565b600060066000838152602001908152602001600020600101549050919050565b610da882610d7f565b610db181612106565b610dbb838361211a565b505050565b610dc8611d3e565b73ffffffffffffffffffffffffffffffffffffffff168173ffffffffffffffffffffffffffffffffffffffff1614610e35576040517f08c379a0000000000000000000000000000000000000000000000000000000008152600401610e2c9061423b565b60405180910390fd5b610e3f82826121fb565b5050565b7f2dee5dd865e09c7ce6788d674a03682994f0b44339403ca07ac129a9de4bed6a610e6d81612106565b6000600954905060096000815480929190610e879061428a565b9190505550610eb67fc8a41221bcd7fcf2c225f5a9265e1d4d39949d89197159d59e5f4b87b62c419e8461211a565b610ec083826122dd565b505050565b610ee0838383604051806020016040528060008152506114c7565b505050565b600e602052816000526040600020602052806000526040600020600091509150505481565b602a8484905014610f50576040517f08c379a0000000000000000000000000000000000000000000000000000000008152600401610f479061431f565b60405180910390fd5b60008282604051610f62929190614033565b60405180910390209050610f74610b57565b73ffffffffffffffffffffffffffffffffffffffff16635f6970c38989898989876040518763ffffffff1660e01b8152600401610fb69695949392919061433f565b602060405180830381600087803b158015610fd057600080fd5b505af1158015610fe4573d6000803e3d6000fd5b505050506040513d601f19601f82011682018060405250810190611008919061410a565b61103e576040517f500c44b400000000000000000000000000000000000000000000000000000000815260040160405180910390fd5b61104c8787878787876122fb565b5050505050505050565b6000806002600084815260200190815260200160002060009054906101000a900473ffffffffffffffffffffffffffffffffffffffff169050600073ffffffffffffffffffffffffffffffffffffffff168173ffffffffffffffffffffffffffffffffffffffff1614156110ff576040517f08c379a00000000000000000000000000000000000000000000000000000000081526004016110f6906143e2565b60405180910390fd5b80915050919050565b60008073ffffffffffffffffffffffffffffffffffffffff168273ffffffffffffffffffffffffffffffffffffffff161415611179576040517f08c379a000000000000000000000000000000000000000000000000000000000815260040161117090614474565b60405180910390fd5b600360008373ffffffffffffffffffffffffffffffffffffffff1673ffffffffffffffffffffffffffffffffffffffff168152602001908152602001600020549050919050565b6101f481565b7f000000000000000000000000000000000000000000000000000000000000000081565b60006006600084815260200190815260200160002060000160008373ffffffffffffffffffffffffffffffffffffffff1673ffffffffffffffffffffffffffffffffffffffff16815260200190815260200160002060009054906101000a900460ff16905092915050565b600073ffffffffffffffffffffffffffffffffffffffff1661127682611056565b73ffffffffffffffffffffffffffffffffffffffff1614156112cd576040517f08c379a00000000000000000000000000000000000000000000000000000000081526004016112c490614506565b60405180910390fd5b6112d8816001612349565b6000600190507f34ef4ac64e0eac8a04fe2b95d0d037921287716ff3019d01b6712d2e95075095828260405161130f929190614526565b60405180910390a15050565b60606001805461132a90613ead565b80601f016020809104026020016040519081016040528092919081815260200182805461135690613ead565b80156113a35780601f10611378576101008083540402835291602001916113a3565b820191906000526020600020905b81548152906001019060200180831161138657829003601f168201915b5050505050905090565b600f6020528060005260406000206000915090505481565b6000801b81565b6113de6113d7611d3e565b83836125c3565b5050565b600880546113ef90613ead565b80601f016020809104026020016040519081016040528092919081815260200182805461141b90613ead565b80156114685780601f1061143d57610100808354040283529160200191611468565b820191906000526020600020905b81548152906001019060200180831161144b57829003601f168201915b505050505081565b600d602052816000526040600020816005811061148c57600080fd5b60020201600091509150508060000160009054906101000a900473ffffffffffffffffffffffffffffffffffffffff16908060010154905082565b6114d86114d2611d3e565b83611e0a565b611517576040517f08c379a000000000000000000000000000000000000000000000000000000000815260040161150e906141a9565b60405180910390fd5b61152384848484612730565b50505050565b60606115348261278c565b611573576040517f08c379a000000000000000000000000000000000000000000000000000000000815260040161156a9061459b565b60405180910390fd5b601060009054906101000a900473ffffffffffffffffffffffffffffffffffffffff1673ffffffffffffffffffffffffffffffffffffffff1663611fc46930846040518363ffffffff1660e01b81526004016115d0929190613b0a565b60006040518083038186803b1580156115e857600080fd5b505afa1580156115fc573d6000803e3d6000fd5b505050506040513d6000823e3d601f19601f82011682018060405250810190611625919061465c565b9050919050565b7fc8a41221bcd7fcf2c225f5a9265e1d4d39949d89197159d59e5f4b87b62c419e81565b600c6020528160005260406000206020528060005260406000206000915091509054906101000a900460ff1681565b61168882610d7f565b61169181612106565b61169b83836121fb565b505050565b7f2dee5dd865e09c7ce6788d674a03682994f0b44339403ca07ac129a9de4bed6a6116ca81612106565b6000600e600086815260200190815260200160002060008573ffffffffffffffffffffffffffffffffffffffff1673ffffffffffffffffffffffffffffffffffffffff168152602001908152602001600020541015801561173e57506005600f600086815260200190815260200160002054105b61177d576040517f08c379a000000000000000000000000000000000000000000000000000000000815260040161177490614717565b60405180910390fd5b6000600e600086815260200190815260200160002060008573ffffffffffffffffffffffffffffffffffffffff1673ffffffffffffffffffffffffffffffffffffffff168152602001908152602001600020549050600081141561192b57600f600086815260200190815260200160002060008154809291906117ff9061428a565b9190505550600f600086815260200190815260200160002054600e600087815260200190815260200160002060008673ffffffffffffffffffffffffffffffffffffffff1673ffffffffffffffffffffffffffffffffffffffff16815260200190815260200160002081905550600e600086815260200190815260200160002060008573ffffffffffffffffffffffffffffffffffffffff1673ffffffffffffffffffffffffffffffffffffffff16815260200190815260200160002054905083600d600087815260200190815260200160002082600581106118e5576118e4614737565b5b6002020160000160006101000a81548173ffffffffffffffffffffffffffffffffffffffff021916908373ffffffffffffffffffffffffffffffffffffffff1602179055505b600073ffffffffffffffffffffffffffffffffffffffff168473ffffffffffffffffffffffffffffffffffffffff1614156119a7578234146119a2576040517f08c379a0000000000000000000000000000000000000000000000000000000008152600401611999906147d8565b60405180910390fd5b611a38565b8373ffffffffffffffffffffffffffffffffffffffff166323b872dd3330866040518463ffffffff1660e01b81526004016119e4939291906147f8565b602060405180830381600087803b1580156119fe57600080fd5b505af1158015611a12573d6000803e3d6000fd5b505050506040513d601f19601f82011682018060405250810190611a36919061410a565b505b82600d60008781526020019081526020016000208260058110611a5e57611a5d614737565b5b600202016001016000828254611a74919061482f565b925050819055507f03b9932ccfcbee04cee8cedad7802dbe5c786c57591e9a7cd4c8fea13b13be82858585611aa889611056565b604051611ab89493929190614885565b60405180910390a15050505050565b600a5481565b611ad56131a8565b600d6000838152602001908152602001600020600580602002604051908101604052809291906000905b82821015611b87578382600202016040518060400160405290816000820160009054906101000a900473ffffffffffffffffffffffffffffffffffffffff1673ffffffffffffffffffffffffffffffffffffffff1673ffffffffffffffffffffffffffffffffffffffff16815260200160018201548152505081526020019060010190611aff565b505050509050919050565b6000600560008473ffffffffffffffffffffffffffffffffffffffff1673ffffffffffffffffffffffffffffffffffffffff16815260200190815260200160002060008373ffffffffffffffffffffffffffffffffffffffff1673ffffffffffffffffffffffffffffffffffffffff16815260200190815260200160002060009054906101000a900460ff16905092915050565b7f2dee5dd865e09c7ce6788d674a03682994f0b44339403ca07ac129a9de4bed6a81565b600b6020528160005260406000206020528060005260406000206000915091509054906101000a900460ff1681565b60007f7965db0b000000000000000000000000000000000000000000000000000000007bffffffffffffffffffffffffffffffffffffffffffffffffffffffff1916827bffffffffffffffffffffffffffffffffffffffffffffffffffffffff19161480611cec5750611ceb826127f8565b5b9050919050565b611cfc8161278c565b611d3b576040517f08c379a0000000000000000000000000000000000000000000000000000000008152600401611d32906143e2565b60405180910390fd5b50565b600033905090565b816004600083815260200190815260200160002060006101000a81548173ffffffffffffffffffffffffffffffffffffffff021916908373ffffffffffffffffffffffffffffffffffffffff160217905550808273ffffffffffffffffffffffffffffffffffffffff16611db983611056565b73ffffffffffffffffffffffffffffffffffffffff167f8c5be1e5ebec7d5bd14f71427d1e84f3dd0314c0f7b2291e5b200ac8c7c3b92560405160405180910390a45050565b505050505050505050565b600080611e1683611056565b90508073ffffffffffffffffffffffffffffffffffffffff168473ffffffffffffffffffffffffffffffffffffffff161480611e585750611e578185611b92565b5b80611e9657508373ffffffffffffffffffffffffffffffffffffffff16611e7e846109f9565b73ffffffffffffffffffffffffffffffffffffffff16145b91505092915050565b8273ffffffffffffffffffffffffffffffffffffffff16611ebf82611056565b73ffffffffffffffffffffffffffffffffffffffff1614611f15576040517f08c379a0000000000000000000000000000000000000000000000000000000008152600401611f0c9061493c565b60405180910390fd5b600073ffffffffffffffffffffffffffffffffffffffff168273ffffffffffffffffffffffffffffffffffffffff161415611f85576040517f08c379a0000000000000000000000000000000000000000000000000000000008152600401611f7c906149ce565b60405180910390fd5b611f908383836128da565b611f9b600082611d46565b6001600360008573ffffffffffffffffffffffffffffffffffffffff1673ffffffffffffffffffffffffffffffffffffffff1681526020019081526020016000206000828254611feb91906149ee565b925050819055506001600360008473ffffffffffffffffffffffffffffffffffffffff1673ffffffffffffffffffffffffffffffffffffffff1681526020019081526020016000206000828254612042919061482f565b92505081905550816002600083815260200190815260200160002060006101000a81548173ffffffffffffffffffffffffffffffffffffffff021916908373ffffffffffffffffffffffffffffffffffffffff160217905550808273ffffffffffffffffffffffffffffffffffffffff168473ffffffffffffffffffffffffffffffffffffffff167fddf252ad1be2c89b69c2b068fc378daa952ba7f163c4a11628f55a4df523b3ef60405160405180910390a4612101838383612959565b505050565b61211781612112611d3e565b61295e565b50565b61212482826111ea565b6121f75760016006600084815260200190815260200160002060000160008373ffffffffffffffffffffffffffffffffffffffff1673ffffffffffffffffffffffffffffffffffffffff16815260200190815260200160002060006101000a81548160ff02191690831515021790555061219c611d3e565b73ffffffffffffffffffffffffffffffffffffffff168173ffffffffffffffffffffffffffffffffffffffff16837f2f8788117e7eff1d82e926ec794901d17c78024a50270940304540a733656f0d60405160405180910390a45b5050565b61220582826111ea565b156122d95760006006600084815260200190815260200160002060000160008373ffffffffffffffffffffffffffffffffffffffff1673ffffffffffffffffffffffffffffffffffffffff16815260200190815260200160002060006101000a81548160ff02191690831515021790555061227e611d3e565b73ffffffffffffffffffffffffffffffffffffffff168173ffffffffffffffffffffffffffffffffffffffff16837ff6391f5c32d9c69d2a47ea670b442974b53935d1edc7fd64eb21e047a839171b60405160405180910390a45b5050565b6122f78282604051806020016040528060008152506129fb565b5050565b600080838381019061230d9190614a60565b915091508787600791906123229291906131d5565b508585600891906123349291906131d5565b5061233f8183612a56565b5050505050505050565b61271081111561238e576040517f08c379a000000000000000000000000000000000000000000000000000000000815260040161238590614aec565b60405180910390fd5b60005b600f6000848152602001908152602001600020548110156125be576000600d600085815260200190815260200160002082600581106123d3576123d2614737565b5b6002020160000160009054906101000a900473ffffffffffffffffffffffffffffffffffffffff169050600061271084600d6000888152602001908152602001600020856005811061242857612427614737565b5b600202016001015461243a9190614b0c565b6124449190614b95565b905080600d6000878152602001908152602001600020846005811061246c5761246b614737565b5b60020201600101600082825461248291906149ee565b92505081905550600073ffffffffffffffffffffffffffffffffffffffff168273ffffffffffffffffffffffffffffffffffffffff161415612512576124c785611056565b73ffffffffffffffffffffffffffffffffffffffff166108fc829081150290604051600060405180830381858888f1935050505015801561250c573d6000803e3d6000fd5b506125a9565b8173ffffffffffffffffffffffffffffffffffffffff1663a9059cbb61253787611056565b836040518363ffffffff1660e01b8152600401612555929190613b0a565b602060405180830381600087803b15801561256f57600080fd5b505af1158015612583573d6000803e3d6000fd5b505050506040513d601f19601f820116820180604052508101906125a7919061410a565b505b505080806125b69061428a565b915050612391565b505050565b8173ffffffffffffffffffffffffffffffffffffffff168373ffffffffffffffffffffffffffffffffffffffff161415612632576040517f08c379a000000000000000000000000000000000000000000000000000000000815260040161262990614c12565b60405180910390fd5b80600560008573ffffffffffffffffffffffffffffffffffffffff1673ffffffffffffffffffffffffffffffffffffffff16815260200190815260200160002060008473ffffffffffffffffffffffffffffffffffffffff1673ffffffffffffffffffffffffffffffffffffffff16815260200190815260200160002060006101000a81548160ff0219169083151502179055508173ffffffffffffffffffffffffffffffffffffffff168373ffffffffffffffffffffffffffffffffffffffff167f17307eab39ab6107e8899845ad3d59bd9653f200f220920489ca2b5937696c3183604051612723919061335c565b60405180910390a3505050565b61273b848484611e9f565b61274784848484612b69565b612786576040517f08c379a000000000000000000000000000000000000000000000000000000000815260040161277d90614ca4565b60405180910390fd5b50505050565b60008073ffffffffffffffffffffffffffffffffffffffff166002600084815260200190815260200160002060009054906101000a900473ffffffffffffffffffffffffffffffffffffffff1673ffffffffffffffffffffffffffffffffffffffff1614159050919050565b60007f80ac58cd000000000000000000000000000000000000000000000000000000007bffffffffffffffffffffffffffffffffffffffffffffffffffffffff1916827bffffffffffffffffffffffffffffffffffffffffffffffffffffffff191614806128c357507f5b5e139f000000000000000000000000000000000000000000000000000000007bffffffffffffffffffffffffffffffffffffffffffffffffffffffff1916827bffffffffffffffffffffffffffffffffffffffffffffffffffffffff1916145b806128d357506128d282612d00565b5b9050919050565b600073ffffffffffffffffffffffffffffffffffffffff168373ffffffffffffffffffffffffffffffffffffffff1614612949576040517f08c379a000000000000000000000000000000000000000000000000000000000815260040161294090614d36565b60405180910390fd5b612954838383612d6a565b505050565b505050565b61296882826111ea565b6129f75761298d8173ffffffffffffffffffffffffffffffffffffffff166014612d6f565b61299b8360001c6020612d6f565b6040516020016129ac929190614e2a565b6040516020818303038152906040526040517f08c379a00000000000000000000000000000000000000000000000000000000081526004016129ee9190613410565b60405180910390fd5b5050565b612a058383612fab565b612a126000848484612b69565b612a51576040517f08c379a0000000000000000000000000000000000000000000000000000000008152600401612a4890614ca4565b60405180910390fd5b505050565b6000612a6183611056565b90508073ffffffffffffffffffffffffffffffffffffffff168273ffffffffffffffffffffffffffffffffffffffff1614612ad1576040517f08c379a0000000000000000000000000000000000000000000000000000000008152600401612ac890614ed6565b60405180910390fd5b612add836101f4612349565b6000600190508173ffffffffffffffffffffffffffffffffffffffff166108fc829081150290604051600060405180830381858888f19350505050158015612b29573d6000803e3d6000fd5b507f6304e1c0e6a866eff2e257afddc8be016c0c6f6264e47046379ec6a3a3cb2bde8482604051612b5b929190614526565b60405180910390a150505050565b6000612b8a8473ffffffffffffffffffffffffffffffffffffffff16613185565b15612cf3578373ffffffffffffffffffffffffffffffffffffffff1663150b7a02612bb3611d3e565b8786866040518563ffffffff1660e01b8152600401612bd59493929190614f4b565b602060405180830381600087803b158015612bef57600080fd5b505af1925050508015612c2057506040513d601f19601f82011682018060405250810190612c1d9190614fac565b60015b612ca3573d8060008114612c50576040519150601f19603f3d011682016040523d82523d6000602084013e612c55565b606091505b50600081511415612c9b576040517f08c379a0000000000000000000000000000000000000000000000000000000008152600401612c9290614ca4565b60405180910390fd5b805181602001fd5b63150b7a0260e01b7bffffffffffffffffffffffffffffffffffffffffffffffffffffffff1916817bffffffffffffffffffffffffffffffffffffffffffffffffffffffff191614915050612cf8565b600190505b949350505050565b60007f01ffc9a7000000000000000000000000000000000000000000000000000000007bffffffffffffffffffffffffffffffffffffffffffffffffffffffff1916827bffffffffffffffffffffffffffffffffffffffffffffffffffffffff1916149050919050565b505050565b606060006002836002612d829190614b0c565b612d8c919061482f565b67ffffffffffffffff811115612da557612da4613b38565b5b6040519080825280601f01601f191660200182016040528015612dd75781602001600182028036833780820191505090505b5090507f300000000000000000000000000000000000000000000000000000000000000081600081518110612e0f57612e0e614737565b5b60200101907effffffffffffffffffffffffffffffffffffffffffffffffffffffffffffff1916908160001a9053507f780000000000000000000000000000000000000000000000000000000000000081600181518110612e7357612e72614737565b5b60200101907effffffffffffffffffffffffffffffffffffffffffffffffffffffffffffff1916908160001a90535060006001846002612eb39190614b0c565b612ebd919061482f565b90505b6001811115612f5d577f3031323334353637383961626364656600000000000000000000000000000000600f861660108110612eff57612efe614737565b5b1a60f81b828281518110612f1657612f15614737565b5b60200101907effffffffffffffffffffffffffffffffffffffffffffffffffffffffffffff1916908160001a905350600485901c945080612f5690614fd9565b9050612ec0565b5060008414612fa1576040517f08c379a0000000000000000000000000000000000000000000000000000000008152600401612f989061504f565b60405180910390fd5b8091505092915050565b600073ffffffffffffffffffffffffffffffffffffffff168273ffffffffffffffffffffffffffffffffffffffff16141561301b576040517f08c379a0000000000000000000000000000000000000000000000000000000008152600401613012906150bb565b60405180910390fd5b6130248161278c565b15613064576040517f08c379a000000000000000000000000000000000000000000000000000000000815260040161305b90615127565b60405180910390fd5b613070600083836128da565b6001600360008473ffffffffffffffffffffffffffffffffffffffff1673ffffffffffffffffffffffffffffffffffffffff16815260200190815260200160002060008282546130c0919061482f565b92505081905550816002600083815260200190815260200160002060006101000a81548173ffffffffffffffffffffffffffffffffffffffff021916908373ffffffffffffffffffffffffffffffffffffffff160217905550808273ffffffffffffffffffffffffffffffffffffffff16600073ffffffffffffffffffffffffffffffffffffffff167fddf252ad1be2c89b69c2b068fc378daa952ba7f163c4a11628f55a4df523b3ef60405160405180910390a461318160008383612959565b5050565b6000808273ffffffffffffffffffffffffffffffffffffffff163b119050919050565b6040518060a001604052806005905b6131bf61325b565b8152602001906001900390816131b75790505090565b8280546131e190613ead565b90600052602060002090601f016020900481019282613203576000855561324a565b82601f1061321c57803560ff191683800117855561324a565b8280016001018555821561324a579182015b8281111561324957823582559160200191906001019061322e565b5b509050613257919061328b565b5090565b6040518060400160405280600073ffffffffffffffffffffffffffffffffffffffff168152602001600081525090565b5b808211156132a457600081600090555060010161328c565b5090565b6000604051905090565b600080fd5b600080fd5b60007fffffffff0000000000000000000000000000000000000000000000000000000082169050919050565b6132f1816132bc565b81146132fc57600080fd5b50565b60008135905061330e816132e8565b92915050565b60006020828403121561332a576133296132b2565b5b6000613338848285016132ff565b91505092915050565b60008115159050919050565b61335681613341565b82525050565b6000602082019050613371600083018461334d565b92915050565b600081519050919050565b600082825260208201905092915050565b60005b838110156133b1578082015181840152602081019050613396565b838111156133c0576000848401525b50505050565b6000601f19601f8301169050919050565b60006133e282613377565b6133ec8185613382565b93506133fc818560208601613393565b613405816133c6565b840191505092915050565b6000602082019050818103600083015261342a81846133d7565b905092915050565b6000819050919050565b61344581613432565b811461345057600080fd5b50565b6000813590506134628161343c565b92915050565b60006020828403121561347e5761347d6132b2565b5b600061348c84828501613453565b91505092915050565b600073ffffffffffffffffffffffffffffffffffffffff82169050919050565b60006134c082613495565b9050919050565b6134d0816134b5565b82525050565b60006020820190506134eb60008301846134c7565b92915050565b6134fa816134b5565b811461350557600080fd5b50565b600081359050613517816134f1565b92915050565b60008060408385031215613534576135336132b2565b5b600061354285828601613508565b925050602061355385828601613453565b9150509250929050565b6000819050919050565b600061358261357d61357884613495565b61355d565b613495565b9050919050565b600061359482613567565b9050919050565b60006135a682613589565b9050919050565b6135b68161359b565b82525050565b60006020820190506135d160008301846135ad565b92915050565b6000819050919050565b6135ea816135d7565b81146135f557600080fd5b50565b600081359050613607816135e1565b92915050565b600080fd5b600080fd5b600080fd5b60008083601f8401126136325761363161360d565b5b8235905067ffffffffffffffff81111561364f5761364e613612565b5b60208301915083600182028301111561366b5761366a613617565b5b9250929050565b60008083601f8401126136885761368761360d565b5b8235905067ffffffffffffffff8111156136a5576136a4613612565b5b6020830191508360018202830111156136c1576136c0613617565b5b9250929050565b60008060008060008060008060008060c08b8d0312156136eb576136ea6132b2565b5b60006136f98d828e016135f8565b9a505060208b013567ffffffffffffffff81111561371a576137196132b7565b5b6137268d828e0161361c565b995099505060408b013567ffffffffffffffff811115613749576137486132b7565b5b6137558d828e0161361c565b975097505060608b013567ffffffffffffffff811115613778576137776132b7565b5b6137848d828e01613672565b955095505060808b013567ffffffffffffffff8111156137a7576137a66132b7565b5b6137b38d828e0161361c565b935093505060a06137c68d828e01613453565b9150509295989b9194979a5092959850565b6000806000606084860312156137f1576137f06132b2565b5b60006137ff86828701613508565b935050602061381086828701613508565b925050604061382186828701613453565b9150509250925092565b600060208284031215613841576138406132b2565b5b600061384f848285016135f8565b91505092915050565b613861816135d7565b82525050565b600060208201905061387c6000830184613858565b92915050565b60008060408385031215613899576138986132b2565b5b60006138a7858286016135f8565b92505060206138b885828601613508565b9150509250929050565b6000602082840312156138d8576138d76132b2565b5b60006138e684828501613508565b91505092915050565b60008060408385031215613906576139056132b2565b5b600061391485828601613453565b925050602061392585828601613508565b9150509250929050565b61393881613432565b82525050565b6000602082019050613953600083018461392f565b92915050565b60008060008060008060006080888a031215613978576139776132b2565b5b60006139868a828b016135f8565b975050602088013567ffffffffffffffff8111156139a7576139a66132b7565b5b6139b38a828b0161361c565b9650965050604088013567ffffffffffffffff8111156139d6576139d56132b7565b5b6139e28a828b0161361c565b9450945050606088013567ffffffffffffffff811115613a0557613a046132b7565b5b613a118a828b01613672565b925092505092959891949750929550565b6000613a2d82613589565b9050919050565b613a3d81613a22565b82525050565b6000602082019050613a586000830184613a34565b92915050565b613a6781613341565b8114613a7257600080fd5b50565b600081359050613a8481613a5e565b92915050565b60008060408385031215613aa157613aa06132b2565b5b6000613aaf85828601613508565b9250506020613ac085828601613a75565b9150509250929050565b60008060408385031215613ae157613ae06132b2565b5b6000613aef85828601613453565b9250506020613b0085828601613453565b9150509250929050565b6000604082019050613b1f60008301856134c7565b613b2c602083018461392f565b9392505050565b600080fd5b7f4e487b7100000000000000000000000000000000000000000000000000000000600052604160045260246000fd5b613b70826133c6565b810181811067ffffffffffffffff82111715613b8f57613b8e613b38565b5b80604052505050565b6000613ba26132a8565b9050613bae8282613b67565b919050565b600067ffffffffffffffff821115613bce57613bcd613b38565b5b613bd7826133c6565b9050602081019050919050565b82818337600083830152505050565b6000613c06613c0184613bb3565b613b98565b905082815260208101848484011115613c2257613c21613b33565b5b613c2d848285613be4565b509392505050565b600082601f830112613c4a57613c4961360d565b5b8135613c5a848260208601613bf3565b91505092915050565b60008060008060808587031215613c7d57613c7c6132b2565b5b6000613c8b87828801613508565b9450506020613c9c87828801613508565b9350506040613cad87828801613453565b925050606085013567ffffffffffffffff811115613cce57613ccd6132b7565b5b613cda87828801613c35565b91505092959194509250565b600080600060608486031215613cff57613cfe6132b2565b5b6000613d0d86828701613453565b9350506020613d1e86828701613508565b9250506040613d2f86828701613453565b9150509250925092565b600060059050919050565b600081905092915050565b6000819050919050565b613d62816134b5565b82525050565b613d7181613432565b82525050565b604082016000820151613d8d6000850182613d59565b506020820151613da06020850182613d68565b50505050565b6000613db28383613d77565b60408301905092915050565b6000602082019050919050565b613dd481613d39565b613dde8184613d44565b9250613de982613d4f565b8060005b83811015613e1a578151613e018782613da6565b9650613e0c83613dbe565b925050600181019050613ded565b505050505050565b600061014082019050613e386000830184613dcb565b92915050565b60008060408385031215613e5557613e546132b2565b5b6000613e6385828601613508565b9250506020613e7485828601613508565b9150509250929050565b7f4e487b7100000000000000000000000000000000000000000000000000000000600052602260045260246000fd5b60006002820490506001821680613ec557607f821691505b60208210811415613ed957613ed8613e7e565b5b50919050565b7f4552433732313a20617070726f76616c20746f2063757272656e74206f776e6560008201527f7200000000000000000000000000000000000000000000000000000000000000602082015250565b6000613f3b602183613382565b9150613f4682613edf565b604082019050919050565b60006020820190508181036000830152613f6a81613f2e565b9050919050565b7f4552433732313a20617070726f76652063616c6c6572206973206e6f7420746f60008201527f6b656e206f776e6572206e6f7220617070726f76656420666f7220616c6c0000602082015250565b6000613fcd603e83613382565b9150613fd882613f71565b604082019050919050565b60006020820190508181036000830152613ffc81613fc0565b9050919050565b600081905092915050565b600061401a8385614003565b9350614027838584613be4565b82840190509392505050565b600061404082848661400e565b91508190509392505050565b60006140588385613382565b9350614065838584613be4565b61406e836133c6565b840190509392505050565b600060c08201905061408e600083018c613858565b81810360208301526140a1818a8c61404c565b905081810360408301526140b681888a61404c565b90506140c56060830187613858565b81810360808301526140d881858761404c565b90506140e760a083018461392f565b9a9950505050505050505050565b60008151905061410481613a5e565b92915050565b6000602082840312156141205761411f6132b2565b5b600061412e848285016140f5565b91505092915050565b7f4552433732313a2063616c6c6572206973206e6f7420746f6b656e206f776e6560008201527f72206e6f7220617070726f766564000000000000000000000000000000000000602082015250565b6000614193602e83613382565b915061419e82614137565b604082019050919050565b600060208201905081810360008301526141c281614186565b9050919050565b7f416363657373436f6e74726f6c3a2063616e206f6e6c792072656e6f756e636560008201527f20726f6c657320666f722073656c660000000000000000000000000000000000602082015250565b6000614225602f83613382565b9150614230826141c9565b604082019050919050565b6000602082019050818103600083015261425481614218565b9050919050565b7f4e487b7100000000000000000000000000000000000000000000000000000000600052601160045260246000fd5b600061429582613432565b91507fffffffffffffffffffffffffffffffffffffffffffffffffffffffffffffffff8214156142c8576142c761425b565b5b600182019050919050565b7f7374617274000000000000000000000000000000000000000000000000000000600082015250565b6000614309600583613382565b9150614314826142d3565b602082019050919050565b60006020820190508181036000830152614338816142fc565b9050919050565b60006080820190506143546000830189613858565b818103602083015261436781878961404c565b9050818103604083015261437c81858761404c565b905061438b6060830184613858565b979650505050505050565b7f4552433732313a20696e76616c696420746f6b656e2049440000000000000000600082015250565b60006143cc601883613382565b91506143d782614396565b602082019050919050565b600060208201905081810360008301526143fb816143bf565b9050919050565b7f4552433732313a2061646472657373207a65726f206973206e6f74206120766160008201527f6c6964206f776e65720000000000000000000000000000000000000000000000602082015250565b600061445e602983613382565b915061446982614402565b604082019050919050565b6000602082019050818103600083015261448d81614451565b9050919050565b7f536f756c46756e642e636c61696d46756e64734561726c793a2066756e64206460008201527f6f6573206e6f7420657869737400000000000000000000000000000000000000602082015250565b60006144f0602d83613382565b91506144fb82614494565b604082019050919050565b6000602082019050818103600083015261451f816144e3565b9050919050565b600060408201905061453b600083018561392f565b614548602083018461392f565b9392505050565b7f546f6b656e20646f6573206e6f74206578697374000000000000000000000000600082015250565b6000614585601483613382565b91506145908261454f565b602082019050919050565b600060208201905081810360008301526145b481614578565b9050919050565b600067ffffffffffffffff8211156145d6576145d5613b38565b5b6145df826133c6565b9050602081019050919050565b60006145ff6145fa846145bb565b613b98565b90508281526020810184848401111561461b5761461a613b33565b5b614626848285613393565b509392505050565b600082601f8301126146435761464261360d565b5b81516146538482602086016145ec565b91505092915050565b600060208284031215614672576146716132b2565b5b600082015167ffffffffffffffff8111156146905761468f6132b7565b5b61469c8482850161462e565b91505092915050565b7f536f756c46756e642e6465706f73697446756e643a206d61782063757272656e60008201527f6379207479706520726561636865642e00000000000000000000000000000000602082015250565b6000614701603083613382565b915061470c826146a5565b604082019050919050565b60006020820190508181036000830152614730816146f4565b9050919050565b7f4e487b7100000000000000000000000000000000000000000000000000000000600052603260045260246000fd5b7f536f756c46756e642e6465706f73697446756e643a20616d6f756e74206d697360008201527f6d617463682e0000000000000000000000000000000000000000000000000000602082015250565b60006147c2602683613382565b91506147cd82614766565b604082019050919050565b600060208201905081810360008301526147f1816147b5565b9050919050565b600060608201905061480d60008301866134c7565b61481a60208301856134c7565b614827604083018461392f565b949350505050565b600061483a82613432565b915061484583613432565b9250827fffffffffffffffffffffffffffffffffffffffffffffffffffffffffffffffff0382111561487a5761487961425b565b5b828201905092915050565b600060808201905061489a600083018761392f565b6148a760208301866134c7565b6148b4604083018561392f565b6148c160608301846134c7565b95945050505050565b7f4552433732313a207472616e736665722066726f6d20696e636f72726563742060008201527f6f776e6572000000000000000000000000000000000000000000000000000000602082015250565b6000614926602583613382565b9150614931826148ca565b604082019050919050565b6000602082019050818103600083015261495581614919565b9050919050565b7f4552433732313a207472616e7366657220746f20746865207a65726f2061646460008201527f7265737300000000000000000000000000000000000000000000000000000000602082015250565b60006149b8602483613382565b91506149c38261495c565b604082019050919050565b600060208201905081810360008301526149e7816149ab565b9050919050565b60006149f982613432565b9150614a0483613432565b925082821015614a1757614a1661425b565b5b828203905092915050565b6000614a2d82613495565b9050919050565b614a3d81614a22565b8114614a4857600080fd5b50565b600081359050614a5a81614a34565b92915050565b60008060408385031215614a7757614a766132b2565b5b6000614a8585828601614a4b565b9250506020614a9685828601613453565b9150509250929050565b7f50657263656e7420746f6f206869676800000000000000000000000000000000600082015250565b6000614ad6601083613382565b9150614ae182614aa0565b602082019050919050565b60006020820190508181036000830152614b0581614ac9565b9050919050565b6000614b1782613432565b9150614b2283613432565b9250817fffffffffffffffffffffffffffffffffffffffffffffffffffffffffffffffff0483118215151615614b5b57614b5a61425b565b5b828202905092915050565b7f4e487b7100000000000000000000000000000000000000000000000000000000600052601260045260246000fd5b6000614ba082613432565b9150614bab83613432565b925082614bbb57614bba614b66565b5b828204905092915050565b7f4552433732313a20617070726f766520746f2063616c6c657200000000000000600082015250565b6000614bfc601983613382565b9150614c0782614bc6565b602082019050919050565b60006020820190508181036000830152614c2b81614bef565b9050919050565b7f4552433732313a207472616e7366657220746f206e6f6e20455243373231526560008201527f63656976657220696d706c656d656e7465720000000000000000000000000000602082015250565b6000614c8e603283613382565b9150614c9982614c32565b604082019050919050565b60006020820190508181036000830152614cbd81614c81565b9050919050565b7f536f756c46756e643a20736f756c20626f756e6420746f6b656e2063616e6e6f60008201527f74206265207472616e7366657272656400000000000000000000000000000000602082015250565b6000614d20603083613382565b9150614d2b82614cc4565b604082019050919050565b60006020820190508181036000830152614d4f81614d13565b9050919050565b600081905092915050565b7f416363657373436f6e74726f6c3a206163636f756e7420000000000000000000600082015250565b6000614d97601783614d56565b9150614da282614d61565b601782019050919050565b6000614db882613377565b614dc28185614d56565b9350614dd2818560208601613393565b80840191505092915050565b7f206973206d697373696e6720726f6c6520000000000000000000000000000000600082015250565b6000614e14601183614d56565b9150614e1f82614dde565b601182019050919050565b6000614e3582614d8a565b9150614e418285614dad565b9150614e4c82614e07565b9150614e588284614dad565b91508190509392505050565b7f536f756c46756e642e636c61696d46756e64734561726c793a20696e76616c6960008201527f6420616464726573730000000000000000000000000000000000000000000000602082015250565b6000614ec0602983613382565b9150614ecb82614e64565b604082019050919050565b60006020820190508181036000830152614eef81614eb3565b9050919050565b600081519050919050565b600082825260208201905092915050565b6000614f1d82614ef6565b614f278185614f01565b9350614f37818560208601613393565b614f40816133c6565b840191505092915050565b6000608082019050614f6060008301876134c7565b614f6d60208301866134c7565b614f7a604083018561392f565b8181036060830152614f8c8184614f12565b905095945050505050565b600081519050614fa6816132e8565b92915050565b600060208284031215614fc257614fc16132b2565b5b6000614fd084828501614f97565b91505092915050565b6000614fe482613432565b91506000821415614ff857614ff761425b565b5b600182039050919050565b7f537472696e67733a20686578206c656e67746820696e73756666696369656e74600082015250565b6000615039602083613382565b915061504482615003565b602082019050919050565b600060208201905081810360008301526150688161502c565b9050919050565b7f4552433732313a206d696e7420746f20746865207a65726f2061646472657373600082015250565b60006150a5602083613382565b91506150b08261506f565b602082019050919050565b600060208201905081810360008301526150d481615098565b9050919050565b7f4552433732313a20746f6b656e20616c7265616479206d696e74656400000000600082015250565b6000615111601c83613382565b915061511c826150db565b602082019050919050565b6000602082019050818103600083015261514081615104565b905091905056fea2646970667358221220aa16e9a98af1cf28015b282a6c8f88e4610e75f93528d14cf848f7e57c01487e64736f6c63430008090033a2646970667358221220b3c58c1cca54c9a1ed2f75db098d985d58dc3e0a02717ebf7790d31b8eca1c0b64736f6c63430008090033",
  "linkReferences": {},
  "deployedLinkReferences": {}
}