{
  "_format": "hh-sol-artifact-1",
  "contractName": "SoulFundFactory",
  "sourceName": "contracts/SoulFundFactory.sol",
  "abi": [
    {
      "inputs": [
        {
          "internalType": "address",
          "name": "_data",
          "type": "address"
        },
        {
          "internalType": "address",
          "name": "_gateway",
          "type": "address"
        },
        {
          "internalType": "address",
          "name": "_gasReceiver",
          "type": "address"
        },
        {
          "internalType": "address",
          "name": "_juryFactory",
          "type": "address"
        }
      ],
      "stateMutability": "nonpayable",
      "type": "constructor"
    },
    {
      "anonymous": false,
      "inputs": [
        {
          "indexed": true,
          "internalType": "address",
          "name": "tokenAddress",
          "type": "address"
        },
        {
          "indexed": true,
          "internalType": "address",
          "name": "granter",
          "type": "address"
        },
        {
          "indexed": false,
          "internalType": "uint256",
          "name": "vestingDate",
          "type": "uint256"
        }
      ],
      "name": "NewSoulFundTokenDeployed",
      "type": "event"
    },
    {
      "inputs": [
        {
          "internalType": "uint256",
          "name": "_vestingDate",
          "type": "uint256"
        },
        {
          "internalType": "address[]",
          "name": "_trustees",
          "type": "address[]"
        },
        {
          "internalType": "uint96",
          "name": "_swapInterval",
          "type": "uint96"
        },
        {
          "internalType": "uint8",
          "name": "_jurySize",
          "type": "uint8"
        }
      ],
      "name": "deployNewSoulFund",
      "outputs": [],
      "stateMutability": "nonpayable",
      "type": "function"
    }
  ],
  "bytecode": "0x608060405234801561001057600080fd5b506040516200601938038062006019833981810160405281019061003491906101a3565b83600260006101000a81548173ffffffffffffffffffffffffffffffffffffffff021916908373ffffffffffffffffffffffffffffffffffffffff160217905550816000806101000a81548173ffffffffffffffffffffffffffffffffffffffff021916908373ffffffffffffffffffffffffffffffffffffffff16021790555082600160006101000a81548173ffffffffffffffffffffffffffffffffffffffff021916908373ffffffffffffffffffffffffffffffffffffffff16021790555080600360006101000a81548173ffffffffffffffffffffffffffffffffffffffff021916908373ffffffffffffffffffffffffffffffffffffffff1602179055505050505061020a565b600080fd5b600073ffffffffffffffffffffffffffffffffffffffff82169050919050565b600061017082610145565b9050919050565b61018081610165565b811461018b57600080fd5b50565b60008151905061019d81610177565b92915050565b600080600080608085870312156101bd576101bc610140565b5b60006101cb8782880161018e565b94505060206101dc8782880161018e565b93505060406101ed8782880161018e565b92505060606101fe8782880161018e565b91505092959194509250565b615dff806200021a6000396000f3fe60806040523480156200001157600080fd5b50600436106200002e5760003560e01c806376df1acf1462000033575b600080fd5b6200005160048036038101906200004b9190620003b6565b62000053565b005b42851162000098576040517f08c379a00000000000000000000000000000000000000000000000000000000081526004016200008f90620004f9565b60405180910390fd5b6000600360009054906101000a900473ffffffffffffffffffffffffffffffffffffffff1673ffffffffffffffffffffffffffffffffffffffff166313e95925868686866040518563ffffffff1660e01b8152600401620000fd949392919062000677565b602060405180830381600087803b1580156200011857600080fd5b505af11580156200012d573d6000803e3d6000fd5b505050506040513d601f19601f82011682018060405250810190620001539190620006d4565b905060003387600260009054906101000a900473ffffffffffffffffffffffffffffffffffffffff16600160009054906101000a900473ffffffffffffffffffffffffffffffffffffffff1660008054906101000a900473ffffffffffffffffffffffffffffffffffffffff16604051620001ce906200026e565b620001de95949392919062000728565b604051809103906000f080158015620001fb573d6000803e3d6000fd5b5090503373ffffffffffffffffffffffffffffffffffffffff168173ffffffffffffffffffffffffffffffffffffffff167f11989d940a556962fe8b4d826ab4daffd12183c8afdc4ace46e77764c8d14913896040516200025d919062000785565b60405180910390a350505050505050565b61562780620007a383390190565b600080fd5b600080fd5b6000819050919050565b6200029b8162000286565b8114620002a757600080fd5b50565b600081359050620002bb8162000290565b92915050565b600080fd5b600080fd5b600080fd5b60008083601f840112620002e957620002e8620002c1565b5b8235905067ffffffffffffffff811115620003095762000308620002c6565b5b602083019150836020820283011115620003285762000327620002cb565b5b9250929050565b60006bffffffffffffffffffffffff82169050919050565b62000352816200032f565b81146200035e57600080fd5b50565b600081359050620003728162000347565b92915050565b600060ff82169050919050565b620003908162000378565b81146200039c57600080fd5b50565b600081359050620003b08162000385565b92915050565b600080600080600060808688031215620003d557620003d46200027c565b5b6000620003e588828901620002aa565b955050602086013567ffffffffffffffff81111562000409576200040862000281565b5b6200041788828901620002d0565b945094505060406200042c8882890162000361565b92505060606200043f888289016200039f565b9150509295509295909350565b600082825260208201905092915050565b7f536f756c46756e64466163746f72792e6465706c6f794e6577536f756c46756e60008201527f643a2076657374696e67206d75737420626520736f6d6574696d6520696e207460208201527f6865206675747572650000000000000000000000000000000000000000000000604082015250565b6000620004e16049836200044c565b9150620004ee826200045d565b606082019050919050565b600060208201905081810360008301526200051481620004d2565b9050919050565b600082825260208201905092915050565b6000819050919050565b600073ffffffffffffffffffffffffffffffffffffffff82169050919050565b6000620005638262000536565b9050919050565b620005758162000556565b82525050565b60006200058983836200056a565b60208301905092915050565b620005a08162000556565b8114620005ac57600080fd5b50565b600081359050620005c08162000595565b92915050565b6000620005d76020840184620005af565b905092915050565b6000602082019050919050565b6000620005fa83856200051b565b935062000607826200052c565b8060005b858110156200064857620006208284620005c6565b6200062c88826200057b565b97506200063983620005df565b9250506001810190506200060b565b5085925050509392505050565b62000660816200032f565b82525050565b620006718162000378565b82525050565b6000606082019050818103600083015262000694818688620005ec565b9050620006a5602083018562000655565b620006b4604083018462000666565b95945050505050565b600081519050620006ce8162000595565b92915050565b600060208284031215620006ed57620006ec6200027c565b5b6000620006fd84828501620006bd565b91505092915050565b620007118162000556565b82525050565b620007228162000286565b82525050565b600060a0820190506200073f600083018862000706565b6200074e602083018762000717565b6200075d604083018662000706565b6200076c606083018562000706565b6200077b608083018462000706565b9695505050505050565b60006020820190506200079c600083018462000717565b9291505056fe60c06040526040516200562738038062005627833981810160405281019062000029919062000485565b6040518060400160405280600881526020017f536f756c46756e640000000000000000000000000000000000000000000000008152506040518060400160405280600381526020017f534c4600000000000000000000000000000000000000000000000000000000008152508160009080519060200190620000ad92919062000330565b508060019080519060200190620000c692919062000330565b505050620000de6000801b86620001cb60201b60201c565b620001107f2dee5dd865e09c7ce6788d674a03682994f0b44339403ca07ac129a9de4bed6a86620001cb60201b60201c565b83600a8190555082600e60006101000a81548173ffffffffffffffffffffffffffffffffffffffff021916908373ffffffffffffffffffffffffffffffffffffffff1602179055508073ffffffffffffffffffffffffffffffffffffffff1660808173ffffffffffffffffffffffffffffffffffffffff16815250508173ffffffffffffffffffffffffffffffffffffffff1660a08173ffffffffffffffffffffffffffffffffffffffff1681525050505050505062000572565b620001dd8282620002bd60201b60201c565b620002b95760016006600084815260200190815260200160002060000160008373ffffffffffffffffffffffffffffffffffffffff1673ffffffffffffffffffffffffffffffffffffffff16815260200190815260200160002060006101000a81548160ff0219169083151502179055506200025e6200032860201b60201c565b73ffffffffffffffffffffffffffffffffffffffff168173ffffffffffffffffffffffffffffffffffffffff16837f2f8788117e7eff1d82e926ec794901d17c78024a50270940304540a733656f0d60405160405180910390a45b5050565b60006006600084815260200190815260200160002060000160008373ffffffffffffffffffffffffffffffffffffffff1673ffffffffffffffffffffffffffffffffffffffff16815260200190815260200160002060009054906101000a900460ff16905092915050565b600033905090565b8280546200033e906200053c565b90600052602060002090601f016020900481019282620003625760008555620003ae565b82601f106200037d57805160ff1916838001178555620003ae565b82800160010185558215620003ae579182015b82811115620003ad57825182559160200191906001019062000390565b5b509050620003bd9190620003c1565b5090565b5b80821115620003dc576000816000905550600101620003c2565b5090565b600080fd5b600073ffffffffffffffffffffffffffffffffffffffff82169050919050565b60006200041282620003e5565b9050919050565b620004248162000405565b81146200043057600080fd5b50565b600081519050620004448162000419565b92915050565b6000819050919050565b6200045f816200044a565b81146200046b57600080fd5b50565b6000815190506200047f8162000454565b92915050565b600080600080600060a08688031215620004a457620004a3620003e0565b5b6000620004b48882890162000433565b9550506020620004c7888289016200046e565b9450506040620004da8882890162000433565b9350506060620004ed8882890162000433565b9250506080620005008882890162000433565b9150509295509295909350565b7f4e487b7100000000000000000000000000000000000000000000000000000000600052602260045260246000fd5b600060028204905060018216806200055557607f821691505b602082108114156200056c576200056b6200050d565b5b50919050565b60805160a05161508f620005986000396000610acb01526000611138015261508f6000f3fe60806040526004361061020f5760003560e01c806380d14b4a11610118578063b88d4fde116100a0578063d67063281161006f578063d6706328146107d9578063d8f5df66146107f5578063db4796c014610820578063e985e9c51461085d578063f94c0a111461089a5761020f565b8063b88d4fde1461071f578063c87b56dd14610748578063ced3a40314610785578063d547741f146107b05761020f565b80639e42ce18116100e75780639e42ce1814610625578063a217fddf14610662578063a22cb4651461068d578063b0fa8444146106b6578063b7134dfa146106e15761020f565b806380d14b4a1461057657806391d14854146105a15780639590cf75146105de57806395d89b41146105fa5761020f565b80632f2ff15d1161019b578063438a8ece1161016a578063438a8ece1461046b57806349160658146104a85780636352211e146104d157806370a082311461050e5780637ef656091461054b5761020f565b80632f2ff15d146103c757806336568abe146103f057806340d097c31461041957806342842e0e146104425761020f565b8063116191b6116101e2578063116191b6146102e25780631a98b2e01461030d5780631c6ffa461461033657806323b872dd14610361578063248a9ca31461038a5761020f565b806301ffc9a71461021457806306fdde0314610251578063081812fc1461027c578063095ea7b3146102b9575b600080fd5b34801561022057600080fd5b5061023b60048036038101906102369190613226565b6108c5565b604051610248919061326e565b60405180910390f35b34801561025d57600080fd5b506102666108d7565b6040516102739190613322565b60405180910390f35b34801561028857600080fd5b506102a3600480360381019061029e919061337a565b610969565b6040516102b091906133e8565b60405180910390f35b3480156102c557600080fd5b506102e060048036038101906102db919061342f565b6109af565b005b3480156102ee57600080fd5b506102f7610ac7565b60405161030491906134ce565b60405180910390f35b34801561031957600080fd5b50610334600480360381019061032f91906135da565b610aef565b005b34801561034257600080fd5b5061034b610c01565b6040516103589190613322565b60405180910390f35b34801561036d57600080fd5b50610388600480360381019061038391906136ea565b610c8f565b005b34801561039657600080fd5b506103b160048036038101906103ac919061373d565b610cef565b6040516103be9190613779565b60405180910390f35b3480156103d357600080fd5b506103ee60048036038101906103e99190613794565b610d0f565b005b3480156103fc57600080fd5b5061041760048036038101906104129190613794565b610d30565b005b34801561042557600080fd5b50610440600480360381019061043b91906137d4565b610db3565b005b34801561044e57600080fd5b50610469600480360381019061046491906136ea565b610e35565b005b34801561047757600080fd5b50610492600480360381019061048d9190613801565b610e55565b60405161049f9190613850565b60405180910390f35b3480156104b457600080fd5b506104cf60048036038101906104ca919061386b565b610e7a565b005b3480156104dd57600080fd5b506104f860048036038101906104f3919061337a565b610fc6565b60405161050591906133e8565b60405180910390f35b34801561051a57600080fd5b50610535600480360381019061053091906137d4565b611078565b6040516105429190613850565b60405180910390f35b34801561055757600080fd5b50610560611130565b60405161056d9190613850565b60405180910390f35b34801561058257600080fd5b5061058b611136565b6040516105989190613955565b60405180910390f35b3480156105ad57600080fd5b506105c860048036038101906105c39190613794565b61115a565b6040516105d5919061326e565b60405180910390f35b6105f860048036038101906105f3919061337a565b6111c5565b005b34801561060657600080fd5b5061060f61128b565b60405161061c9190613322565b60405180910390f35b34801561063157600080fd5b5061064c6004803603810190610647919061337a565b61131d565b6040516106599190613850565b60405180910390f35b34801561066e57600080fd5b50610677611335565b6040516106849190613779565b60405180910390f35b34801561069957600080fd5b506106b460048036038101906106af919061399c565b61133c565b005b3480156106c257600080fd5b506106cb611352565b6040516106d89190613322565b60405180910390f35b3480156106ed57600080fd5b50610708600480360381019061070391906139dc565b6113e0565b604051610716929190613a1c565b60405180910390f35b34801561072b57600080fd5b5061074660048036038101906107419190613b75565b611437565b005b34801561075457600080fd5b5061076f600480360381019061076a919061337a565b611499565b60405161077c9190613322565b60405180910390f35b34801561079157600080fd5b5061079a61159c565b6040516107a79190613779565b60405180910390f35b3480156107bc57600080fd5b506107d760048036038101906107d29190613794565b6115c0565b005b6107f360048036038101906107ee9190613bf8565b6115e1565b005b34801561080157600080fd5b5061080a611a08565b6040516108179190613850565b60405180910390f35b34801561082c57600080fd5b506108476004803603810190610842919061337a565b611a0e565b6040516108549190613d34565b60405180910390f35b34801561086957600080fd5b50610884600480360381019061087f9190613d50565b611ad3565b604051610891919061326e565b60405180910390f35b3480156108a657600080fd5b506108af611b67565b6040516108bc9190613779565b60405180910390f35b60006108d082611b8b565b9050919050565b6060600080546108e690613dbf565b80601f016020809104026020016040519081016040528092919081815260200182805461091290613dbf565b801561095f5780601f106109345761010080835404028352916020019161095f565b820191906000526020600020905b81548152906001019060200180831161094257829003601f168201915b5050505050905090565b600061097482611c05565b6004600083815260200190815260200160002060009054906101000a900473ffffffffffffffffffffffffffffffffffffffff169050919050565b60006109ba82610fc6565b90508073ffffffffffffffffffffffffffffffffffffffff168373ffffffffffffffffffffffffffffffffffffffff161415610a2b576040517f08c379a0000000000000000000000000000000000000000000000000000000008152600401610a2290613e63565b60405180910390fd5b8073ffffffffffffffffffffffffffffffffffffffff16610a4a611c50565b73ffffffffffffffffffffffffffffffffffffffff161480610a795750610a7881610a73611c50565b611ad3565b5b610ab8576040517f08c379a0000000000000000000000000000000000000000000000000000000008152600401610aaf90613ef5565b60405180910390fd5b610ac28383611c58565b505050565b60007f0000000000000000000000000000000000000000000000000000000000000000905090565b60008585604051610b01929190613f45565b60405180910390209050610b13610ac7565b73ffffffffffffffffffffffffffffffffffffffff16631876eed98c8c8c8c8c878b8b8b6040518a63ffffffff1660e01b8152600401610b5b99989796959493929190613f8b565b602060405180830381600087803b158015610b7557600080fd5b505af1158015610b89573d6000803e3d6000fd5b505050506040513d601f19601f82011682018060405250810190610bad919061401c565b610be3576040517f500c44b400000000000000000000000000000000000000000000000000000000815260040160405180910390fd5b610bf48a8a8a8a8a8a8a8a8a611d11565b5050505050505050505050565b60078054610c0e90613dbf565b80601f0160208091040260200160405190810160405280929190818152602001828054610c3a90613dbf565b8015610c875780601f10610c5c57610100808354040283529160200191610c87565b820191906000526020600020905b815481529060010190602001808311610c6a57829003601f168201915b505050505081565b610ca0610c9a611c50565b82611d1c565b610cdf576040517f08c379a0000000000000000000000000000000000000000000000000000000008152600401610cd6906140bb565b60405180910390fd5b610cea838383611db1565b505050565b600060066000838152602001908152602001600020600101549050919050565b610d1882610cef565b610d2181612018565b610d2b838361202c565b505050565b610d38611c50565b73ffffffffffffffffffffffffffffffffffffffff168173ffffffffffffffffffffffffffffffffffffffff1614610da5576040517f08c379a0000000000000000000000000000000000000000000000000000000008152600401610d9c9061414d565b60405180910390fd5b610daf828261210d565b5050565b7f2dee5dd865e09c7ce6788d674a03682994f0b44339403ca07ac129a9de4bed6a610ddd81612018565b6000600954905060096000815480929190610df79061419c565b9190505550610e267fc8a41221bcd7fcf2c225f5a9265e1d4d39949d89197159d59e5f4b87b62c419e8461202c565b610e3083826121ef565b505050565b610e5083838360405180602001604052806000815250611437565b505050565b600c602052816000526040600020602052806000526040600020600091509150505481565b602a8484905014610ec0576040517f08c379a0000000000000000000000000000000000000000000000000000000008152600401610eb790614231565b60405180910390fd5b60008282604051610ed2929190613f45565b60405180910390209050610ee4610ac7565b73ffffffffffffffffffffffffffffffffffffffff16635f6970c38989898989876040518763ffffffff1660e01b8152600401610f2696959493929190614251565b602060405180830381600087803b158015610f4057600080fd5b505af1158015610f54573d6000803e3d6000fd5b505050506040513d601f19601f82011682018060405250810190610f78919061401c565b610fae576040517f500c44b400000000000000000000000000000000000000000000000000000000815260040160405180910390fd5b610fbc87878787878761220d565b5050505050505050565b6000806002600084815260200190815260200160002060009054906101000a900473ffffffffffffffffffffffffffffffffffffffff169050600073ffffffffffffffffffffffffffffffffffffffff168173ffffffffffffffffffffffffffffffffffffffff16141561106f576040517f08c379a0000000000000000000000000000000000000000000000000000000008152600401611066906142f4565b60405180910390fd5b80915050919050565b60008073ffffffffffffffffffffffffffffffffffffffff168273ffffffffffffffffffffffffffffffffffffffff1614156110e9576040517f08c379a00000000000000000000000000000000000000000000000000000000081526004016110e090614386565b60405180910390fd5b600360008373ffffffffffffffffffffffffffffffffffffffff1673ffffffffffffffffffffffffffffffffffffffff168152602001908152602001600020549050919050565b6101f481565b7f000000000000000000000000000000000000000000000000000000000000000081565b60006006600084815260200190815260200160002060000160008373ffffffffffffffffffffffffffffffffffffffff1673ffffffffffffffffffffffffffffffffffffffff16815260200190815260200160002060009054906101000a900460ff16905092915050565b600073ffffffffffffffffffffffffffffffffffffffff166111e682610fc6565b73ffffffffffffffffffffffffffffffffffffffff16141561123d576040517f08c379a000000000000000000000000000000000000000000000000000000000815260040161123490614418565b60405180910390fd5b61124881600161225b565b6000600190507f34ef4ac64e0eac8a04fe2b95d0d037921287716ff3019d01b6712d2e95075095828260405161127f929190614438565b60405180910390a15050565b60606001805461129a90613dbf565b80601f01602080910402602001604051908101604052809291908181526020018280546112c690613dbf565b80156113135780601f106112e857610100808354040283529160200191611313565b820191906000526020600020905b8154815290600101906020018083116112f657829003601f168201915b5050505050905090565b600d6020528060005260406000206000915090505481565b6000801b81565b61134e611347611c50565b83836124d5565b5050565b6008805461135f90613dbf565b80601f016020809104026020016040519081016040528092919081815260200182805461138b90613dbf565b80156113d85780601f106113ad576101008083540402835291602001916113d8565b820191906000526020600020905b8154815290600101906020018083116113bb57829003601f168201915b505050505081565b600b60205281600052604060002081600581106113fc57600080fd5b60020201600091509150508060000160009054906101000a900473ffffffffffffffffffffffffffffffffffffffff16908060010154905082565b611448611442611c50565b83611d1c565b611487576040517f08c379a000000000000000000000000000000000000000000000000000000000815260040161147e906140bb565b60405180910390fd5b61149384848484612642565b50505050565b60606114a48261269e565b6114e3576040517f08c379a00000000000000000000000000000000000000000000000000000000081526004016114da906144ad565b60405180910390fd5b600e60009054906101000a900473ffffffffffffffffffffffffffffffffffffffff1673ffffffffffffffffffffffffffffffffffffffff1663611fc46930846040518363ffffffff1660e01b8152600401611540929190613a1c565b60006040518083038186803b15801561155857600080fd5b505afa15801561156c573d6000803e3d6000fd5b505050506040513d6000823e3d601f19601f82011682018060405250810190611595919061456e565b9050919050565b7fc8a41221bcd7fcf2c225f5a9265e1d4d39949d89197159d59e5f4b87b62c419e81565b6115c982610cef565b6115d281612018565b6115dc838361210d565b505050565b7f2dee5dd865e09c7ce6788d674a03682994f0b44339403ca07ac129a9de4bed6a61160b81612018565b6000600c600086815260200190815260200160002060008573ffffffffffffffffffffffffffffffffffffffff1673ffffffffffffffffffffffffffffffffffffffff168152602001908152602001600020541015801561167f57506005600d600086815260200190815260200160002054105b6116be576040517f08c379a00000000000000000000000000000000000000000000000000000000081526004016116b590614629565b60405180910390fd5b6000600c600086815260200190815260200160002060008573ffffffffffffffffffffffffffffffffffffffff1673ffffffffffffffffffffffffffffffffffffffff168152602001908152602001600020549050600081141561186c57600d600086815260200190815260200160002060008154809291906117409061419c565b9190505550600d600086815260200190815260200160002054600c600087815260200190815260200160002060008673ffffffffffffffffffffffffffffffffffffffff1673ffffffffffffffffffffffffffffffffffffffff16815260200190815260200160002081905550600c600086815260200190815260200160002060008573ffffffffffffffffffffffffffffffffffffffff1673ffffffffffffffffffffffffffffffffffffffff16815260200190815260200160002054905083600b6000878152602001908152602001600020826005811061182657611825614649565b5b6002020160000160006101000a81548173ffffffffffffffffffffffffffffffffffffffff021916908373ffffffffffffffffffffffffffffffffffffffff1602179055505b600073ffffffffffffffffffffffffffffffffffffffff168473ffffffffffffffffffffffffffffffffffffffff1614156118e8578234146118e3576040517f08c379a00000000000000000000000000000000000000000000000000000000081526004016118da906146ea565b60405180910390fd5b611979565b8373ffffffffffffffffffffffffffffffffffffffff166323b872dd3330866040518463ffffffff1660e01b81526004016119259392919061470a565b602060405180830381600087803b15801561193f57600080fd5b505af1158015611953573d6000803e3d6000fd5b505050506040513d601f19601f82011682018060405250810190611977919061401c565b505b82600b6000878152602001908152602001600020826005811061199f5761199e614649565b5b6002020160010160008282546119b59190614741565b925050819055507f03b9932ccfcbee04cee8cedad7802dbe5c786c57591e9a7cd4c8fea13b13be828585856119e989610fc6565b6040516119f99493929190614797565b60405180910390a15050505050565b600a5481565b611a166130ba565b600b6000838152602001908152602001600020600580602002604051908101604052809291906000905b82821015611ac8578382600202016040518060400160405290816000820160009054906101000a900473ffffffffffffffffffffffffffffffffffffffff1673ffffffffffffffffffffffffffffffffffffffff1673ffffffffffffffffffffffffffffffffffffffff16815260200160018201548152505081526020019060010190611a40565b505050509050919050565b6000600560008473ffffffffffffffffffffffffffffffffffffffff1673ffffffffffffffffffffffffffffffffffffffff16815260200190815260200160002060008373ffffffffffffffffffffffffffffffffffffffff1673ffffffffffffffffffffffffffffffffffffffff16815260200190815260200160002060009054906101000a900460ff16905092915050565b7f2dee5dd865e09c7ce6788d674a03682994f0b44339403ca07ac129a9de4bed6a81565b60007f7965db0b000000000000000000000000000000000000000000000000000000007bffffffffffffffffffffffffffffffffffffffffffffffffffffffff1916827bffffffffffffffffffffffffffffffffffffffffffffffffffffffff19161480611bfe5750611bfd8261270a565b5b9050919050565b611c0e8161269e565b611c4d576040517f08c379a0000000000000000000000000000000000000000000000000000000008152600401611c44906142f4565b60405180910390fd5b50565b600033905090565b816004600083815260200190815260200160002060006101000a81548173ffffffffffffffffffffffffffffffffffffffff021916908373ffffffffffffffffffffffffffffffffffffffff160217905550808273ffffffffffffffffffffffffffffffffffffffff16611ccb83610fc6565b73ffffffffffffffffffffffffffffffffffffffff167f8c5be1e5ebec7d5bd14f71427d1e84f3dd0314c0f7b2291e5b200ac8c7c3b92560405160405180910390a45050565b505050505050505050565b600080611d2883610fc6565b90508073ffffffffffffffffffffffffffffffffffffffff168473ffffffffffffffffffffffffffffffffffffffff161480611d6a5750611d698185611ad3565b5b80611da857508373ffffffffffffffffffffffffffffffffffffffff16611d9084610969565b73ffffffffffffffffffffffffffffffffffffffff16145b91505092915050565b8273ffffffffffffffffffffffffffffffffffffffff16611dd182610fc6565b73ffffffffffffffffffffffffffffffffffffffff1614611e27576040517f08c379a0000000000000000000000000000000000000000000000000000000008152600401611e1e9061484e565b60405180910390fd5b600073ffffffffffffffffffffffffffffffffffffffff168273ffffffffffffffffffffffffffffffffffffffff161415611e97576040517f08c379a0000000000000000000000000000000000000000000000000000000008152600401611e8e906148e0565b60405180910390fd5b611ea28383836127ec565b611ead600082611c58565b6001600360008573ffffffffffffffffffffffffffffffffffffffff1673ffffffffffffffffffffffffffffffffffffffff1681526020019081526020016000206000828254611efd9190614900565b925050819055506001600360008473ffffffffffffffffffffffffffffffffffffffff1673ffffffffffffffffffffffffffffffffffffffff1681526020019081526020016000206000828254611f549190614741565b92505081905550816002600083815260200190815260200160002060006101000a81548173ffffffffffffffffffffffffffffffffffffffff021916908373ffffffffffffffffffffffffffffffffffffffff160217905550808273ffffffffffffffffffffffffffffffffffffffff168473ffffffffffffffffffffffffffffffffffffffff167fddf252ad1be2c89b69c2b068fc378daa952ba7f163c4a11628f55a4df523b3ef60405160405180910390a461201383838361286b565b505050565b61202981612024611c50565b612870565b50565b612036828261115a565b6121095760016006600084815260200190815260200160002060000160008373ffffffffffffffffffffffffffffffffffffffff1673ffffffffffffffffffffffffffffffffffffffff16815260200190815260200160002060006101000a81548160ff0219169083151502179055506120ae611c50565b73ffffffffffffffffffffffffffffffffffffffff168173ffffffffffffffffffffffffffffffffffffffff16837f2f8788117e7eff1d82e926ec794901d17c78024a50270940304540a733656f0d60405160405180910390a45b5050565b612117828261115a565b156121eb5760006006600084815260200190815260200160002060000160008373ffffffffffffffffffffffffffffffffffffffff1673ffffffffffffffffffffffffffffffffffffffff16815260200190815260200160002060006101000a81548160ff021916908315150217905550612190611c50565b73ffffffffffffffffffffffffffffffffffffffff168173ffffffffffffffffffffffffffffffffffffffff16837ff6391f5c32d9c69d2a47ea670b442974b53935d1edc7fd64eb21e047a839171b60405160405180910390a45b5050565b61220982826040518060200160405280600081525061290d565b5050565b600080838381019061221f9190614972565b915091508787600791906122349291906130e7565b508585600891906122469291906130e7565b506122518183612968565b5050505050505050565b6127108111156122a0576040517f08c379a0000000000000000000000000000000000000000000000000000000008152600401612297906149fe565b60405180910390fd5b60005b600d6000848152602001908152602001600020548110156124d0576000600b600085815260200190815260200160002082600581106122e5576122e4614649565b5b6002020160000160009054906101000a900473ffffffffffffffffffffffffffffffffffffffff169050600061271084600b6000888152602001908152602001600020856005811061233a57612339614649565b5b600202016001015461234c9190614a1e565b6123569190614aa7565b905080600b6000878152602001908152602001600020846005811061237e5761237d614649565b5b6002020160010160008282546123949190614900565b92505081905550600073ffffffffffffffffffffffffffffffffffffffff168273ffffffffffffffffffffffffffffffffffffffff161415612424576123d985610fc6565b73ffffffffffffffffffffffffffffffffffffffff166108fc829081150290604051600060405180830381858888f1935050505015801561241e573d6000803e3d6000fd5b506124bb565b8173ffffffffffffffffffffffffffffffffffffffff1663a9059cbb61244987610fc6565b836040518363ffffffff1660e01b8152600401612467929190613a1c565b602060405180830381600087803b15801561248157600080fd5b505af1158015612495573d6000803e3d6000fd5b505050506040513d601f19601f820116820180604052508101906124b9919061401c565b505b505080806124c89061419c565b9150506122a3565b505050565b8173ffffffffffffffffffffffffffffffffffffffff168373ffffffffffffffffffffffffffffffffffffffff161415612544576040517f08c379a000000000000000000000000000000000000000000000000000000000815260040161253b90614b24565b60405180910390fd5b80600560008573ffffffffffffffffffffffffffffffffffffffff1673ffffffffffffffffffffffffffffffffffffffff16815260200190815260200160002060008473ffffffffffffffffffffffffffffffffffffffff1673ffffffffffffffffffffffffffffffffffffffff16815260200190815260200160002060006101000a81548160ff0219169083151502179055508173ffffffffffffffffffffffffffffffffffffffff168373ffffffffffffffffffffffffffffffffffffffff167f17307eab39ab6107e8899845ad3d59bd9653f200f220920489ca2b5937696c3183604051612635919061326e565b60405180910390a3505050565b61264d848484611db1565b61265984848484612a7b565b612698576040517f08c379a000000000000000000000000000000000000000000000000000000000815260040161268f90614bb6565b60405180910390fd5b50505050565b60008073ffffffffffffffffffffffffffffffffffffffff166002600084815260200190815260200160002060009054906101000a900473ffffffffffffffffffffffffffffffffffffffff1673ffffffffffffffffffffffffffffffffffffffff1614159050919050565b60007f80ac58cd000000000000000000000000000000000000000000000000000000007bffffffffffffffffffffffffffffffffffffffffffffffffffffffff1916827bffffffffffffffffffffffffffffffffffffffffffffffffffffffff191614806127d557507f5b5e139f000000000000000000000000000000000000000000000000000000007bffffffffffffffffffffffffffffffffffffffffffffffffffffffff1916827bffffffffffffffffffffffffffffffffffffffffffffffffffffffff1916145b806127e557506127e482612c12565b5b9050919050565b600073ffffffffffffffffffffffffffffffffffffffff168373ffffffffffffffffffffffffffffffffffffffff161461285b576040517f08c379a000000000000000000000000000000000000000000000000000000000815260040161285290614c48565b60405180910390fd5b612866838383612c7c565b505050565b505050565b61287a828261115a565b6129095761289f8173ffffffffffffffffffffffffffffffffffffffff166014612c81565b6128ad8360001c6020612c81565b6040516020016128be929190614d3c565b6040516020818303038152906040526040517f08c379a00000000000000000000000000000000000000000000000000000000081526004016129009190613322565b60405180910390fd5b5050565b6129178383612ebd565b6129246000848484612a7b565b612963576040517f08c379a000000000000000000000000000000000000000000000000000000000815260040161295a90614bb6565b60405180910390fd5b505050565b600061297383610fc6565b90508073ffffffffffffffffffffffffffffffffffffffff168273ffffffffffffffffffffffffffffffffffffffff16146129e3576040517f08c379a00000000000000000000000000000000000000000000000000000000081526004016129da90614de8565b60405180910390fd5b6129ef836101f461225b565b6000600190508173ffffffffffffffffffffffffffffffffffffffff166108fc829081150290604051600060405180830381858888f19350505050158015612a3b573d6000803e3d6000fd5b507f6304e1c0e6a866eff2e257afddc8be016c0c6f6264e47046379ec6a3a3cb2bde8482604051612a6d929190614438565b60405180910390a150505050565b6000612a9c8473ffffffffffffffffffffffffffffffffffffffff16613097565b15612c05578373ffffffffffffffffffffffffffffffffffffffff1663150b7a02612ac5611c50565b8786866040518563ffffffff1660e01b8152600401612ae79493929190614e5d565b602060405180830381600087803b158015612b0157600080fd5b505af1925050508015612b3257506040513d601f19601f82011682018060405250810190612b2f9190614ebe565b60015b612bb5573d8060008114612b62576040519150601f19603f3d011682016040523d82523d6000602084013e612b67565b606091505b50600081511415612bad576040517f08c379a0000000000000000000000000000000000000000000000000000000008152600401612ba490614bb6565b60405180910390fd5b805181602001fd5b63150b7a0260e01b7bffffffffffffffffffffffffffffffffffffffffffffffffffffffff1916817bffffffffffffffffffffffffffffffffffffffffffffffffffffffff191614915050612c0a565b600190505b949350505050565b60007f01ffc9a7000000000000000000000000000000000000000000000000000000007bffffffffffffffffffffffffffffffffffffffffffffffffffffffff1916827bffffffffffffffffffffffffffffffffffffffffffffffffffffffff1916149050919050565b505050565b606060006002836002612c949190614a1e565b612c9e9190614741565b67ffffffffffffffff811115612cb757612cb6613a4a565b5b6040519080825280601f01601f191660200182016040528015612ce95781602001600182028036833780820191505090505b5090507f300000000000000000000000000000000000000000000000000000000000000081600081518110612d2157612d20614649565b5b60200101907effffffffffffffffffffffffffffffffffffffffffffffffffffffffffffff1916908160001a9053507f780000000000000000000000000000000000000000000000000000000000000081600181518110612d8557612d84614649565b5b60200101907effffffffffffffffffffffffffffffffffffffffffffffffffffffffffffff1916908160001a90535060006001846002612dc59190614a1e565b612dcf9190614741565b90505b6001811115612e6f577f3031323334353637383961626364656600000000000000000000000000000000600f861660108110612e1157612e10614649565b5b1a60f81b828281518110612e2857612e27614649565b5b60200101907effffffffffffffffffffffffffffffffffffffffffffffffffffffffffffff1916908160001a905350600485901c945080612e6890614eeb565b9050612dd2565b5060008414612eb3576040517f08c379a0000000000000000000000000000000000000000000000000000000008152600401612eaa90614f61565b60405180910390fd5b8091505092915050565b600073ffffffffffffffffffffffffffffffffffffffff168273ffffffffffffffffffffffffffffffffffffffff161415612f2d576040517f08c379a0000000000000000000000000000000000000000000000000000000008152600401612f2490614fcd565b60405180910390fd5b612f368161269e565b15612f76576040517f08c379a0000000000000000000000000000000000000000000000000000000008152600401612f6d90615039565b60405180910390fd5b612f82600083836127ec565b6001600360008473ffffffffffffffffffffffffffffffffffffffff1673ffffffffffffffffffffffffffffffffffffffff1681526020019081526020016000206000828254612fd29190614741565b92505081905550816002600083815260200190815260200160002060006101000a81548173ffffffffffffffffffffffffffffffffffffffff021916908373ffffffffffffffffffffffffffffffffffffffff160217905550808273ffffffffffffffffffffffffffffffffffffffff16600073ffffffffffffffffffffffffffffffffffffffff167fddf252ad1be2c89b69c2b068fc378daa952ba7f163c4a11628f55a4df523b3ef60405160405180910390a46130936000838361286b565b5050565b6000808273ffffffffffffffffffffffffffffffffffffffff163b119050919050565b6040518060a001604052806005905b6130d161316d565b8152602001906001900390816130c95790505090565b8280546130f390613dbf565b90600052602060002090601f016020900481019282613115576000855561315c565b82601f1061312e57803560ff191683800117855561315c565b8280016001018555821561315c579182015b8281111561315b578235825591602001919060010190613140565b5b509050613169919061319d565b5090565b6040518060400160405280600073ffffffffffffffffffffffffffffffffffffffff168152602001600081525090565b5b808211156131b657600081600090555060010161319e565b5090565b6000604051905090565b600080fd5b600080fd5b60007fffffffff0000000000000000000000000000000000000000000000000000000082169050919050565b613203816131ce565b811461320e57600080fd5b50565b600081359050613220816131fa565b92915050565b60006020828403121561323c5761323b6131c4565b5b600061324a84828501613211565b91505092915050565b60008115159050919050565b61326881613253565b82525050565b6000602082019050613283600083018461325f565b92915050565b600081519050919050565b600082825260208201905092915050565b60005b838110156132c35780820151818401526020810190506132a8565b838111156132d2576000848401525b50505050565b6000601f19601f8301169050919050565b60006132f482613289565b6132fe8185613294565b935061330e8185602086016132a5565b613317816132d8565b840191505092915050565b6000602082019050818103600083015261333c81846132e9565b905092915050565b6000819050919050565b61335781613344565b811461336257600080fd5b50565b6000813590506133748161334e565b92915050565b6000602082840312156133905761338f6131c4565b5b600061339e84828501613365565b91505092915050565b600073ffffffffffffffffffffffffffffffffffffffff82169050919050565b60006133d2826133a7565b9050919050565b6133e2816133c7565b82525050565b60006020820190506133fd60008301846133d9565b92915050565b61340c816133c7565b811461341757600080fd5b50565b60008135905061342981613403565b92915050565b60008060408385031215613446576134456131c4565b5b60006134548582860161341a565b925050602061346585828601613365565b9150509250929050565b6000819050919050565b600061349461348f61348a846133a7565b61346f565b6133a7565b9050919050565b60006134a682613479565b9050919050565b60006134b88261349b565b9050919050565b6134c8816134ad565b82525050565b60006020820190506134e360008301846134bf565b92915050565b6000819050919050565b6134fc816134e9565b811461350757600080fd5b50565b600081359050613519816134f3565b92915050565b600080fd5b600080fd5b600080fd5b60008083601f8401126135445761354361351f565b5b8235905067ffffffffffffffff81111561356157613560613524565b5b60208301915083600182028301111561357d5761357c613529565b5b9250929050565b60008083601f84011261359a5761359961351f565b5b8235905067ffffffffffffffff8111156135b7576135b6613524565b5b6020830191508360018202830111156135d3576135d2613529565b5b9250929050565b60008060008060008060008060008060c08b8d0312156135fd576135fc6131c4565b5b600061360b8d828e0161350a565b9a505060208b013567ffffffffffffffff81111561362c5761362b6131c9565b5b6136388d828e0161352e565b995099505060408b013567ffffffffffffffff81111561365b5761365a6131c9565b5b6136678d828e0161352e565b975097505060608b013567ffffffffffffffff81111561368a576136896131c9565b5b6136968d828e01613584565b955095505060808b013567ffffffffffffffff8111156136b9576136b86131c9565b5b6136c58d828e0161352e565b935093505060a06136d88d828e01613365565b9150509295989b9194979a5092959850565b600080600060608486031215613703576137026131c4565b5b60006137118682870161341a565b93505060206137228682870161341a565b925050604061373386828701613365565b9150509250925092565b600060208284031215613753576137526131c4565b5b60006137618482850161350a565b91505092915050565b613773816134e9565b82525050565b600060208201905061378e600083018461376a565b92915050565b600080604083850312156137ab576137aa6131c4565b5b60006137b98582860161350a565b92505060206137ca8582860161341a565b9150509250929050565b6000602082840312156137ea576137e96131c4565b5b60006137f88482850161341a565b91505092915050565b60008060408385031215613818576138176131c4565b5b600061382685828601613365565b92505060206138378582860161341a565b9150509250929050565b61384a81613344565b82525050565b60006020820190506138656000830184613841565b92915050565b60008060008060008060006080888a03121561388a576138896131c4565b5b60006138988a828b0161350a565b975050602088013567ffffffffffffffff8111156138b9576138b86131c9565b5b6138c58a828b0161352e565b9650965050604088013567ffffffffffffffff8111156138e8576138e76131c9565b5b6138f48a828b0161352e565b9450945050606088013567ffffffffffffffff811115613917576139166131c9565b5b6139238a828b01613584565b925092505092959891949750929550565b600061393f8261349b565b9050919050565b61394f81613934565b82525050565b600060208201905061396a6000830184613946565b92915050565b61397981613253565b811461398457600080fd5b50565b60008135905061399681613970565b92915050565b600080604083850312156139b3576139b26131c4565b5b60006139c18582860161341a565b92505060206139d285828601613987565b9150509250929050565b600080604083850312156139f3576139f26131c4565b5b6000613a0185828601613365565b9250506020613a1285828601613365565b9150509250929050565b6000604082019050613a3160008301856133d9565b613a3e6020830184613841565b9392505050565b600080fd5b7f4e487b7100000000000000000000000000000000000000000000000000000000600052604160045260246000fd5b613a82826132d8565b810181811067ffffffffffffffff82111715613aa157613aa0613a4a565b5b80604052505050565b6000613ab46131ba565b9050613ac08282613a79565b919050565b600067ffffffffffffffff821115613ae057613adf613a4a565b5b613ae9826132d8565b9050602081019050919050565b82818337600083830152505050565b6000613b18613b1384613ac5565b613aaa565b905082815260208101848484011115613b3457613b33613a45565b5b613b3f848285613af6565b509392505050565b600082601f830112613b5c57613b5b61351f565b5b8135613b6c848260208601613b05565b91505092915050565b60008060008060808587031215613b8f57613b8e6131c4565b5b6000613b9d8782880161341a565b9450506020613bae8782880161341a565b9350506040613bbf87828801613365565b925050606085013567ffffffffffffffff811115613be057613bdf6131c9565b5b613bec87828801613b47565b91505092959194509250565b600080600060608486031215613c1157613c106131c4565b5b6000613c1f86828701613365565b9350506020613c308682870161341a565b9250506040613c4186828701613365565b9150509250925092565b600060059050919050565b600081905092915050565b6000819050919050565b613c74816133c7565b82525050565b613c8381613344565b82525050565b604082016000820151613c9f6000850182613c6b565b506020820151613cb26020850182613c7a565b50505050565b6000613cc48383613c89565b60408301905092915050565b6000602082019050919050565b613ce681613c4b565b613cf08184613c56565b9250613cfb82613c61565b8060005b83811015613d2c578151613d138782613cb8565b9650613d1e83613cd0565b925050600181019050613cff565b505050505050565b600061014082019050613d4a6000830184613cdd565b92915050565b60008060408385031215613d6757613d666131c4565b5b6000613d758582860161341a565b9250506020613d868582860161341a565b9150509250929050565b7f4e487b7100000000000000000000000000000000000000000000000000000000600052602260045260246000fd5b60006002820490506001821680613dd757607f821691505b60208210811415613deb57613dea613d90565b5b50919050565b7f4552433732313a20617070726f76616c20746f2063757272656e74206f776e6560008201527f7200000000000000000000000000000000000000000000000000000000000000602082015250565b6000613e4d602183613294565b9150613e5882613df1565b604082019050919050565b60006020820190508181036000830152613e7c81613e40565b9050919050565b7f4552433732313a20617070726f76652063616c6c6572206973206e6f7420746f60008201527f6b656e206f776e6572206e6f7220617070726f76656420666f7220616c6c0000602082015250565b6000613edf603e83613294565b9150613eea82613e83565b604082019050919050565b60006020820190508181036000830152613f0e81613ed2565b9050919050565b600081905092915050565b6000613f2c8385613f15565b9350613f39838584613af6565b82840190509392505050565b6000613f52828486613f20565b91508190509392505050565b6000613f6a8385613294565b9350613f77838584613af6565b613f80836132d8565b840190509392505050565b600060c082019050613fa0600083018c61376a565b8181036020830152613fb3818a8c613f5e565b90508181036040830152613fc881888a613f5e565b9050613fd7606083018761376a565b8181036080830152613fea818587613f5e565b9050613ff960a0830184613841565b9a9950505050505050505050565b60008151905061401681613970565b92915050565b600060208284031215614032576140316131c4565b5b600061404084828501614007565b91505092915050565b7f4552433732313a2063616c6c6572206973206e6f7420746f6b656e206f776e6560008201527f72206e6f7220617070726f766564000000000000000000000000000000000000602082015250565b60006140a5602e83613294565b91506140b082614049565b604082019050919050565b600060208201905081810360008301526140d481614098565b9050919050565b7f416363657373436f6e74726f6c3a2063616e206f6e6c792072656e6f756e636560008201527f20726f6c657320666f722073656c660000000000000000000000000000000000602082015250565b6000614137602f83613294565b9150614142826140db565b604082019050919050565b600060208201905081810360008301526141668161412a565b9050919050565b7f4e487b7100000000000000000000000000000000000000000000000000000000600052601160045260246000fd5b60006141a782613344565b91507fffffffffffffffffffffffffffffffffffffffffffffffffffffffffffffffff8214156141da576141d961416d565b5b600182019050919050565b7f7374617274000000000000000000000000000000000000000000000000000000600082015250565b600061421b600583613294565b9150614226826141e5565b602082019050919050565b6000602082019050818103600083015261424a8161420e565b9050919050565b6000608082019050614266600083018961376a565b8181036020830152614279818789613f5e565b9050818103604083015261428e818587613f5e565b905061429d606083018461376a565b979650505050505050565b7f4552433732313a20696e76616c696420746f6b656e2049440000000000000000600082015250565b60006142de601883613294565b91506142e9826142a8565b602082019050919050565b6000602082019050818103600083015261430d816142d1565b9050919050565b7f4552433732313a2061646472657373207a65726f206973206e6f74206120766160008201527f6c6964206f776e65720000000000000000000000000000000000000000000000602082015250565b6000614370602983613294565b915061437b82614314565b604082019050919050565b6000602082019050818103600083015261439f81614363565b9050919050565b7f536f756c46756e642e636c61696d46756e64734561726c793a2066756e64206460008201527f6f6573206e6f7420657869737400000000000000000000000000000000000000602082015250565b6000614402602d83613294565b915061440d826143a6565b604082019050919050565b60006020820190508181036000830152614431816143f5565b9050919050565b600060408201905061444d6000830185613841565b61445a6020830184613841565b9392505050565b7f546f6b656e20646f6573206e6f74206578697374000000000000000000000000600082015250565b6000614497601483613294565b91506144a282614461565b602082019050919050565b600060208201905081810360008301526144c68161448a565b9050919050565b600067ffffffffffffffff8211156144e8576144e7613a4a565b5b6144f1826132d8565b9050602081019050919050565b600061451161450c846144cd565b613aaa565b90508281526020810184848401111561452d5761452c613a45565b5b6145388482856132a5565b509392505050565b600082601f8301126145555761455461351f565b5b81516145658482602086016144fe565b91505092915050565b600060208284031215614584576145836131c4565b5b600082015167ffffffffffffffff8111156145a2576145a16131c9565b5b6145ae84828501614540565b91505092915050565b7f536f756c46756e642e6465706f73697446756e643a206d61782063757272656e60008201527f6379207479706520726561636865642e00000000000000000000000000000000602082015250565b6000614613603083613294565b915061461e826145b7565b604082019050919050565b6000602082019050818103600083015261464281614606565b9050919050565b7f4e487b7100000000000000000000000000000000000000000000000000000000600052603260045260246000fd5b7f536f756c46756e642e6465706f73697446756e643a20616d6f756e74206d697360008201527f6d617463682e0000000000000000000000000000000000000000000000000000602082015250565b60006146d4602683613294565b91506146df82614678565b604082019050919050565b60006020820190508181036000830152614703816146c7565b9050919050565b600060608201905061471f60008301866133d9565b61472c60208301856133d9565b6147396040830184613841565b949350505050565b600061474c82613344565b915061475783613344565b9250827fffffffffffffffffffffffffffffffffffffffffffffffffffffffffffffffff0382111561478c5761478b61416d565b5b828201905092915050565b60006080820190506147ac6000830187613841565b6147b960208301866133d9565b6147c66040830185613841565b6147d360608301846133d9565b95945050505050565b7f4552433732313a207472616e736665722066726f6d20696e636f72726563742060008201527f6f776e6572000000000000000000000000000000000000000000000000000000602082015250565b6000614838602583613294565b9150614843826147dc565b604082019050919050565b600060208201905081810360008301526148678161482b565b9050919050565b7f4552433732313a207472616e7366657220746f20746865207a65726f2061646460008201527f7265737300000000000000000000000000000000000000000000000000000000602082015250565b60006148ca602483613294565b91506148d58261486e565b604082019050919050565b600060208201905081810360008301526148f9816148bd565b9050919050565b600061490b82613344565b915061491683613344565b9250828210156149295761492861416d565b5b828203905092915050565b600061493f826133a7565b9050919050565b61494f81614934565b811461495a57600080fd5b50565b60008135905061496c81614946565b92915050565b60008060408385031215614989576149886131c4565b5b60006149978582860161495d565b92505060206149a885828601613365565b9150509250929050565b7f50657263656e7420746f6f206869676800000000000000000000000000000000600082015250565b60006149e8601083613294565b91506149f3826149b2565b602082019050919050565b60006020820190508181036000830152614a17816149db565b9050919050565b6000614a2982613344565b9150614a3483613344565b9250817fffffffffffffffffffffffffffffffffffffffffffffffffffffffffffffffff0483118215151615614a6d57614a6c61416d565b5b828202905092915050565b7f4e487b7100000000000000000000000000000000000000000000000000000000600052601260045260246000fd5b6000614ab282613344565b9150614abd83613344565b925082614acd57614acc614a78565b5b828204905092915050565b7f4552433732313a20617070726f766520746f2063616c6c657200000000000000600082015250565b6000614b0e601983613294565b9150614b1982614ad8565b602082019050919050565b60006020820190508181036000830152614b3d81614b01565b9050919050565b7f4552433732313a207472616e7366657220746f206e6f6e20455243373231526560008201527f63656976657220696d706c656d656e7465720000000000000000000000000000602082015250565b6000614ba0603283613294565b9150614bab82614b44565b604082019050919050565b60006020820190508181036000830152614bcf81614b93565b9050919050565b7f536f756c46756e643a20736f756c20626f756e6420746f6b656e2063616e6e6f60008201527f74206265207472616e7366657272656400000000000000000000000000000000602082015250565b6000614c32603083613294565b9150614c3d82614bd6565b604082019050919050565b60006020820190508181036000830152614c6181614c25565b9050919050565b600081905092915050565b7f416363657373436f6e74726f6c3a206163636f756e7420000000000000000000600082015250565b6000614ca9601783614c68565b9150614cb482614c73565b601782019050919050565b6000614cca82613289565b614cd48185614c68565b9350614ce48185602086016132a5565b80840191505092915050565b7f206973206d697373696e6720726f6c6520000000000000000000000000000000600082015250565b6000614d26601183614c68565b9150614d3182614cf0565b601182019050919050565b6000614d4782614c9c565b9150614d538285614cbf565b9150614d5e82614d19565b9150614d6a8284614cbf565b91508190509392505050565b7f536f756c46756e642e636c61696d46756e64734561726c793a20696e76616c6960008201527f6420616464726573730000000000000000000000000000000000000000000000602082015250565b6000614dd2602983613294565b9150614ddd82614d76565b604082019050919050565b60006020820190508181036000830152614e0181614dc5565b9050919050565b600081519050919050565b600082825260208201905092915050565b6000614e2f82614e08565b614e398185614e13565b9350614e498185602086016132a5565b614e52816132d8565b840191505092915050565b6000608082019050614e7260008301876133d9565b614e7f60208301866133d9565b614e8c6040830185613841565b8181036060830152614e9e8184614e24565b905095945050505050565b600081519050614eb8816131fa565b92915050565b600060208284031215614ed457614ed36131c4565b5b6000614ee284828501614ea9565b91505092915050565b6000614ef682613344565b91506000821415614f0a57614f0961416d565b5b600182039050919050565b7f537472696e67733a20686578206c656e67746820696e73756666696369656e74600082015250565b6000614f4b602083613294565b9150614f5682614f15565b602082019050919050565b60006020820190508181036000830152614f7a81614f3e565b9050919050565b7f4552433732313a206d696e7420746f20746865207a65726f2061646472657373600082015250565b6000614fb7602083613294565b9150614fc282614f81565b602082019050919050565b60006020820190508181036000830152614fe681614faa565b9050919050565b7f4552433732313a20746f6b656e20616c7265616479206d696e74656400000000600082015250565b6000615023601c83613294565b915061502e82614fed565b602082019050919050565b6000602082019050818103600083015261505281615016565b905091905056fea2646970667358221220f7f3dd334bac633fade9ca780d6451e631c043a9822c86d85436a1d0e4d47f8464736f6c63430008090033a2646970667358221220e0a02d0b83ee8b0c27a2a5129b299f3cb7abec29602511257ff5ddd471ced8d664736f6c63430008090033",
  "linkReferences": {},
  "deployedLinkReferences": {}
}