{
  "_format": "hh-sol-artifact-1",
  "contractName": "TokenRenderer",
  "sourceName": "contracts/TokenRenderer.sol",
  "abi": [
    {
      "anonymous": false,
      "inputs": [
        {
          "indexed": false,
          "internalType": "address",
          "name": "previousAdmin",
          "type": "address"
        },
        {
          "indexed": false,
          "internalType": "address",
          "name": "newAdmin",
          "type": "address"
        }
      ],
      "name": "AdminChanged",
      "type": "event"
    },
    {
      "anonymous": false,
      "inputs": [
        {
          "indexed": true,
          "internalType": "address",
          "name": "beacon",
          "type": "address"
        }
      ],
      "name": "BeaconUpgraded",
      "type": "event"
    },
    {
      "anonymous": false,
      "inputs": [
        {
          "indexed": false,
          "internalType": "uint8",
          "name": "version",
          "type": "uint8"
        }
      ],
      "name": "Initialized",
      "type": "event"
    },
    {
      "anonymous": false,
      "inputs": [
        {
          "indexed": true,
          "internalType": "address",
          "name": "previousOwner",
          "type": "address"
        },
        {
          "indexed": true,
          "internalType": "address",
          "name": "newOwner",
          "type": "address"
        }
      ],
      "name": "OwnershipTransferred",
      "type": "event"
    },
    {
      "anonymous": false,
      "inputs": [
        {
          "indexed": true,
          "internalType": "address",
          "name": "implementation",
          "type": "address"
        }
      ],
      "name": "Upgraded",
      "type": "event"
    },
    {
      "inputs": [
        {
          "internalType": "address[]",
          "name": "_addresses",
          "type": "address[]"
        },
        {
          "internalType": "string[]",
          "name": "_names",
          "type": "string[]"
        },
        {
          "internalType": "string[]",
          "name": "_colors",
          "type": "string[]"
        },
        {
          "internalType": "address[]",
          "name": "_aggregators",
          "type": "address[]"
        }
      ],
      "name": "initialize",
      "outputs": [],
      "stateMutability": "nonpayable",
      "type": "function"
    },
    {
      "inputs": [],
      "name": "owner",
      "outputs": [
        {
          "internalType": "address",
          "name": "",
          "type": "address"
        }
      ],
      "stateMutability": "view",
      "type": "function"
    },
    {
      "inputs": [],
      "name": "proxiableUUID",
      "outputs": [
        {
          "internalType": "bytes32",
          "name": "",
          "type": "bytes32"
        }
      ],
      "stateMutability": "view",
      "type": "function"
    },
    {
      "inputs": [
        {
          "internalType": "address",
          "name": "_soulfund",
          "type": "address"
        },
        {
          "internalType": "uint256",
          "name": "_tokenId",
          "type": "uint256"
        }
      ],
      "name": "renderToken",
      "outputs": [
        {
          "internalType": "string",
          "name": "",
          "type": "string"
        }
      ],
      "stateMutability": "view",
      "type": "function"
    },
    {
      "inputs": [],
      "name": "renounceOwnership",
      "outputs": [],
      "stateMutability": "nonpayable",
      "type": "function"
    },
    {
      "inputs": [
        {
          "internalType": "address",
          "name": "newOwner",
          "type": "address"
        }
      ],
      "name": "transferOwnership",
      "outputs": [],
      "stateMutability": "nonpayable",
      "type": "function"
    },
    {
      "inputs": [
        {
          "internalType": "address",
          "name": "newImplementation",
          "type": "address"
        }
      ],
      "name": "upgradeTo",
      "outputs": [],
      "stateMutability": "nonpayable",
      "type": "function"
    },
    {
      "inputs": [
        {
          "internalType": "address",
          "name": "newImplementation",
          "type": "address"
        },
        {
          "internalType": "bytes",
          "name": "data",
          "type": "bytes"
        }
      ],
      "name": "upgradeToAndCall",
      "outputs": [],
      "stateMutability": "payable",
      "type": "function"
    }
  ],
  "bytecode": "0x60a06040523073ffffffffffffffffffffffffffffffffffffffff1660809073ffffffffffffffffffffffffffffffffffffffff1681525034801561004357600080fd5b5060805161408e61007b600039600081816101c3015281816102520152818161034c015281816103db015261048b015261408e6000f3fe60806040526004361061007b5760003560e01c8063715018a61161004e578063715018a61461012d57806374debc3a146101445780638da5cb5b1461016d578063f2fde38b146101985761007b565b80633659cfe6146100805780634f1ef286146100a957806352d1902d146100c5578063611fc469146100f0575b600080fd5b34801561008c57600080fd5b506100a760048036038101906100a29190611ccd565b6101c1565b005b6100c360048036038101906100be9190611e40565b61034a565b005b3480156100d157600080fd5b506100da610487565b6040516100e79190611eb5565b60405180910390f35b3480156100fc57600080fd5b5061011760048036038101906101129190611f06565b610540565b6040516101249190611fce565b60405180910390f35b34801561013957600080fd5b50610142610709565b005b34801561015057600080fd5b5061016b6004803603810190610166919061223a565b61071d565b005b34801561017957600080fd5b50610182610a40565b60405161018f9190612320565b60405180910390f35b3480156101a457600080fd5b506101bf60048036038101906101ba9190611ccd565b610a6a565b005b7f000000000000000000000000000000000000000000000000000000000000000073ffffffffffffffffffffffffffffffffffffffff163073ffffffffffffffffffffffffffffffffffffffff161415610250576040517f08c379a0000000000000000000000000000000000000000000000000000000008152600401610247906123ad565b60405180910390fd5b7f000000000000000000000000000000000000000000000000000000000000000073ffffffffffffffffffffffffffffffffffffffff1661028f610aee565b73ffffffffffffffffffffffffffffffffffffffff16146102e5576040517f08c379a00000000000000000000000000000000000000000000000000000000081526004016102dc9061243f565b60405180910390fd5b6102ee81610b45565b61034781600067ffffffffffffffff81111561030d5761030c611d15565b5b6040519080825280601f01601f19166020018201604052801561033f5781602001600182028036833780820191505090505b506000610b50565b50565b7f000000000000000000000000000000000000000000000000000000000000000073ffffffffffffffffffffffffffffffffffffffff163073ffffffffffffffffffffffffffffffffffffffff1614156103d9576040517f08c379a00000000000000000000000000000000000000000000000000000000081526004016103d0906123ad565b60405180910390fd5b7f000000000000000000000000000000000000000000000000000000000000000073ffffffffffffffffffffffffffffffffffffffff16610418610aee565b73ffffffffffffffffffffffffffffffffffffffff161461046e576040517f08c379a00000000000000000000000000000000000000000000000000000000081526004016104659061243f565b60405180910390fd5b61047782610b45565b61048382826001610b50565b5050565b60007f000000000000000000000000000000000000000000000000000000000000000073ffffffffffffffffffffffffffffffffffffffff163073ffffffffffffffffffffffffffffffffffffffff1614610517576040517f08c379a000000000000000000000000000000000000000000000000000000000815260040161050e906124d1565b60405180910390fd5b7f360894a13ba1a3210667c828492db98dca3e2076cc3735a920a3ca505d382bbc60001b905090565b606060008373ffffffffffffffffffffffffffffffffffffffff1663db4796c0846040518263ffffffff1660e01b815260040161057d9190612500565b6101406040518083038186803b15801561059657600080fd5b505afa1580156105aa573d6000803e3d6000fd5b505050506040513d601f19601f820116820180604052508101906105ce919061264b565b905060606000606060008773ffffffffffffffffffffffffffffffffffffffff1663d8f5df666040518163ffffffff1660e01b815260040160206040518083038186803b15801561061e57600080fd5b505afa158015610632573d6000803e3d6000fd5b505050506040513d601f19601f820116820180604052508101906106569190612679565b90508042106106685760009050610683565b603c428261067691906126d5565b6106809190612738565b90505b61068c85610ccd565b80945081955082965050505060006106a6868585856110a8565b90506106dc6106b4896113ad565b82876040516020016106c8939291906129df565b60405160208183030381529060405261150e565b6040516020016106ec9190612a9e565b604051602081830303815290604052965050505050505092915050565b610711611693565b61071b6000611711565b565b60008060019054906101000a900460ff1615905080801561074e5750600160008054906101000a900460ff1660ff16105b8061077b575061075d306117d7565b15801561077a5750600160008054906101000a900460ff1660ff16145b5b6107ba576040517f08c379a00000000000000000000000000000000000000000000000000000000081526004016107b190612b32565b60405180910390fd5b60016000806101000a81548160ff021916908360ff16021790555080156107f7576001600060016101000a81548160ff0219169083151502179055505b83518551148015610809575082518451145b8015610816575081518351145b610855576040517f08c379a000000000000000000000000000000000000000000000000000000000815260040161084c90612b9e565b60405180910390fd5b60005b85518160ff1610156109df576040518060600160405280868360ff168151811061088557610884612bbe565b5b60200260200101518152602001858360ff16815181106108a8576108a7612bbe565b5b60200260200101518152602001848360ff16815181106108cb576108ca612bbe565b5b602002602001015173ffffffffffffffffffffffffffffffffffffffff1681525060c96000888460ff168151811061090657610905612bbe565b5b602002602001015173ffffffffffffffffffffffffffffffffffffffff1673ffffffffffffffffffffffffffffffffffffffff1681526020019081526020016000206000820151816000019080519060200190610964929190611bb8565b506020820151816001019080519060200190610981929190611bb8565b5060408201518160020160006101000a81548173ffffffffffffffffffffffffffffffffffffffff021916908373ffffffffffffffffffffffffffffffffffffffff16021790555090505080806109d790612bfa565b915050610858565b508015610a395760008060016101000a81548160ff0219169083151502179055507f7f26b83ff96e1f2b6a682f133852f6798a09c465da95921460cefb38474024986001604051610a309190612c69565b60405180910390a15b5050505050565b6000609760009054906101000a900473ffffffffffffffffffffffffffffffffffffffff16905090565b610a72611693565b600073ffffffffffffffffffffffffffffffffffffffff168173ffffffffffffffffffffffffffffffffffffffff161415610ae2576040517f08c379a0000000000000000000000000000000000000000000000000000000008152600401610ad990612cf6565b60405180910390fd5b610aeb81611711565b50565b6000610b1c7f360894a13ba1a3210667c828492db98dca3e2076cc3735a920a3ca505d382bbc60001b6117fa565b60000160009054906101000a900473ffffffffffffffffffffffffffffffffffffffff16905090565b610b4d611693565b50565b610b7c7f4910fdfa16fed3260ed0e7147f7cc6da11a60208b5b9406d12a635614ffd914360001b611804565b60000160009054906101000a900460ff1615610ba057610b9b8361180e565b610cc8565b8273ffffffffffffffffffffffffffffffffffffffff166352d1902d6040518163ffffffff1660e01b815260040160206040518083038186803b158015610be657600080fd5b505afa925050508015610c1757506040513d601f19601f82011682018060405250810190610c149190612d42565b60015b610c56576040517f08c379a0000000000000000000000000000000000000000000000000000000008152600401610c4d90612de1565b60405180910390fd5b7f360894a13ba1a3210667c828492db98dca3e2076cc3735a920a3ca505d382bbc60001b8114610cbb576040517f08c379a0000000000000000000000000000000000000000000000000000000008152600401610cb290612e73565b60405180910390fd5b50610cc78383836118c7565b5b505050565b606060006060600080600567ffffffffffffffff811115610cf157610cf0611d15565b5b604051908082528060200260200182016040528015610d1f5781602001602082028036833780820191505090505b5090506000600567ffffffffffffffff811115610d3f57610d3e611d15565b5b604051908082528060200260200182016040528015610d6d5781602001602082028036833780820191505090505b509050606060005b6005811015610f3b57670de0b6b3a7640000898260058110610d9a57610d99612bbe565b5b602002015160200151610e2960c960008d8660058110610dbd57610dbc612bbe565b5b60200201516000015173ffffffffffffffffffffffffffffffffffffffff1673ffffffffffffffffffffffffffffffffffffffff16815260200190815260200160002060020160009054906101000a900473ffffffffffffffffffffffffffffffffffffffff166118f3565b610e339190612e93565b610e3d9190612738565b848281518110610e5057610e4f612bbe565b5b602002602001018181525050670de0b6b3a7640000898260058110610e7857610e77612bbe565b5b602002015160200151610f0760c960008d8660058110610e9b57610e9a612bbe565b5b60200201516000015173ffffffffffffffffffffffffffffffffffffffff1673ffffffffffffffffffffffffffffffffffffffff16815260200190815260200160002060020160009054906101000a900473ffffffffffffffffffffffffffffffffffffffff166118f3565b610f119190612e93565b610f1b9190612738565b85610f269190612eed565b94508080610f3390612f43565b915050610d75565b5060005b835181101561106757610f6c848281518110610f5e57610f5d612bbe565b5b602002602001015186611993565b838281518110610f7f57610f7e612bbe565b5b6020026020010181815250506000898260058110610fa057610f9f612bbe565b5b6020020151602001511115611054578160c960008b8460058110610fc757610fc6612bbe565b5b60200201516000015173ffffffffffffffffffffffffffffffffffffffff1673ffffffffffffffffffffffffffffffffffffffff16815260200190815260200160002060000161103086848151811061102357611022612bbe565b5b60200260200101516119eb565b60405160200161104293929190613165565b60405160208183030381529060405291505b808061105f90612f43565b915050610f3f565b5080611072856119eb565b604051602001611083929190613275565b6040516020818303038152906040529050808483965096509650505050509193909250565b606080606080606060006001905060005b885181101561135c5760c960008c83600581106110d9576110d8612bbe565b5b60200201516000015173ffffffffffffffffffffffffffffffffffffffff1673ffffffffffffffffffffffffffffffffffffffff168152602001908152602001600020600001805461112a90613007565b80601f016020809104026020016040519081016040528092919081815260200182805461115690613007565b80156111a35780601f10611178576101008083540402835291602001916111a3565b820191906000526020600020905b81548152906001019060200180831161118657829003601f168201915b5050505050925060c960008c83600581106111c1576111c0612bbe565b5b60200201516000015173ffffffffffffffffffffffffffffffffffffffff1673ffffffffffffffffffffffffffffffffffffffff168152602001908152602001600020600101805461121290613007565b80601f016020809104026020016040519081016040528092919081815260200182805461123e90613007565b801561128b5780601f106112605761010080835404028352916020019161128b565b820191906000526020600020905b81548152906001019060200180831161126e57829003601f168201915b505050505093508881815181106112a5576112a4612bbe565b5b6020026020010151826112b89190612eed565b915060008b82600581106112cf576112ce612bbe565b5b602002015160200151111561131b57856112f48260086112ef9190612e93565b6113ad565b8585604051602001611309949392919061350f565b60405160208183030381529060405295505b83611325836113ad565b86604051602001611338939291906136e5565b6040516020818303038152906040529450808061135490612f43565b9150506110b9565b50611366896119eb565b84866113718a6113ad565b6040516020016113849493929190613c1d565b604051602081830303815290604052945061139e8561150e565b95505050505050949350505050565b606060008214156113f5576040518060400160405280600181526020017f30000000000000000000000000000000000000000000000000000000000000008152509050611509565b600082905060005b6000821461142757808061141090612f43565b915050600a826114209190612738565b91506113fd565b60008167ffffffffffffffff81111561144357611442611d15565b5b6040519080825280601f01601f1916602001820160405280156114755781602001600182028036833780820191505090505b5090505b600085146115025760018261148e91906126d5565b9150600a8561149d9190613cdf565b60306114a99190612eed565b60f81b8183815181106114bf576114be612bbe565b5b60200101907effffffffffffffffffffffffffffffffffffffffffffffffffffffffffffff1916908160001a905350600a856114fb9190612738565b9450611479565b8093505050505b919050565b60606000825114156115315760405180602001604052806000815250905061168e565b6000604051806060016040528060408152602001613ff260409139905060006003600285516115609190612eed565b61156a9190612738565b60046115769190612e93565b905060006020826115879190612eed565b67ffffffffffffffff8111156115a05761159f611d15565b5b6040519080825280601f01601f1916602001820160405280156115d25781602001600182028036833780820191505090505b509050818152600183018586518101602084015b8183101561164d576003830192508251603f8160121c1685015160f81b8252600182019150603f81600c1c1685015160f81b8252600182019150603f8160061c1685015160f81b8252600182019150603f811685015160f81b8252600182019150506115e6565b600389510660018114611667576002811461167757611682565b613d3d60f01b6002830352611682565b603d60f81b60018303525b50505050508093505050505b919050565b61169b611a16565b73ffffffffffffffffffffffffffffffffffffffff166116b9610a40565b73ffffffffffffffffffffffffffffffffffffffff161461170f576040517f08c379a000000000000000000000000000000000000000000000000000000000815260040161170690613d5c565b60405180910390fd5b565b6000609760009054906101000a900473ffffffffffffffffffffffffffffffffffffffff16905081609760006101000a81548173ffffffffffffffffffffffffffffffffffffffff021916908373ffffffffffffffffffffffffffffffffffffffff1602179055508173ffffffffffffffffffffffffffffffffffffffff168173ffffffffffffffffffffffffffffffffffffffff167f8be0079c531659141344cd1fd0a4f28419497f9722a3daafe3b4186f6b6457e060405160405180910390a35050565b6000808273ffffffffffffffffffffffffffffffffffffffff163b119050919050565b6000819050919050565b6000819050919050565b611817816117d7565b611856576040517f08c379a000000000000000000000000000000000000000000000000000000000815260040161184d90613dee565b60405180910390fd5b806118837f360894a13ba1a3210667c828492db98dca3e2076cc3735a920a3ca505d382bbc60001b6117fa565b60000160006101000a81548173ffffffffffffffffffffffffffffffffffffffff021916908373ffffffffffffffffffffffffffffffffffffffff16021790555050565b6118d083611a1e565b6000825111806118dd5750805b156118ee576118ec8383611a6d565b505b505050565b6000808273ffffffffffffffffffffffffffffffffffffffff1663feaf968c6040518163ffffffff1660e01b815260040160a06040518083038186803b15801561193c57600080fd5b505afa158015611950573d6000803e3d6000fd5b505050506040513d601f19601f820116820180604052508101906119749190613e86565b5050509150506402540be4008161198b9190612e93565b915050919050565b6000806103e8846119a49190612e93565b905083811180156119b457508281115b156119df57600083826119c79190612738565b9050600a816119d69190612738565b925050506119e5565b60009150505b92915050565b60606000670de0b6b3a764000083611a039190612738565b9050611a0e816113ad565b915050919050565b600033905090565b611a278161180e565b8073ffffffffffffffffffffffffffffffffffffffff167fbc7cd75a20ee27fd9adebab32041f755214dbc6bffa90cc0225b39da2e5c2d3b60405160405180910390a250565b6060611a78836117d7565b611ab7576040517f08c379a0000000000000000000000000000000000000000000000000000000008152600401611aae90613f73565b60405180910390fd5b6000808473ffffffffffffffffffffffffffffffffffffffff1684604051611adf9190613fda565b600060405180830381855af49150503d8060008114611b1a576040519150601f19603f3d011682016040523d82523d6000602084013e611b1f565b606091505b5091509150611b47828260405180606001604052806027815260200161403260279139611b51565b9250505092915050565b60608315611b6157829050611bb1565b600083511115611b745782518084602001fd5b816040517f08c379a0000000000000000000000000000000000000000000000000000000008152600401611ba89190611fce565b60405180910390fd5b9392505050565b828054611bc490613007565b90600052602060002090601f016020900481019282611be65760008555611c2d565b82601f10611bff57805160ff1916838001178555611c2d565b82800160010185558215611c2d579182015b82811115611c2c578251825591602001919060010190611c11565b5b509050611c3a9190611c3e565b5090565b5b80821115611c57576000816000905550600101611c3f565b5090565b6000604051905090565b600080fd5b600080fd5b600073ffffffffffffffffffffffffffffffffffffffff82169050919050565b6000611c9a82611c6f565b9050919050565b611caa81611c8f565b8114611cb557600080fd5b50565b600081359050611cc781611ca1565b92915050565b600060208284031215611ce357611ce2611c65565b5b6000611cf184828501611cb8565b91505092915050565b600080fd5b600080fd5b6000601f19601f8301169050919050565b7f4e487b7100000000000000000000000000000000000000000000000000000000600052604160045260246000fd5b611d4d82611d04565b810181811067ffffffffffffffff82111715611d6c57611d6b611d15565b5b80604052505050565b6000611d7f611c5b565b9050611d8b8282611d44565b919050565b600067ffffffffffffffff821115611dab57611daa611d15565b5b611db482611d04565b9050602081019050919050565b82818337600083830152505050565b6000611de3611dde84611d90565b611d75565b905082815260208101848484011115611dff57611dfe611cff565b5b611e0a848285611dc1565b509392505050565b600082601f830112611e2757611e26611cfa565b5b8135611e37848260208601611dd0565b91505092915050565b60008060408385031215611e5757611e56611c65565b5b6000611e6585828601611cb8565b925050602083013567ffffffffffffffff811115611e8657611e85611c6a565b5b611e9285828601611e12565b9150509250929050565b6000819050919050565b611eaf81611e9c565b82525050565b6000602082019050611eca6000830184611ea6565b92915050565b6000819050919050565b611ee381611ed0565b8114611eee57600080fd5b50565b600081359050611f0081611eda565b92915050565b60008060408385031215611f1d57611f1c611c65565b5b6000611f2b85828601611cb8565b9250506020611f3c85828601611ef1565b9150509250929050565b600081519050919050565b600082825260208201905092915050565b60005b83811015611f80578082015181840152602081019050611f65565b83811115611f8f576000848401525b50505050565b6000611fa082611f46565b611faa8185611f51565b9350611fba818560208601611f62565b611fc381611d04565b840191505092915050565b60006020820190508181036000830152611fe88184611f95565b905092915050565b600067ffffffffffffffff82111561200b5761200a611d15565b5b602082029050602081019050919050565b600080fd5b600061203461202f84611ff0565b611d75565b905080838252602082019050602084028301858111156120575761205661201c565b5b835b81811015612080578061206c8882611cb8565b845260208401935050602081019050612059565b5050509392505050565b600082601f83011261209f5761209e611cfa565b5b81356120af848260208601612021565b91505092915050565b600067ffffffffffffffff8211156120d3576120d2611d15565b5b602082029050602081019050919050565b600067ffffffffffffffff8211156120ff576120fe611d15565b5b61210882611d04565b9050602081019050919050565b6000612128612123846120e4565b611d75565b90508281526020810184848401111561214457612143611cff565b5b61214f848285611dc1565b509392505050565b600082601f83011261216c5761216b611cfa565b5b813561217c848260208601612115565b91505092915050565b6000612198612193846120b8565b611d75565b905080838252602082019050602084028301858111156121bb576121ba61201c565b5b835b8181101561220257803567ffffffffffffffff8111156121e0576121df611cfa565b5b8086016121ed8982612157565b855260208501945050506020810190506121bd565b5050509392505050565b600082601f83011261222157612220611cfa565b5b8135612231848260208601612185565b91505092915050565b6000806000806080858703121561225457612253611c65565b5b600085013567ffffffffffffffff81111561227257612271611c6a565b5b61227e8782880161208a565b945050602085013567ffffffffffffffff81111561229f5761229e611c6a565b5b6122ab8782880161220c565b935050604085013567ffffffffffffffff8111156122cc576122cb611c6a565b5b6122d88782880161220c565b925050606085013567ffffffffffffffff8111156122f9576122f8611c6a565b5b6123058782880161208a565b91505092959194509250565b61231a81611c8f565b82525050565b60006020820190506123356000830184612311565b92915050565b7f46756e6374696f6e206d7573742062652063616c6c6564207468726f7567682060008201527f64656c656761746563616c6c0000000000000000000000000000000000000000602082015250565b6000612397602c83611f51565b91506123a28261233b565b604082019050919050565b600060208201905081810360008301526123c68161238a565b9050919050565b7f46756e6374696f6e206d7573742062652063616c6c6564207468726f7567682060008201527f6163746976652070726f78790000000000000000000000000000000000000000602082015250565b6000612429602c83611f51565b9150612434826123cd565b604082019050919050565b600060208201905081810360008301526124588161241c565b9050919050565b7f555550535570677261646561626c653a206d757374206e6f742062652063616c60008201527f6c6564207468726f7567682064656c656761746563616c6c0000000000000000602082015250565b60006124bb603883611f51565b91506124c68261245f565b604082019050919050565b600060208201905081810360008301526124ea816124ae565b9050919050565b6124fa81611ed0565b82525050565b600060208201905061251560008301846124f1565b92915050565b600067ffffffffffffffff82111561253657612535611d15565b5b602082029050919050565b600080fd5b60008151905061255581611ca1565b92915050565b60008151905061256a81611eda565b92915050565b60006040828403121561258657612585612541565b5b6125906040611d75565b905060006125a084828501612546565b60008301525060206125b48482850161255b565b60208301525092915050565b60006125d36125ce8461251b565b611d75565b905080604084028301858111156125ed576125ec61201c565b5b835b8181101561261657806126028882612570565b8452602084019350506040810190506125ef565b5050509392505050565b600082601f83011261263557612634611cfa565b5b60056126428482856125c0565b91505092915050565b6000610140828403121561266257612661611c65565b5b600061267084828501612620565b91505092915050565b60006020828403121561268f5761268e611c65565b5b600061269d8482850161255b565b91505092915050565b7f4e487b7100000000000000000000000000000000000000000000000000000000600052601160045260246000fd5b60006126e082611ed0565b91506126eb83611ed0565b9250828210156126fe576126fd6126a6565b5b828203905092915050565b7f4e487b7100000000000000000000000000000000000000000000000000000000600052601260045260246000fd5b600061274382611ed0565b915061274e83611ed0565b92508261275e5761275d612709565b5b828204905092915050565b600081905092915050565b7f7b226e616d65223a2022536f756c46756e642023000000000000000000000000600082015250565b60006127aa601483612769565b91506127b582612774565b601482019050919050565b60006127cb82611f46565b6127d58185612769565b93506127e5818560208601611f62565b80840191505092915050565b7f222c000000000000000000000000000000000000000000000000000000000000600082015250565b6000612827600283612769565b9150612832826127f1565b600282019050919050565b7f226465736372697074696f6e223a2022536f756c46756e64206973206120536f60008201527f756c626f756e642054696d652026204d657269742042617365642046756e646960208201527f6e6720546f6b656e2e222c000000000000000000000000000000000000000000604082015250565b60006128bf604b83612769565b91506128ca8261283d565b604b82019050919050565b7f22696d616765223a2022646174613a696d6167652f7376672b786d6c3b62617360008201527f6536342c00000000000000000000000000000000000000000000000000000000602082015250565b6000612931602483612769565b915061293c826128d5565b602482019050919050565b7f222c2261747472696275746573223a205b000000000000000000000000000000600082015250565b600061297d601183612769565b915061298882612947565b601182019050919050565b7f5d7d000000000000000000000000000000000000000000000000000000000000600082015250565b60006129c9600283612769565b91506129d482612993565b600282019050919050565b60006129ea8261279d565b91506129f682866127c0565b9150612a018261281a565b9150612a0c826128b2565b9150612a1782612924565b9150612a2382856127c0565b9150612a2e82612970565b9150612a3a82846127c0565b9150612a45826129bc565b9150819050949350505050565b7f646174613a6170706c69636174696f6e2f6a736f6e3b6261736536342c000000600082015250565b6000612a88601d83612769565b9150612a9382612a52565b601d82019050919050565b6000612aa982612a7b565b9150612ab582846127c0565b915081905092915050565b7f496e697469616c697a61626c653a20636f6e747261637420697320616c72656160008201527f647920696e697469616c697a6564000000000000000000000000000000000000602082015250565b6000612b1c602e83611f51565b9150612b2782612ac0565b604082019050919050565b60006020820190508181036000830152612b4b81612b0f565b9050919050565b7f496e76616c696420706172616d206c656e677468000000000000000000000000600082015250565b6000612b88601483611f51565b9150612b9382612b52565b602082019050919050565b60006020820190508181036000830152612bb781612b7b565b9050919050565b7f4e487b7100000000000000000000000000000000000000000000000000000000600052603260045260246000fd5b600060ff82169050919050565b6000612c0582612bed565b915060ff821415612c1957612c186126a6565b5b600182019050919050565b6000819050919050565b6000819050919050565b6000612c53612c4e612c4984612c24565b612c2e565b612bed565b9050919050565b612c6381612c38565b82525050565b6000602082019050612c7e6000830184612c5a565b92915050565b7f4f776e61626c653a206e6577206f776e657220697320746865207a65726f206160008201527f6464726573730000000000000000000000000000000000000000000000000000602082015250565b6000612ce0602683611f51565b9150612ceb82612c84565b604082019050919050565b60006020820190508181036000830152612d0f81612cd3565b9050919050565b612d1f81611e9c565b8114612d2a57600080fd5b50565b600081519050612d3c81612d16565b92915050565b600060208284031215612d5857612d57611c65565b5b6000612d6684828501612d2d565b91505092915050565b7f45524331393637557067726164653a206e657720696d706c656d656e7461746960008201527f6f6e206973206e6f742055555053000000000000000000000000000000000000602082015250565b6000612dcb602e83611f51565b9150612dd682612d6f565b604082019050919050565b60006020820190508181036000830152612dfa81612dbe565b9050919050565b7f45524331393637557067726164653a20756e737570706f727465642070726f7860008201527f6961626c65555549440000000000000000000000000000000000000000000000602082015250565b6000612e5d602983611f51565b9150612e6882612e01565b604082019050919050565b60006020820190508181036000830152612e8c81612e50565b9050919050565b6000612e9e82611ed0565b9150612ea983611ed0565b9250817fffffffffffffffffffffffffffffffffffffffffffffffffffffffffffffffff0483118215151615612ee257612ee16126a6565b5b828202905092915050565b6000612ef882611ed0565b9150612f0383611ed0565b9250827fffffffffffffffffffffffffffffffffffffffffffffffffffffffffffffffff03821115612f3857612f376126a6565b5b828201905092915050565b6000612f4e82611ed0565b91507fffffffffffffffffffffffffffffffffffffffffffffffffffffffffffffffff821415612f8157612f806126a6565b5b600182019050919050565b7f7b2274726169745f74797065223a220000000000000000000000000000000000600082015250565b6000612fc2600f83612769565b9150612fcd82612f8c565b600f82019050919050565b7f4e487b7100000000000000000000000000000000000000000000000000000000600052602260045260246000fd5b6000600282049050600182168061301f57607f821691505b6020821081141561303357613032612fd8565b5b50919050565b60008190508160005260206000209050919050565b6000815461305b81613007565b6130658186612769565b945060018216600081146130805760018114613091576130c4565b60ff198316865281860193506130c4565b61309a85613039565b60005b838110156130bc5781548189015260018201915060208101905061309d565b838801955050505b50505092915050565b7f222c2276616c7565223a22240000000000000000000000000000000000000000600082015250565b6000613103600c83612769565b915061310e826130cd565b600c82019050919050565b7f227d2c0000000000000000000000000000000000000000000000000000000000600082015250565b600061314f600383612769565b915061315a82613119565b600382019050919050565b600061317182866127c0565b915061317c82612fb5565b9150613188828561304e565b9150613193826130f6565b915061319f82846127c0565b91506131aa82613142565b9150819050949350505050565b7f7b2274726169745f74797065223a22546f74616c2056616c7565222c2276616c60008201527f7565223a22240000000000000000000000000000000000000000000000000000602082015250565b6000613213602683612769565b915061321e826131b7565b602682019050919050565b7f227d000000000000000000000000000000000000000000000000000000000000600082015250565b600061325f600283612769565b915061326a82613229565b600282019050919050565b600061328182856127c0565b915061328c82613206565b915061329882846127c0565b91506132a382613252565b91508190509392505050565b7f3c7376672077696474683d2238707822206865696768743d223570782220783d60008201527f2200000000000000000000000000000000000000000000000000000000000000602082015250565b600061330b602183612769565b9150613316826132af565b602182019050919050565b7f2220793d223330223e0000000000000000000000000000000000000000000000600082015250565b6000613357600983612769565b915061336282613321565b600982019050919050565b7f3c72656374207374796c653d2266696c6c3a0000000000000000000000000000600082015250565b60006133a3601283612769565b91506133ae8261336d565b601282019050919050565b7f2220783d223230252220793d223422202f3e0000000000000000000000000000600082015250565b60006133ef601283612769565b91506133fa826133b9565b601282019050919050565b7f3c7465787420783d223530252220793d223530252220646f6d696e616e742d6260008201527f6173656c696e653d226d6964646c652220746578742d616e63686f723d226d6960208201527f64646c6522207374796c653d22666f6e742d73697a653a3270783b66696c6c3a60408201527f20233030303b223e000000000000000000000000000000000000000000000000606082015250565b60006134ad606883612769565b91506134b882613405565b606882019050919050565b7f3c2f746578743e3c2f7376673e00000000000000000000000000000000000000600082015250565b60006134f9600d83612769565b9150613504826134c3565b600d82019050919050565b600061351b82876127c0565b9150613526826132fe565b915061353282866127c0565b915061353d8261334a565b915061354882613396565b915061355482856127c0565b915061355f826133e2565b915061356a826134a0565b915061357682846127c0565b9150613581826134ec565b915081905095945050505050565b7f3c636972636c6520723d2235222063783d223130222063793d2231302220666960008201527f6c6c3d227472616e73706172656e7422207374726f6b653d2200000000000000602082015250565b60006135eb603983612769565b91506135f68261358f565b603982019050919050565b7f22207374726f6b652d77696474683d22313022207374726f6b652d646173686160008201527f727261793d2263616c6328000000000000000000000000000000000000000000602082015250565b600061365d602b83612769565b915061366882613601565b602b82019050919050565b7f202a2033312e34202f20313030292033312e3422207472616e73666f726d3d2260008201527f726f74617465282d393029207472616e736c617465282d32302922202f3e0000602082015250565b60006136cf603e83612769565b91506136da82613673565b603e82019050919050565b60006136f0826135de565b91506136fc82866127c0565b915061370782613650565b915061371382856127c0565b915061371e826136c2565b915061372a82846127c0565b9150819050949350505050565b7f3c73766720786d6c6e733d22687474703a2f2f7777772e77332e6f72672f323060008201527f30302f7376672220786d6c6e733a786c696e6b3d22687474703a2f2f7777772e60208201527f77332e6f72672f313939392f786c696e6b222069643d226d61696e222076696560408201527f77426f783d22302030203430203430222070726573657276654173706563745260608201527f6174696f3d22784d696e594d696e206d656574222073686170652d72656e646560808201527f72696e673d2263726973702d6564676573223e0000000000000000000000000060a082015250565b600061382b60b383612769565b915061383682613737565b60b382019050919050565b7f3c7376672077696474683d223430707822206865696768743d2235707822207860008201527f3d22302220793d2233223e000000000000000000000000000000000000000000602082015250565b600061389d602b83612769565b91506138a882613841565b602b82019050919050565b7f3c7465787420783d223530252220793d223530252220646f6d696e616e742d6260008201527f6173656c696e653d226d6964646c652220746578742d616e63686f723d226d6960208201527f64646c6522207374796c653d22666f6e742d73697a653a3370783b66696c6c3a60408201527f20233030303b223e240000000000000000000000000000000000000000000000606082015250565b600061395b606983612769565b9150613966826138b3565b606982019050919050565b7f3c7376672069643d227069652220783d2231302220793d22313022206865696760008201527f68743d223230222077696474683d223230222076696577426f783d223020302060208201527f3230203230223e00000000000000000000000000000000000000000000000000604082015250565b60006139f3604783612769565b91506139fe82613971565b604782019050919050565b7f3c636972636c6520723d223130222063783d223130222063793d22313022206660008201527f696c6c3d22776869746522202f3e000000000000000000000000000000000000602082015250565b6000613a65602e83612769565b9150613a7082613a09565b602e82019050919050565b7f3c2f7376673e0000000000000000000000000000000000000000000000000000600082015250565b6000613ab1600683612769565b9150613abc82613a7b565b600682019050919050565b7f3c7376672077696474683d223430707822206865696768743d2235707822207860008201527f3d22302220793d223336223e0000000000000000000000000000000000000000602082015250565b6000613b23602c83612769565b9150613b2e82613ac7565b602c82019050919050565b7f204d696e7574657320556e74696c204e65787420566573740000000000000000600082015250565b6000613b6f601883612769565b9150613b7a82613b39565b601882019050919050565b7f3c7374796c653e746578747b666f6e742d66616d696c793a417269616c3b7d7260008201527f6563747b77696474683a3570783b6865696768743a3170783b7d3c2f7374796c60208201527f653e3c2f7376673e000000000000000000000000000000000000000000000000604082015250565b6000613c07604883612769565b9150613c1282613b85565b604882019050919050565b6000613c288261381e565b9150613c3382613890565b9150613c3e8261394e565b9150613c4a82876127c0565b9150613c55826134ec565b9150613c60826139e6565b9150613c6b82613a58565b9150613c7782866127c0565b9150613c8282613aa4565b9150613c8e82856127c0565b9150613c9982613b16565b9150613ca4826134a0565b9150613cb082846127c0565b9150613cbb82613b62565b9150613cc6826134ec565b9150613cd182613bfa565b915081905095945050505050565b6000613cea82611ed0565b9150613cf583611ed0565b925082613d0557613d04612709565b5b828206905092915050565b7f4f776e61626c653a2063616c6c6572206973206e6f7420746865206f776e6572600082015250565b6000613d46602083611f51565b9150613d5182613d10565b602082019050919050565b60006020820190508181036000830152613d7581613d39565b9050919050565b7f455243313936373a206e657720696d706c656d656e746174696f6e206973206e60008201527f6f74206120636f6e747261637400000000000000000000000000000000000000602082015250565b6000613dd8602d83611f51565b9150613de382613d7c565b604082019050919050565b60006020820190508181036000830152613e0781613dcb565b9050919050565b600069ffffffffffffffffffff82169050919050565b613e2d81613e0e565b8114613e3857600080fd5b50565b600081519050613e4a81613e24565b92915050565b6000819050919050565b613e6381613e50565b8114613e6e57600080fd5b50565b600081519050613e8081613e5a565b92915050565b600080600080600060a08688031215613ea257613ea1611c65565b5b6000613eb088828901613e3b565b9550506020613ec188828901613e71565b9450506040613ed28882890161255b565b9350506060613ee38882890161255b565b9250506080613ef488828901613e3b565b9150509295509295909350565b7f416464726573733a2064656c65676174652063616c6c20746f206e6f6e2d636f60008201527f6e74726163740000000000000000000000000000000000000000000000000000602082015250565b6000613f5d602683611f51565b9150613f6882613f01565b604082019050919050565b60006020820190508181036000830152613f8c81613f50565b9050919050565b600081519050919050565b600081905092915050565b6000613fb482613f93565b613fbe8185613f9e565b9350613fce818560208601611f62565b80840191505092915050565b6000613fe68284613fa9565b91508190509291505056fe4142434445464748494a4b4c4d4e4f505152535455565758595a6162636465666768696a6b6c6d6e6f707172737475767778797a303132333435363738392b2f416464726573733a206c6f772d6c6576656c2064656c65676174652063616c6c206661696c6564a26469706673582212206219376911613e259a3b6454a7b4196b0e22b393feed701085c7999f44f1eae664736f6c63430008090033",
  "linkReferences": {},
  "deployedLinkReferences": {}
}