{
  "_format": "hh-sol-artifact-1",
  "contractName": "Jury",
  "sourceName": "contracts/Jury.sol",
  "abi": [
    {
      "inputs": [
        {
          "internalType": "address[]",
          "name": "_initialJuryMembers",
          "type": "address[]"
        }
      ],
      "stateMutability": "nonpayable",
      "type": "constructor"
    },
    {
      "anonymous": false,
      "inputs": [
        {
          "indexed": false,
          "internalType": "uint256",
          "name": "juryId",
          "type": "uint256"
        },
        {
          "indexed": false,
          "internalType": "uint256",
          "name": "newDeadline",
          "type": "uint256"
        }
      ],
      "name": "DisputeDeadlinePostponed",
      "type": "event"
    },
    {
      "anonymous": false,
      "inputs": [
        {
          "indexed": false,
          "internalType": "bool",
          "name": "verdict",
          "type": "bool"
        },
        {
          "indexed": false,
          "internalType": "uint256",
          "name": "juryId",
          "type": "uint256"
        }
      ],
      "name": "DisputeResolved",
      "type": "event"
    },
    {
      "anonymous": false,
      "inputs": [
        {
          "indexed": true,
          "internalType": "uint256",
          "name": "jurydId",
          "type": "uint256"
        }
      ],
      "name": "JuryDutyCompleted",
      "type": "event"
    },
    {
      "anonymous": false,
      "inputs": [
        {
          "indexed": false,
          "internalType": "bool",
          "name": "vote",
          "type": "bool"
        },
        {
          "indexed": true,
          "internalType": "address",
          "name": "juryMember",
          "type": "address"
        }
      ],
      "name": "JuryMemberVoted",
      "type": "event"
    },
    {
      "anonymous": false,
      "inputs": [
        {
          "indexed": false,
          "internalType": "uint256",
          "name": "juryId",
          "type": "uint256"
        },
        {
          "indexed": false,
          "internalType": "uint256",
          "name": "disputeId",
          "type": "uint256"
        }
      ],
      "name": "NewDispute",
      "type": "event"
    },
    {
      "anonymous": false,
      "inputs": [
        {
          "indexed": false,
          "internalType": "address",
          "name": "juryMemeber",
          "type": "address"
        }
      ],
      "name": "NewJuryPoolMember",
      "type": "event"
    },
    {
      "anonymous": false,
      "inputs": [
        {
          "indexed": false,
          "internalType": "uint256",
          "name": "juryId",
          "type": "uint256"
        },
        {
          "indexed": true,
          "internalType": "address[]",
          "name": "juryMemebers",
          "type": "address[]"
        }
      ],
      "name": "NewLiveJury",
      "type": "event"
    },
    {
      "anonymous": false,
      "inputs": [
        {
          "indexed": false,
          "internalType": "address",
          "name": "account",
          "type": "address"
        }
      ],
      "name": "Paused",
      "type": "event"
    },
    {
      "anonymous": false,
      "inputs": [
        {
          "indexed": false,
          "internalType": "address",
          "name": "juryMember",
          "type": "address"
        }
      ],
      "name": "RemovedJuryMember",
      "type": "event"
    },
    {
      "anonymous": false,
      "inputs": [
        {
          "indexed": false,
          "internalType": "address",
          "name": "account",
          "type": "address"
        }
      ],
      "name": "Unpaused",
      "type": "event"
    },
    {
      "inputs": [
        {
          "internalType": "address",
          "name": "_newMember",
          "type": "address"
        }
      ],
      "name": "addJuryPoolMember",
      "outputs": [],
      "stateMutability": "nonpayable",
      "type": "function"
    },
    {
      "inputs": [
        {
          "internalType": "uint256",
          "name": "",
          "type": "uint256"
        }
      ],
      "name": "disputeProposals",
      "outputs": [
        {
          "internalType": "bool",
          "name": "isApproved",
          "type": "bool"
        },
        {
          "internalType": "uint256",
          "name": "deadline",
          "type": "uint256"
        },
        {
          "internalType": "address",
          "name": "plaintiff",
          "type": "address"
        },
        {
          "internalType": "address",
          "name": "defendent",
          "type": "address"
        }
      ],
      "stateMutability": "view",
      "type": "function"
    },
    {
      "inputs": [
        {
          "internalType": "uint256",
          "name": "",
          "type": "uint256"
        }
      ],
      "name": "disputes",
      "outputs": [
        {
          "internalType": "uint256",
          "name": "juryId",
          "type": "uint256"
        },
        {
          "internalType": "uint256",
          "name": "disputeId",
          "type": "uint256"
        },
        {
          "internalType": "uint256",
          "name": "deadline",
          "type": "uint256"
        },
        {
          "internalType": "address",
          "name": "plaintiff",
          "type": "address"
        },
        {
          "internalType": "address",
          "name": "defendent",
          "type": "address"
        },
        {
          "internalType": "bool",
          "name": "verdict",
          "type": "bool"
        }
      ],
      "stateMutability": "view",
      "type": "function"
    },
    {
      "inputs": [
        {
          "internalType": "uint256",
          "name": "_disputeId",
          "type": "uint256"
        }
      ],
      "name": "extendDisputeDeadline",
      "outputs": [],
      "stateMutability": "nonpayable",
      "type": "function"
    },
    {
      "inputs": [
        {
          "internalType": "uint256",
          "name": "",
          "type": "uint256"
        },
        {
          "internalType": "uint256",
          "name": "",
          "type": "uint256"
        }
      ],
      "name": "juries",
      "outputs": [
        {
          "internalType": "address",
          "name": "memberAddr",
          "type": "address"
        },
        {
          "internalType": "uint256",
          "name": "jurysParticipated",
          "type": "uint256"
        },
        {
          "internalType": "uint256",
          "name": "disputesApproved",
          "type": "uint256"
        },
        {
          "internalType": "uint256",
          "name": "disputesResolved",
          "type": "uint256"
        },
        {
          "internalType": "bool",
          "name": "vote",
          "type": "bool"
        }
      ],
      "stateMutability": "view",
      "type": "function"
    },
    {
      "inputs": [
        {
          "internalType": "uint256",
          "name": "",
          "type": "uint256"
        }
      ],
      "name": "juryIsLive",
      "outputs": [
        {
          "internalType": "bool",
          "name": "",
          "type": "bool"
        }
      ],
      "stateMutability": "view",
      "type": "function"
    },
    {
      "inputs": [
        {
          "internalType": "address",
          "name": "",
          "type": "address"
        }
      ],
      "name": "juryPoolMembers",
      "outputs": [
        {
          "internalType": "bool",
          "name": "",
          "type": "bool"
        }
      ],
      "stateMutability": "view",
      "type": "function"
    },
    {
      "inputs": [
        {
          "internalType": "uint256",
          "name": "_disputeProposalId",
          "type": "uint256"
        }
      ],
      "name": "newDisputeSubmission",
      "outputs": [],
      "stateMutability": "nonpayable",
      "type": "function"
    },
    {
      "inputs": [
        {
          "internalType": "address[]",
          "name": "_juryMembers",
          "type": "address[]"
        }
      ],
      "name": "newLiveJury",
      "outputs": [],
      "stateMutability": "nonpayable",
      "type": "function"
    },
    {
      "inputs": [],
      "name": "paused",
      "outputs": [
        {
          "internalType": "bool",
          "name": "",
          "type": "bool"
        }
      ],
      "stateMutability": "view",
      "type": "function"
    },
    {
      "inputs": [],
      "name": "setJuryType",
      "outputs": [],
      "stateMutability": "nonpayable",
      "type": "function"
    },
    {
      "inputs": [],
      "name": "voteNo",
      "outputs": [],
      "stateMutability": "nonpayable",
      "type": "function"
    },
    {
      "inputs": [],
      "name": "voteYes",
      "outputs": [],
      "stateMutability": "nonpayable",
      "type": "function"
    }
  ],
  "bytecode": "0x60806040523480156200001157600080fd5b5060405162001bc538038062001bc58339818101604052810190620000379190620003c5565b60008060006101000a81548160ff021916908315150217905550600a81511462000098576040517f08c379a00000000000000000000000000000000000000000000000000000000081526004016200008f906200049d565b60405180910390fd5b60005b81518110156200018657600160076000848481518110620000c157620000c0620004bf565b5b602002602001015173ffffffffffffffffffffffffffffffffffffffff1673ffffffffffffffffffffffffffffffffffffffff16815260200190815260200160002060006101000a81548160ff0219169083151502179055507f543fa957e48cddb9c78047c49b8227a327101433e6c106c5632530e20a46185c828281518110620001515762000150620004bf565b5b6020026020010151604051620001689190620004ff565b60405180910390a180806200017d9062000555565b9150506200009b565b5060018060008282546200019b9190620005a3565b92505081905550600160096000600154815260200190815260200160002060006101000a81548160ff0219169083151502179055505062000600565b6000604051905090565b600080fd5b600080fd5b600080fd5b6000601f19601f8301169050919050565b7f4e487b7100000000000000000000000000000000000000000000000000000000600052604160045260246000fd5b6200023b82620001f0565b810181811067ffffffffffffffff821117156200025d576200025c62000201565b5b80604052505050565b600062000272620001d7565b905062000280828262000230565b919050565b600067ffffffffffffffff821115620002a357620002a262000201565b5b602082029050602081019050919050565b600080fd5b600073ffffffffffffffffffffffffffffffffffffffff82169050919050565b6000620002e682620002b9565b9050919050565b620002f881620002d9565b81146200030457600080fd5b50565b6000815190506200031881620002ed565b92915050565b6000620003356200032f8462000285565b62000266565b905080838252602082019050602084028301858111156200035b576200035a620002b4565b5b835b8181101562000388578062000373888262000307565b8452602084019350506020810190506200035d565b5050509392505050565b600082601f830112620003aa57620003a9620001eb565b5b8151620003bc8482602086016200031e565b91505092915050565b600060208284031215620003de57620003dd620001e1565b5b600082015167ffffffffffffffff811115620003ff57620003fe620001e6565b5b6200040d8482850162000392565b91505092915050565b600082825260208201905092915050565b7f4a7572792e636f6e7374727563746f723a206e6f7420656e6f756768206a757260008201527f79206d656d626572730000000000000000000000000000000000000000000000602082015250565b60006200048560298362000416565b9150620004928262000427565b604082019050919050565b60006020820190508181036000830152620004b88162000476565b9050919050565b7f4e487b7100000000000000000000000000000000000000000000000000000000600052603260045260246000fd5b620004f981620002d9565b82525050565b6000602082019050620005166000830184620004ee565b92915050565b7f4e487b7100000000000000000000000000000000000000000000000000000000600052601160045260246000fd5b6000819050919050565b600062000562826200054b565b91507fffffffffffffffffffffffffffffffffffffffffffffffffffffffffffffffff8214156200059857620005976200051c565b5b600182019050919050565b6000620005b0826200054b565b9150620005bd836200054b565b9250827fffffffffffffffffffffffffffffffffffffffffffffffffffffffffffffffff03821115620005f557620005f46200051c565b5b828201905092915050565b6115b580620006106000396000f3fe608060405234801561001057600080fd5b50600436106100cf5760003560e01c806364ca6b141161008c578063a94c8f3d11610066578063a94c8f3d146101f3578063c84663b014610226578063cafd73b814610242578063d652ef1a1461024c576100cf565b806364ca6b14146101b15780638be3056f146101cd57806390cf581c146101e9576100cf565b806301144f44146100d457806312f373051461010857806341c12a7014610124578063564a565d1461012e578063596d7b2f146101635780635c975abb14610193575b600080fd5b6100ee60048036038101906100e99190610ea8565b61027c565b6040516100ff959493929190610f53565b60405180910390f35b610122600480360381019061011d9190610fa6565b6102fc565b005b61012c610487565b005b61014860048036038101906101439190610fa6565b610634565b60405161015a96959493929190610fd3565b60405180910390f35b61017d60048036038101906101789190610fa6565b6106bd565b60405161018a9190611034565b60405180910390f35b61019b6106dd565b6040516101a89190611034565b60405180910390f35b6101cb60048036038101906101c69190610fa6565b6106f3565b005b6101e760048036038101906101e291906111d4565b610763565b005b6101f1610835565b005b61020d60048036038101906102089190610fa6565b6109e2565b60405161021d949392919061121d565b60405180910390f35b610240600480360381019061023b9190611262565b610a5f565b005b61024a610c9c565b005b61026660048036038101906102619190611262565b610c9e565b6040516102739190611034565b60405180910390f35b6008602052816000526040600020818154811061029857600080fd5b9060005260206000209060050201600091509150508060000160009054906101000a900473ffffffffffffffffffffffffffffffffffffffff16908060010154908060020154908060030154908060040160009054906101000a900460ff16905085565b600760003373ffffffffffffffffffffffffffffffffffffffff1673ffffffffffffffffffffffffffffffffffffffff16815260200190815260200160002060009054906101000a900460ff16610388576040517f08c379a000000000000000000000000000000000000000000000000000000000815260040161037f906112ec565b60405180910390fd5b6002600660008381526020019081526020016000206000018054905010156103e5576040517f08c379a00000000000000000000000000000000000000000000000000000000081526004016103dc9061137e565b60405180910390fd5b60006006600083815260200190815260200160002060030160009054906101000a900473ffffffffffffffffffffffffffffffffffffffff16905060006006600084815260200190815260200160002060040160009054906101000a900473ffffffffffffffffffffffffffffffffffffffff169050600060066000858152602001908152602001600020600201549050610481838383610cbe565b50505050565b6000600860006001548152602001908152602001600020805480602002602001604051908101604052809291908181526020016000905b8282101561057f57838290600052602060002090600502016040518060a00160405290816000820160009054906101000a900473ffffffffffffffffffffffffffffffffffffffff1673ffffffffffffffffffffffffffffffffffffffff1673ffffffffffffffffffffffffffffffffffffffff1681526020016001820154815260200160028201548152602001600382015481526020016004820160009054906101000a900460ff161515151581525050815260200190600101906104be565b50505050905060005b8151811015610630578181815181106105a4576105a361139e565b5b60200260200101516000015173ffffffffffffffffffffffffffffffffffffffff163373ffffffffffffffffffffffffffffffffffffffff161461061d576040517f08c379a000000000000000000000000000000000000000000000000000000000815260040161061490611419565b60405180910390fd5b808061062890611468565b915050610588565b5050565b60056020528060005260406000206000915090508060000154908060010154908060020154908060030160009054906101000a900473ffffffffffffffffffffffffffffffffffffffff16908060040160009054906101000a900473ffffffffffffffffffffffffffffffffffffffff16908060040160149054906101000a900460ff16905086565b60096020528060005260406000206000915054906101000a900460ff1681565b60008060009054906101000a900460ff16905090565b60006201518060056000848152602001908152602001600020600201600082825461071e91906114b1565b92505081905590507f4da9b675e578acf05cb72712fc12154fc303610a9bef918062e80e7b25aa045f8282604051610757929190611507565b60405180910390a15050565b600180600082825461077591906114b1565b92505081905550600160096000600154815260200190815260200160002060006101000a81548160ff021916908315150217905550600060096000600180546107be9190611530565b815260200190815260200160002060006101000a81548160ff02191690831515021790555060005b81518110156108025780806107fa90611468565b9150506107e6565b506001547fc796ad74732d2a065b3161c4bf85138cb8d4b0561d078cc02aa237d2e29141db60405160405180910390a250565b6000600860006001548152602001908152602001600020805480602002602001604051908101604052809291908181526020016000905b8282101561092d57838290600052602060002090600502016040518060a00160405290816000820160009054906101000a900473ffffffffffffffffffffffffffffffffffffffff1673ffffffffffffffffffffffffffffffffffffffff1673ffffffffffffffffffffffffffffffffffffffff1681526020016001820154815260200160028201548152602001600382015481526020016004820160009054906101000a900460ff1615151515815250508152602001906001019061086c565b50505050905060005b81518110156109de578181815181106109525761095161139e565b5b60200260200101516000015173ffffffffffffffffffffffffffffffffffffffff163373ffffffffffffffffffffffffffffffffffffffff16146109cb576040517f08c379a00000000000000000000000000000000000000000000000000000000081526004016109c290611419565b60405180910390fd5b80806109d690611468565b915050610936565b5050565b60066020528060005260406000206000915090508060010160009054906101000a900460ff16908060020154908060030160009054906101000a900473ffffffffffffffffffffffffffffffffffffffff16908060040160009054906101000a900473ffffffffffffffffffffffffffffffffffffffff16905084565b6000600860006001548152602001908152602001600020805480602002602001604051908101604052809291908181526020016000905b82821015610b5757838290600052602060002090600502016040518060a00160405290816000820160009054906101000a900473ffffffffffffffffffffffffffffffffffffffff1673ffffffffffffffffffffffffffffffffffffffff1673ffffffffffffffffffffffffffffffffffffffff1681526020016001820154815260200160028201548152602001600382015481526020016004820160009054906101000a900460ff16151515158152505081526020019060010190610a96565b50505050905060005b8151811015610c0857818181518110610b7c57610b7b61139e565b5b60200260200101516000015173ffffffffffffffffffffffffffffffffffffffff163373ffffffffffffffffffffffffffffffffffffffff1614610bf5576040517f08c379a0000000000000000000000000000000000000000000000000000000008152600401610bec90611419565b60405180910390fd5b8080610c0090611468565b915050610b60565b506001600760008473ffffffffffffffffffffffffffffffffffffffff1673ffffffffffffffffffffffffffffffffffffffff16815260200190815260200160002060006101000a81548160ff0219169083151502179055507f543fa957e48cddb9c78047c49b8227a327101433e6c106c5632530e20a46185c82604051610c909190611564565b60405180910390a15050565b565b60076020528060005260406000206000915054906101000a900460ff1681565b600160026000828254610cd191906114b1565b925050819055506040518060c00160405280600154815260200160025481526020018281526020018473ffffffffffffffffffffffffffffffffffffffff1681526020018373ffffffffffffffffffffffffffffffffffffffff1681526020016000151581525060056000600254815260200190815260200160002060008201518160000155602082015181600101556040820151816002015560608201518160030160006101000a81548173ffffffffffffffffffffffffffffffffffffffff021916908373ffffffffffffffffffffffffffffffffffffffff16021790555060808201518160040160006101000a81548173ffffffffffffffffffffffffffffffffffffffff021916908373ffffffffffffffffffffffffffffffffffffffff16021790555060a08201518160040160146101000a81548160ff0219169083151502179055509050507f98d85359d4c56c7eaf2486712c329156c582a48e60b4188ba13a7afa45cfff32600254600154604051610e51929190611507565b60405180910390a1505050565b6000604051905090565b600080fd5b600080fd5b6000819050919050565b610e8581610e72565b8114610e9057600080fd5b50565b600081359050610ea281610e7c565b92915050565b60008060408385031215610ebf57610ebe610e68565b5b6000610ecd85828601610e93565b9250506020610ede85828601610e93565b9150509250929050565b600073ffffffffffffffffffffffffffffffffffffffff82169050919050565b6000610f1382610ee8565b9050919050565b610f2381610f08565b82525050565b610f3281610e72565b82525050565b60008115159050919050565b610f4d81610f38565b82525050565b600060a082019050610f686000830188610f1a565b610f756020830187610f29565b610f826040830186610f29565b610f8f6060830185610f29565b610f9c6080830184610f44565b9695505050505050565b600060208284031215610fbc57610fbb610e68565b5b6000610fca84828501610e93565b91505092915050565b600060c082019050610fe86000830189610f29565b610ff56020830188610f29565b6110026040830187610f29565b61100f6060830186610f1a565b61101c6080830185610f1a565b61102960a0830184610f44565b979650505050505050565b60006020820190506110496000830184610f44565b92915050565b600080fd5b6000601f19601f8301169050919050565b7f4e487b7100000000000000000000000000000000000000000000000000000000600052604160045260246000fd5b61109d82611054565b810181811067ffffffffffffffff821117156110bc576110bb611065565b5b80604052505050565b60006110cf610e5e565b90506110db8282611094565b919050565b600067ffffffffffffffff8211156110fb576110fa611065565b5b602082029050602081019050919050565b600080fd5b61111a81610f08565b811461112557600080fd5b50565b60008135905061113781611111565b92915050565b600061115061114b846110e0565b6110c5565b905080838252602082019050602084028301858111156111735761117261110c565b5b835b8181101561119c57806111888882611128565b845260208401935050602081019050611175565b5050509392505050565b600082601f8301126111bb576111ba61104f565b5b81356111cb84826020860161113d565b91505092915050565b6000602082840312156111ea576111e9610e68565b5b600082013567ffffffffffffffff81111561120857611207610e6d565b5b611214848285016111a6565b91505092915050565b60006080820190506112326000830187610f44565b61123f6020830186610f29565b61124c6040830185610f1a565b6112596060830184610f1a565b95945050505050565b60006020828403121561127857611277610e68565b5b600061128684828501611128565b91505092915050565b600082825260208201905092915050565b7f63616c6c6572206d757374206265206a75727920706f6f6c206d656d62657200600082015250565b60006112d6601f8361128f565b91506112e1826112a0565b602082019050919050565b60006020820190508181036000830152611305816112c9565b9050919050565b7f4a7572792e6e6577446973707574655375626d697373696f6e3a206e6f74206560008201527f6e6f75676820617070726f76616c7320666f7220646973707574650000000000602082015250565b6000611368603b8361128f565b91506113738261130c565b604082019050919050565b600060208201905081810360008301526113978161135b565b9050919050565b7f4e487b7100000000000000000000000000000000000000000000000000000000600052603260045260246000fd5b7f63616c6c6572206d757374206265206a757279206d656d626572000000000000600082015250565b6000611403601a8361128f565b915061140e826113cd565b602082019050919050565b60006020820190508181036000830152611432816113f6565b9050919050565b7f4e487b7100000000000000000000000000000000000000000000000000000000600052601160045260246000fd5b600061147382610e72565b91507fffffffffffffffffffffffffffffffffffffffffffffffffffffffffffffffff8214156114a6576114a5611439565b5b600182019050919050565b60006114bc82610e72565b91506114c783610e72565b9250827fffffffffffffffffffffffffffffffffffffffffffffffffffffffffffffffff038211156114fc576114fb611439565b5b828201905092915050565b600060408201905061151c6000830185610f29565b6115296020830184610f29565b9392505050565b600061153b82610e72565b915061154683610e72565b92508282101561155957611558611439565b5b828203905092915050565b60006020820190506115796000830184610f1a565b9291505056fea264697066735822122002ac794d46e0f120aabd4d007f67a7a830f19f5df7274a7db56788dddff41c2064736f6c63430008090033",
  "linkReferences": {},
  "deployedLinkReferences": {}
}