{
  "_format": "hh-sol-artifact-1",
  "contractName": "Jury",
  "sourceName": "contracts/Jury.sol",
  "abi": [
    {
      "inputs": [
        {
          "internalType": "address[]",
          "name": "_initialJuryMembers",
          "type": "address[]"
        },
        {
          "internalType": "uint96",
          "name": "_jurySwap",
          "type": "uint96"
        },
        {
          "internalType": "uint8",
          "name": "_minJurySize",
          "type": "uint8"
        }
      ],
      "stateMutability": "nonpayable",
      "type": "constructor"
    },
    {
      "anonymous": false,
      "inputs": [
        {
          "indexed": false,
          "internalType": "uint256",
          "name": "juryId",
          "type": "uint256"
        },
        {
          "indexed": false,
          "internalType": "uint256",
          "name": "newDeadline",
          "type": "uint256"
        }
      ],
      "name": "DisputeDeadlinePostponed",
      "type": "event"
    },
    {
      "anonymous": false,
      "inputs": [
        {
          "indexed": false,
          "internalType": "bool",
          "name": "verdict",
          "type": "bool"
        },
        {
          "indexed": false,
          "internalType": "uint256",
          "name": "juryId",
          "type": "uint256"
        }
      ],
      "name": "DisputeResolved",
      "type": "event"
    },
    {
      "anonymous": false,
      "inputs": [
        {
          "indexed": true,
          "internalType": "uint256",
          "name": "juryId",
          "type": "uint256"
        },
        {
          "indexed": true,
          "internalType": "address[]",
          "name": "juryMembers",
          "type": "address[]"
        }
      ],
      "name": "JuryDutyAdded",
      "type": "event"
    },
    {
      "anonymous": false,
      "inputs": [
        {
          "indexed": true,
          "internalType": "uint256",
          "name": "jurydId",
          "type": "uint256"
        }
      ],
      "name": "JuryDutyCompleted",
      "type": "event"
    },
    {
      "anonymous": false,
      "inputs": [
        {
          "indexed": false,
          "internalType": "bool",
          "name": "vote",
          "type": "bool"
        },
        {
          "indexed": true,
          "internalType": "address",
          "name": "juryMember",
          "type": "address"
        }
      ],
      "name": "JuryMemberVoted",
      "type": "event"
    },
    {
      "anonymous": false,
      "inputs": [
        {
          "indexed": false,
          "internalType": "uint256",
          "name": "juryId",
          "type": "uint256"
        },
        {
          "indexed": false,
          "internalType": "uint256",
          "name": "disputeId",
          "type": "uint256"
        }
      ],
      "name": "NewDispute",
      "type": "event"
    },
    {
      "anonymous": false,
      "inputs": [
        {
          "indexed": false,
          "internalType": "address",
          "name": "juryMemeber",
          "type": "address"
        }
      ],
      "name": "NewJuryPoolMember",
      "type": "event"
    },
    {
      "anonymous": false,
      "inputs": [
        {
          "indexed": false,
          "internalType": "uint256",
          "name": "juryId",
          "type": "uint256"
        },
        {
          "indexed": true,
          "internalType": "address[]",
          "name": "juryMembers",
          "type": "address[]"
        }
      ],
      "name": "NewLiveJury",
      "type": "event"
    },
    {
      "anonymous": false,
      "inputs": [
        {
          "indexed": false,
          "internalType": "address",
          "name": "account",
          "type": "address"
        }
      ],
      "name": "Paused",
      "type": "event"
    },
    {
      "anonymous": false,
      "inputs": [
        {
          "indexed": false,
          "internalType": "address",
          "name": "juryMember",
          "type": "address"
        }
      ],
      "name": "RemovedJuryMember",
      "type": "event"
    },
    {
      "anonymous": false,
      "inputs": [
        {
          "indexed": false,
          "internalType": "address",
          "name": "account",
          "type": "address"
        }
      ],
      "name": "Unpaused",
      "type": "event"
    },
    {
      "anonymous": false,
      "inputs": [
        {
          "indexed": true,
          "internalType": "address",
          "name": "juryMember",
          "type": "address"
        },
        {
          "indexed": true,
          "internalType": "uint256",
          "name": "disputeId",
          "type": "uint256"
        },
        {
          "indexed": false,
          "internalType": "bool",
          "name": "decision",
          "type": "bool"
        }
      ],
      "name": "Voted",
      "type": "event"
    },
    {
      "inputs": [
        {
          "internalType": "address",
          "name": "_newMember",
          "type": "address"
        }
      ],
      "name": "addJuryPoolMember",
      "outputs": [],
      "stateMutability": "nonpayable",
      "type": "function"
    },
    {
      "inputs": [
        {
          "internalType": "uint256",
          "name": "_disputeProposalId",
          "type": "uint256"
        }
      ],
      "name": "approveDisputeProposal",
      "outputs": [],
      "stateMutability": "nonpayable",
      "type": "function"
    },
    {
      "inputs": [
        {
          "internalType": "uint256",
          "name": "",
          "type": "uint256"
        }
      ],
      "name": "disputeProposals",
      "outputs": [
        {
          "internalType": "address",
          "name": "proposer",
          "type": "address"
        },
        {
          "internalType": "uint256",
          "name": "juryId",
          "type": "uint256"
        },
        {
          "internalType": "bool",
          "name": "isApproved",
          "type": "bool"
        },
        {
          "internalType": "uint256",
          "name": "deadline",
          "type": "uint256"
        }
      ],
      "stateMutability": "view",
      "type": "function"
    },
    {
      "inputs": [
        {
          "internalType": "uint256",
          "name": "",
          "type": "uint256"
        }
      ],
      "name": "disputes",
      "outputs": [
        {
          "internalType": "uint256",
          "name": "juryId",
          "type": "uint256"
        },
        {
          "internalType": "uint256",
          "name": "deadline",
          "type": "uint256"
        },
        {
          "internalType": "bool",
          "name": "verdict",
          "type": "bool"
        },
        {
          "internalType": "bool",
          "name": "resolved",
          "type": "bool"
        }
      ],
      "stateMutability": "view",
      "type": "function"
    },
    {
      "inputs": [
        {
          "internalType": "uint256",
          "name": "_disputeId",
          "type": "uint256"
        }
      ],
      "name": "extendDisputeDeadline",
      "outputs": [],
      "stateMutability": "nonpayable",
      "type": "function"
    },
    {
      "inputs": [
        {
          "internalType": "uint256",
          "name": "",
          "type": "uint256"
        },
        {
          "internalType": "uint256",
          "name": "",
          "type": "uint256"
        }
      ],
      "name": "juries",
      "outputs": [
        {
          "internalType": "uint256",
          "name": "",
          "type": "uint256"
        }
      ],
      "stateMutability": "view",
      "type": "function"
    },
    {
      "inputs": [
        {
          "internalType": "uint256",
          "name": "",
          "type": "uint256"
        }
      ],
      "name": "juryExpiration",
      "outputs": [
        {
          "internalType": "uint256",
          "name": "",
          "type": "uint256"
        }
      ],
      "stateMutability": "view",
      "type": "function"
    },
    {
      "inputs": [
        {
          "internalType": "address",
          "name": "",
          "type": "address"
        }
      ],
      "name": "juryPoolMembers",
      "outputs": [
        {
          "internalType": "uint256",
          "name": "",
          "type": "uint256"
        }
      ],
      "stateMutability": "view",
      "type": "function"
    },
    {
      "inputs": [
        {
          "internalType": "uint256",
          "name": "_deadline",
          "type": "uint256"
        }
      ],
      "name": "newDisputeProposal",
      "outputs": [],
      "stateMutability": "nonpayable",
      "type": "function"
    },
    {
      "inputs": [],
      "name": "paused",
      "outputs": [
        {
          "internalType": "bool",
          "name": "",
          "type": "bool"
        }
      ],
      "stateMutability": "view",
      "type": "function"
    },
    {
      "inputs": [
        {
          "internalType": "uint256",
          "name": "_disputeId",
          "type": "uint256"
        },
        {
          "internalType": "bool",
          "name": "_vote",
          "type": "bool"
        }
      ],
      "name": "vote",
      "outputs": [],
      "stateMutability": "nonpayable",
      "type": "function"
    }
  ],
  "bytecode": "0x60806040523480156200001157600080fd5b50604051620029a7380380620029a7833981810160405281019062000037919062000791565b60008060006101000a81548160ff02191690831515021790555060018160ff16116200009a576040517f08c379a0000000000000000000000000000000000000000000000000000000008152600401620000919062000893565b60405180910390fd5b6000600282620000ab9190620008e4565b60ff1611620000f1576040517f08c379a0000000000000000000000000000000000000000000000000000000008152600401620000e89062000992565b60405180910390fd5b600281620001009190620009e3565b60ff168351101562000149576040517f08c379a0000000000000000000000000000000000000000000000000000000008152600401620001409062000a9b565b60405180910390fd5b60005b835181101562000310576000600a600086848151811062000172576200017162000abd565b5b602002602001015173ffffffffffffffffffffffffffffffffffffffff1673ffffffffffffffffffffffffffffffffffffffff1681526020019081526020016000205414620001f8576040517f08c379a0000000000000000000000000000000000000000000000000000000008152600401620001ef9062000b62565b60405180910390fd5b60018162000207919062000b8e565b600a600086848151811062000221576200022062000abd565b5b602002602001015173ffffffffffffffffffffffffffffffffffffffff1673ffffffffffffffffffffffffffffffffffffffff168152602001908152602001600020819055506001600960006001846200027c919062000b8e565b815260200190815260200160002060000160006101000a81548160ff0219169083151502179055507f543fa957e48cddb9c78047c49b8227a327101433e6c106c5632530e20a46185c848281518110620002db57620002da62000abd565b5b6020026020010151604051620002f2919062000bfc565b60405180910390a18080620003079062000c19565b9150506200014c565b50600160048190555082516003819055508060ff16600281905550816bffffffffffffffffffffffff166001819055506200038242446004546040516020016200035d9392919062000c8c565b6040516020818303038152906040528051906020012060001c6200038b60201b60201c565b50505062000d37565b600080600354905060005b600254811015620004ed5760006001838686604051602001620003bb92919062000ccf565b6040516020818303038152906040528051906020012060001c620003e0919062000cff565b620003ec919062000b8e565b90506009600082815260200190815260200160002060000160009054906101000a900460ff1680156200046657506000600960008381526020019081526020016000206001015414806200046557506004546001600960008481526020019081526020016000206001015462000463919062000b8e565b105b5b15620004d6576004546009600083815260200190815260200160002060010181905550600b600060045481526020019081526020016000208190806001815401808255809150506001900390600052602060002001600090919091909150558180620004d29062000c19565b9250505b8380620004e39062000c19565b9450505062000396565b5060015442620004fe919062000b8e565b600c6000600454815260200190815260200160002081905550505050565b6000604051905090565b600080fd5b600080fd5b600080fd5b6000601f19601f8301169050919050565b7f4e487b7100000000000000000000000000000000000000000000000000000000600052604160045260246000fd5b620005808262000535565b810181811067ffffffffffffffff82111715620005a257620005a162000546565b5b80604052505050565b6000620005b76200051c565b9050620005c5828262000575565b919050565b600067ffffffffffffffff821115620005e857620005e762000546565b5b602082029050602081019050919050565b600080fd5b600073ffffffffffffffffffffffffffffffffffffffff82169050919050565b60006200062b82620005fe565b9050919050565b6200063d816200061e565b81146200064957600080fd5b50565b6000815190506200065d8162000632565b92915050565b60006200067a6200067484620005ca565b620005ab565b90508083825260208201905060208402830185811115620006a0576200069f620005f9565b5b835b81811015620006cd5780620006b888826200064c565b845260208401935050602081019050620006a2565b5050509392505050565b600082601f830112620006ef57620006ee62000530565b5b81516200070184826020860162000663565b91505092915050565b60006bffffffffffffffffffffffff82169050919050565b6200072d816200070a565b81146200073957600080fd5b50565b6000815190506200074d8162000722565b92915050565b600060ff82169050919050565b6200076b8162000753565b81146200077757600080fd5b50565b6000815190506200078b8162000760565b92915050565b600080600060608486031215620007ad57620007ac62000526565b5b600084015167ffffffffffffffff811115620007ce57620007cd6200052b565b5b620007dc86828701620006d7565b9350506020620007ef868287016200073c565b925050604062000802868287016200077a565b9150509250925092565b600082825260208201905092915050565b7f4a7572792e636f6e7374727563746f723a206a7572792073697a65206174206c60008201527f6561737420330000000000000000000000000000000000000000000000000000602082015250565b60006200087b6026836200080c565b915062000888826200081d565b604082019050919050565b60006020820190508181036000830152620008ae816200086c565b9050919050565b7f4e487b7100000000000000000000000000000000000000000000000000000000600052601260045260246000fd5b6000620008f18262000753565b9150620008fe8362000753565b925082620009115762000910620008b5565b5b828206905092915050565b7f4a7572792e636f6e7374727563746f723a206a7572792073697a65206d75737460008201527f206265206f646400000000000000000000000000000000000000000000000000602082015250565b60006200097a6027836200080c565b915062000987826200091c565b604082019050919050565b60006020820190508181036000830152620009ad816200096b565b9050919050565b7f4e487b7100000000000000000000000000000000000000000000000000000000600052601160045260246000fd5b6000620009f08262000753565b9150620009fd8362000753565b92508160ff048311821515161562000a1a5762000a19620009b4565b5b828202905092915050565b7f4a7572792e636f6e7374727563746f723a206e6f7420656e6f756768206a757260008201527f79206d656d626572730000000000000000000000000000000000000000000000602082015250565b600062000a836029836200080c565b915062000a908262000a25565b604082019050919050565b6000602082019050818103600083015262000ab68162000a74565b9050919050565b7f4e487b7100000000000000000000000000000000000000000000000000000000600052603260045260246000fd5b7f4a7572792e636f6e7374727563746f723a206475706c6963617465204a75727960008201527f206d656d62657200000000000000000000000000000000000000000000000000602082015250565b600062000b4a6027836200080c565b915062000b578262000aec565b604082019050919050565b6000602082019050818103600083015262000b7d8162000b3b565b9050919050565b6000819050919050565b600062000b9b8262000b84565b915062000ba88362000b84565b9250827fffffffffffffffffffffffffffffffffffffffffffffffffffffffffffffffff0382111562000be05762000bdf620009b4565b5b828201905092915050565b62000bf6816200061e565b82525050565b600060208201905062000c13600083018462000beb565b92915050565b600062000c268262000b84565b91507fffffffffffffffffffffffffffffffffffffffffffffffffffffffffffffffff82141562000c5c5762000c5b620009b4565b5b600182019050919050565b6000819050919050565b62000c8662000c808262000b84565b62000c67565b82525050565b600062000c9a828662000c71565b60208201915062000cac828562000c71565b60208201915062000cbe828462000c71565b602082019150819050949350505050565b600062000cdd828562000c71565b60208201915062000cef828462000c71565b6020820191508190509392505050565b600062000d0c8262000b84565b915062000d198362000b84565b92508262000d2c5762000d2b620008b5565b5b828206905092915050565b611c608062000d476000396000f3fe608060405234801561001057600080fd5b50600436106100a95760003560e01c8063a94c8f3d11610071578063a94c8f3d1461017b578063c84663b0146101ae578063c9d27afe146101ca578063ccd0429d146101e6578063d652ef1a14610202578063e922de5014610232576100a9565b806301144f44146100ae578063564a565d146100de5780635c975abb1461011157806364ca6b141461012f578063a414abb41461014b575b600080fd5b6100c860048036038101906100c39190611253565b61024e565b6040516100d591906112a2565b60405180910390f35b6100f860048036038101906100f391906112bd565b61027f565b6040516101089493929190611305565b60405180910390f35b6101196102c9565b604051610126919061134a565b60405180910390f35b610149600480360381019061014491906112bd565b6102df565b005b610165600480360381019061016091906112bd565b6103b5565b60405161017291906112a2565b60405180910390f35b610195600480360381019061019091906112bd565b6103cd565b6040516101a594939291906113a6565b60405180910390f35b6101c860048036038101906101c39190611417565b61042a565b005b6101e460048036038101906101df9190611470565b6105fb565b005b61020060048036038101906101fb91906112bd565b61082b565b005b61021c60048036038101906102179190611417565b610950565b60405161022991906112a2565b60405180910390f35b61024c600480360381019061024791906112bd565b610968565b005b600b602052816000526040600020818154811061026a57600080fd5b90600052602060002001600091509150505481565b60076020528060005260406000206000915090508060000154908060010154908060020160009054906101000a900460ff16908060020160019054906101000a900460ff16905084565b60008060009054906101000a900460ff16905090565b6102e7610c42565b6103066007600083815260200190815260200160002060000154610cee565b610345576040517f08c379a000000000000000000000000000000000000000000000000000000000815260040161033c90611533565b60405180910390fd5b6000620151806007600084815260200190815260200160002060010160008282546103709190611582565b92505081905590507f4da9b675e578acf05cb72712fc12154fc303610a9bef918062e80e7b25aa045f82826040516103a99291906115d8565b60405180910390a15050565b600c6020528060005260406000206000915090505481565b60086020528060005260406000206000915090508060000160009054906101000a900473ffffffffffffffffffffffffffffffffffffffff16908060010154908060020160009054906101000a900460ff16908060030154905084565b6000600a60003373ffffffffffffffffffffffffffffffffffffffff1673ffffffffffffffffffffffffffffffffffffffff16815260200190815260200160002054116104ac576040517f08c379a00000000000000000000000000000000000000000000000000000000081526004016104a39061164d565b60405180910390fd5b6000600a60008373ffffffffffffffffffffffffffffffffffffffff1673ffffffffffffffffffffffffffffffffffffffff168152602001908152602001600020541461052e576040517f08c379a0000000000000000000000000000000000000000000000000000000008152600401610525906116df565b60405180910390fd5b60036000815480929190610541906116ff565b91905055506000600354905080600a60008473ffffffffffffffffffffffffffffffffffffffff1673ffffffffffffffffffffffffffffffffffffffff1681526020019081526020016000208190555060016009600083815260200190815260200160002060000160006101000a81548160ff0219169083151502179055507f543fa957e48cddb9c78047c49b8227a327101433e6c106c5632530e20a46185c826040516105ef9190611748565b60405180910390a15050565b60006007600084815260200190815260200160002060405180608001604052908160008201548152602001600182015481526020016002820160009054906101000a900460ff161515151581526020016002820160019054906101000a900460ff16151515158152505090508060600151156106ac576040517f08c379a00000000000000000000000000000000000000000000000000000000081526004016106a3906117d5565b60405180910390fd5b6106b98160000151610cee565b6106f8576040517f08c379a00000000000000000000000000000000000000000000000000000000081526004016106ef90611841565b60405180910390fd5b8060200151421061071657610711838260000151610daa565b610826565b6040518060400160405280831515815260200160011515815250600d60008581526020019081526020016000206000600a60003373ffffffffffffffffffffffffffffffffffffffff1673ffffffffffffffffffffffffffffffffffffffff16815260200190815260200160002054815260200190815260200160002060008201518160000160006101000a81548160ff02191690831515021790555060208201518160000160016101000a81548160ff021916908315150217905550905050823373ffffffffffffffffffffffffffffffffffffffff167f749addf8eadeff63c43be59c27331be5c6d4fc9e82bbfbcf162321c9b35a95b48460405161081d919061134a565b60405180910390a35b505050565b610833610c42565b61083e600454610cee565b1561087e576040517f08c379a0000000000000000000000000000000000000000000000000000000008152600401610875906118d3565b60405180910390fd5b60405180608001604052803373ffffffffffffffffffffffffffffffffffffffff16815260200160045481526020016000151581526020018281525060086000600654815260200190815260200160002060008201518160000160006101000a81548173ffffffffffffffffffffffffffffffffffffffff021916908373ffffffffffffffffffffffffffffffffffffffff1602179055506020820151816001015560408201518160020160006101000a81548160ff0219169083151502179055506060820151816003015590505050565b600a6020528060005260406000206000915090505481565b6000600a60003373ffffffffffffffffffffffffffffffffffffffff1673ffffffffffffffffffffffffffffffffffffffff16815260200190815260200160002054116109ea576040517f08c379a00000000000000000000000000000000000000000000000000000000081526004016109e19061164d565b60405180910390fd5b6109f2610c42565b6000600860008381526020019081526020016000206040518060800160405290816000820160009054906101000a900473ffffffffffffffffffffffffffffffffffffffff1673ffffffffffffffffffffffffffffffffffffffff1673ffffffffffffffffffffffffffffffffffffffff168152602001600182015481526020016002820160009054906101000a900460ff161515151581526020016003820154815250509050806000015173ffffffffffffffffffffffffffffffffffffffff163373ffffffffffffffffffffffffffffffffffffffff161415610b0c576040517f08c379a0000000000000000000000000000000000000000000000000000000008152600401610b0390611965565b60405180910390fd5b80606001514210610b52576040517f08c379a0000000000000000000000000000000000000000000000000000000008152600401610b49906119f7565b60405180910390fd5b806040015115610b97576040517f08c379a0000000000000000000000000000000000000000000000000000000008152600401610b8e90611a89565b60405180910390fd5b60016008600084815260200190815260200160002060020160006101000a81548160ff02191690831515021790555060096000600a60003373ffffffffffffffffffffffffffffffffffffffff1673ffffffffffffffffffffffffffffffffffffffff1681526020019081526020016000205481526020019081526020016000206002016000815480929190610c2c906116ff565b9190505550610c3e8160600151610fa9565b5050565b60006004549050600c6000828152602001908152602001600020544210610ceb57807fc796ad74732d2a065b3161c4bf85138cb8d4b0561d078cc02aa237d2e29141db60405160405180910390a260046000815480929190610ca3906116ff565b9190505550610cea4244600184610cba9190611582565b604051602001610ccc93929190611aca565b6040516020818303038152906040528051906020012060001c61109a565b5b50565b60008060096000600a60003373ffffffffffffffffffffffffffffffffffffffff1673ffffffffffffffffffffffffffffffffffffffff1681526020019081526020016000205481526020019081526020016000206040518060800160405290816000820160009054906101000a900460ff16151515158152602001600182015481526020016002820154815260200160038201548152505090508281602001511415610d9f576001915050610da5565b60009150505b919050565b6000600b6000838152602001908152602001600020805480602002602001604051908101604052809291908181526020018280548015610e0957602002820191906000526020600020905b815481526020019060010190808311610df5575b50505050509050600080600090505b82518160ff161015610f2b576000600d60008781526020019081526020016000206000858460ff1681518110610e5157610e50611b07565b5b602002602001015181526020019081526020016000206040518060400160405290816000820160009054906101000a900460ff161515151581526020016000820160019054906101000a900460ff1615151515815250509050806020015115610f1757806000015115610ecd578280610ec990611b43565b9350505b60096000858460ff1681518110610ee757610ee6611b07565b5b602002602001015181526020019081526020016000206003016000815480929190610f11906116ff565b91905055505b508080610f2390611b43565b915050610e18565b508060ff1660028054610f3e9190611b9c565b1015610f745760016007600086815260200190815260200160002060020160006101000a81548160ff0219169083151502179055505b60016007600086815260200190815260200160002060020160016101000a81548160ff02191690831515021790555050505050565b6000600554905060056000815480929190610fc3906116ff565b9190505550604051806080016040528060045481526020018381526020016000151581526020016000151581525060076000838152602001908152602001600020600082015181600001556020820151816001015560408201518160020160006101000a81548160ff02191690831515021790555060608201518160020160016101000a81548160ff0219169083151502179055509050507f98d85359d4c56c7eaf2486712c329156c582a48e60b4188ba13a7afa45cfff328160045460405161108e9291906115d8565b60405180910390a15050565b600080600354905060005b6002548110156111eb57600060018386866040516020016110c7929190611bcd565b6040516020818303038152906040528051906020012060001c6110ea9190611bf9565b6110f49190611582565b90506009600082815260200190815260200160002060000160009054906101000a900460ff16801561116a57506000600960008381526020019081526020016000206001015414806111695750600454600160096000848152602001908152602001600020600101546111679190611582565b105b5b156111d7576004546009600083815260200190815260200160002060010181905550600b6000600454815260200190815260200160002081908060018154018082558091505060019003906000526020600020016000909190919091505581806111d3906116ff565b9250505b83806111e2906116ff565b945050506110a5565b50600154426111fa9190611582565b600c6000600454815260200190815260200160002081905550505050565b600080fd5b6000819050919050565b6112308161121d565b811461123b57600080fd5b50565b60008135905061124d81611227565b92915050565b6000806040838503121561126a57611269611218565b5b60006112788582860161123e565b92505060206112898582860161123e565b9150509250929050565b61129c8161121d565b82525050565b60006020820190506112b76000830184611293565b92915050565b6000602082840312156112d3576112d2611218565b5b60006112e18482850161123e565b91505092915050565b60008115159050919050565b6112ff816112ea565b82525050565b600060808201905061131a6000830187611293565b6113276020830186611293565b61133460408301856112f6565b61134160608301846112f6565b95945050505050565b600060208201905061135f60008301846112f6565b92915050565b600073ffffffffffffffffffffffffffffffffffffffff82169050919050565b600061139082611365565b9050919050565b6113a081611385565b82525050565b60006080820190506113bb6000830187611397565b6113c86020830186611293565b6113d560408301856112f6565b6113e26060830184611293565b95945050505050565b6113f481611385565b81146113ff57600080fd5b50565b600081359050611411816113eb565b92915050565b60006020828403121561142d5761142c611218565b5b600061143b84828501611402565b91505092915050565b61144d816112ea565b811461145857600080fd5b50565b60008135905061146a81611444565b92915050565b6000806040838503121561148757611486611218565b5b60006114958582860161123e565b92505060206114a68582860161145b565b9150509250929050565b600082825260208201905092915050565b7f4a7572792e657874656e6444697370757465446561646c696e653a206e6f742060008201527f696e206a75727900000000000000000000000000000000000000000000000000602082015250565b600061151d6027836114b0565b9150611528826114c1565b604082019050919050565b6000602082019050818103600083015261154c81611510565b9050919050565b7f4e487b7100000000000000000000000000000000000000000000000000000000600052601160045260246000fd5b600061158d8261121d565b91506115988361121d565b9250827fffffffffffffffffffffffffffffffffffffffffffffffffffffffffffffffff038211156115cd576115cc611553565b5b828201905092915050565b60006040820190506115ed6000830185611293565b6115fa6020830184611293565b9392505050565b7f63616c6c6572206d757374206265206a75727920706f6f6c206d656d62657200600082015250565b6000611637601f836114b0565b915061164282611601565b602082019050919050565b600060208201905081810360008301526116668161162a565b9050919050565b7f4a7572792e6164644a757279506f6f6c4d656d6265723a204a75726f7220616c60008201527f7265616479206578697374730000000000000000000000000000000000000000602082015250565b60006116c9602c836114b0565b91506116d48261166d565b604082019050919050565b600060208201905081810360008301526116f8816116bc565b9050919050565b600061170a8261121d565b91507fffffffffffffffffffffffffffffffffffffffffffffffffffffffffffffffff82141561173d5761173c611553565b5b600182019050919050565b600060208201905061175d6000830184611397565b92915050565b7f4a7572792e766f74653a206469737075746520616c7265616479207265736f6c60008201527f7665640000000000000000000000000000000000000000000000000000000000602082015250565b60006117bf6023836114b0565b91506117ca82611763565b604082019050919050565b600060208201905081810360008301526117ee816117b2565b9050919050565b7f4a7572792e766f74653a206d656d626572206e6f7420696e206a757279000000600082015250565b600061182b601d836114b0565b9150611836826117f5565b602082019050919050565b6000602082019050818103600083015261185a8161181e565b9050919050565b7f4a7572792e6e65774469737075746550726f706f73616c3a206a75726f72206160008201527f6c726561647920696e206a757279000000000000000000000000000000000000602082015250565b60006118bd602e836114b0565b91506118c882611861565b604082019050919050565b600060208201905081810360008301526118ec816118b0565b9050919050565b7f4a7572792e617070726f7665644469737075746550726f706f73616c3a20707260008201527f6f706f7365722063616e206e6f7420617070726f766520646973707574650000602082015250565b600061194f603e836114b0565b915061195a826118f3565b604082019050919050565b6000602082019050818103600083015261197e81611942565b9050919050565b7f4a7572792e617070726f76654469737075746550726f706f73616c3a2064656160008201527f646c696e65206861732070617373656400000000000000000000000000000000602082015250565b60006119e16030836114b0565b91506119ec82611985565b604082019050919050565b60006020820190508181036000830152611a10816119d4565b9050919050565b7f4a7572792e617070726f76654469737075746550726f706f73616c3a20616c7260008201527f6561647920617070726f76656400000000000000000000000000000000000000602082015250565b6000611a73602d836114b0565b9150611a7e82611a17565b604082019050919050565b60006020820190508181036000830152611aa281611a66565b9050919050565b6000819050919050565b611ac4611abf8261121d565b611aa9565b82525050565b6000611ad68286611ab3565b602082019150611ae68285611ab3565b602082019150611af68284611ab3565b602082019150819050949350505050565b7f4e487b7100000000000000000000000000000000000000000000000000000000600052603260045260246000fd5b600060ff82169050919050565b6000611b4e82611b36565b915060ff821415611b6257611b61611553565b5b600182019050919050565b7f4e487b7100000000000000000000000000000000000000000000000000000000600052601260045260246000fd5b6000611ba78261121d565b9150611bb28361121d565b925082611bc257611bc1611b6d565b5b828204905092915050565b6000611bd98285611ab3565b602082019150611be98284611ab3565b6020820191508190509392505050565b6000611c048261121d565b9150611c0f8361121d565b925082611c1f57611c1e611b6d565b5b82820690509291505056fea2646970667358221220e07805bc271c4b0c4866f064ac2055a32f3c2541fd9104e7cafc0f49dae3886464736f6c63430008090033",
  "linkReferences": {},
  "deployedLinkReferences": {}
}