{
  "_format": "hh-sol-artifact-1",
  "contractName": "Jury",
  "sourceName": "contracts/Jury.sol",
  "abi": [
    {
      "inputs": [
        {
          "internalType": "address[]",
          "name": "_initialJuryMembers",
          "type": "address[]"
        }
      ],
      "stateMutability": "nonpayable",
      "type": "constructor"
    },
    {
      "anonymous": false,
      "inputs": [
        {
          "indexed": false,
          "internalType": "uint256",
          "name": "juryId",
          "type": "uint256"
        },
        {
          "indexed": false,
          "internalType": "uint256",
          "name": "newDeadline",
          "type": "uint256"
        }
      ],
      "name": "DisputeDeadlinePostponed",
      "type": "event"
    },
    {
      "anonymous": false,
      "inputs": [
        {
          "indexed": false,
          "internalType": "bool",
          "name": "verdict",
          "type": "bool"
        },
        {
          "indexed": false,
          "internalType": "uint256",
          "name": "juryId",
          "type": "uint256"
        }
      ],
      "name": "DisputeResolved",
      "type": "event"
    },
    {
      "anonymous": false,
      "inputs": [
        {
          "indexed": true,
          "internalType": "uint256",
          "name": "jurydId",
          "type": "uint256"
        }
      ],
      "name": "JuryDutyCompleted",
      "type": "event"
    },
    {
      "anonymous": false,
      "inputs": [
        {
          "indexed": false,
          "internalType": "bool",
          "name": "vote",
          "type": "bool"
        },
        {
          "indexed": true,
          "internalType": "address",
          "name": "juryMember",
          "type": "address"
        }
      ],
      "name": "JuryMemberVoted",
      "type": "event"
    },
    {
      "anonymous": false,
      "inputs": [
        {
          "indexed": false,
          "internalType": "uint256",
          "name": "juryId",
          "type": "uint256"
        },
        {
          "indexed": false,
          "internalType": "uint256",
          "name": "disputeId",
          "type": "uint256"
        }
      ],
      "name": "NewDispute",
      "type": "event"
    },
    {
      "anonymous": false,
      "inputs": [
        {
          "indexed": false,
          "internalType": "address",
          "name": "juryMemeber",
          "type": "address"
        }
      ],
      "name": "NewJuryPoolMember",
      "type": "event"
    },
    {
      "anonymous": false,
      "inputs": [
        {
          "indexed": false,
          "internalType": "uint256",
          "name": "juryId",
          "type": "uint256"
        },
        {
          "indexed": true,
          "internalType": "address[]",
          "name": "juryMemebers",
          "type": "address[]"
        }
      ],
      "name": "NewLiveJury",
      "type": "event"
    },
    {
      "anonymous": false,
      "inputs": [
        {
          "indexed": false,
          "internalType": "address",
          "name": "account",
          "type": "address"
        }
      ],
      "name": "Paused",
      "type": "event"
    },
    {
      "anonymous": false,
      "inputs": [
        {
          "indexed": false,
          "internalType": "address",
          "name": "juryMember",
          "type": "address"
        }
      ],
      "name": "RemovedJuryMember",
      "type": "event"
    },
    {
      "anonymous": false,
      "inputs": [
        {
          "indexed": false,
          "internalType": "address",
          "name": "account",
          "type": "address"
        }
      ],
      "name": "Unpaused",
      "type": "event"
    },
    {
      "inputs": [
        {
          "internalType": "address",
          "name": "_newMember",
          "type": "address"
        }
      ],
      "name": "addJuryPoolMember",
      "outputs": [],
      "stateMutability": "nonpayable",
      "type": "function"
    },
    {
      "inputs": [
        {
          "internalType": "uint256",
          "name": "_disputeProposalId",
          "type": "uint256"
        }
      ],
      "name": "approveDisputeProposal",
      "outputs": [],
      "stateMutability": "nonpayable",
      "type": "function"
    },
    {
      "inputs": [
        {
          "internalType": "uint256",
          "name": "",
          "type": "uint256"
        }
      ],
      "name": "disputeProposals",
      "outputs": [
        {
          "internalType": "bool",
          "name": "isApproved",
          "type": "bool"
        },
        {
          "internalType": "uint256",
          "name": "deadline",
          "type": "uint256"
        },
        {
          "internalType": "address",
          "name": "plaintiff",
          "type": "address"
        },
        {
          "internalType": "address",
          "name": "defendent",
          "type": "address"
        }
      ],
      "stateMutability": "view",
      "type": "function"
    },
    {
      "inputs": [
        {
          "internalType": "uint256",
          "name": "",
          "type": "uint256"
        }
      ],
      "name": "disputes",
      "outputs": [
        {
          "internalType": "uint256",
          "name": "juryId",
          "type": "uint256"
        },
        {
          "internalType": "uint256",
          "name": "disputeId",
          "type": "uint256"
        },
        {
          "internalType": "uint256",
          "name": "deadline",
          "type": "uint256"
        },
        {
          "internalType": "address",
          "name": "plaintiff",
          "type": "address"
        },
        {
          "internalType": "address",
          "name": "defendent",
          "type": "address"
        },
        {
          "internalType": "bool",
          "name": "verdict",
          "type": "bool"
        }
      ],
      "stateMutability": "view",
      "type": "function"
    },
    {
      "inputs": [
        {
          "internalType": "uint256",
          "name": "_disputeId",
          "type": "uint256"
        }
      ],
      "name": "extendDisputeDeadline",
      "outputs": [],
      "stateMutability": "nonpayable",
      "type": "function"
    },
    {
      "inputs": [
        {
          "internalType": "uint256",
          "name": "",
          "type": "uint256"
        },
        {
          "internalType": "uint256",
          "name": "",
          "type": "uint256"
        }
      ],
      "name": "juries",
      "outputs": [
        {
          "internalType": "address",
          "name": "memberAddr",
          "type": "address"
        },
        {
          "internalType": "uint256",
          "name": "jurysParticipated",
          "type": "uint256"
        },
        {
          "internalType": "uint256",
          "name": "disputesApproved",
          "type": "uint256"
        },
        {
          "internalType": "uint256",
          "name": "disputesResolved",
          "type": "uint256"
        },
        {
          "internalType": "bool",
          "name": "vote",
          "type": "bool"
        }
      ],
      "stateMutability": "view",
      "type": "function"
    },
    {
      "inputs": [
        {
          "internalType": "uint256",
          "name": "",
          "type": "uint256"
        }
      ],
      "name": "juryIsLive",
      "outputs": [
        {
          "internalType": "bool",
          "name": "",
          "type": "bool"
        }
      ],
      "stateMutability": "view",
      "type": "function"
    },
    {
      "inputs": [
        {
          "internalType": "address",
          "name": "",
          "type": "address"
        }
      ],
      "name": "juryPoolMembers",
      "outputs": [
        {
          "internalType": "bool",
          "name": "",
          "type": "bool"
        }
      ],
      "stateMutability": "view",
      "type": "function"
    },
    {
      "inputs": [
        {
          "internalType": "address",
          "name": "_plaintiff",
          "type": "address"
        },
        {
          "internalType": "address",
          "name": "_defendent",
          "type": "address"
        },
        {
          "internalType": "uint256",
          "name": "_deadline",
          "type": "uint256"
        }
      ],
      "name": "newDisputeProposal",
      "outputs": [],
      "stateMutability": "nonpayable",
      "type": "function"
    },
    {
      "inputs": [
        {
          "internalType": "uint256",
          "name": "_disputeProposalId",
          "type": "uint256"
        }
      ],
      "name": "newDisputeSubmission",
      "outputs": [],
      "stateMutability": "nonpayable",
      "type": "function"
    },
    {
      "inputs": [
        {
          "internalType": "address[]",
          "name": "_juryMembers",
          "type": "address[]"
        }
      ],
      "name": "newLiveJury",
      "outputs": [],
      "stateMutability": "nonpayable",
      "type": "function"
    },
    {
      "inputs": [],
      "name": "paused",
      "outputs": [
        {
          "internalType": "bool",
          "name": "",
          "type": "bool"
        }
      ],
      "stateMutability": "view",
      "type": "function"
    },
    {
      "inputs": [],
      "name": "setJuryType",
      "outputs": [],
      "stateMutability": "nonpayable",
      "type": "function"
    },
    {
      "inputs": [],
      "name": "voteNo",
      "outputs": [],
      "stateMutability": "nonpayable",
      "type": "function"
    },
    {
      "inputs": [],
      "name": "voteYes",
      "outputs": [],
      "stateMutability": "nonpayable",
      "type": "function"
    }
  ],
  "bytecode": "0x60806040523480156200001157600080fd5b5060405162002774380380620027748339818101604052810190620000379190620003c5565b60008060006101000a81548160ff021916908315150217905550600a81511462000098576040517f08c379a00000000000000000000000000000000000000000000000000000000081526004016200008f906200049d565b60405180910390fd5b60005b81518110156200018657600160076000848481518110620000c157620000c0620004bf565b5b602002602001015173ffffffffffffffffffffffffffffffffffffffff1673ffffffffffffffffffffffffffffffffffffffff16815260200190815260200160002060006101000a81548160ff0219169083151502179055507f543fa957e48cddb9c78047c49b8227a327101433e6c106c5632530e20a46185c828281518110620001515762000150620004bf565b5b6020026020010151604051620001689190620004ff565b60405180910390a180806200017d9062000555565b9150506200009b565b5060018060008282546200019b9190620005a3565b92505081905550600160096000600154815260200190815260200160002060006101000a81548160ff0219169083151502179055505062000600565b6000604051905090565b600080fd5b600080fd5b600080fd5b6000601f19601f8301169050919050565b7f4e487b7100000000000000000000000000000000000000000000000000000000600052604160045260246000fd5b6200023b82620001f0565b810181811067ffffffffffffffff821117156200025d576200025c62000201565b5b80604052505050565b600062000272620001d7565b905062000280828262000230565b919050565b600067ffffffffffffffff821115620002a357620002a262000201565b5b602082029050602081019050919050565b600080fd5b600073ffffffffffffffffffffffffffffffffffffffff82169050919050565b6000620002e682620002b9565b9050919050565b620002f881620002d9565b81146200030457600080fd5b50565b6000815190506200031881620002ed565b92915050565b6000620003356200032f8462000285565b62000266565b905080838252602082019050602084028301858111156200035b576200035a620002b4565b5b835b8181101562000388578062000373888262000307565b8452602084019350506020810190506200035d565b5050509392505050565b600082601f830112620003aa57620003a9620001eb565b5b8151620003bc8482602086016200031e565b91505092915050565b600060208284031215620003de57620003dd620001e1565b5b600082015167ffffffffffffffff811115620003ff57620003fe620001e6565b5b6200040d8482850162000392565b91505092915050565b600082825260208201905092915050565b7f4a7572792e636f6e7374727563746f723a206e6f7420656e6f756768206a757260008201527f79206d656d626572730000000000000000000000000000000000000000000000602082015250565b60006200048560298362000416565b9150620004928262000427565b604082019050919050565b60006020820190508181036000830152620004b88162000476565b9050919050565b7f4e487b7100000000000000000000000000000000000000000000000000000000600052603260045260246000fd5b620004f981620002d9565b82525050565b6000602082019050620005166000830184620004ee565b92915050565b7f4e487b7100000000000000000000000000000000000000000000000000000000600052601160045260246000fd5b6000819050919050565b600062000562826200054b565b91507fffffffffffffffffffffffffffffffffffffffffffffffffffffffffffffffff8214156200059857620005976200051c565b5b600182019050919050565b6000620005b0826200054b565b9150620005bd836200054b565b9250827fffffffffffffffffffffffffffffffffffffffffffffffffffffffffffffffff03821115620005f557620005f46200051c565b5b828201905092915050565b61216480620006106000396000f3fe608060405234801561001057600080fd5b50600436106100f55760003560e01c806364ca6b1411610097578063c84663b011610066578063c84663b014610268578063cafd73b814610284578063d652ef1a1461028e578063e922de50146102be576100f5565b806364ca6b14146101f35780638be3056f1461020f57806390cf581c1461022b578063a94c8f3d14610235576100f5565b806341c12a70116100d357806341c12a7014610166578063564a565d14610170578063596d7b2f146101a55780635c975abb146101d5576100f5565b806301144f44146100fa57806312f373051461012e578063146f7b7f1461014a575b600080fd5b610114600480360381019061010f91906118e0565b6102da565b60405161012595949392919061198b565b60405180910390f35b610148600480360381019061014391906119de565b61035a565b005b610164600480360381019061015f9190611a37565b6104e5565b005b61016e610877565b005b61018a600480360381019061018591906119de565b610a24565b60405161019c96959493929190611a8a565b60405180910390f35b6101bf60048036038101906101ba91906119de565b610aad565b6040516101cc9190611aeb565b60405180910390f35b6101dd610acd565b6040516101ea9190611aeb565b60405180910390f35b61020d600480360381019061020891906119de565b610ae3565b005b61022960048036038101906102249190611c5f565b610b53565b005b610233610dbb565b005b61024f600480360381019061024a91906119de565b610f68565b60405161025f9493929190611ca8565b60405180910390f35b610282600480360381019061027d9190611ced565b610fe5565b005b61028c611222565b005b6102a860048036038101906102a39190611ced565b611224565b6040516102b59190611aeb565b60405180910390f35b6102d860048036038101906102d391906119de565b611244565b005b600860205281600052604060002081815481106102f657600080fd5b9060005260206000209060050201600091509150508060000160009054906101000a900473ffffffffffffffffffffffffffffffffffffffff16908060010154908060020154908060030154908060040160009054906101000a900460ff16905085565b600760003373ffffffffffffffffffffffffffffffffffffffff1673ffffffffffffffffffffffffffffffffffffffff16815260200190815260200160002060009054906101000a900460ff166103e6576040517f08c379a00000000000000000000000000000000000000000000000000000000081526004016103dd90611d77565b60405180910390fd5b600260066000838152602001908152602001600020600001805490501015610443576040517f08c379a000000000000000000000000000000000000000000000000000000000815260040161043a90611e09565b60405180910390fd5b60006006600083815260200190815260200160002060030160009054906101000a900473ffffffffffffffffffffffffffffffffffffffff16905060006006600084815260200190815260200160002060040160009054906101000a900473ffffffffffffffffffffffffffffffffffffffff1690506000600660008581526020019081526020016000206002015490506104df83838361164f565b50505050565b6000600860006001548152602001908152602001600020805480602002602001604051908101604052809291908181526020016000905b828210156105dd57838290600052602060002090600502016040518060a00160405290816000820160009054906101000a900473ffffffffffffffffffffffffffffffffffffffff1673ffffffffffffffffffffffffffffffffffffffff1673ffffffffffffffffffffffffffffffffffffffff1681526020016001820154815260200160028201548152602001600382015481526020016004820160009054906101000a900460ff1615151515815250508152602001906001019061051c565b50505050905060005b81518110156106e4578473ffffffffffffffffffffffffffffffffffffffff1682828151811061061957610618611e29565b5b60200260200101516000015173ffffffffffffffffffffffffffffffffffffffff1614158061069257508373ffffffffffffffffffffffffffffffffffffffff1682828151811061066d5761066c611e29565b5b60200260200101516000015173ffffffffffffffffffffffffffffffffffffffff1614155b6106d1576040517f08c379a00000000000000000000000000000000000000000000000000000000081526004016106c890611eca565b60405180910390fd5b80806106dc90611f19565b9150506105e6565b506040518060a00160405280600067ffffffffffffffff81111561070b5761070a611b1c565b5b6040519080825280602002602001820160405280156107395781602001602082028036833780820191505090505b5081526020016000151581526020018381526020018573ffffffffffffffffffffffffffffffffffffffff1681526020018473ffffffffffffffffffffffffffffffffffffffff1681525060066000600354815260200190815260200160002060008201518160000190805190602001906107b59291906117ef565b5060208201518160010160006101000a81548160ff0219169083151502179055506040820151816002015560608201518160030160006101000a81548173ffffffffffffffffffffffffffffffffffffffff021916908373ffffffffffffffffffffffffffffffffffffffff16021790555060808201518160040160006101000a81548173ffffffffffffffffffffffffffffffffffffffff021916908373ffffffffffffffffffffffffffffffffffffffff16021790555090505050505050565b6000600860006001548152602001908152602001600020805480602002602001604051908101604052809291908181526020016000905b8282101561096f57838290600052602060002090600502016040518060a00160405290816000820160009054906101000a900473ffffffffffffffffffffffffffffffffffffffff1673ffffffffffffffffffffffffffffffffffffffff1673ffffffffffffffffffffffffffffffffffffffff1681526020016001820154815260200160028201548152602001600382015481526020016004820160009054906101000a900460ff161515151581525050815260200190600101906108ae565b50505050905060005b8151811015610a205781818151811061099457610993611e29565b5b60200260200101516000015173ffffffffffffffffffffffffffffffffffffffff163373ffffffffffffffffffffffffffffffffffffffff1614610a0d576040517f08c379a0000000000000000000000000000000000000000000000000000000008152600401610a0490611fae565b60405180910390fd5b8080610a1890611f19565b915050610978565b5050565b60056020528060005260406000206000915090508060000154908060010154908060020154908060030160009054906101000a900473ffffffffffffffffffffffffffffffffffffffff16908060040160009054906101000a900473ffffffffffffffffffffffffffffffffffffffff16908060040160149054906101000a900460ff16905086565b60096020528060005260406000206000915054906101000a900460ff1681565b60008060009054906101000a900460ff16905090565b600062015180600560008481526020019081526020016000206002016000828254610b0e9190611fce565b92505081905590507f4da9b675e578acf05cb72712fc12154fc303610a9bef918062e80e7b25aa045f8282604051610b47929190612024565b60405180910390a15050565b6001806000828254610b659190611fce565b92505081905550600160096000600154815260200190815260200160002060006101000a81548160ff02191690831515021790555060006009600060018054610bae919061204d565b815260200190815260200160002060006101000a81548160ff0219169083151502179055506000600860006001548152602001908152602001600020805480602002602001604051908101604052809291908181526020016000905b82821015610ccb57838290600052602060002090600502016040518060a00160405290816000820160009054906101000a900473ffffffffffffffffffffffffffffffffffffffff1673ffffffffffffffffffffffffffffffffffffffff1673ffffffffffffffffffffffffffffffffffffffff1681526020016001820154815260200160028201548152602001600382015481526020016004820160009054906101000a900460ff16151515158152505081526020019060010190610c0a565b50505050905060005b8251811015610d8757828181518110610cf057610cef611e29565b5b6020026020010151828281518110610d0b57610d0a611e29565b5b60200260200101516000019073ffffffffffffffffffffffffffffffffffffffff16908173ffffffffffffffffffffffffffffffffffffffff16815250506000828281518110610d5e57610d5d611e29565b5b602002602001015160800190151590811515815250508080610d7f90611f19565b915050610cd4565b506001547fc796ad74732d2a065b3161c4bf85138cb8d4b0561d078cc02aa237d2e29141db60405160405180910390a25050565b6000600860006001548152602001908152602001600020805480602002602001604051908101604052809291908181526020016000905b82821015610eb357838290600052602060002090600502016040518060a00160405290816000820160009054906101000a900473ffffffffffffffffffffffffffffffffffffffff1673ffffffffffffffffffffffffffffffffffffffff1673ffffffffffffffffffffffffffffffffffffffff1681526020016001820154815260200160028201548152602001600382015481526020016004820160009054906101000a900460ff16151515158152505081526020019060010190610df2565b50505050905060005b8151811015610f6457818181518110610ed857610ed7611e29565b5b60200260200101516000015173ffffffffffffffffffffffffffffffffffffffff163373ffffffffffffffffffffffffffffffffffffffff1614610f51576040517f08c379a0000000000000000000000000000000000000000000000000000000008152600401610f4890611fae565b60405180910390fd5b8080610f5c90611f19565b915050610ebc565b5050565b60066020528060005260406000206000915090508060010160009054906101000a900460ff16908060020154908060030160009054906101000a900473ffffffffffffffffffffffffffffffffffffffff16908060040160009054906101000a900473ffffffffffffffffffffffffffffffffffffffff16905084565b6000600860006001548152602001908152602001600020805480602002602001604051908101604052809291908181526020016000905b828210156110dd57838290600052602060002090600502016040518060a00160405290816000820160009054906101000a900473ffffffffffffffffffffffffffffffffffffffff1673ffffffffffffffffffffffffffffffffffffffff1673ffffffffffffffffffffffffffffffffffffffff1681526020016001820154815260200160028201548152602001600382015481526020016004820160009054906101000a900460ff1615151515815250508152602001906001019061101c565b50505050905060005b815181101561118e5781818151811061110257611101611e29565b5b60200260200101516000015173ffffffffffffffffffffffffffffffffffffffff163373ffffffffffffffffffffffffffffffffffffffff161461117b576040517f08c379a000000000000000000000000000000000000000000000000000000000815260040161117290611fae565b60405180910390fd5b808061118690611f19565b9150506110e6565b506001600760008473ffffffffffffffffffffffffffffffffffffffff1673ffffffffffffffffffffffffffffffffffffffff16815260200190815260200160002060006101000a81548160ff0219169083151502179055507f543fa957e48cddb9c78047c49b8227a327101433e6c106c5632530e20a46185c826040516112169190612081565b60405180910390a15050565b565b60076020528060005260406000206000915054906101000a900460ff1681565b600760003373ffffffffffffffffffffffffffffffffffffffff1673ffffffffffffffffffffffffffffffffffffffff16815260200190815260200160002060009054906101000a900460ff166112d0576040517f08c379a00000000000000000000000000000000000000000000000000000000081526004016112c790611d77565b60405180910390fd5b60006006600083815260200190815260200160002060000180548060200260200160405190810160405280929190818152602001828054801561136857602002820191906000526020600020905b8160009054906101000a900473ffffffffffffffffffffffffffffffffffffffff1673ffffffffffffffffffffffffffffffffffffffff168152602001906001019080831161131e575b5050505050905060005b8151811015611417573373ffffffffffffffffffffffffffffffffffffffff168282815181106113a5576113a4611e29565b5b602002602001015173ffffffffffffffffffffffffffffffffffffffff161415611404576040517f08c379a00000000000000000000000000000000000000000000000000000000081526004016113fb9061210e565b60405180910390fd5b808061140f90611f19565b915050611372565b5060066000838152602001908152602001600020600001339080600181540180825580915050600190039060005260206000200160009091909190916101000a81548173ffffffffffffffffffffffffffffffffffffffff021916908373ffffffffffffffffffffffffffffffffffffffff1602179055506000600660008481526020019081526020016000206040518060a00160405290816000820180548060200260200160405190810160405280929190818152602001828054801561153457602002820191906000526020600020905b8160009054906101000a900473ffffffffffffffffffffffffffffffffffffffff1673ffffffffffffffffffffffffffffffffffffffff16815260200190600101908083116114ea575b505050505081526020016001820160009054906101000a900460ff16151515158152602001600282015481526020016003820160009054906101000a900473ffffffffffffffffffffffffffffffffffffffff1673ffffffffffffffffffffffffffffffffffffffff1673ffffffffffffffffffffffffffffffffffffffff1681526020016004820160009054906101000a900473ffffffffffffffffffffffffffffffffffffffff1673ffffffffffffffffffffffffffffffffffffffff1673ffffffffffffffffffffffffffffffffffffffff1681525050905060016006600085815260200190815260200160002060000180549050111561164a5761164981606001518260800151836040015161164f565b5b505050565b6001600260008282546116629190611fce565b925050819055506040518060c00160405280600154815260200160025481526020018281526020018473ffffffffffffffffffffffffffffffffffffffff1681526020018373ffffffffffffffffffffffffffffffffffffffff1681526020016000151581525060056000600254815260200190815260200160002060008201518160000155602082015181600101556040820151816002015560608201518160030160006101000a81548173ffffffffffffffffffffffffffffffffffffffff021916908373ffffffffffffffffffffffffffffffffffffffff16021790555060808201518160040160006101000a81548173ffffffffffffffffffffffffffffffffffffffff021916908373ffffffffffffffffffffffffffffffffffffffff16021790555060a08201518160040160146101000a81548160ff0219169083151502179055509050507f98d85359d4c56c7eaf2486712c329156c582a48e60b4188ba13a7afa45cfff326002546001546040516117e2929190612024565b60405180910390a1505050565b828054828255906000526020600020908101928215611868579160200282015b828111156118675782518260006101000a81548173ffffffffffffffffffffffffffffffffffffffff021916908373ffffffffffffffffffffffffffffffffffffffff1602179055509160200191906001019061180f565b5b5090506118759190611879565b5090565b5b8082111561189257600081600090555060010161187a565b5090565b6000604051905090565b600080fd5b600080fd5b6000819050919050565b6118bd816118aa565b81146118c857600080fd5b50565b6000813590506118da816118b4565b92915050565b600080604083850312156118f7576118f66118a0565b5b6000611905858286016118cb565b9250506020611916858286016118cb565b9150509250929050565b600073ffffffffffffffffffffffffffffffffffffffff82169050919050565b600061194b82611920565b9050919050565b61195b81611940565b82525050565b61196a816118aa565b82525050565b60008115159050919050565b61198581611970565b82525050565b600060a0820190506119a06000830188611952565b6119ad6020830187611961565b6119ba6040830186611961565b6119c76060830185611961565b6119d4608083018461197c565b9695505050505050565b6000602082840312156119f4576119f36118a0565b5b6000611a02848285016118cb565b91505092915050565b611a1481611940565b8114611a1f57600080fd5b50565b600081359050611a3181611a0b565b92915050565b600080600060608486031215611a5057611a4f6118a0565b5b6000611a5e86828701611a22565b9350506020611a6f86828701611a22565b9250506040611a80868287016118cb565b9150509250925092565b600060c082019050611a9f6000830189611961565b611aac6020830188611961565b611ab96040830187611961565b611ac66060830186611952565b611ad36080830185611952565b611ae060a083018461197c565b979650505050505050565b6000602082019050611b00600083018461197c565b92915050565b600080fd5b6000601f19601f8301169050919050565b7f4e487b7100000000000000000000000000000000000000000000000000000000600052604160045260246000fd5b611b5482611b0b565b810181811067ffffffffffffffff82111715611b7357611b72611b1c565b5b80604052505050565b6000611b86611896565b9050611b928282611b4b565b919050565b600067ffffffffffffffff821115611bb257611bb1611b1c565b5b602082029050602081019050919050565b600080fd5b6000611bdb611bd684611b97565b611b7c565b90508083825260208201905060208402830185811115611bfe57611bfd611bc3565b5b835b81811015611c275780611c138882611a22565b845260208401935050602081019050611c00565b5050509392505050565b600082601f830112611c4657611c45611b06565b5b8135611c56848260208601611bc8565b91505092915050565b600060208284031215611c7557611c746118a0565b5b600082013567ffffffffffffffff811115611c9357611c926118a5565b5b611c9f84828501611c31565b91505092915050565b6000608082019050611cbd600083018761197c565b611cca6020830186611961565b611cd76040830185611952565b611ce46060830184611952565b95945050505050565b600060208284031215611d0357611d026118a0565b5b6000611d1184828501611a22565b91505092915050565b600082825260208201905092915050565b7f63616c6c6572206d757374206265206a75727920706f6f6c206d656d62657200600082015250565b6000611d61601f83611d1a565b9150611d6c82611d2b565b602082019050919050565b60006020820190508181036000830152611d9081611d54565b9050919050565b7f4a7572792e6e6577446973707574655375626d697373696f6e3a206e6f74206560008201527f6e6f75676820617070726f76616c7320666f7220646973707574650000000000602082015250565b6000611df3603b83611d1a565b9150611dfe82611d97565b604082019050919050565b60006020820190508181036000830152611e2281611de6565b9050919050565b7f4e487b7100000000000000000000000000000000000000000000000000000000600052603260045260246000fd5b7f4a7572792e6e6577446973707574653a206c697665206a757279206d656d626560008201527f722063616e6e6f7420626520696e766f6c766564000000000000000000000000602082015250565b6000611eb4603483611d1a565b9150611ebf82611e58565b604082019050919050565b60006020820190508181036000830152611ee381611ea7565b9050919050565b7f4e487b7100000000000000000000000000000000000000000000000000000000600052601160045260246000fd5b6000611f24826118aa565b91507fffffffffffffffffffffffffffffffffffffffffffffffffffffffffffffffff821415611f5757611f56611eea565b5b600182019050919050565b7f63616c6c6572206d757374206265206a757279206d656d626572000000000000600082015250565b6000611f98601a83611d1a565b9150611fa382611f62565b602082019050919050565b60006020820190508181036000830152611fc781611f8b565b9050919050565b6000611fd9826118aa565b9150611fe4836118aa565b9250827fffffffffffffffffffffffffffffffffffffffffffffffffffffffffffffffff0382111561201957612018611eea565b5b828201905092915050565b60006040820190506120396000830185611961565b6120466020830184611961565b9392505050565b6000612058826118aa565b9150612063836118aa565b92508282101561207657612075611eea565b5b828203905092915050565b60006020820190506120966000830184611952565b92915050565b7f4a7572792e617070726f76654469737075746550726f706f73616c3a206a757260008201527f726f7220616c726561647920617070726f766564000000000000000000000000602082015250565b60006120f8603483611d1a565b91506121038261209c565b604082019050919050565b60006020820190508181036000830152612127816120eb565b905091905056fea2646970667358221220e2316627508d8a87e824b7f042299136906e64877155d400748603e8d784e6e364736f6c63430008090033",
  "linkReferences": {},
  "deployedLinkReferences": {}
}