{
  "_format": "hh-sol-artifact-1",
  "contractName": "Jury",
  "sourceName": "contracts/Jury.sol",
  "abi": [
    {
      "inputs": [
        {
          "internalType": "address[]",
          "name": "_initialJuryMembers",
          "type": "address[]"
        },
        {
          "internalType": "uint96",
          "name": "_jurySwap",
          "type": "uint96"
        },
        {
          "internalType": "uint8",
          "name": "_minJurySize",
          "type": "uint8"
        }
      ],
      "stateMutability": "nonpayable",
      "type": "constructor"
    },
    {
      "anonymous": false,
      "inputs": [
        {
          "indexed": true,
          "internalType": "uint256",
          "name": "disputeId",
          "type": "uint256"
        },
        {
          "indexed": false,
          "internalType": "uint256",
          "name": "newDeadline",
          "type": "uint256"
        }
      ],
      "name": "DisputeDeadlinePostponed",
      "type": "event"
    },
    {
      "anonymous": false,
      "inputs": [
        {
          "indexed": true,
          "internalType": "uint256",
          "name": "disputeId",
          "type": "uint256"
        },
        {
          "indexed": false,
          "internalType": "bool",
          "name": "verdict",
          "type": "bool"
        }
      ],
      "name": "DisputeResolved",
      "type": "event"
    },
    {
      "anonymous": false,
      "inputs": [
        {
          "indexed": true,
          "internalType": "uint256",
          "name": "juryId",
          "type": "uint256"
        },
        {
          "indexed": true,
          "internalType": "uint256[]",
          "name": "juryMembers",
          "type": "uint256[]"
        }
      ],
      "name": "JuryDutyAdded",
      "type": "event"
    },
    {
      "anonymous": false,
      "inputs": [
        {
          "indexed": true,
          "internalType": "uint256",
          "name": "juryId",
          "type": "uint256"
        }
      ],
      "name": "JuryDutyCompleted",
      "type": "event"
    },
    {
      "anonymous": false,
      "inputs": [
        {
          "indexed": true,
          "internalType": "uint256",
          "name": "juryId",
          "type": "uint256"
        },
        {
          "indexed": true,
          "internalType": "uint256",
          "name": "disputeId",
          "type": "uint256"
        },
        {
          "indexed": false,
          "internalType": "uint256",
          "name": "deadline",
          "type": "uint256"
        }
      ],
      "name": "NewDispute",
      "type": "event"
    },
    {
      "anonymous": false,
      "inputs": [
        {
          "indexed": true,
          "internalType": "address",
          "name": "proposer",
          "type": "address"
        },
        {
          "indexed": true,
          "internalType": "uint256",
          "name": "juryId",
          "type": "uint256"
        },
        {
          "indexed": true,
          "internalType": "uint256",
          "name": "proposedId",
          "type": "uint256"
        },
        {
          "indexed": false,
          "internalType": "uint256",
          "name": "deadline",
          "type": "uint256"
        }
      ],
      "name": "NewDisputeProposal",
      "type": "event"
    },
    {
      "anonymous": false,
      "inputs": [
        {
          "indexed": true,
          "internalType": "address",
          "name": "juryMember",
          "type": "address"
        },
        {
          "indexed": true,
          "internalType": "uint256",
          "name": "jurorId",
          "type": "uint256"
        }
      ],
      "name": "NewJuryPoolMember",
      "type": "event"
    },
    {
      "anonymous": false,
      "inputs": [
        {
          "indexed": false,
          "internalType": "uint256",
          "name": "juryId",
          "type": "uint256"
        },
        {
          "indexed": true,
          "internalType": "uint256[]",
          "name": "juryMembers",
          "type": "uint256[]"
        },
        {
          "indexed": false,
          "internalType": "uint256",
          "name": "expiration",
          "type": "uint256"
        }
      ],
      "name": "NewLiveJury",
      "type": "event"
    },
    {
      "anonymous": false,
      "inputs": [
        {
          "indexed": false,
          "internalType": "address",
          "name": "account",
          "type": "address"
        }
      ],
      "name": "Paused",
      "type": "event"
    },
    {
      "anonymous": false,
      "inputs": [
        {
          "indexed": true,
          "internalType": "uint256",
          "name": "proposedId",
          "type": "uint256"
        },
        {
          "indexed": true,
          "internalType": "uint256",
          "name": "jurorId",
          "type": "uint256"
        }
      ],
      "name": "ProposalPassed",
      "type": "event"
    },
    {
      "anonymous": false,
      "inputs": [
        {
          "indexed": false,
          "internalType": "address",
          "name": "account",
          "type": "address"
        }
      ],
      "name": "Unpaused",
      "type": "event"
    },
    {
      "anonymous": false,
      "inputs": [
        {
          "indexed": true,
          "internalType": "uint256",
          "name": "jurorId",
          "type": "uint256"
        },
        {
          "indexed": true,
          "internalType": "uint256",
          "name": "disputeId",
          "type": "uint256"
        },
        {
          "indexed": false,
          "internalType": "bool",
          "name": "decision",
          "type": "bool"
        }
      ],
      "name": "Voted",
      "type": "event"
    },
    {
      "inputs": [
        {
          "internalType": "uint256",
          "name": "_disputeProposalId",
          "type": "uint256"
        }
      ],
      "name": "approveDisputeProposal",
      "outputs": [],
      "stateMutability": "nonpayable",
      "type": "function"
    },
    {
      "inputs": [
        {
          "internalType": "uint256",
          "name": "",
          "type": "uint256"
        }
      ],
      "name": "disputeProposals",
      "outputs": [
        {
          "internalType": "address",
          "name": "proposer",
          "type": "address"
        },
        {
          "internalType": "uint256",
          "name": "juryId",
          "type": "uint256"
        },
        {
          "internalType": "bool",
          "name": "isApproved",
          "type": "bool"
        },
        {
          "internalType": "uint256",
          "name": "deadline",
          "type": "uint256"
        }
      ],
      "stateMutability": "view",
      "type": "function"
    },
    {
      "inputs": [
        {
          "internalType": "uint256",
          "name": "",
          "type": "uint256"
        }
      ],
      "name": "disputes",
      "outputs": [
        {
          "internalType": "uint256",
          "name": "juryId",
          "type": "uint256"
        },
        {
          "internalType": "uint256",
          "name": "deadline",
          "type": "uint256"
        },
        {
          "internalType": "bool",
          "name": "verdict",
          "type": "bool"
        },
        {
          "internalType": "bool",
          "name": "resolved",
          "type": "bool"
        }
      ],
      "stateMutability": "view",
      "type": "function"
    },
    {
      "inputs": [
        {
          "internalType": "uint256",
          "name": "_disputeId",
          "type": "uint256"
        }
      ],
      "name": "extendDisputeDeadline",
      "outputs": [],
      "stateMutability": "nonpayable",
      "type": "function"
    },
    {
      "inputs": [
        {
          "internalType": "uint256",
          "name": "",
          "type": "uint256"
        },
        {
          "internalType": "uint256",
          "name": "",
          "type": "uint256"
        }
      ],
      "name": "juries",
      "outputs": [
        {
          "internalType": "uint256",
          "name": "",
          "type": "uint256"
        }
      ],
      "stateMutability": "view",
      "type": "function"
    },
    {
      "inputs": [
        {
          "internalType": "uint256",
          "name": "",
          "type": "uint256"
        }
      ],
      "name": "juryExpiration",
      "outputs": [
        {
          "internalType": "uint256",
          "name": "",
          "type": "uint256"
        }
      ],
      "stateMutability": "view",
      "type": "function"
    },
    {
      "inputs": [
        {
          "internalType": "address",
          "name": "",
          "type": "address"
        }
      ],
      "name": "juryPoolMembers",
      "outputs": [
        {
          "internalType": "uint256",
          "name": "",
          "type": "uint256"
        }
      ],
      "stateMutability": "view",
      "type": "function"
    },
    {
      "inputs": [
        {
          "internalType": "uint256",
          "name": "_deadline",
          "type": "uint256"
        }
      ],
      "name": "newDisputeProposal",
      "outputs": [],
      "stateMutability": "nonpayable",
      "type": "function"
    },
    {
      "inputs": [],
      "name": "paused",
      "outputs": [
        {
          "internalType": "bool",
          "name": "",
          "type": "bool"
        }
      ],
      "stateMutability": "view",
      "type": "function"
    },
    {
      "inputs": [
        {
          "internalType": "uint256",
          "name": "_disputeId",
          "type": "uint256"
        },
        {
          "internalType": "bool",
          "name": "_vote",
          "type": "bool"
        }
      ],
      "name": "vote",
      "outputs": [],
      "stateMutability": "nonpayable",
      "type": "function"
    }
  ],
  "bytecode": "0x60806040523480156200001157600080fd5b5060405162002c1a38038062002c1a83398181016040528101906200003791906200082d565b60008060006101000a81548160ff02191690831515021790555060018160ff16116200009a576040517f08c379a000000000000000000000000000000000000000000000000000000000815260040162000091906200092f565b60405180910390fd5b6000600282620000ab919062000980565b60ff1611620000f1576040517f08c379a0000000000000000000000000000000000000000000000000000000008152600401620000e89062000a2e565b60405180910390fd5b60028162000100919062000a7f565b60ff168351101562000149576040517f08c379a0000000000000000000000000000000000000000000000000000000008152600401620001409062000b37565b60405180910390fd5b60005b835181101562000329576000600a600086848151811062000172576200017162000b59565b5b602002602001015173ffffffffffffffffffffffffffffffffffffffff1673ffffffffffffffffffffffffffffffffffffffff1681526020019081526020016000205414620001f8576040517f08c379a0000000000000000000000000000000000000000000000000000000008152600401620001ef9062000bfe565b60405180910390fd5b60018162000207919062000c2a565b600a600086848151811062000221576200022062000b59565b5b602002602001015173ffffffffffffffffffffffffffffffffffffffff1673ffffffffffffffffffffffffffffffffffffffff168152602001908152602001600020819055506001600960006001846200027c919062000c2a565b815260200190815260200160002060000160006101000a81548160ff021916908315150217905550600181620002b3919062000c2a565b848281518110620002c957620002c862000b59565b5b602002602001015173ffffffffffffffffffffffffffffffffffffffff167f6cf89f4a284d6bcbbba4e04a53e34c6a8ea0c335352b68732736fdafce388dc760405160405180910390a38080620003209062000c87565b9150506200014c565b50600160048190555082516003819055508060ff16600281905550816bffffffffffffffffffffffff166001819055506200039a42446001604051602001620003759392919062000cfa565b6040516020818303038152906040528051906020012060001c620003a360201b60201c565b50505062000f1c565b60008060035490506000600454905060005b6002548110156200051f5760006001848787604051602001620003da92919062000d3d565b6040516020818303038152906040528051906020012060001c620003ff919062000d6d565b6200040b919062000c2a565b90506000600960008381526020019081526020016000206040518060800160405290816000820160009054906101000a900460ff1615151515815260200160018201548152602001600282015481526020016003820154815250509050806000015180156200049b57506000816020015114806200049a5750836001826020015162000498919062000c2a565b105b5b156200050757836009600084815260200190815260200160002060010181905550600b60008581526020019081526020016000208290806001815401808255809150506001900390600052602060002001600090919091909150558280620005039062000c87565b9350505b8580620005149062000c87565b9650505050620003b5565b5060006001544262000532919062000c2a565b905080600c600084815260200190815260200160002081905550600b60008381526020019081526020016000206040516200056e919062000ec5565b60405180910390207fb3c30fe9cd13f86c80318bef190e0071e5fecf6d2465f4ebbe0f923899af700c8383604051620005a992919062000eef565b60405180910390a25050505050565b6000604051905090565b600080fd5b600080fd5b600080fd5b6000601f19601f8301169050919050565b7f4e487b7100000000000000000000000000000000000000000000000000000000600052604160045260246000fd5b6200061c82620005d1565b810181811067ffffffffffffffff821117156200063e576200063d620005e2565b5b80604052505050565b600062000653620005b8565b905062000661828262000611565b919050565b600067ffffffffffffffff821115620006845762000683620005e2565b5b602082029050602081019050919050565b600080fd5b600073ffffffffffffffffffffffffffffffffffffffff82169050919050565b6000620006c7826200069a565b9050919050565b620006d981620006ba565b8114620006e557600080fd5b50565b600081519050620006f981620006ce565b92915050565b600062000716620007108462000666565b62000647565b905080838252602082019050602084028301858111156200073c576200073b62000695565b5b835b81811015620007695780620007548882620006e8565b8452602084019350506020810190506200073e565b5050509392505050565b600082601f8301126200078b576200078a620005cc565b5b81516200079d848260208601620006ff565b91505092915050565b60006bffffffffffffffffffffffff82169050919050565b620007c981620007a6565b8114620007d557600080fd5b50565b600081519050620007e981620007be565b92915050565b600060ff82169050919050565b6200080781620007ef565b81146200081357600080fd5b50565b6000815190506200082781620007fc565b92915050565b600080600060608486031215620008495762000848620005c2565b5b600084015167ffffffffffffffff8111156200086a5762000869620005c7565b5b620008788682870162000773565b93505060206200088b86828701620007d8565b92505060406200089e8682870162000816565b9150509250925092565b600082825260208201905092915050565b7f4a7572792e636f6e7374727563746f723a206a7572792073697a65206174206c60008201527f6561737420330000000000000000000000000000000000000000000000000000602082015250565b600062000917602683620008a8565b91506200092482620008b9565b604082019050919050565b600060208201905081810360008301526200094a8162000908565b9050919050565b7f4e487b7100000000000000000000000000000000000000000000000000000000600052601260045260246000fd5b60006200098d82620007ef565b91506200099a83620007ef565b925082620009ad57620009ac62000951565b5b828206905092915050565b7f4a7572792e636f6e7374727563746f723a206a7572792073697a65206d75737460008201527f206265206f646400000000000000000000000000000000000000000000000000602082015250565b600062000a16602783620008a8565b915062000a2382620009b8565b604082019050919050565b6000602082019050818103600083015262000a498162000a07565b9050919050565b7f4e487b7100000000000000000000000000000000000000000000000000000000600052601160045260246000fd5b600062000a8c82620007ef565b915062000a9983620007ef565b92508160ff048311821515161562000ab65762000ab562000a50565b5b828202905092915050565b7f4a7572792e636f6e7374727563746f723a206e6f7420656e6f756768206a757260008201527f79206d656d626572730000000000000000000000000000000000000000000000602082015250565b600062000b1f602983620008a8565b915062000b2c8262000ac1565b604082019050919050565b6000602082019050818103600083015262000b528162000b10565b9050919050565b7f4e487b7100000000000000000000000000000000000000000000000000000000600052603260045260246000fd5b7f4a7572792e636f6e7374727563746f723a206475706c6963617465204a75727960008201527f206d656d62657200000000000000000000000000000000000000000000000000602082015250565b600062000be6602783620008a8565b915062000bf38262000b88565b604082019050919050565b6000602082019050818103600083015262000c198162000bd7565b9050919050565b6000819050919050565b600062000c378262000c20565b915062000c448362000c20565b9250827fffffffffffffffffffffffffffffffffffffffffffffffffffffffffffffffff0382111562000c7c5762000c7b62000a50565b5b828201905092915050565b600062000c948262000c20565b91507fffffffffffffffffffffffffffffffffffffffffffffffffffffffffffffffff82141562000cca5762000cc962000a50565b5b600182019050919050565b6000819050919050565b62000cf462000cee8262000c20565b62000cd5565b82525050565b600062000d08828662000cdf565b60208201915062000d1a828562000cdf565b60208201915062000d2c828462000cdf565b602082019150819050949350505050565b600062000d4b828562000cdf565b60208201915062000d5d828462000cdf565b6020820191508190509392505050565b600062000d7a8262000c20565b915062000d878362000c20565b92508262000d9a5762000d9962000951565b5b828206905092915050565b600081549050919050565b600081905092915050565b60008190508160005260206000209050919050565b62000ddb8162000c20565b82525050565b600062000def838362000dd0565b60208301905092915050565b60008160001c9050919050565b6000819050919050565b600062000e2962000e238362000dfb565b62000e08565b9050919050565b600062000e3e825462000e12565b9050919050565b6000600182019050919050565b600062000e5f8262000da5565b62000e6b818562000db0565b935062000e788362000dbb565b8060005b8381101562000eb85762000e908262000e30565b62000e9c888262000de1565b975062000ea98362000e45565b92505060018101905062000e7c565b5085935050505092915050565b600062000ed3828462000e52565b915081905092915050565b62000ee98162000c20565b82525050565b600060408201905062000f06600083018562000ede565b62000f15602083018462000ede565b9392505050565b611cee8062000f2c6000396000f3fe608060405234801561001057600080fd5b506004361061009e5760003560e01c8063a94c8f3d11610066578063a94c8f3d14610170578063c9d27afe146101a3578063ccd0429d146101bf578063d652ef1a146101db578063e922de501461020b5761009e565b806301144f44146100a3578063564a565d146100d35780635c975abb1461010657806364ca6b1414610124578063a414abb414610140575b600080fd5b6100bd60048036038101906100b891906111dd565b610227565b6040516100ca919061122c565b60405180910390f35b6100ed60048036038101906100e89190611247565b610258565b6040516100fd949392919061128f565b60405180910390f35b61010e6102a2565b60405161011b91906112d4565b60405180910390f35b61013e60048036038101906101399190611247565b6102b8565b005b61015a60048036038101906101559190611247565b61038d565b604051610167919061122c565b60405180910390f35b61018a60048036038101906101859190611247565b6103a5565b60405161019a9493929190611330565b60405180910390f35b6101bd60048036038101906101b891906113a1565b610402565b005b6101d960048036038101906101d49190611247565b610622565b005b6101f560048036038101906101f0919061140d565b6107fb565b604051610202919061122c565b60405180910390f35b61022560048036038101906102209190611247565b610813565b005b600b602052816000526040600020818154811061024357600080fd5b90600052602060002001600091509150505481565b60076020528060005260406000206000915090508060000154908060010154908060020160009054906101000a900460ff16908060020160019054906101000a900460ff16905084565b60008060009054906101000a900460ff16905090565b6102c0610aed565b6102df6007600083815260200190815260200160002060000154610b99565b61031e576040517f08c379a0000000000000000000000000000000000000000000000000000000008152600401610315906114bd565b60405180910390fd5b600062015180600760008481526020019081526020016000206001016000828254610349919061150c565b9250508190559050817f4da9b675e578acf05cb72712fc12154fc303610a9bef918062e80e7b25aa045f82604051610381919061122c565b60405180910390a25050565b600c6020528060005260406000206000915090505481565b60086020528060005260406000206000915090508060000160009054906101000a900473ffffffffffffffffffffffffffffffffffffffff16908060010154908060020160009054906101000a900460ff16908060030154905084565b60006007600084815260200190815260200160002060405180608001604052908160008201548152602001600182015481526020016002820160009054906101000a900460ff161515151581526020016002820160019054906101000a900460ff16151515158152505090508060600151156104b3576040517f08c379a00000000000000000000000000000000000000000000000000000000081526004016104aa906115d4565b60405180910390fd5b6104c08160000151610b99565b6104ff576040517f08c379a00000000000000000000000000000000000000000000000000000000081526004016104f690611640565b60405180910390fd5b6000600a60003373ffffffffffffffffffffffffffffffffffffffff1673ffffffffffffffffffffffffffffffffffffffff168152602001908152602001600020549050816020015142106105615761055c848360000151610c55565b61061c565b6040518060400160405280841515815260200160011515815250600d6000868152602001908152602001600020600083815260200190815260200160002060008201518160000160006101000a81548160ff02191690831515021790555060208201518160000160016101000a81548160ff02191690831515021790555090505083817f67b60bc862e9c013a238015361df4bb95a4abfe78309ba4a4d7a04d2fe29e4328560405161061391906112d4565b60405180910390a35b50505050565b61062a610aed565b6000600454905061063a81610b99565b1561067a576040517f08c379a0000000000000000000000000000000000000000000000000000000008152600401610671906116d2565b60405180910390fd5b4282116106bc576040517f08c379a00000000000000000000000000000000000000000000000000000000081526004016106b390611764565b60405180910390fd5b60006006549050600660008154809291906106d690611784565b919050555060405180608001604052803373ffffffffffffffffffffffffffffffffffffffff168152602001838152602001600015158152602001848152506008600083815260200190815260200160002060008201518160000160006101000a81548173ffffffffffffffffffffffffffffffffffffffff021916908373ffffffffffffffffffffffffffffffffffffffff1602179055506020820151816001015560408201518160020160006101000a81548160ff0219169083151502179055506060820151816003015590505080823373ffffffffffffffffffffffffffffffffffffffff167f75e358a93c74512dfb976defba1141797850778e28171591715e8cfd4107980f866040516107ee919061122c565b60405180910390a4505050565b600a6020528060005260406000206000915090505481565b6000600a60003373ffffffffffffffffffffffffffffffffffffffff1673ffffffffffffffffffffffffffffffffffffffff1681526020019081526020016000205411610895576040517f08c379a000000000000000000000000000000000000000000000000000000000815260040161088c90611819565b60405180910390fd5b61089d610aed565b6000600860008381526020019081526020016000206040518060800160405290816000820160009054906101000a900473ffffffffffffffffffffffffffffffffffffffff1673ffffffffffffffffffffffffffffffffffffffff1673ffffffffffffffffffffffffffffffffffffffff168152602001600182015481526020016002820160009054906101000a900460ff161515151581526020016003820154815250509050806040015115610989576040517f08c379a0000000000000000000000000000000000000000000000000000000008152600401610980906118ab565b60405180910390fd5b806000015173ffffffffffffffffffffffffffffffffffffffff163373ffffffffffffffffffffffffffffffffffffffff1614156109fc576040517f08c379a00000000000000000000000000000000000000000000000000000000081526004016109f39061193d565b60405180910390fd5b80606001514210610a42576040517f08c379a0000000000000000000000000000000000000000000000000000000008152600401610a39906119cf565b60405180910390fd5b60016008600084815260200190815260200160002060020160006101000a81548160ff02191690831515021790555060096000600a60003373ffffffffffffffffffffffffffffffffffffffff1673ffffffffffffffffffffffffffffffffffffffff1681526020019081526020016000205481526020019081526020016000206002016000815480929190610ad790611784565b9190505550610ae98160600151610eaf565b5050565b60006004549050600c6000828152602001908152602001600020544210610b9657807fc796ad74732d2a065b3161c4bf85138cb8d4b0561d078cc02aa237d2e29141db60405160405180910390a260046000815480929190610b4e90611784565b9190505550610b954244600184610b65919061150c565b604051602001610b7793929190611a10565b6040516020818303038152906040528051906020012060001c610fa4565b5b50565b60008060096000600a60003373ffffffffffffffffffffffffffffffffffffffff1673ffffffffffffffffffffffffffffffffffffffff1681526020019081526020016000205481526020019081526020016000206040518060800160405290816000820160009054906101000a900460ff16151515158152602001600182015481526020016002820154815260200160038201548152505090508281602001511415610c4a576001915050610c50565b60009150505b919050565b6000600b6000838152602001908152602001600020805480602002602001604051908101604052809291908181526020018280548015610cb457602002820191906000526020600020905b815481526020019060010190808311610ca0575b50505050509050600080600090505b82518160ff161015610dd6576000600d60008781526020019081526020016000206000858460ff1681518110610cfc57610cfb611a4d565b5b602002602001015181526020019081526020016000206040518060400160405290816000820160009054906101000a900460ff161515151581526020016000820160019054906101000a900460ff1615151515815250509050806020015115610dc257806000015115610d78578280610d7490611a89565b9350505b60096000858460ff1681518110610d9257610d91611a4d565b5b602002602001015181526020019081526020016000206003016000815480929190610dbc90611784565b91905055505b508080610dce90611a89565b915050610cc3565b508060ff1660028054610de99190611ae2565b1015610e1f5760016007600086815260200190815260200160002060020160006101000a81548160ff0219169083151502179055505b60016007600086815260200190815260200160002060020160016101000a81548160ff021916908315150217905550837f5a87909bff68caaaaf0b3fd9c74eeccc928832f879315e5c6fb7a73612f26c0c6007600087815260200190815260200160002060020160009054906101000a900460ff16604051610ea191906112d4565b60405180910390a250505050565b600060055490506000600454905060056000815480929190610ed090611784565b919050555060405180608001604052808281526020018481526020016000151581526020016000151581525060076000848152602001908152602001600020600082015181600001556020820151816001015560408201518160020160006101000a81548160ff02191690831515021790555060608201518160020160016101000a81548160ff02191690831515021790555090505080827fd739c8b7fe870f381c5442416ff79d9f44c3e1d54a16ce39fc0fbe8206c4a6e885604051610f97919061122c565b60405180910390a3505050565b60008060035490506000600454905060005b60025481101561110f5760006001848787604051602001610fd8929190611b13565b6040516020818303038152906040528051906020012060001c610ffb9190611b3f565b611005919061150c565b90506000600960008381526020019081526020016000206040518060800160405290816000820160009054906101000a900460ff16151515158152602001600182015481526020016002820154815260200160038201548152505090508060000151801561109157506000816020015114806110905750836001826020015161108e919061150c565b105b5b156110fa57836009600084815260200190815260200160002060010181905550600b600085815260200190815260200160002082908060018154018082558091505060019003906000526020600020016000909190919091505582806110f690611784565b9350505b858061110590611784565b9650505050610fb6565b50600060015442611120919061150c565b905080600c600084815260200190815260200160002081905550600b600083815260200190815260200160002060405161115a9190611c78565b60405180910390207fb3c30fe9cd13f86c80318bef190e0071e5fecf6d2465f4ebbe0f923899af700c8383604051611193929190611c8f565b60405180910390a25050505050565b600080fd5b6000819050919050565b6111ba816111a7565b81146111c557600080fd5b50565b6000813590506111d7816111b1565b92915050565b600080604083850312156111f4576111f36111a2565b5b6000611202858286016111c8565b9250506020611213858286016111c8565b9150509250929050565b611226816111a7565b82525050565b6000602082019050611241600083018461121d565b92915050565b60006020828403121561125d5761125c6111a2565b5b600061126b848285016111c8565b91505092915050565b60008115159050919050565b61128981611274565b82525050565b60006080820190506112a4600083018761121d565b6112b1602083018661121d565b6112be6040830185611280565b6112cb6060830184611280565b95945050505050565b60006020820190506112e96000830184611280565b92915050565b600073ffffffffffffffffffffffffffffffffffffffff82169050919050565b600061131a826112ef565b9050919050565b61132a8161130f565b82525050565b60006080820190506113456000830187611321565b611352602083018661121d565b61135f6040830185611280565b61136c606083018461121d565b95945050505050565b61137e81611274565b811461138957600080fd5b50565b60008135905061139b81611375565b92915050565b600080604083850312156113b8576113b76111a2565b5b60006113c6858286016111c8565b92505060206113d78582860161138c565b9150509250929050565b6113ea8161130f565b81146113f557600080fd5b50565b600081359050611407816113e1565b92915050565b600060208284031215611423576114226111a2565b5b6000611431848285016113f8565b91505092915050565b600082825260208201905092915050565b7f4a7572792e657874656e6444697370757465446561646c696e653a206e6f742060008201527f696e206a75727900000000000000000000000000000000000000000000000000602082015250565b60006114a760278361143a565b91506114b28261144b565b604082019050919050565b600060208201905081810360008301526114d68161149a565b9050919050565b7f4e487b7100000000000000000000000000000000000000000000000000000000600052601160045260246000fd5b6000611517826111a7565b9150611522836111a7565b9250827fffffffffffffffffffffffffffffffffffffffffffffffffffffffffffffffff03821115611557576115566114dd565b5b828201905092915050565b7f4a7572792e766f74653a206469737075746520616c7265616479207265736f6c60008201527f7665640000000000000000000000000000000000000000000000000000000000602082015250565b60006115be60238361143a565b91506115c982611562565b604082019050919050565b600060208201905081810360008301526115ed816115b1565b9050919050565b7f4a7572792e766f74653a206d656d626572206e6f7420696e206a757279000000600082015250565b600061162a601d8361143a565b9150611635826115f4565b602082019050919050565b600060208201905081810360008301526116598161161d565b9050919050565b7f4a7572792e6e65774469737075746550726f706f73616c3a206a75726f72206160008201527f6c726561647920696e206a757279000000000000000000000000000000000000602082015250565b60006116bc602e8361143a565b91506116c782611660565b604082019050919050565b600060208201905081810360008301526116eb816116af565b9050919050565b7f4a7572792e6e65774469737075746550726f706f73616c3a20646561646c696e60008201527f652068617320616c726561647920706173740000000000000000000000000000602082015250565b600061174e60328361143a565b9150611759826116f2565b604082019050919050565b6000602082019050818103600083015261177d81611741565b9050919050565b600061178f826111a7565b91507fffffffffffffffffffffffffffffffffffffffffffffffffffffffffffffffff8214156117c2576117c16114dd565b5b600182019050919050565b7f63616c6c6572206d757374206265206a75727920706f6f6c206d656d62657200600082015250565b6000611803601f8361143a565b915061180e826117cd565b602082019050919050565b60006020820190508181036000830152611832816117f6565b9050919050565b7f4a7572792e617070726f76654469737075746550726f706f73616c3a20616c7260008201527f6561647920617070726f76656400000000000000000000000000000000000000602082015250565b6000611895602d8361143a565b91506118a082611839565b604082019050919050565b600060208201905081810360008301526118c481611888565b9050919050565b7f4a7572792e617070726f7665644469737075746550726f706f73616c3a20707260008201527f6f706f7365722063616e206e6f7420617070726f766520646973707574650000602082015250565b6000611927603e8361143a565b9150611932826118cb565b604082019050919050565b600060208201905081810360008301526119568161191a565b9050919050565b7f4a7572792e617070726f76654469737075746550726f706f73616c3a2064656160008201527f646c696e65206861732070617374000000000000000000000000000000000000602082015250565b60006119b9602e8361143a565b91506119c48261195d565b604082019050919050565b600060208201905081810360008301526119e8816119ac565b9050919050565b6000819050919050565b611a0a611a05826111a7565b6119ef565b82525050565b6000611a1c82866119f9565b602082019150611a2c82856119f9565b602082019150611a3c82846119f9565b602082019150819050949350505050565b7f4e487b7100000000000000000000000000000000000000000000000000000000600052603260045260246000fd5b600060ff82169050919050565b6000611a9482611a7c565b915060ff821415611aa857611aa76114dd565b5b600182019050919050565b7f4e487b7100000000000000000000000000000000000000000000000000000000600052601260045260246000fd5b6000611aed826111a7565b9150611af8836111a7565b925082611b0857611b07611ab3565b5b828204905092915050565b6000611b1f82856119f9565b602082019150611b2f82846119f9565b6020820191508190509392505050565b6000611b4a826111a7565b9150611b55836111a7565b925082611b6557611b64611ab3565b5b828206905092915050565b600081549050919050565b600081905092915050565b60008190508160005260206000209050919050565b611ba4816111a7565b82525050565b6000611bb68383611b9b565b60208301905092915050565b60008160001c9050919050565b6000819050919050565b6000611bec611be783611bc2565b611bcf565b9050919050565b6000611bff8254611bd9565b9050919050565b6000600182019050919050565b6000611c1e82611b70565b611c288185611b7b565b9350611c3383611b86565b8060005b83811015611c6b57611c4882611bf3565b611c528882611baa565b9750611c5d83611c06565b925050600181019050611c37565b5085935050505092915050565b6000611c848284611c13565b915081905092915050565b6000604082019050611ca4600083018561121d565b611cb1602083018461121d565b939250505056fea2646970667358221220498a9763b9294087d32d56d4aec0954115c50639d9d44164d0ecbc1fe43fc16c64736f6c63430008090033",
  "linkReferences": {},
  "deployedLinkReferences": {}
}