{
  "_format": "hh-sol-artifact-1",
  "contractName": "Jury",
  "sourceName": "contracts/Jury.sol",
  "abi": [
    {
      "inputs": [
        {
          "internalType": "address[]",
          "name": "_initialJuryMembers",
          "type": "address[]"
        }
      ],
      "stateMutability": "nonpayable",
      "type": "constructor"
    },
    {
      "anonymous": false,
      "inputs": [
        {
          "indexed": false,
          "internalType": "uint256",
          "name": "juryId",
          "type": "uint256"
        },
        {
          "indexed": false,
          "internalType": "uint256",
          "name": "newDeadline",
          "type": "uint256"
        }
      ],
      "name": "DisputeDeadlinePostponed",
      "type": "event"
    },
    {
      "anonymous": false,
      "inputs": [
        {
          "indexed": false,
          "internalType": "bool",
          "name": "verdict",
          "type": "bool"
        },
        {
          "indexed": false,
          "internalType": "uint256",
          "name": "juryId",
          "type": "uint256"
        }
      ],
      "name": "DisputeResolved",
      "type": "event"
    },
    {
      "anonymous": false,
      "inputs": [
        {
          "indexed": true,
          "internalType": "uint256",
          "name": "jurydId",
          "type": "uint256"
        }
      ],
      "name": "JuryDutyCompleted",
      "type": "event"
    },
    {
      "anonymous": false,
      "inputs": [
        {
          "indexed": false,
          "internalType": "bool",
          "name": "vote",
          "type": "bool"
        },
        {
          "indexed": true,
          "internalType": "address",
          "name": "juryMember",
          "type": "address"
        }
      ],
      "name": "JuryMemberVoted",
      "type": "event"
    },
    {
      "anonymous": false,
      "inputs": [
        {
          "indexed": false,
          "internalType": "uint256",
          "name": "juryId",
          "type": "uint256"
        },
        {
          "indexed": false,
          "internalType": "uint256",
          "name": "disputeId",
          "type": "uint256"
        }
      ],
      "name": "NewDispute",
      "type": "event"
    },
    {
      "anonymous": false,
      "inputs": [
        {
          "indexed": false,
          "internalType": "address",
          "name": "juryMemeber",
          "type": "address"
        }
      ],
      "name": "NewJuryPoolMember",
      "type": "event"
    },
    {
      "anonymous": false,
      "inputs": [
        {
          "indexed": false,
          "internalType": "uint256",
          "name": "juryId",
          "type": "uint256"
        },
        {
          "indexed": true,
          "internalType": "address[]",
          "name": "juryMemebers",
          "type": "address[]"
        }
      ],
      "name": "NewLiveJury",
      "type": "event"
    },
    {
      "anonymous": false,
      "inputs": [
        {
          "indexed": false,
          "internalType": "address",
          "name": "account",
          "type": "address"
        }
      ],
      "name": "Paused",
      "type": "event"
    },
    {
      "anonymous": false,
      "inputs": [
        {
          "indexed": false,
          "internalType": "address",
          "name": "juryMember",
          "type": "address"
        }
      ],
      "name": "RemovedJuryMember",
      "type": "event"
    },
    {
      "anonymous": false,
      "inputs": [
        {
          "indexed": false,
          "internalType": "address",
          "name": "account",
          "type": "address"
        }
      ],
      "name": "Unpaused",
      "type": "event"
    },
    {
      "inputs": [
        {
          "internalType": "address",
          "name": "_newMember",
          "type": "address"
        }
      ],
      "name": "addJuryPoolMember",
      "outputs": [],
      "stateMutability": "nonpayable",
      "type": "function"
    },
    {
      "inputs": [
        {
          "internalType": "uint256",
          "name": "_disputeProposalId",
          "type": "uint256"
        }
      ],
      "name": "approveDisputeProposal",
      "outputs": [],
      "stateMutability": "nonpayable",
      "type": "function"
    },
    {
      "inputs": [
        {
          "internalType": "uint256",
          "name": "",
          "type": "uint256"
        }
      ],
      "name": "disputeProposals",
      "outputs": [
        {
          "internalType": "bool",
          "name": "isApproved",
          "type": "bool"
        },
        {
          "internalType": "uint256",
          "name": "deadline",
          "type": "uint256"
        },
        {
          "internalType": "address",
          "name": "plaintiff",
          "type": "address"
        },
        {
          "internalType": "address",
          "name": "defendent",
          "type": "address"
        }
      ],
      "stateMutability": "view",
      "type": "function"
    },
    {
      "inputs": [
        {
          "internalType": "uint256",
          "name": "",
          "type": "uint256"
        }
      ],
      "name": "disputes",
      "outputs": [
        {
          "internalType": "uint256",
          "name": "juryId",
          "type": "uint256"
        },
        {
          "internalType": "uint256",
          "name": "disputeId",
          "type": "uint256"
        },
        {
          "internalType": "uint256",
          "name": "deadline",
          "type": "uint256"
        },
        {
          "internalType": "address",
          "name": "plaintiff",
          "type": "address"
        },
        {
          "internalType": "address",
          "name": "defendent",
          "type": "address"
        },
        {
          "internalType": "bool",
          "name": "verdict",
          "type": "bool"
        }
      ],
      "stateMutability": "view",
      "type": "function"
    },
    {
      "inputs": [
        {
          "internalType": "uint256",
          "name": "_disputeId",
          "type": "uint256"
        }
      ],
      "name": "extendDisputeDeadline",
      "outputs": [],
      "stateMutability": "nonpayable",
      "type": "function"
    },
    {
      "inputs": [
        {
          "internalType": "uint256",
          "name": "",
          "type": "uint256"
        },
        {
          "internalType": "uint256",
          "name": "",
          "type": "uint256"
        }
      ],
      "name": "juries",
      "outputs": [
        {
          "internalType": "address",
          "name": "memberAddr",
          "type": "address"
        },
        {
          "internalType": "uint256",
          "name": "jurysParticipated",
          "type": "uint256"
        },
        {
          "internalType": "uint256",
          "name": "disputesApproved",
          "type": "uint256"
        },
        {
          "internalType": "uint256",
          "name": "disputesResolved",
          "type": "uint256"
        },
        {
          "internalType": "bool",
          "name": "vote",
          "type": "bool"
        }
      ],
      "stateMutability": "view",
      "type": "function"
    },
    {
      "inputs": [
        {
          "internalType": "uint256",
          "name": "",
          "type": "uint256"
        }
      ],
      "name": "juryIsLive",
      "outputs": [
        {
          "internalType": "bool",
          "name": "",
          "type": "bool"
        }
      ],
      "stateMutability": "view",
      "type": "function"
    },
    {
      "inputs": [
        {
          "internalType": "address",
          "name": "",
          "type": "address"
        }
      ],
      "name": "juryPoolMembers",
      "outputs": [
        {
          "internalType": "bool",
          "name": "",
          "type": "bool"
        }
      ],
      "stateMutability": "view",
      "type": "function"
    },
    {
      "inputs": [
        {
          "internalType": "address",
          "name": "_plaintiff",
          "type": "address"
        },
        {
          "internalType": "address",
          "name": "_defendent",
          "type": "address"
        },
        {
          "internalType": "uint256",
          "name": "_deadline",
          "type": "uint256"
        }
      ],
      "name": "newDisputeProposal",
      "outputs": [],
      "stateMutability": "nonpayable",
      "type": "function"
    },
    {
      "inputs": [
        {
          "internalType": "uint256",
          "name": "_disputeProposalId",
          "type": "uint256"
        }
      ],
      "name": "newDisputeSubmission",
      "outputs": [],
      "stateMutability": "nonpayable",
      "type": "function"
    },
    {
      "inputs": [
        {
          "internalType": "address[]",
          "name": "_juryMembers",
          "type": "address[]"
        }
      ],
      "name": "newLiveJury",
      "outputs": [],
      "stateMutability": "nonpayable",
      "type": "function"
    },
    {
      "inputs": [],
      "name": "paused",
      "outputs": [
        {
          "internalType": "bool",
          "name": "",
          "type": "bool"
        }
      ],
      "stateMutability": "view",
      "type": "function"
    },
    {
      "inputs": [],
      "name": "setJuryType",
      "outputs": [],
      "stateMutability": "nonpayable",
      "type": "function"
    },
    {
      "inputs": [],
      "name": "voteNo",
      "outputs": [],
      "stateMutability": "nonpayable",
      "type": "function"
    },
    {
      "inputs": [],
      "name": "voteYes",
      "outputs": [],
      "stateMutability": "nonpayable",
      "type": "function"
    }
  ],
  "bytecode": "0x60806040523480156200001157600080fd5b506040516200229b3803806200229b8339818101604052810190620000379190620003c5565b60008060006101000a81548160ff021916908315150217905550600a81511462000098576040517f08c379a00000000000000000000000000000000000000000000000000000000081526004016200008f906200049d565b60405180910390fd5b60005b81518110156200018657600160076000848481518110620000c157620000c0620004bf565b5b602002602001015173ffffffffffffffffffffffffffffffffffffffff1673ffffffffffffffffffffffffffffffffffffffff16815260200190815260200160002060006101000a81548160ff0219169083151502179055507f543fa957e48cddb9c78047c49b8227a327101433e6c106c5632530e20a46185c828281518110620001515762000150620004bf565b5b6020026020010151604051620001689190620004ff565b60405180910390a180806200017d9062000555565b9150506200009b565b5060018060008282546200019b9190620005a3565b92505081905550600160096000600154815260200190815260200160002060006101000a81548160ff0219169083151502179055505062000600565b6000604051905090565b600080fd5b600080fd5b600080fd5b6000601f19601f8301169050919050565b7f4e487b7100000000000000000000000000000000000000000000000000000000600052604160045260246000fd5b6200023b82620001f0565b810181811067ffffffffffffffff821117156200025d576200025c62000201565b5b80604052505050565b600062000272620001d7565b905062000280828262000230565b919050565b600067ffffffffffffffff821115620002a357620002a262000201565b5b602082029050602081019050919050565b600080fd5b600073ffffffffffffffffffffffffffffffffffffffff82169050919050565b6000620002e682620002b9565b9050919050565b620002f881620002d9565b81146200030457600080fd5b50565b6000815190506200031881620002ed565b92915050565b6000620003356200032f8462000285565b62000266565b905080838252602082019050602084028301858111156200035b576200035a620002b4565b5b835b8181101562000388578062000373888262000307565b8452602084019350506020810190506200035d565b5050509392505050565b600082601f830112620003aa57620003a9620001eb565b5b8151620003bc8482602086016200031e565b91505092915050565b600060208284031215620003de57620003dd620001e1565b5b600082015167ffffffffffffffff811115620003ff57620003fe620001e6565b5b6200040d8482850162000392565b91505092915050565b600082825260208201905092915050565b7f4a7572792e636f6e7374727563746f723a206e6f7420656e6f756768206a757260008201527f79206d656d626572730000000000000000000000000000000000000000000000602082015250565b60006200048560298362000416565b9150620004928262000427565b604082019050919050565b60006020820190508181036000830152620004b88162000476565b9050919050565b7f4e487b7100000000000000000000000000000000000000000000000000000000600052603260045260246000fd5b620004f981620002d9565b82525050565b6000602082019050620005166000830184620004ee565b92915050565b7f4e487b7100000000000000000000000000000000000000000000000000000000600052601160045260246000fd5b6000819050919050565b600062000562826200054b565b91507fffffffffffffffffffffffffffffffffffffffffffffffffffffffffffffffff8214156200059857620005976200051c565b5b600182019050919050565b6000620005b0826200054b565b9150620005bd836200054b565b9250827fffffffffffffffffffffffffffffffffffffffffffffffffffffffffffffffff03821115620005f557620005f46200051c565b5b828201905092915050565b611c8b80620006106000396000f3fe608060405234801561001057600080fd5b50600436106100f55760003560e01c806364ca6b1411610097578063c84663b011610066578063c84663b014610268578063cafd73b814610284578063d652ef1a1461028e578063e922de50146102be576100f5565b806364ca6b14146101f35780638be3056f1461020f57806390cf581c1461022b578063a94c8f3d14610235576100f5565b806341c12a70116100d357806341c12a7014610166578063564a565d14610170578063596d7b2f146101a55780635c975abb146101d5576100f5565b806301144f44146100fa57806312f373051461012e578063146f7b7f1461014a575b600080fd5b610114600480360381019061010f9190611499565b6102da565b604051610125959493929190611544565b60405180910390f35b61014860048036038101906101439190611597565b61035a565b005b610164600480360381019061015f91906115f0565b6104e5565b005b61016e610877565b005b61018a60048036038101906101859190611597565b610a24565b60405161019c96959493929190611643565b60405180910390f35b6101bf60048036038101906101ba9190611597565b610aad565b6040516101cc91906116a4565b60405180910390f35b6101dd610acd565b6040516101ea91906116a4565b60405180910390f35b61020d60048036038101906102089190611597565b610ae3565b005b61022960048036038101906102249190611818565b610b53565b005b610233610c25565b005b61024f600480360381019061024a9190611597565b610dd2565b60405161025f9493929190611861565b60405180910390f35b610282600480360381019061027d91906118a6565b610e4f565b005b61028c61108c565b005b6102a860048036038101906102a391906118a6565b61108e565b6040516102b591906116a4565b60405180910390f35b6102d860048036038101906102d39190611597565b6110ae565b005b600860205281600052604060002081815481106102f657600080fd5b9060005260206000209060050201600091509150508060000160009054906101000a900473ffffffffffffffffffffffffffffffffffffffff16908060010154908060020154908060030154908060040160009054906101000a900460ff16905085565b600760003373ffffffffffffffffffffffffffffffffffffffff1673ffffffffffffffffffffffffffffffffffffffff16815260200190815260200160002060009054906101000a900460ff166103e6576040517f08c379a00000000000000000000000000000000000000000000000000000000081526004016103dd90611930565b60405180910390fd5b600260066000838152602001908152602001600020600001805490501015610443576040517f08c379a000000000000000000000000000000000000000000000000000000000815260040161043a906119c2565b60405180910390fd5b60006006600083815260200190815260200160002060030160009054906101000a900473ffffffffffffffffffffffffffffffffffffffff16905060006006600084815260200190815260200160002060040160009054906101000a900473ffffffffffffffffffffffffffffffffffffffff1690506000600660008581526020019081526020016000206002015490506104df838383611208565b50505050565b6000600860006001548152602001908152602001600020805480602002602001604051908101604052809291908181526020016000905b828210156105dd57838290600052602060002090600502016040518060a00160405290816000820160009054906101000a900473ffffffffffffffffffffffffffffffffffffffff1673ffffffffffffffffffffffffffffffffffffffff1673ffffffffffffffffffffffffffffffffffffffff1681526020016001820154815260200160028201548152602001600382015481526020016004820160009054906101000a900460ff1615151515815250508152602001906001019061051c565b50505050905060005b81518110156106e4578473ffffffffffffffffffffffffffffffffffffffff16828281518110610619576106186119e2565b5b60200260200101516000015173ffffffffffffffffffffffffffffffffffffffff1614158061069257508373ffffffffffffffffffffffffffffffffffffffff1682828151811061066d5761066c6119e2565b5b60200260200101516000015173ffffffffffffffffffffffffffffffffffffffff1614155b6106d1576040517f08c379a00000000000000000000000000000000000000000000000000000000081526004016106c890611a83565b60405180910390fd5b80806106dc90611ad2565b9150506105e6565b506040518060a00160405280600067ffffffffffffffff81111561070b5761070a6116d5565b5b6040519080825280602002602001820160405280156107395781602001602082028036833780820191505090505b5081526020016000151581526020018381526020018573ffffffffffffffffffffffffffffffffffffffff1681526020018473ffffffffffffffffffffffffffffffffffffffff1681525060066000600354815260200190815260200160002060008201518160000190805190602001906107b59291906113a8565b5060208201518160010160006101000a81548160ff0219169083151502179055506040820151816002015560608201518160030160006101000a81548173ffffffffffffffffffffffffffffffffffffffff021916908373ffffffffffffffffffffffffffffffffffffffff16021790555060808201518160040160006101000a81548173ffffffffffffffffffffffffffffffffffffffff021916908373ffffffffffffffffffffffffffffffffffffffff16021790555090505050505050565b6000600860006001548152602001908152602001600020805480602002602001604051908101604052809291908181526020016000905b8282101561096f57838290600052602060002090600502016040518060a00160405290816000820160009054906101000a900473ffffffffffffffffffffffffffffffffffffffff1673ffffffffffffffffffffffffffffffffffffffff1673ffffffffffffffffffffffffffffffffffffffff1681526020016001820154815260200160028201548152602001600382015481526020016004820160009054906101000a900460ff161515151581525050815260200190600101906108ae565b50505050905060005b8151811015610a2057818181518110610994576109936119e2565b5b60200260200101516000015173ffffffffffffffffffffffffffffffffffffffff163373ffffffffffffffffffffffffffffffffffffffff1614610a0d576040517f08c379a0000000000000000000000000000000000000000000000000000000008152600401610a0490611b67565b60405180910390fd5b8080610a1890611ad2565b915050610978565b5050565b60056020528060005260406000206000915090508060000154908060010154908060020154908060030160009054906101000a900473ffffffffffffffffffffffffffffffffffffffff16908060040160009054906101000a900473ffffffffffffffffffffffffffffffffffffffff16908060040160149054906101000a900460ff16905086565b60096020528060005260406000206000915054906101000a900460ff1681565b60008060009054906101000a900460ff16905090565b600062015180600560008481526020019081526020016000206002016000828254610b0e9190611b87565b92505081905590507f4da9b675e578acf05cb72712fc12154fc303610a9bef918062e80e7b25aa045f8282604051610b47929190611bdd565b60405180910390a15050565b6001806000828254610b659190611b87565b92505081905550600160096000600154815260200190815260200160002060006101000a81548160ff02191690831515021790555060006009600060018054610bae9190611c06565b815260200190815260200160002060006101000a81548160ff02191690831515021790555060005b8151811015610bf2578080610bea90611ad2565b915050610bd6565b506001547fc796ad74732d2a065b3161c4bf85138cb8d4b0561d078cc02aa237d2e29141db60405160405180910390a250565b6000600860006001548152602001908152602001600020805480602002602001604051908101604052809291908181526020016000905b82821015610d1d57838290600052602060002090600502016040518060a00160405290816000820160009054906101000a900473ffffffffffffffffffffffffffffffffffffffff1673ffffffffffffffffffffffffffffffffffffffff1673ffffffffffffffffffffffffffffffffffffffff1681526020016001820154815260200160028201548152602001600382015481526020016004820160009054906101000a900460ff16151515158152505081526020019060010190610c5c565b50505050905060005b8151811015610dce57818181518110610d4257610d416119e2565b5b60200260200101516000015173ffffffffffffffffffffffffffffffffffffffff163373ffffffffffffffffffffffffffffffffffffffff1614610dbb576040517f08c379a0000000000000000000000000000000000000000000000000000000008152600401610db290611b67565b60405180910390fd5b8080610dc690611ad2565b915050610d26565b5050565b60066020528060005260406000206000915090508060010160009054906101000a900460ff16908060020154908060030160009054906101000a900473ffffffffffffffffffffffffffffffffffffffff16908060040160009054906101000a900473ffffffffffffffffffffffffffffffffffffffff16905084565b6000600860006001548152602001908152602001600020805480602002602001604051908101604052809291908181526020016000905b82821015610f4757838290600052602060002090600502016040518060a00160405290816000820160009054906101000a900473ffffffffffffffffffffffffffffffffffffffff1673ffffffffffffffffffffffffffffffffffffffff1673ffffffffffffffffffffffffffffffffffffffff1681526020016001820154815260200160028201548152602001600382015481526020016004820160009054906101000a900460ff16151515158152505081526020019060010190610e86565b50505050905060005b8151811015610ff857818181518110610f6c57610f6b6119e2565b5b60200260200101516000015173ffffffffffffffffffffffffffffffffffffffff163373ffffffffffffffffffffffffffffffffffffffff1614610fe5576040517f08c379a0000000000000000000000000000000000000000000000000000000008152600401610fdc90611b67565b60405180910390fd5b8080610ff090611ad2565b915050610f50565b506001600760008473ffffffffffffffffffffffffffffffffffffffff1673ffffffffffffffffffffffffffffffffffffffff16815260200190815260200160002060006101000a81548160ff0219169083151502179055507f543fa957e48cddb9c78047c49b8227a327101433e6c106c5632530e20a46185c826040516110809190611c3a565b60405180910390a15050565b565b60076020528060005260406000206000915054906101000a900460ff1681565b600760003373ffffffffffffffffffffffffffffffffffffffff1673ffffffffffffffffffffffffffffffffffffffff16815260200190815260200160002060009054906101000a900460ff1661113a576040517f08c379a000000000000000000000000000000000000000000000000000000000815260040161113190611930565b60405180910390fd5b6000600660008381526020019081526020016000206000018054806020026020016040519081016040528092919081815260200182805480156111d257602002820191906000526020600020905b8160009054906101000a900473ffffffffffffffffffffffffffffffffffffffff1673ffffffffffffffffffffffffffffffffffffffff1681526020019060010190808311611188575b50505050509050806006600084815260200190815260200160002060000190805190602001906112039291906113a8565b505050565b60016002600082825461121b9190611b87565b925050819055506040518060c00160405280600154815260200160025481526020018281526020018473ffffffffffffffffffffffffffffffffffffffff1681526020018373ffffffffffffffffffffffffffffffffffffffff1681526020016000151581525060056000600254815260200190815260200160002060008201518160000155602082015181600101556040820151816002015560608201518160030160006101000a81548173ffffffffffffffffffffffffffffffffffffffff021916908373ffffffffffffffffffffffffffffffffffffffff16021790555060808201518160040160006101000a81548173ffffffffffffffffffffffffffffffffffffffff021916908373ffffffffffffffffffffffffffffffffffffffff16021790555060a08201518160040160146101000a81548160ff0219169083151502179055509050507f98d85359d4c56c7eaf2486712c329156c582a48e60b4188ba13a7afa45cfff3260025460015460405161139b929190611bdd565b60405180910390a1505050565b828054828255906000526020600020908101928215611421579160200282015b828111156114205782518260006101000a81548173ffffffffffffffffffffffffffffffffffffffff021916908373ffffffffffffffffffffffffffffffffffffffff160217905550916020019190600101906113c8565b5b50905061142e9190611432565b5090565b5b8082111561144b576000816000905550600101611433565b5090565b6000604051905090565b600080fd5b600080fd5b6000819050919050565b61147681611463565b811461148157600080fd5b50565b6000813590506114938161146d565b92915050565b600080604083850312156114b0576114af611459565b5b60006114be85828601611484565b92505060206114cf85828601611484565b9150509250929050565b600073ffffffffffffffffffffffffffffffffffffffff82169050919050565b6000611504826114d9565b9050919050565b611514816114f9565b82525050565b61152381611463565b82525050565b60008115159050919050565b61153e81611529565b82525050565b600060a082019050611559600083018861150b565b611566602083018761151a565b611573604083018661151a565b611580606083018561151a565b61158d6080830184611535565b9695505050505050565b6000602082840312156115ad576115ac611459565b5b60006115bb84828501611484565b91505092915050565b6115cd816114f9565b81146115d857600080fd5b50565b6000813590506115ea816115c4565b92915050565b60008060006060848603121561160957611608611459565b5b6000611617868287016115db565b9350506020611628868287016115db565b925050604061163986828701611484565b9150509250925092565b600060c082019050611658600083018961151a565b611665602083018861151a565b611672604083018761151a565b61167f606083018661150b565b61168c608083018561150b565b61169960a0830184611535565b979650505050505050565b60006020820190506116b96000830184611535565b92915050565b600080fd5b6000601f19601f8301169050919050565b7f4e487b7100000000000000000000000000000000000000000000000000000000600052604160045260246000fd5b61170d826116c4565b810181811067ffffffffffffffff8211171561172c5761172b6116d5565b5b80604052505050565b600061173f61144f565b905061174b8282611704565b919050565b600067ffffffffffffffff82111561176b5761176a6116d5565b5b602082029050602081019050919050565b600080fd5b600061179461178f84611750565b611735565b905080838252602082019050602084028301858111156117b7576117b661177c565b5b835b818110156117e057806117cc88826115db565b8452602084019350506020810190506117b9565b5050509392505050565b600082601f8301126117ff576117fe6116bf565b5b813561180f848260208601611781565b91505092915050565b60006020828403121561182e5761182d611459565b5b600082013567ffffffffffffffff81111561184c5761184b61145e565b5b611858848285016117ea565b91505092915050565b60006080820190506118766000830187611535565b611883602083018661151a565b611890604083018561150b565b61189d606083018461150b565b95945050505050565b6000602082840312156118bc576118bb611459565b5b60006118ca848285016115db565b91505092915050565b600082825260208201905092915050565b7f63616c6c6572206d757374206265206a75727920706f6f6c206d656d62657200600082015250565b600061191a601f836118d3565b9150611925826118e4565b602082019050919050565b600060208201905081810360008301526119498161190d565b9050919050565b7f4a7572792e6e6577446973707574655375626d697373696f6e3a206e6f74206560008201527f6e6f75676820617070726f76616c7320666f7220646973707574650000000000602082015250565b60006119ac603b836118d3565b91506119b782611950565b604082019050919050565b600060208201905081810360008301526119db8161199f565b9050919050565b7f4e487b7100000000000000000000000000000000000000000000000000000000600052603260045260246000fd5b7f4a7572792e6e6577446973707574653a206c697665206a757279206d656d626560008201527f722063616e6e6f7420626520696e766f6c766564000000000000000000000000602082015250565b6000611a6d6034836118d3565b9150611a7882611a11565b604082019050919050565b60006020820190508181036000830152611a9c81611a60565b9050919050565b7f4e487b7100000000000000000000000000000000000000000000000000000000600052601160045260246000fd5b6000611add82611463565b91507fffffffffffffffffffffffffffffffffffffffffffffffffffffffffffffffff821415611b1057611b0f611aa3565b5b600182019050919050565b7f63616c6c6572206d757374206265206a757279206d656d626572000000000000600082015250565b6000611b51601a836118d3565b9150611b5c82611b1b565b602082019050919050565b60006020820190508181036000830152611b8081611b44565b9050919050565b6000611b9282611463565b9150611b9d83611463565b9250827fffffffffffffffffffffffffffffffffffffffffffffffffffffffffffffffff03821115611bd257611bd1611aa3565b5b828201905092915050565b6000604082019050611bf2600083018561151a565b611bff602083018461151a565b9392505050565b6000611c1182611463565b9150611c1c83611463565b925082821015611c2f57611c2e611aa3565b5b828203905092915050565b6000602082019050611c4f600083018461150b565b9291505056fea2646970667358221220f3b189283ee9fe1cdd6f758156dbd2e3206ea3b5bf3f4191976d2bf367a3e76f64736f6c63430008090033",
  "linkReferences": {},
  "deployedLinkReferences": {}
}