{
  "_format": "hh-sol-artifact-1",
  "contractName": "Jury",
  "sourceName": "contracts/Jury.sol",
  "abi": [
    {
      "inputs": [
        {
          "internalType": "address[]",
          "name": "_initialJuryMembers",
          "type": "address[]"
        },
        {
          "internalType": "uint96",
          "name": "_jurySwap",
          "type": "uint96"
        },
        {
          "internalType": "uint8",
          "name": "_minJurySize",
          "type": "uint8"
        }
      ],
      "stateMutability": "nonpayable",
      "type": "constructor"
    },
    {
      "anonymous": false,
      "inputs": [
        {
          "indexed": true,
          "internalType": "uint256",
          "name": "disputeId",
          "type": "uint256"
        },
        {
          "indexed": false,
          "internalType": "uint256",
          "name": "newDeadline",
          "type": "uint256"
        }
      ],
      "name": "DisputeDeadlinePostponed",
      "type": "event"
    },
    {
      "anonymous": false,
      "inputs": [
        {
          "indexed": true,
          "internalType": "uint256",
          "name": "disputeId",
          "type": "uint256"
        },
        {
          "indexed": false,
          "internalType": "bool",
          "name": "verdict",
          "type": "bool"
        }
      ],
      "name": "DisputeResolved",
      "type": "event"
    },
    {
      "anonymous": false,
      "inputs": [
        {
          "indexed": true,
          "internalType": "uint256",
          "name": "juryId",
          "type": "uint256"
        },
        {
          "indexed": true,
          "internalType": "uint256[]",
          "name": "juryMembers",
          "type": "uint256[]"
        }
      ],
      "name": "JuryDutyAdded",
      "type": "event"
    },
    {
      "anonymous": false,
      "inputs": [
        {
          "indexed": true,
          "internalType": "uint256",
          "name": "juryId",
          "type": "uint256"
        }
      ],
      "name": "JuryDutyCompleted",
      "type": "event"
    },
    {
      "anonymous": false,
      "inputs": [
        {
          "indexed": true,
          "internalType": "uint256",
          "name": "juryId",
          "type": "uint256"
        },
        {
          "indexed": true,
          "internalType": "uint256",
          "name": "disputeId",
          "type": "uint256"
        },
        {
          "indexed": false,
          "internalType": "uint256",
          "name": "deadline",
          "type": "uint256"
        }
      ],
      "name": "NewDispute",
      "type": "event"
    },
    {
      "anonymous": false,
      "inputs": [
        {
          "indexed": true,
          "internalType": "address",
          "name": "proposer",
          "type": "address"
        },
        {
          "indexed": true,
          "internalType": "uint256",
          "name": "juryId",
          "type": "uint256"
        },
        {
          "indexed": true,
          "internalType": "uint256",
          "name": "proposedId",
          "type": "uint256"
        },
        {
          "indexed": false,
          "internalType": "uint256",
          "name": "deadline",
          "type": "uint256"
        }
      ],
      "name": "NewDisputeProposal",
      "type": "event"
    },
    {
      "anonymous": false,
      "inputs": [
        {
          "indexed": true,
          "internalType": "address",
          "name": "juryMember",
          "type": "address"
        },
        {
          "indexed": true,
          "internalType": "uint256",
          "name": "jurorId",
          "type": "uint256"
        }
      ],
      "name": "NewJuryPoolMember",
      "type": "event"
    },
    {
      "anonymous": false,
      "inputs": [
        {
          "indexed": false,
          "internalType": "uint256",
          "name": "juryId",
          "type": "uint256"
        },
        {
          "indexed": false,
          "internalType": "uint256[]",
          "name": "juryMembers",
          "type": "uint256[]"
        },
        {
          "indexed": false,
          "internalType": "uint256",
          "name": "expiration",
          "type": "uint256"
        }
      ],
      "name": "NewLiveJury",
      "type": "event"
    },
    {
      "anonymous": false,
      "inputs": [
        {
          "indexed": false,
          "internalType": "address",
          "name": "account",
          "type": "address"
        }
      ],
      "name": "Paused",
      "type": "event"
    },
    {
      "anonymous": false,
      "inputs": [
        {
          "indexed": true,
          "internalType": "uint256",
          "name": "proposedId",
          "type": "uint256"
        },
        {
          "indexed": true,
          "internalType": "uint256",
          "name": "jurorId",
          "type": "uint256"
        }
      ],
      "name": "ProposalPassed",
      "type": "event"
    },
    {
      "anonymous": false,
      "inputs": [
        {
          "indexed": false,
          "internalType": "address",
          "name": "account",
          "type": "address"
        }
      ],
      "name": "Unpaused",
      "type": "event"
    },
    {
      "anonymous": false,
      "inputs": [
        {
          "indexed": true,
          "internalType": "uint256",
          "name": "jurorId",
          "type": "uint256"
        },
        {
          "indexed": true,
          "internalType": "uint256",
          "name": "disputeId",
          "type": "uint256"
        },
        {
          "indexed": false,
          "internalType": "bool",
          "name": "decision",
          "type": "bool"
        }
      ],
      "name": "Voted",
      "type": "event"
    },
    {
      "inputs": [
        {
          "internalType": "uint256",
          "name": "_disputeProposalId",
          "type": "uint256"
        }
      ],
      "name": "approveDisputeProposal",
      "outputs": [],
      "stateMutability": "nonpayable",
      "type": "function"
    },
    {
      "inputs": [
        {
          "internalType": "uint256",
          "name": "",
          "type": "uint256"
        }
      ],
      "name": "disputeProposals",
      "outputs": [
        {
          "internalType": "address",
          "name": "proposer",
          "type": "address"
        },
        {
          "internalType": "uint256",
          "name": "juryId",
          "type": "uint256"
        },
        {
          "internalType": "bool",
          "name": "isApproved",
          "type": "bool"
        },
        {
          "internalType": "uint256",
          "name": "deadline",
          "type": "uint256"
        }
      ],
      "stateMutability": "view",
      "type": "function"
    },
    {
      "inputs": [
        {
          "internalType": "uint256",
          "name": "",
          "type": "uint256"
        }
      ],
      "name": "disputes",
      "outputs": [
        {
          "internalType": "uint256",
          "name": "juryId",
          "type": "uint256"
        },
        {
          "internalType": "uint256",
          "name": "deadline",
          "type": "uint256"
        },
        {
          "internalType": "bool",
          "name": "verdict",
          "type": "bool"
        },
        {
          "internalType": "bool",
          "name": "resolved",
          "type": "bool"
        }
      ],
      "stateMutability": "view",
      "type": "function"
    },
    {
      "inputs": [
        {
          "internalType": "uint256",
          "name": "_disputeId",
          "type": "uint256"
        }
      ],
      "name": "extendDisputeDeadline",
      "outputs": [],
      "stateMutability": "nonpayable",
      "type": "function"
    },
    {
      "inputs": [
        {
          "internalType": "uint256",
          "name": "",
          "type": "uint256"
        },
        {
          "internalType": "uint256",
          "name": "",
          "type": "uint256"
        }
      ],
      "name": "juries",
      "outputs": [
        {
          "internalType": "uint256",
          "name": "",
          "type": "uint256"
        }
      ],
      "stateMutability": "view",
      "type": "function"
    },
    {
      "inputs": [
        {
          "internalType": "uint256",
          "name": "",
          "type": "uint256"
        }
      ],
      "name": "juryExpiration",
      "outputs": [
        {
          "internalType": "uint256",
          "name": "",
          "type": "uint256"
        }
      ],
      "stateMutability": "view",
      "type": "function"
    },
    {
      "inputs": [
        {
          "internalType": "address",
          "name": "",
          "type": "address"
        }
      ],
      "name": "juryPoolMembers",
      "outputs": [
        {
          "internalType": "uint256",
          "name": "",
          "type": "uint256"
        }
      ],
      "stateMutability": "view",
      "type": "function"
    },
    {
      "inputs": [
        {
          "internalType": "uint256",
          "name": "_deadline",
          "type": "uint256"
        }
      ],
      "name": "newDisputeProposal",
      "outputs": [],
      "stateMutability": "nonpayable",
      "type": "function"
    },
    {
      "inputs": [],
      "name": "paused",
      "outputs": [
        {
          "internalType": "bool",
          "name": "",
          "type": "bool"
        }
      ],
      "stateMutability": "view",
      "type": "function"
    },
    {
      "inputs": [
        {
          "internalType": "uint256",
          "name": "_disputeId",
          "type": "uint256"
        },
        {
          "internalType": "bool",
          "name": "_vote",
          "type": "bool"
        }
      ],
      "name": "vote",
      "outputs": [],
      "stateMutability": "nonpayable",
      "type": "function"
    }
  ],
  "bytecode": "0x60806040523480156200001157600080fd5b5060405162002bf838038062002bf8833981810160405281019062000037919062000817565b60008060006101000a81548160ff02191690831515021790555060018160ff16116200009a576040517f08c379a0000000000000000000000000000000000000000000000000000000008152600401620000919062000919565b60405180910390fd5b6000600282620000ab91906200096a565b60ff1611620000f1576040517f08c379a0000000000000000000000000000000000000000000000000000000008152600401620000e89062000a18565b60405180910390fd5b60028162000100919062000a69565b60ff168351101562000149576040517f08c379a0000000000000000000000000000000000000000000000000000000008152600401620001409062000b21565b60405180910390fd5b60005b835181101562000329576000600a600086848151811062000172576200017162000b43565b5b602002602001015173ffffffffffffffffffffffffffffffffffffffff1673ffffffffffffffffffffffffffffffffffffffff1681526020019081526020016000205414620001f8576040517f08c379a0000000000000000000000000000000000000000000000000000000008152600401620001ef9062000be8565b60405180910390fd5b60018162000207919062000c14565b600a600086848151811062000221576200022062000b43565b5b602002602001015173ffffffffffffffffffffffffffffffffffffffff1673ffffffffffffffffffffffffffffffffffffffff168152602001908152602001600020819055506001600960006001846200027c919062000c14565b815260200190815260200160002060000160006101000a81548160ff021916908315150217905550600181620002b3919062000c14565b848281518110620002c957620002c862000b43565b5b602002602001015173ffffffffffffffffffffffffffffffffffffffff167f6cf89f4a284d6bcbbba4e04a53e34c6a8ea0c335352b68732736fdafce388dc760405160405180910390a38080620003209062000c71565b9150506200014c565b50600160048190555082516003819055508060ff16600281905550816bffffffffffffffffffffffff166001819055506200039a42446001604051602001620003759392919062000ce4565b6040516020818303038152906040528051906020012060001c620003a360201b60201c565b50505062000f0a565b60008060035490506000600454905060005b6002548110156200051f5760006001848787604051602001620003da92919062000d27565b6040516020818303038152906040528051906020012060001c620003ff919062000d57565b6200040b919062000c14565b90506000600960008381526020019081526020016000206040518060800160405290816000820160009054906101000a900460ff1615151515815260200160018201548152602001600282015481526020016003820154815250509050806000015180156200049b57506000816020015114806200049a5750836001826020015162000498919062000c14565b105b5b156200050757836009600084815260200190815260200160002060010181905550600b60008581526020019081526020016000208290806001815401808255809150506001900390600052602060002001600090919091909150558280620005039062000c71565b9350505b8580620005149062000c71565b9650505050620003b5565b5060006001544262000532919062000c14565b905080600c6000848152602001908152602001600020819055507fb3c30fe9cd13f86c80318bef190e0071e5fecf6d2465f4ebbe0f923899af700c82600b600085815260200190815260200160002083604051620005939392919062000ec6565b60405180910390a15050505050565b6000604051905090565b600080fd5b600080fd5b600080fd5b6000601f19601f8301169050919050565b7f4e487b7100000000000000000000000000000000000000000000000000000000600052604160045260246000fd5b6200060682620005bb565b810181811067ffffffffffffffff82111715620006285762000627620005cc565b5b80604052505050565b60006200063d620005a2565b90506200064b8282620005fb565b919050565b600067ffffffffffffffff8211156200066e576200066d620005cc565b5b602082029050602081019050919050565b600080fd5b600073ffffffffffffffffffffffffffffffffffffffff82169050919050565b6000620006b18262000684565b9050919050565b620006c381620006a4565b8114620006cf57600080fd5b50565b600081519050620006e381620006b8565b92915050565b600062000700620006fa8462000650565b62000631565b905080838252602082019050602084028301858111156200072657620007256200067f565b5b835b818110156200075357806200073e8882620006d2565b84526020840193505060208101905062000728565b5050509392505050565b600082601f830112620007755762000774620005b6565b5b815162000787848260208601620006e9565b91505092915050565b60006bffffffffffffffffffffffff82169050919050565b620007b38162000790565b8114620007bf57600080fd5b50565b600081519050620007d381620007a8565b92915050565b600060ff82169050919050565b620007f181620007d9565b8114620007fd57600080fd5b50565b6000815190506200081181620007e6565b92915050565b600080600060608486031215620008335762000832620005ac565b5b600084015167ffffffffffffffff811115620008545762000853620005b1565b5b62000862868287016200075d565b93505060206200087586828701620007c2565b9250506040620008888682870162000800565b9150509250925092565b600082825260208201905092915050565b7f4a7572792e636f6e7374727563746f723a206a7572792073697a65206174206c60008201527f6561737420330000000000000000000000000000000000000000000000000000602082015250565b60006200090160268362000892565b91506200090e82620008a3565b604082019050919050565b600060208201905081810360008301526200093481620008f2565b9050919050565b7f4e487b7100000000000000000000000000000000000000000000000000000000600052601260045260246000fd5b60006200097782620007d9565b91506200098483620007d9565b9250826200099757620009966200093b565b5b828206905092915050565b7f4a7572792e636f6e7374727563746f723a206a7572792073697a65206d75737460008201527f206265206f646400000000000000000000000000000000000000000000000000602082015250565b600062000a0060278362000892565b915062000a0d82620009a2565b604082019050919050565b6000602082019050818103600083015262000a3381620009f1565b9050919050565b7f4e487b7100000000000000000000000000000000000000000000000000000000600052601160045260246000fd5b600062000a7682620007d9565b915062000a8383620007d9565b92508160ff048311821515161562000aa05762000a9f62000a3a565b5b828202905092915050565b7f4a7572792e636f6e7374727563746f723a206e6f7420656e6f756768206a757260008201527f79206d656d626572730000000000000000000000000000000000000000000000602082015250565b600062000b0960298362000892565b915062000b168262000aab565b604082019050919050565b6000602082019050818103600083015262000b3c8162000afa565b9050919050565b7f4e487b7100000000000000000000000000000000000000000000000000000000600052603260045260246000fd5b7f4a7572792e636f6e7374727563746f723a206475706c6963617465204a75727960008201527f206d656d62657200000000000000000000000000000000000000000000000000602082015250565b600062000bd060278362000892565b915062000bdd8262000b72565b604082019050919050565b6000602082019050818103600083015262000c038162000bc1565b9050919050565b6000819050919050565b600062000c218262000c0a565b915062000c2e8362000c0a565b9250827fffffffffffffffffffffffffffffffffffffffffffffffffffffffffffffffff0382111562000c665762000c6562000a3a565b5b828201905092915050565b600062000c7e8262000c0a565b91507fffffffffffffffffffffffffffffffffffffffffffffffffffffffffffffffff82141562000cb45762000cb362000a3a565b5b600182019050919050565b6000819050919050565b62000cde62000cd88262000c0a565b62000cbf565b82525050565b600062000cf2828662000cc9565b60208201915062000d04828562000cc9565b60208201915062000d16828462000cc9565b602082019150819050949350505050565b600062000d35828562000cc9565b60208201915062000d47828462000cc9565b6020820191508190509392505050565b600062000d648262000c0a565b915062000d718362000c0a565b92508262000d845762000d836200093b565b5b828206905092915050565b62000d9a8162000c0a565b82525050565b600081549050919050565b600082825260208201905092915050565b60008190508160005260206000209050919050565b62000ddc8162000c0a565b82525050565b600062000df0838362000dd1565b60208301905092915050565b60008160001c9050919050565b6000819050919050565b600062000e2a62000e248362000dfc565b62000e09565b9050919050565b600062000e3f825462000e13565b9050919050565b6000600182019050919050565b600062000e608262000da0565b62000e6c818562000dab565b935062000e798362000dbc565b8060005b8381101562000eb95762000e918262000e31565b62000e9d888262000de2565b975062000eaa8362000e46565b92505060018101905062000e7d565b5085935050505092915050565b600060608201905062000edd600083018662000d8f565b818103602083015262000ef1818562000e53565b905062000f02604083018462000d8f565b949350505050565b611cde8062000f1a6000396000f3fe608060405234801561001057600080fd5b506004361061009e5760003560e01c8063a94c8f3d11610066578063a94c8f3d14610170578063c9d27afe146101a3578063ccd0429d146101bf578063d652ef1a146101db578063e922de501461020b5761009e565b806301144f44146100a3578063564a565d146100d35780635c975abb1461010657806364ca6b1414610124578063a414abb414610140575b600080fd5b6100bd60048036038101906100b891906111c9565b610227565b6040516100ca9190611218565b60405180910390f35b6100ed60048036038101906100e89190611233565b610258565b6040516100fd949392919061127b565b60405180910390f35b61010e6102a2565b60405161011b91906112c0565b60405180910390f35b61013e60048036038101906101399190611233565b6102b8565b005b61015a60048036038101906101559190611233565b61038d565b6040516101679190611218565b60405180910390f35b61018a60048036038101906101859190611233565b6103a5565b60405161019a949392919061131c565b60405180910390f35b6101bd60048036038101906101b8919061138d565b610402565b005b6101d960048036038101906101d49190611233565b610622565b005b6101f560048036038101906101f091906113f9565b6107fb565b6040516102029190611218565b60405180910390f35b61022560048036038101906102209190611233565b610813565b005b600b602052816000526040600020818154811061024357600080fd5b90600052602060002001600091509150505481565b60076020528060005260406000206000915090508060000154908060010154908060020160009054906101000a900460ff16908060020160019054906101000a900460ff16905084565b60008060009054906101000a900460ff16905090565b6102c0610aed565b6102df6007600083815260200190815260200160002060000154610b99565b61031e576040517f08c379a0000000000000000000000000000000000000000000000000000000008152600401610315906114a9565b60405180910390fd5b60006201518060076000848152602001908152602001600020600101600082825461034991906114f8565b9250508190559050817f4da9b675e578acf05cb72712fc12154fc303610a9bef918062e80e7b25aa045f826040516103819190611218565b60405180910390a25050565b600c6020528060005260406000206000915090505481565b60086020528060005260406000206000915090508060000160009054906101000a900473ffffffffffffffffffffffffffffffffffffffff16908060010154908060020160009054906101000a900460ff16908060030154905084565b60006007600084815260200190815260200160002060405180608001604052908160008201548152602001600182015481526020016002820160009054906101000a900460ff161515151581526020016002820160019054906101000a900460ff16151515158152505090508060600151156104b3576040517f08c379a00000000000000000000000000000000000000000000000000000000081526004016104aa906115c0565b60405180910390fd5b6104c08160000151610b99565b6104ff576040517f08c379a00000000000000000000000000000000000000000000000000000000081526004016104f69061162c565b60405180910390fd5b6000600a60003373ffffffffffffffffffffffffffffffffffffffff1673ffffffffffffffffffffffffffffffffffffffff168152602001908152602001600020549050816020015142106105615761055c848360000151610c55565b61061c565b6040518060400160405280841515815260200160011515815250600d6000868152602001908152602001600020600083815260200190815260200160002060008201518160000160006101000a81548160ff02191690831515021790555060208201518160000160016101000a81548160ff02191690831515021790555090505083817f67b60bc862e9c013a238015361df4bb95a4abfe78309ba4a4d7a04d2fe29e4328560405161061391906112c0565b60405180910390a35b50505050565b61062a610aed565b6000600454905061063a81610b99565b1561067a576040517f08c379a0000000000000000000000000000000000000000000000000000000008152600401610671906116be565b60405180910390fd5b4282116106bc576040517f08c379a00000000000000000000000000000000000000000000000000000000081526004016106b390611750565b60405180910390fd5b60006006549050600660008154809291906106d690611770565b919050555060405180608001604052803373ffffffffffffffffffffffffffffffffffffffff168152602001838152602001600015158152602001848152506008600083815260200190815260200160002060008201518160000160006101000a81548173ffffffffffffffffffffffffffffffffffffffff021916908373ffffffffffffffffffffffffffffffffffffffff1602179055506020820151816001015560408201518160020160006101000a81548160ff0219169083151502179055506060820151816003015590505080823373ffffffffffffffffffffffffffffffffffffffff167f75e358a93c74512dfb976defba1141797850778e28171591715e8cfd4107980f866040516107ee9190611218565b60405180910390a4505050565b600a6020528060005260406000206000915090505481565b6000600a60003373ffffffffffffffffffffffffffffffffffffffff1673ffffffffffffffffffffffffffffffffffffffff1681526020019081526020016000205411610895576040517f08c379a000000000000000000000000000000000000000000000000000000000815260040161088c90611805565b60405180910390fd5b61089d610aed565b6000600860008381526020019081526020016000206040518060800160405290816000820160009054906101000a900473ffffffffffffffffffffffffffffffffffffffff1673ffffffffffffffffffffffffffffffffffffffff1673ffffffffffffffffffffffffffffffffffffffff168152602001600182015481526020016002820160009054906101000a900460ff161515151581526020016003820154815250509050806040015115610989576040517f08c379a000000000000000000000000000000000000000000000000000000000815260040161098090611897565b60405180910390fd5b806000015173ffffffffffffffffffffffffffffffffffffffff163373ffffffffffffffffffffffffffffffffffffffff1614156109fc576040517f08c379a00000000000000000000000000000000000000000000000000000000081526004016109f390611929565b60405180910390fd5b80606001514210610a42576040517f08c379a0000000000000000000000000000000000000000000000000000000008152600401610a39906119bb565b60405180910390fd5b60016008600084815260200190815260200160002060020160006101000a81548160ff02191690831515021790555060096000600a60003373ffffffffffffffffffffffffffffffffffffffff1673ffffffffffffffffffffffffffffffffffffffff1681526020019081526020016000205481526020019081526020016000206002016000815480929190610ad790611770565b9190505550610ae98160600151610eaf565b5050565b60006004549050600c6000828152602001908152602001600020544210610b9657807fc796ad74732d2a065b3161c4bf85138cb8d4b0561d078cc02aa237d2e29141db60405160405180910390a260046000815480929190610b4e90611770565b9190505550610b954244600184610b6591906114f8565b604051602001610b77939291906119fc565b6040516020818303038152906040528051906020012060001c610fa4565b5b50565b60008060096000600a60003373ffffffffffffffffffffffffffffffffffffffff1673ffffffffffffffffffffffffffffffffffffffff1681526020019081526020016000205481526020019081526020016000206040518060800160405290816000820160009054906101000a900460ff16151515158152602001600182015481526020016002820154815260200160038201548152505090508281602001511415610c4a576001915050610c50565b60009150505b919050565b6000600b6000838152602001908152602001600020805480602002602001604051908101604052809291908181526020018280548015610cb457602002820191906000526020600020905b815481526020019060010190808311610ca0575b50505050509050600080600090505b82518160ff161015610dd6576000600d60008781526020019081526020016000206000858460ff1681518110610cfc57610cfb611a39565b5b602002602001015181526020019081526020016000206040518060400160405290816000820160009054906101000a900460ff161515151581526020016000820160019054906101000a900460ff1615151515815250509050806020015115610dc257806000015115610d78578280610d7490611a75565b9350505b60096000858460ff1681518110610d9257610d91611a39565b5b602002602001015181526020019081526020016000206003016000815480929190610dbc90611770565b91905055505b508080610dce90611a75565b915050610cc3565b508060ff1660028054610de99190611ace565b1015610e1f5760016007600086815260200190815260200160002060020160006101000a81548160ff0219169083151502179055505b60016007600086815260200190815260200160002060020160016101000a81548160ff021916908315150217905550837f5a87909bff68caaaaf0b3fd9c74eeccc928832f879315e5c6fb7a73612f26c0c6007600087815260200190815260200160002060020160009054906101000a900460ff16604051610ea191906112c0565b60405180910390a250505050565b600060055490506000600454905060056000815480929190610ed090611770565b919050555060405180608001604052808281526020018481526020016000151581526020016000151581525060076000848152602001908152602001600020600082015181600001556020820151816001015560408201518160020160006101000a81548160ff02191690831515021790555060608201518160020160016101000a81548160ff02191690831515021790555090505080827fd739c8b7fe870f381c5442416ff79d9f44c3e1d54a16ce39fc0fbe8206c4a6e885604051610f979190611218565b60405180910390a3505050565b60008060035490506000600454905060005b60025481101561110f5760006001848787604051602001610fd8929190611aff565b6040516020818303038152906040528051906020012060001c610ffb9190611b2b565b61100591906114f8565b90506000600960008381526020019081526020016000206040518060800160405290816000820160009054906101000a900460ff16151515158152602001600182015481526020016002820154815260200160038201548152505090508060000151801561109157506000816020015114806110905750836001826020015161108e91906114f8565b105b5b156110fa57836009600084815260200190815260200160002060010181905550600b600085815260200190815260200160002082908060018154018082558091505060019003906000526020600020016000909190919091505582806110f690611770565b9350505b858061110590611770565b9650505050610fb6565b5060006001544261112091906114f8565b905080600c6000848152602001908152602001600020819055507fb3c30fe9cd13f86c80318bef190e0071e5fecf6d2465f4ebbe0f923899af700c82600b60008581526020019081526020016000208360405161117f93929190611c6a565b60405180910390a15050505050565b600080fd5b6000819050919050565b6111a681611193565b81146111b157600080fd5b50565b6000813590506111c38161119d565b92915050565b600080604083850312156111e0576111df61118e565b5b60006111ee858286016111b4565b92505060206111ff858286016111b4565b9150509250929050565b61121281611193565b82525050565b600060208201905061122d6000830184611209565b92915050565b6000602082840312156112495761124861118e565b5b6000611257848285016111b4565b91505092915050565b60008115159050919050565b61127581611260565b82525050565b60006080820190506112906000830187611209565b61129d6020830186611209565b6112aa604083018561126c565b6112b7606083018461126c565b95945050505050565b60006020820190506112d5600083018461126c565b92915050565b600073ffffffffffffffffffffffffffffffffffffffff82169050919050565b6000611306826112db565b9050919050565b611316816112fb565b82525050565b6000608082019050611331600083018761130d565b61133e6020830186611209565b61134b604083018561126c565b6113586060830184611209565b95945050505050565b61136a81611260565b811461137557600080fd5b50565b60008135905061138781611361565b92915050565b600080604083850312156113a4576113a361118e565b5b60006113b2858286016111b4565b92505060206113c385828601611378565b9150509250929050565b6113d6816112fb565b81146113e157600080fd5b50565b6000813590506113f3816113cd565b92915050565b60006020828403121561140f5761140e61118e565b5b600061141d848285016113e4565b91505092915050565b600082825260208201905092915050565b7f4a7572792e657874656e6444697370757465446561646c696e653a206e6f742060008201527f696e206a75727900000000000000000000000000000000000000000000000000602082015250565b6000611493602783611426565b915061149e82611437565b604082019050919050565b600060208201905081810360008301526114c281611486565b9050919050565b7f4e487b7100000000000000000000000000000000000000000000000000000000600052601160045260246000fd5b600061150382611193565b915061150e83611193565b9250827fffffffffffffffffffffffffffffffffffffffffffffffffffffffffffffffff03821115611543576115426114c9565b5b828201905092915050565b7f4a7572792e766f74653a206469737075746520616c7265616479207265736f6c60008201527f7665640000000000000000000000000000000000000000000000000000000000602082015250565b60006115aa602383611426565b91506115b58261154e565b604082019050919050565b600060208201905081810360008301526115d98161159d565b9050919050565b7f4a7572792e766f74653a206d656d626572206e6f7420696e206a757279000000600082015250565b6000611616601d83611426565b9150611621826115e0565b602082019050919050565b6000602082019050818103600083015261164581611609565b9050919050565b7f4a7572792e6e65774469737075746550726f706f73616c3a206a75726f72206160008201527f6c726561647920696e206a757279000000000000000000000000000000000000602082015250565b60006116a8602e83611426565b91506116b38261164c565b604082019050919050565b600060208201905081810360008301526116d78161169b565b9050919050565b7f4a7572792e6e65774469737075746550726f706f73616c3a20646561646c696e60008201527f652068617320616c726561647920706173740000000000000000000000000000602082015250565b600061173a603283611426565b9150611745826116de565b604082019050919050565b600060208201905081810360008301526117698161172d565b9050919050565b600061177b82611193565b91507fffffffffffffffffffffffffffffffffffffffffffffffffffffffffffffffff8214156117ae576117ad6114c9565b5b600182019050919050565b7f63616c6c6572206d757374206265206a75727920706f6f6c206d656d62657200600082015250565b60006117ef601f83611426565b91506117fa826117b9565b602082019050919050565b6000602082019050818103600083015261181e816117e2565b9050919050565b7f4a7572792e617070726f76654469737075746550726f706f73616c3a20616c7260008201527f6561647920617070726f76656400000000000000000000000000000000000000602082015250565b6000611881602d83611426565b915061188c82611825565b604082019050919050565b600060208201905081810360008301526118b081611874565b9050919050565b7f4a7572792e617070726f7665644469737075746550726f706f73616c3a20707260008201527f6f706f7365722063616e206e6f7420617070726f766520646973707574650000602082015250565b6000611913603e83611426565b915061191e826118b7565b604082019050919050565b6000602082019050818103600083015261194281611906565b9050919050565b7f4a7572792e617070726f76654469737075746550726f706f73616c3a2064656160008201527f646c696e65206861732070617374000000000000000000000000000000000000602082015250565b60006119a5602e83611426565b91506119b082611949565b604082019050919050565b600060208201905081810360008301526119d481611998565b9050919050565b6000819050919050565b6119f66119f182611193565b6119db565b82525050565b6000611a0882866119e5565b602082019150611a1882856119e5565b602082019150611a2882846119e5565b602082019150819050949350505050565b7f4e487b7100000000000000000000000000000000000000000000000000000000600052603260045260246000fd5b600060ff82169050919050565b6000611a8082611a68565b915060ff821415611a9457611a936114c9565b5b600182019050919050565b7f4e487b7100000000000000000000000000000000000000000000000000000000600052601260045260246000fd5b6000611ad982611193565b9150611ae483611193565b925082611af457611af3611a9f565b5b828204905092915050565b6000611b0b82856119e5565b602082019150611b1b82846119e5565b6020820191508190509392505050565b6000611b3682611193565b9150611b4183611193565b925082611b5157611b50611a9f565b5b828206905092915050565b600081549050919050565b600082825260208201905092915050565b60008190508160005260206000209050919050565b611b9681611193565b82525050565b6000611ba88383611b8d565b60208301905092915050565b60008160001c9050919050565b6000819050919050565b6000611bde611bd983611bb4565b611bc1565b9050919050565b6000611bf18254611bcb565b9050919050565b6000600182019050919050565b6000611c1082611b5c565b611c1a8185611b67565b9350611c2583611b78565b8060005b83811015611c5d57611c3a82611be5565b611c448882611b9c565b9750611c4f83611bf8565b925050600181019050611c29565b5085935050505092915050565b6000606082019050611c7f6000830186611209565b8181036020830152611c918185611c05565b9050611ca06040830184611209565b94935050505056fea26469706673582212204578910142475bb7aa17c39a02e7bf37feb6b9aa64843170f11fcf928b859bfb64736f6c63430008090033",
  "linkReferences": {},
  "deployedLinkReferences": {}
}