{
  "_format": "hh-sol-artifact-1",
  "contractName": "SoulFund",
  "sourceName": "contracts/SoulFund.sol",
  "abi": [
    {
      "inputs": [
        {
          "internalType": "address",
          "name": "_beneficiary",
          "type": "address"
        },
        {
          "internalType": "uint256",
          "name": "_vestingDate",
          "type": "uint256"
        },
        {
          "internalType": "address",
          "name": "_data",
          "type": "address"
        },
        {
          "internalType": "address",
          "name": "gateway_",
          "type": "address"
        },
        {
          "internalType": "address",
          "name": "gasReceiver_",
          "type": "address"
        }
      ],
      "stateMutability": "payable",
      "type": "constructor"
    },
    {
      "inputs": [],
      "name": "NotApprovedByGateway",
      "type": "error"
    },
    {
      "anonymous": false,
      "inputs": [
        {
          "indexed": true,
          "internalType": "address",
          "name": "owner",
          "type": "address"
        },
        {
          "indexed": true,
          "internalType": "address",
          "name": "approved",
          "type": "address"
        },
        {
          "indexed": true,
          "internalType": "uint256",
          "name": "tokenId",
          "type": "uint256"
        }
      ],
      "name": "Approval",
      "type": "event"
    },
    {
      "anonymous": false,
      "inputs": [
        {
          "indexed": true,
          "internalType": "address",
          "name": "owner",
          "type": "address"
        },
        {
          "indexed": true,
          "internalType": "address",
          "name": "operator",
          "type": "address"
        },
        {
          "indexed": false,
          "internalType": "bool",
          "name": "approved",
          "type": "bool"
        }
      ],
      "name": "ApprovalForAll",
      "type": "event"
    },
    {
      "anonymous": false,
      "inputs": [
        {
          "indexed": false,
          "internalType": "uint256",
          "name": "soulFundId",
          "type": "uint256"
        },
        {
          "indexed": false,
          "internalType": "address",
          "name": "currency",
          "type": "address"
        },
        {
          "indexed": false,
          "internalType": "uint256",
          "name": "amount",
          "type": "uint256"
        },
        {
          "indexed": false,
          "internalType": "address",
          "name": "beneficary",
          "type": "address"
        }
      ],
      "name": "FundDeposited",
      "type": "event"
    },
    {
      "anonymous": false,
      "inputs": [
        {
          "indexed": false,
          "internalType": "address",
          "name": "newNftAddress",
          "type": "address"
        }
      ],
      "name": "NewWhitelistedNFT",
      "type": "event"
    },
    {
      "anonymous": false,
      "inputs": [
        {
          "indexed": false,
          "internalType": "address",
          "name": "account",
          "type": "address"
        }
      ],
      "name": "Paused",
      "type": "event"
    },
    {
      "anonymous": false,
      "inputs": [
        {
          "indexed": true,
          "internalType": "bytes32",
          "name": "role",
          "type": "bytes32"
        },
        {
          "indexed": true,
          "internalType": "bytes32",
          "name": "previousAdminRole",
          "type": "bytes32"
        },
        {
          "indexed": true,
          "internalType": "bytes32",
          "name": "newAdminRole",
          "type": "bytes32"
        }
      ],
      "name": "RoleAdminChanged",
      "type": "event"
    },
    {
      "anonymous": false,
      "inputs": [
        {
          "indexed": true,
          "internalType": "bytes32",
          "name": "role",
          "type": "bytes32"
        },
        {
          "indexed": true,
          "internalType": "address",
          "name": "account",
          "type": "address"
        },
        {
          "indexed": true,
          "internalType": "address",
          "name": "sender",
          "type": "address"
        }
      ],
      "name": "RoleGranted",
      "type": "event"
    },
    {
      "anonymous": false,
      "inputs": [
        {
          "indexed": true,
          "internalType": "bytes32",
          "name": "role",
          "type": "bytes32"
        },
        {
          "indexed": true,
          "internalType": "address",
          "name": "account",
          "type": "address"
        },
        {
          "indexed": true,
          "internalType": "address",
          "name": "sender",
          "type": "address"
        }
      ],
      "name": "RoleRevoked",
      "type": "event"
    },
    {
      "anonymous": false,
      "inputs": [
        {
          "indexed": true,
          "internalType": "address",
          "name": "from",
          "type": "address"
        },
        {
          "indexed": true,
          "internalType": "address",
          "name": "to",
          "type": "address"
        },
        {
          "indexed": true,
          "internalType": "uint256",
          "name": "tokenId",
          "type": "uint256"
        }
      ],
      "name": "Transfer",
      "type": "event"
    },
    {
      "anonymous": false,
      "inputs": [
        {
          "indexed": false,
          "internalType": "address",
          "name": "account",
          "type": "address"
        }
      ],
      "name": "Unpaused",
      "type": "event"
    },
    {
      "anonymous": false,
      "inputs": [
        {
          "indexed": false,
          "internalType": "uint256",
          "name": "soulFundId",
          "type": "uint256"
        },
        {
          "indexed": false,
          "internalType": "uint256",
          "name": "vestedAmount",
          "type": "uint256"
        }
      ],
      "name": "VestedFundClaimed",
      "type": "event"
    },
    {
      "anonymous": false,
      "inputs": [
        {
          "indexed": false,
          "internalType": "uint256",
          "name": "tokenId",
          "type": "uint256"
        },
        {
          "indexed": false,
          "internalType": "uint256",
          "name": "rewardAmount",
          "type": "uint256"
        }
      ],
      "name": "VestedFundsClaimedEarly",
      "type": "event"
    },
    {
      "inputs": [],
      "name": "BENEFICIARY_ROLE",
      "outputs": [
        {
          "internalType": "bytes32",
          "name": "",
          "type": "bytes32"
        }
      ],
      "stateMutability": "view",
      "type": "function"
    },
    {
      "inputs": [],
      "name": "DEFAULT_ADMIN_ROLE",
      "outputs": [
        {
          "internalType": "bytes32",
          "name": "",
          "type": "bytes32"
        }
      ],
      "stateMutability": "view",
      "type": "function"
    },
    {
      "inputs": [],
      "name": "FIVE_PERCENT",
      "outputs": [
        {
          "internalType": "uint256",
          "name": "",
          "type": "uint256"
        }
      ],
      "stateMutability": "view",
      "type": "function"
    },
    {
      "inputs": [],
      "name": "GRANTER_ROLE",
      "outputs": [
        {
          "internalType": "bytes32",
          "name": "",
          "type": "bytes32"
        }
      ],
      "stateMutability": "view",
      "type": "function"
    },
    {
      "inputs": [],
      "name": "PAUSER_ROLE",
      "outputs": [
        {
          "internalType": "bytes32",
          "name": "",
          "type": "bytes32"
        }
      ],
      "stateMutability": "view",
      "type": "function"
    },
    {
      "inputs": [
        {
          "internalType": "address",
          "name": "to",
          "type": "address"
        },
        {
          "internalType": "uint256",
          "name": "tokenId",
          "type": "uint256"
        }
      ],
      "name": "approve",
      "outputs": [],
      "stateMutability": "nonpayable",
      "type": "function"
    },
    {
      "inputs": [
        {
          "internalType": "address",
          "name": "owner",
          "type": "address"
        }
      ],
      "name": "balanceOf",
      "outputs": [
        {
          "internalType": "uint256",
          "name": "",
          "type": "uint256"
        }
      ],
      "stateMutability": "view",
      "type": "function"
    },
    {
      "inputs": [
        {
          "internalType": "uint256",
          "name": "",
          "type": "uint256"
        },
        {
          "internalType": "uint256",
          "name": "",
          "type": "uint256"
        }
      ],
      "name": "balances",
      "outputs": [
        {
          "internalType": "address",
          "name": "token",
          "type": "address"
        },
        {
          "internalType": "uint256",
          "name": "balance",
          "type": "uint256"
        }
      ],
      "stateMutability": "view",
      "type": "function"
    },
    {
      "inputs": [
        {
          "internalType": "uint256",
          "name": "_tokenId",
          "type": "uint256"
        }
      ],
      "name": "balancesExt",
      "outputs": [
        {
          "components": [
            {
              "internalType": "address",
              "name": "token",
              "type": "address"
            },
            {
              "internalType": "uint256",
              "name": "balance",
              "type": "uint256"
            }
          ],
          "internalType": "struct ISoulFund.Balances[5]",
          "name": "",
          "type": "tuple[5]"
        }
      ],
      "stateMutability": "view",
      "type": "function"
    },
    {
      "inputs": [
        {
          "internalType": "uint256",
          "name": "_soulFundId",
          "type": "uint256"
        }
      ],
      "name": "claimAllVestedFunds",
      "outputs": [],
      "stateMutability": "payable",
      "type": "function"
    },
    {
      "inputs": [
        {
          "internalType": "uint256",
          "name": "",
          "type": "uint256"
        },
        {
          "internalType": "address",
          "name": "",
          "type": "address"
        }
      ],
      "name": "currencyIndices",
      "outputs": [
        {
          "internalType": "uint256",
          "name": "",
          "type": "uint256"
        }
      ],
      "stateMutability": "view",
      "type": "function"
    },
    {
      "inputs": [
        {
          "internalType": "uint256",
          "name": "soulFundId",
          "type": "uint256"
        },
        {
          "internalType": "address",
          "name": "currency",
          "type": "address"
        },
        {
          "internalType": "uint256",
          "name": "amount",
          "type": "uint256"
        }
      ],
      "name": "depositFund",
      "outputs": [],
      "stateMutability": "payable",
      "type": "function"
    },
    {
      "inputs": [
        {
          "internalType": "bytes32",
          "name": "commandId",
          "type": "bytes32"
        },
        {
          "internalType": "string",
          "name": "sourceChain",
          "type": "string"
        },
        {
          "internalType": "string",
          "name": "sourceAddress",
          "type": "string"
        },
        {
          "internalType": "bytes",
          "name": "payload",
          "type": "bytes"
        }
      ],
      "name": "execute",
      "outputs": [],
      "stateMutability": "nonpayable",
      "type": "function"
    },
    {
      "inputs": [
        {
          "internalType": "bytes32",
          "name": "commandId",
          "type": "bytes32"
        },
        {
          "internalType": "string",
          "name": "sourceChain",
          "type": "string"
        },
        {
          "internalType": "string",
          "name": "sourceAddress",
          "type": "string"
        },
        {
          "internalType": "bytes",
          "name": "payload",
          "type": "bytes"
        },
        {
          "internalType": "string",
          "name": "tokenSymbol",
          "type": "string"
        },
        {
          "internalType": "uint256",
          "name": "amount",
          "type": "uint256"
        }
      ],
      "name": "executeWithToken",
      "outputs": [],
      "stateMutability": "nonpayable",
      "type": "function"
    },
    {
      "inputs": [],
      "name": "gasReceiver",
      "outputs": [
        {
          "internalType": "contract IAxelarGasService",
          "name": "",
          "type": "address"
        }
      ],
      "stateMutability": "view",
      "type": "function"
    },
    {
      "inputs": [],
      "name": "gateway",
      "outputs": [
        {
          "internalType": "contract IAxelarGateway",
          "name": "",
          "type": "address"
        }
      ],
      "stateMutability": "view",
      "type": "function"
    },
    {
      "inputs": [
        {
          "internalType": "uint256",
          "name": "tokenId",
          "type": "uint256"
        }
      ],
      "name": "getApproved",
      "outputs": [
        {
          "internalType": "address",
          "name": "",
          "type": "address"
        }
      ],
      "stateMutability": "view",
      "type": "function"
    },
    {
      "inputs": [
        {
          "internalType": "bytes32",
          "name": "role",
          "type": "bytes32"
        }
      ],
      "name": "getRoleAdmin",
      "outputs": [
        {
          "internalType": "bytes32",
          "name": "",
          "type": "bytes32"
        }
      ],
      "stateMutability": "view",
      "type": "function"
    },
    {
      "inputs": [
        {
          "internalType": "bytes32",
          "name": "role",
          "type": "bytes32"
        },
        {
          "internalType": "address",
          "name": "account",
          "type": "address"
        }
      ],
      "name": "grantRole",
      "outputs": [],
      "stateMutability": "nonpayable",
      "type": "function"
    },
    {
      "inputs": [
        {
          "internalType": "bytes32",
          "name": "role",
          "type": "bytes32"
        },
        {
          "internalType": "address",
          "name": "account",
          "type": "address"
        }
      ],
      "name": "hasRole",
      "outputs": [
        {
          "internalType": "bool",
          "name": "",
          "type": "bool"
        }
      ],
      "stateMutability": "view",
      "type": "function"
    },
    {
      "inputs": [
        {
          "internalType": "address",
          "name": "owner",
          "type": "address"
        },
        {
          "internalType": "address",
          "name": "operator",
          "type": "address"
        }
      ],
      "name": "isApprovedForAll",
      "outputs": [
        {
          "internalType": "bool",
          "name": "",
          "type": "bool"
        }
      ],
      "stateMutability": "view",
      "type": "function"
    },
    {
      "inputs": [],
      "name": "name",
      "outputs": [
        {
          "internalType": "string",
          "name": "",
          "type": "string"
        }
      ],
      "stateMutability": "view",
      "type": "function"
    },
    {
      "inputs": [
        {
          "internalType": "uint256",
          "name": "",
          "type": "uint256"
        },
        {
          "internalType": "address",
          "name": "",
          "type": "address"
        }
      ],
      "name": "nftIsSpent",
      "outputs": [
        {
          "internalType": "bool",
          "name": "",
          "type": "bool"
        }
      ],
      "stateMutability": "view",
      "type": "function"
    },
    {
      "inputs": [
        {
          "internalType": "uint256",
          "name": "",
          "type": "uint256"
        }
      ],
      "name": "numCurrencies",
      "outputs": [
        {
          "internalType": "uint256",
          "name": "",
          "type": "uint256"
        }
      ],
      "stateMutability": "view",
      "type": "function"
    },
    {
      "inputs": [
        {
          "internalType": "uint256",
          "name": "tokenId",
          "type": "uint256"
        }
      ],
      "name": "ownerOf",
      "outputs": [
        {
          "internalType": "address",
          "name": "",
          "type": "address"
        }
      ],
      "stateMutability": "view",
      "type": "function"
    },
    {
      "inputs": [],
      "name": "pause",
      "outputs": [],
      "stateMutability": "nonpayable",
      "type": "function"
    },
    {
      "inputs": [],
      "name": "paused",
      "outputs": [
        {
          "internalType": "bool",
          "name": "",
          "type": "bool"
        }
      ],
      "stateMutability": "view",
      "type": "function"
    },
    {
      "inputs": [
        {
          "internalType": "bytes32",
          "name": "role",
          "type": "bytes32"
        },
        {
          "internalType": "address",
          "name": "account",
          "type": "address"
        }
      ],
      "name": "renounceRole",
      "outputs": [],
      "stateMutability": "nonpayable",
      "type": "function"
    },
    {
      "inputs": [
        {
          "internalType": "bytes32",
          "name": "role",
          "type": "bytes32"
        },
        {
          "internalType": "address",
          "name": "account",
          "type": "address"
        }
      ],
      "name": "revokeRole",
      "outputs": [],
      "stateMutability": "nonpayable",
      "type": "function"
    },
    {
      "inputs": [
        {
          "internalType": "address",
          "name": "_to",
          "type": "address"
        }
      ],
      "name": "safeMint",
      "outputs": [],
      "stateMutability": "nonpayable",
      "type": "function"
    },
    {
      "inputs": [
        {
          "internalType": "address",
          "name": "from",
          "type": "address"
        },
        {
          "internalType": "address",
          "name": "to",
          "type": "address"
        },
        {
          "internalType": "uint256",
          "name": "tokenId",
          "type": "uint256"
        }
      ],
      "name": "safeTransferFrom",
      "outputs": [],
      "stateMutability": "nonpayable",
      "type": "function"
    },
    {
      "inputs": [
        {
          "internalType": "address",
          "name": "from",
          "type": "address"
        },
        {
          "internalType": "address",
          "name": "to",
          "type": "address"
        },
        {
          "internalType": "uint256",
          "name": "tokenId",
          "type": "uint256"
        },
        {
          "internalType": "bytes",
          "name": "data",
          "type": "bytes"
        }
      ],
      "name": "safeTransferFrom",
      "outputs": [],
      "stateMutability": "nonpayable",
      "type": "function"
    },
    {
      "inputs": [
        {
          "internalType": "address",
          "name": "operator",
          "type": "address"
        },
        {
          "internalType": "bool",
          "name": "approved",
          "type": "bool"
        }
      ],
      "name": "setApprovalForAll",
      "outputs": [],
      "stateMutability": "nonpayable",
      "type": "function"
    },
    {
      "inputs": [],
      "name": "sourceAddress",
      "outputs": [
        {
          "internalType": "string",
          "name": "",
          "type": "string"
        }
      ],
      "stateMutability": "view",
      "type": "function"
    },
    {
      "inputs": [],
      "name": "sourceChain",
      "outputs": [
        {
          "internalType": "string",
          "name": "",
          "type": "string"
        }
      ],
      "stateMutability": "view",
      "type": "function"
    },
    {
      "inputs": [
        {
          "internalType": "bytes4",
          "name": "_interfaceId",
          "type": "bytes4"
        }
      ],
      "name": "supportsInterface",
      "outputs": [
        {
          "internalType": "bool",
          "name": "",
          "type": "bool"
        }
      ],
      "stateMutability": "view",
      "type": "function"
    },
    {
      "inputs": [],
      "name": "symbol",
      "outputs": [
        {
          "internalType": "string",
          "name": "",
          "type": "string"
        }
      ],
      "stateMutability": "view",
      "type": "function"
    },
    {
      "inputs": [
        {
          "internalType": "uint256",
          "name": "tokenId",
          "type": "uint256"
        }
      ],
      "name": "tokenURI",
      "outputs": [
        {
          "internalType": "string",
          "name": "",
          "type": "string"
        }
      ],
      "stateMutability": "view",
      "type": "function"
    },
    {
      "inputs": [
        {
          "internalType": "address",
          "name": "from",
          "type": "address"
        },
        {
          "internalType": "address",
          "name": "to",
          "type": "address"
        },
        {
          "internalType": "uint256",
          "name": "tokenId",
          "type": "uint256"
        }
      ],
      "name": "transferFrom",
      "outputs": [],
      "stateMutability": "nonpayable",
      "type": "function"
    },
    {
      "inputs": [],
      "name": "unpause",
      "outputs": [],
      "stateMutability": "nonpayable",
      "type": "function"
    },
    {
      "inputs": [],
      "name": "vestingDate",
      "outputs": [
        {
          "internalType": "uint256",
          "name": "",
          "type": "uint256"
        }
      ],
      "stateMutability": "view",
      "type": "function"
    },
    {
      "inputs": [
        {
          "internalType": "uint256",
          "name": "",
          "type": "uint256"
        },
        {
          "internalType": "address",
          "name": "",
          "type": "address"
        }
      ],
      "name": "whitelistedNfts",
      "outputs": [
        {
          "internalType": "bool",
          "name": "",
          "type": "bool"
        }
      ],
      "stateMutability": "view",
      "type": "function"
    }
  ],
  "bytecode": "0x60c060405260405162005af838038062005af8833981810160405281019062000029919062000504565b6040518060400160405280600881526020017f536f756c46756e640000000000000000000000000000000000000000000000008152506040518060400160405280600381526020017f534c4600000000000000000000000000000000000000000000000000000000008152508160009080519060200190620000ad929190620003af565b508060019080519060200190620000c6929190620003af565b5050506000600660006101000a81548160ff021916908315150217905550620000f96000801b336200024a60201b60201c565b6200012b7f65d7a28e3265b37a6474929f336521b332c1681b933f6cb9f3376673440d862a336200024a60201b60201c565b6200015d7f2dee5dd865e09c7ce6788d674a03682994f0b44339403ca07ac129a9de4bed6a336200024a60201b60201c565b6200018f7fc8a41221bcd7fcf2c225f5a9265e1d4d39949d89197159d59e5f4b87b62c419e866200024a60201b60201c565b83600b8190555082601160006101000a81548173ffffffffffffffffffffffffffffffffffffffff021916908373ffffffffffffffffffffffffffffffffffffffff1602179055508073ffffffffffffffffffffffffffffffffffffffff1660808173ffffffffffffffffffffffffffffffffffffffff16815250508173ffffffffffffffffffffffffffffffffffffffff1660a08173ffffffffffffffffffffffffffffffffffffffff16815250505050505050620005f1565b6200025c82826200033c60201b60201c565b620003385760016007600084815260200190815260200160002060000160008373ffffffffffffffffffffffffffffffffffffffff1673ffffffffffffffffffffffffffffffffffffffff16815260200190815260200160002060006101000a81548160ff021916908315150217905550620002dd620003a760201b60201c565b73ffffffffffffffffffffffffffffffffffffffff168173ffffffffffffffffffffffffffffffffffffffff16837f2f8788117e7eff1d82e926ec794901d17c78024a50270940304540a733656f0d60405160405180910390a45b5050565b60006007600084815260200190815260200160002060000160008373ffffffffffffffffffffffffffffffffffffffff1673ffffffffffffffffffffffffffffffffffffffff16815260200190815260200160002060009054906101000a900460ff16905092915050565b600033905090565b828054620003bd90620005bb565b90600052602060002090601f016020900481019282620003e157600085556200042d565b82601f10620003fc57805160ff19168380011785556200042d565b828001600101855582156200042d579182015b828111156200042c5782518255916020019190600101906200040f565b5b5090506200043c919062000440565b5090565b5b808211156200045b57600081600090555060010162000441565b5090565b600080fd5b600073ffffffffffffffffffffffffffffffffffffffff82169050919050565b6000620004918262000464565b9050919050565b620004a38162000484565b8114620004af57600080fd5b50565b600081519050620004c38162000498565b92915050565b6000819050919050565b620004de81620004c9565b8114620004ea57600080fd5b50565b600081519050620004fe81620004d3565b92915050565b600080600080600060a086880312156200052357620005226200045f565b5b60006200053388828901620004b2565b95505060206200054688828901620004ed565b94505060406200055988828901620004b2565b93505060606200056c88828901620004b2565b92505060806200057f88828901620004b2565b9150509295509295909350565b7f4e487b7100000000000000000000000000000000000000000000000000000000600052602260045260246000fd5b60006002820490506001821680620005d457607f821691505b60208210811415620005eb57620005ea6200058c565b5b50919050565b60805160a0516154e1620006176000396000610c0b0152600061129a01526154e16000f3fe6080604052600436106102515760003560e01c80638456cb5911610139578063c87b56dd116100b6578063d8f5df661161007a578063d8f5df66146108cd578063db4796c0146108f8578063e63ab1e914610935578063e985e9c514610960578063f94c0a111461099d578063fedce7a8146109c857610251565b8063c87b56dd146107e3578063ced3a40314610820578063cef5234f1461084b578063d547741f14610888578063d6706328146108b157610251565b8063a217fddf116100fd578063a217fddf146106fd578063a22cb46514610728578063b0fa844414610751578063b7134dfa1461077c578063b88d4fde146107ba57610251565b80638456cb591461062557806391d148541461063c5780639590cf751461067957806395d89b41146106955780639e42ce18146106c057610251565b806336568abe116101d2578063491606581161019657806349160658146105015780635c975abb1461052a5780636352211e1461055557806370a08231146105925780637ef65609146105cf57806380d14b4a146105fa57610251565b806336568abe146104325780633f4ba83a1461045b57806340d097c31461047257806342842e0e1461049b578063438a8ece146104c457610251565b80631a98b2e0116102195780631a98b2e01461034f5780631c6ffa461461037857806323b872dd146103a3578063248a9ca3146103cc5780632f2ff15d1461040957610251565b806301ffc9a71461025657806306fdde0314610293578063081812fc146102be578063095ea7b3146102fb578063116191b614610324575b600080fd5b34801561026257600080fd5b5061027d600480360381019061027891906135a0565b610a05565b60405161028a91906135e8565b60405180910390f35b34801561029f57600080fd5b506102a8610a17565b6040516102b5919061369c565b60405180910390f35b3480156102ca57600080fd5b506102e560048036038101906102e091906136f4565b610aa9565b6040516102f29190613762565b60405180910390f35b34801561030757600080fd5b50610322600480360381019061031d91906137a9565b610aef565b005b34801561033057600080fd5b50610339610c07565b6040516103469190613848565b60405180910390f35b34801561035b57600080fd5b5061037660048036038101906103719190613954565b610c2f565b005b34801561038457600080fd5b5061038d610d41565b60405161039a919061369c565b60405180910390f35b3480156103af57600080fd5b506103ca60048036038101906103c59190613a64565b610dcf565b005b3480156103d857600080fd5b506103f360048036038101906103ee9190613ab7565b610e2f565b6040516104009190613af3565b60405180910390f35b34801561041557600080fd5b50610430600480360381019061042b9190613b0e565b610e4f565b005b34801561043e57600080fd5b5061045960048036038101906104549190613b0e565b610e70565b005b34801561046757600080fd5b50610470610ef3565b005b34801561047e57600080fd5b5061049960048036038101906104949190613b4e565b610f28565b005b3480156104a757600080fd5b506104c260048036038101906104bd9190613a64565b610f80565b005b3480156104d057600080fd5b506104eb60048036038101906104e69190613b7b565b610fa0565b6040516104f89190613bca565b60405180910390f35b34801561050d57600080fd5b5061052860048036038101906105239190613be5565b610fc5565b005b34801561053657600080fd5b5061053f611111565b60405161054c91906135e8565b60405180910390f35b34801561056157600080fd5b5061057c600480360381019061057791906136f4565b611128565b6040516105899190613762565b60405180910390f35b34801561059e57600080fd5b506105b960048036038101906105b49190613b4e565b6111da565b6040516105c69190613bca565b60405180910390f35b3480156105db57600080fd5b506105e4611292565b6040516105f19190613bca565b60405180910390f35b34801561060657600080fd5b5061060f611298565b60405161061c9190613ccf565b60405180910390f35b34801561063157600080fd5b5061063a6112bc565b005b34801561064857600080fd5b50610663600480360381019061065e9190613b0e565b6112f1565b60405161067091906135e8565b60405180910390f35b610693600480360381019061068e91906136f4565b61135c565b005b3480156106a157600080fd5b506106aa611422565b6040516106b7919061369c565b60405180910390f35b3480156106cc57600080fd5b506106e760048036038101906106e291906136f4565b6114b4565b6040516106f49190613bca565b60405180910390f35b34801561070957600080fd5b506107126114cc565b60405161071f9190613af3565b60405180910390f35b34801561073457600080fd5b5061074f600480360381019061074a9190613d16565b6114d3565b005b34801561075d57600080fd5b506107666114e9565b604051610773919061369c565b60405180910390f35b34801561078857600080fd5b506107a3600480360381019061079e9190613d56565b611577565b6040516107b1929190613d96565b60405180910390f35b3480156107c657600080fd5b506107e160048036038101906107dc9190613eef565b6115ce565b005b3480156107ef57600080fd5b5061080a600480360381019061080591906136f4565b611630565b604051610817919061369c565b60405180910390f35b34801561082c57600080fd5b50610835611733565b6040516108429190613af3565b60405180910390f35b34801561085757600080fd5b50610872600480360381019061086d9190613b7b565b611757565b60405161087f91906135e8565b60405180910390f35b34801561089457600080fd5b506108af60048036038101906108aa9190613b0e565b611786565b005b6108cb60048036038101906108c69190613f72565b6117a7565b005b3480156108d957600080fd5b506108e2611bce565b6040516108ef9190613bca565b60405180910390f35b34801561090457600080fd5b5061091f600480360381019061091a91906136f4565b611bd4565b60405161092c91906140ae565b60405180910390f35b34801561094157600080fd5b5061094a611c99565b6040516109579190613af3565b60405180910390f35b34801561096c57600080fd5b50610987600480360381019061098291906140ca565b611cbd565b60405161099491906135e8565b60405180910390f35b3480156109a957600080fd5b506109b2611d51565b6040516109bf9190613af3565b60405180910390f35b3480156109d457600080fd5b506109ef60048036038101906109ea9190613b7b565b611d75565b6040516109fc91906135e8565b60405180910390f35b6000610a1082611da4565b9050919050565b606060008054610a2690614139565b80601f0160208091040260200160405190810160405280929190818152602001828054610a5290614139565b8015610a9f5780601f10610a7457610100808354040283529160200191610a9f565b820191906000526020600020905b815481529060010190602001808311610a8257829003601f168201915b5050505050905090565b6000610ab482611e1e565b6004600083815260200190815260200160002060009054906101000a900473ffffffffffffffffffffffffffffffffffffffff169050919050565b6000610afa82611128565b90508073ffffffffffffffffffffffffffffffffffffffff168373ffffffffffffffffffffffffffffffffffffffff161415610b6b576040517f08c379a0000000000000000000000000000000000000000000000000000000008152600401610b62906141dd565b60405180910390fd5b8073ffffffffffffffffffffffffffffffffffffffff16610b8a611e69565b73ffffffffffffffffffffffffffffffffffffffff161480610bb95750610bb881610bb3611e69565b611cbd565b5b610bf8576040517f08c379a0000000000000000000000000000000000000000000000000000000008152600401610bef9061426f565b60405180910390fd5b610c028383611e71565b505050565b60007f0000000000000000000000000000000000000000000000000000000000000000905090565b60008585604051610c419291906142bf565b60405180910390209050610c53610c07565b73ffffffffffffffffffffffffffffffffffffffff16631876eed98c8c8c8c8c878b8b8b6040518a63ffffffff1660e01b8152600401610c9b99989796959493929190614305565b602060405180830381600087803b158015610cb557600080fd5b505af1158015610cc9573d6000803e3d6000fd5b505050506040513d601f19601f82011682018060405250810190610ced9190614396565b610d23576040517f500c44b400000000000000000000000000000000000000000000000000000000815260040160405180910390fd5b610d348a8a8a8a8a8a8a8a8a611f2a565b5050505050505050505050565b60088054610d4e90614139565b80601f0160208091040260200160405190810160405280929190818152602001828054610d7a90614139565b8015610dc75780601f10610d9c57610100808354040283529160200191610dc7565b820191906000526020600020905b815481529060010190602001808311610daa57829003601f168201915b505050505081565b610de0610dda611e69565b82611f35565b610e1f576040517f08c379a0000000000000000000000000000000000000000000000000000000008152600401610e1690614435565b60405180910390fd5b610e2a838383611fca565b505050565b600060076000838152602001908152602001600020600101549050919050565b610e5882610e2f565b610e6181612231565b610e6b8383612245565b505050565b610e78611e69565b73ffffffffffffffffffffffffffffffffffffffff168173ffffffffffffffffffffffffffffffffffffffff1614610ee5576040517f08c379a0000000000000000000000000000000000000000000000000000000008152600401610edc906144c7565b60405180910390fd5b610eef8282612326565b5050565b7f65d7a28e3265b37a6474929f336521b332c1681b933f6cb9f3376673440d862a610f1d81612231565b610f25612408565b50565b7f2dee5dd865e09c7ce6788d674a03682994f0b44339403ca07ac129a9de4bed6a610f5281612231565b6000600a549050600a6000815480929190610f6c90614516565b9190505550610f7b838261246b565b505050565b610f9b838383604051806020016040528060008152506115ce565b505050565b600f602052816000526040600020602052806000526040600020600091509150505481565b602a848490501461100b576040517f08c379a0000000000000000000000000000000000000000000000000000000008152600401611002906145ab565b60405180910390fd5b6000828260405161101d9291906142bf565b6040518091039020905061102f610c07565b73ffffffffffffffffffffffffffffffffffffffff16635f6970c38989898989876040518763ffffffff1660e01b8152600401611071969594939291906145cb565b602060405180830381600087803b15801561108b57600080fd5b505af115801561109f573d6000803e3d6000fd5b505050506040513d601f19601f820116820180604052508101906110c39190614396565b6110f9576040517f500c44b400000000000000000000000000000000000000000000000000000000815260040160405180910390fd5b611107878787878787612489565b5050505050505050565b6000600660009054906101000a900460ff16905090565b6000806002600084815260200190815260200160002060009054906101000a900473ffffffffffffffffffffffffffffffffffffffff169050600073ffffffffffffffffffffffffffffffffffffffff168173ffffffffffffffffffffffffffffffffffffffff1614156111d1576040517f08c379a00000000000000000000000000000000000000000000000000000000081526004016111c89061466e565b60405180910390fd5b80915050919050565b60008073ffffffffffffffffffffffffffffffffffffffff168273ffffffffffffffffffffffffffffffffffffffff16141561124b576040517f08c379a000000000000000000000000000000000000000000000000000000000815260040161124290614700565b60405180910390fd5b600360008373ffffffffffffffffffffffffffffffffffffffff1673ffffffffffffffffffffffffffffffffffffffff168152602001908152602001600020549050919050565b6101f481565b7f000000000000000000000000000000000000000000000000000000000000000081565b7f65d7a28e3265b37a6474929f336521b332c1681b933f6cb9f3376673440d862a6112e681612231565b6112ee6124d7565b50565b60006007600084815260200190815260200160002060000160008373ffffffffffffffffffffffffffffffffffffffff1673ffffffffffffffffffffffffffffffffffffffff16815260200190815260200160002060009054906101000a900460ff16905092915050565b600073ffffffffffffffffffffffffffffffffffffffff1661137d82611128565b73ffffffffffffffffffffffffffffffffffffffff1614156113d4576040517f08c379a00000000000000000000000000000000000000000000000000000000081526004016113cb90614792565b60405180910390fd5b6113df81600161253a565b6000600190507f34ef4ac64e0eac8a04fe2b95d0d037921287716ff3019d01b6712d2e9507509582826040516114169291906147b2565b60405180910390a15050565b60606001805461143190614139565b80601f016020809104026020016040519081016040528092919081815260200182805461145d90614139565b80156114aa5780601f1061147f576101008083540402835291602001916114aa565b820191906000526020600020905b81548152906001019060200180831161148d57829003601f168201915b5050505050905090565b60106020528060005260406000206000915090505481565b6000801b81565b6114e56114de611e69565b83836127b4565b5050565b600980546114f690614139565b80601f016020809104026020016040519081016040528092919081815260200182805461152290614139565b801561156f5780601f106115445761010080835404028352916020019161156f565b820191906000526020600020905b81548152906001019060200180831161155257829003601f168201915b505050505081565b600e602052816000526040600020816005811061159357600080fd5b60020201600091509150508060000160009054906101000a900473ffffffffffffffffffffffffffffffffffffffff16908060010154905082565b6115df6115d9611e69565b83611f35565b61161e576040517f08c379a000000000000000000000000000000000000000000000000000000000815260040161161590614435565b60405180910390fd5b61162a84848484612921565b50505050565b606061163b8261297d565b61167a576040517f08c379a000000000000000000000000000000000000000000000000000000000815260040161167190614827565b60405180910390fd5b601160009054906101000a900473ffffffffffffffffffffffffffffffffffffffff1673ffffffffffffffffffffffffffffffffffffffff1663611fc46930846040518363ffffffff1660e01b81526004016116d7929190613d96565b60006040518083038186803b1580156116ef57600080fd5b505afa158015611703573d6000803e3d6000fd5b505050506040513d6000823e3d601f19601f8201168201806040525081019061172c91906148e8565b9050919050565b7fc8a41221bcd7fcf2c225f5a9265e1d4d39949d89197159d59e5f4b87b62c419e81565b600d6020528160005260406000206020528060005260406000206000915091509054906101000a900460ff1681565b61178f82610e2f565b61179881612231565b6117a28383612326565b505050565b7f2dee5dd865e09c7ce6788d674a03682994f0b44339403ca07ac129a9de4bed6a6117d181612231565b6000600f600086815260200190815260200160002060008573ffffffffffffffffffffffffffffffffffffffff1673ffffffffffffffffffffffffffffffffffffffff1681526020019081526020016000205410158015611845575060056010600086815260200190815260200160002054105b611884576040517f08c379a000000000000000000000000000000000000000000000000000000000815260040161187b906149a3565b60405180910390fd5b6000600f600086815260200190815260200160002060008573ffffffffffffffffffffffffffffffffffffffff1673ffffffffffffffffffffffffffffffffffffffff1681526020019081526020016000205490506000811415611a325760106000868152602001908152602001600020600081548092919061190690614516565b91905055506010600086815260200190815260200160002054600f600087815260200190815260200160002060008673ffffffffffffffffffffffffffffffffffffffff1673ffffffffffffffffffffffffffffffffffffffff16815260200190815260200160002081905550600f600086815260200190815260200160002060008573ffffffffffffffffffffffffffffffffffffffff1673ffffffffffffffffffffffffffffffffffffffff16815260200190815260200160002054905083600e600087815260200190815260200160002082600581106119ec576119eb6149c3565b5b6002020160000160006101000a81548173ffffffffffffffffffffffffffffffffffffffff021916908373ffffffffffffffffffffffffffffffffffffffff1602179055505b600073ffffffffffffffffffffffffffffffffffffffff168473ffffffffffffffffffffffffffffffffffffffff161415611aae57823414611aa9576040517f08c379a0000000000000000000000000000000000000000000000000000000008152600401611aa090614a64565b60405180910390fd5b611b3f565b8373ffffffffffffffffffffffffffffffffffffffff166323b872dd3330866040518463ffffffff1660e01b8152600401611aeb93929190614a84565b602060405180830381600087803b158015611b0557600080fd5b505af1158015611b19573d6000803e3d6000fd5b505050506040513d601f19601f82011682018060405250810190611b3d9190614396565b505b82600e60008781526020019081526020016000208260058110611b6557611b646149c3565b5b600202016001016000828254611b7b9190614abb565b925050819055507f03b9932ccfcbee04cee8cedad7802dbe5c786c57591e9a7cd4c8fea13b13be82858585611baf89611128565b604051611bbf9493929190614b11565b60405180910390a15050505050565b600b5481565b611bdc613434565b600e6000838152602001908152602001600020600580602002604051908101604052809291906000905b82821015611c8e578382600202016040518060400160405290816000820160009054906101000a900473ffffffffffffffffffffffffffffffffffffffff1673ffffffffffffffffffffffffffffffffffffffff1673ffffffffffffffffffffffffffffffffffffffff16815260200160018201548152505081526020019060010190611c06565b505050509050919050565b7f65d7a28e3265b37a6474929f336521b332c1681b933f6cb9f3376673440d862a81565b6000600560008473ffffffffffffffffffffffffffffffffffffffff1673ffffffffffffffffffffffffffffffffffffffff16815260200190815260200160002060008373ffffffffffffffffffffffffffffffffffffffff1673ffffffffffffffffffffffffffffffffffffffff16815260200190815260200160002060009054906101000a900460ff16905092915050565b7f2dee5dd865e09c7ce6788d674a03682994f0b44339403ca07ac129a9de4bed6a81565b600c6020528160005260406000206020528060005260406000206000915091509054906101000a900460ff1681565b60007f7965db0b000000000000000000000000000000000000000000000000000000007bffffffffffffffffffffffffffffffffffffffffffffffffffffffff1916827bffffffffffffffffffffffffffffffffffffffffffffffffffffffff19161480611e175750611e16826129e9565b5b9050919050565b611e278161297d565b611e66576040517f08c379a0000000000000000000000000000000000000000000000000000000008152600401611e5d9061466e565b60405180910390fd5b50565b600033905090565b816004600083815260200190815260200160002060006101000a81548173ffffffffffffffffffffffffffffffffffffffff021916908373ffffffffffffffffffffffffffffffffffffffff160217905550808273ffffffffffffffffffffffffffffffffffffffff16611ee483611128565b73ffffffffffffffffffffffffffffffffffffffff167f8c5be1e5ebec7d5bd14f71427d1e84f3dd0314c0f7b2291e5b200ac8c7c3b92560405160405180910390a45050565b505050505050505050565b600080611f4183611128565b90508073ffffffffffffffffffffffffffffffffffffffff168473ffffffffffffffffffffffffffffffffffffffff161480611f835750611f828185611cbd565b5b80611fc157508373ffffffffffffffffffffffffffffffffffffffff16611fa984610aa9565b73ffffffffffffffffffffffffffffffffffffffff16145b91505092915050565b8273ffffffffffffffffffffffffffffffffffffffff16611fea82611128565b73ffffffffffffffffffffffffffffffffffffffff1614612040576040517f08c379a000000000000000000000000000000000000000000000000000000000815260040161203790614bc8565b60405180910390fd5b600073ffffffffffffffffffffffffffffffffffffffff168273ffffffffffffffffffffffffffffffffffffffff1614156120b0576040517f08c379a00000000000000000000000000000000000000000000000000000000081526004016120a790614c5a565b60405180910390fd5b6120bb838383612acb565b6120c6600082611e71565b6001600360008573ffffffffffffffffffffffffffffffffffffffff1673ffffffffffffffffffffffffffffffffffffffff16815260200190815260200160002060008282546121169190614c7a565b925050819055506001600360008473ffffffffffffffffffffffffffffffffffffffff1673ffffffffffffffffffffffffffffffffffffffff168152602001908152602001600020600082825461216d9190614abb565b92505081905550816002600083815260200190815260200160002060006101000a81548173ffffffffffffffffffffffffffffffffffffffff021916908373ffffffffffffffffffffffffffffffffffffffff160217905550808273ffffffffffffffffffffffffffffffffffffffff168473ffffffffffffffffffffffffffffffffffffffff167fddf252ad1be2c89b69c2b068fc378daa952ba7f163c4a11628f55a4df523b3ef60405160405180910390a461222c838383612b52565b505050565b6122428161223d611e69565b612b57565b50565b61224f82826112f1565b6123225760016007600084815260200190815260200160002060000160008373ffffffffffffffffffffffffffffffffffffffff1673ffffffffffffffffffffffffffffffffffffffff16815260200190815260200160002060006101000a81548160ff0219169083151502179055506122c7611e69565b73ffffffffffffffffffffffffffffffffffffffff168173ffffffffffffffffffffffffffffffffffffffff16837f2f8788117e7eff1d82e926ec794901d17c78024a50270940304540a733656f0d60405160405180910390a45b5050565b61233082826112f1565b156124045760006007600084815260200190815260200160002060000160008373ffffffffffffffffffffffffffffffffffffffff1673ffffffffffffffffffffffffffffffffffffffff16815260200190815260200160002060006101000a81548160ff0219169083151502179055506123a9611e69565b73ffffffffffffffffffffffffffffffffffffffff168173ffffffffffffffffffffffffffffffffffffffff16837ff6391f5c32d9c69d2a47ea670b442974b53935d1edc7fd64eb21e047a839171b60405160405180910390a45b5050565b612410612bf4565b6000600660006101000a81548160ff0219169083151502179055507f5db9ee0a495bf2e6ff9c91a7834c1ba4fdd244a5e8aa4e537bd38aeae4b073aa612454611e69565b6040516124619190613762565b60405180910390a1565b612485828260405180602001604052806000815250612c3d565b5050565b600080838381019061249b9190614cec565b915091508787600891906124b0929190613461565b508585600991906124c2929190613461565b506124cd8183612c98565b5050505050505050565b6124df612dab565b6001600660006101000a81548160ff0219169083151502179055507f62e78cea01bee320cd4e420270b5ea74000d11b0c9f74754ebdbfc544b05a258612523611e69565b6040516125309190613762565b60405180910390a1565b61271081111561257f576040517f08c379a000000000000000000000000000000000000000000000000000000000815260040161257690614d78565b60405180910390fd5b60005b60106000848152602001908152602001600020548110156127af576000600e600085815260200190815260200160002082600581106125c4576125c36149c3565b5b6002020160000160009054906101000a900473ffffffffffffffffffffffffffffffffffffffff169050600061271084600e60008881526020019081526020016000208560058110612619576126186149c3565b5b600202016001015461262b9190614d98565b6126359190614e21565b905080600e6000878152602001908152602001600020846005811061265d5761265c6149c3565b5b6002020160010160008282546126739190614c7a565b92505081905550600073ffffffffffffffffffffffffffffffffffffffff168273ffffffffffffffffffffffffffffffffffffffff161415612703576126b885611128565b73ffffffffffffffffffffffffffffffffffffffff166108fc829081150290604051600060405180830381858888f193505050501580156126fd573d6000803e3d6000fd5b5061279a565b8173ffffffffffffffffffffffffffffffffffffffff1663a9059cbb61272887611128565b836040518363ffffffff1660e01b8152600401612746929190613d96565b602060405180830381600087803b15801561276057600080fd5b505af1158015612774573d6000803e3d6000fd5b505050506040513d601f19601f820116820180604052508101906127989190614396565b505b505080806127a790614516565b915050612582565b505050565b8173ffffffffffffffffffffffffffffffffffffffff168373ffffffffffffffffffffffffffffffffffffffff161415612823576040517f08c379a000000000000000000000000000000000000000000000000000000000815260040161281a90614e9e565b60405180910390fd5b80600560008573ffffffffffffffffffffffffffffffffffffffff1673ffffffffffffffffffffffffffffffffffffffff16815260200190815260200160002060008473ffffffffffffffffffffffffffffffffffffffff1673ffffffffffffffffffffffffffffffffffffffff16815260200190815260200160002060006101000a81548160ff0219169083151502179055508173ffffffffffffffffffffffffffffffffffffffff168373ffffffffffffffffffffffffffffffffffffffff167f17307eab39ab6107e8899845ad3d59bd9653f200f220920489ca2b5937696c318360405161291491906135e8565b60405180910390a3505050565b61292c848484611fca565b61293884848484612df5565b612977576040517f08c379a000000000000000000000000000000000000000000000000000000000815260040161296e90614f30565b60405180910390fd5b50505050565b60008073ffffffffffffffffffffffffffffffffffffffff166002600084815260200190815260200160002060009054906101000a900473ffffffffffffffffffffffffffffffffffffffff1673ffffffffffffffffffffffffffffffffffffffff1614159050919050565b60007f80ac58cd000000000000000000000000000000000000000000000000000000007bffffffffffffffffffffffffffffffffffffffffffffffffffffffff1916827bffffffffffffffffffffffffffffffffffffffffffffffffffffffff19161480612ab457507f5b5e139f000000000000000000000000000000000000000000000000000000007bffffffffffffffffffffffffffffffffffffffffffffffffffffffff1916827bffffffffffffffffffffffffffffffffffffffffffffffffffffffff1916145b80612ac45750612ac382612f8c565b5b9050919050565b612ad3612dab565b600073ffffffffffffffffffffffffffffffffffffffff168373ffffffffffffffffffffffffffffffffffffffff1614612b42576040517f08c379a0000000000000000000000000000000000000000000000000000000008152600401612b3990614fc2565b60405180910390fd5b612b4d838383612ff6565b505050565b505050565b612b6182826112f1565b612bf057612b868173ffffffffffffffffffffffffffffffffffffffff166014612ffb565b612b948360001c6020612ffb565b604051602001612ba59291906150b6565b6040516020818303038152906040526040517f08c379a0000000000000000000000000000000000000000000000000000000008152600401612be7919061369c565b60405180910390fd5b5050565b612bfc611111565b612c3b576040517f08c379a0000000000000000000000000000000000000000000000000000000008152600401612c329061513c565b60405180910390fd5b565b612c478383613237565b612c546000848484612df5565b612c93576040517f08c379a0000000000000000000000000000000000000000000000000000000008152600401612c8a90614f30565b60405180910390fd5b505050565b6000612ca383611128565b90508073ffffffffffffffffffffffffffffffffffffffff168273ffffffffffffffffffffffffffffffffffffffff1614612d13576040517f08c379a0000000000000000000000000000000000000000000000000000000008152600401612d0a906151ce565b60405180910390fd5b612d1f836101f461253a565b6000600190508173ffffffffffffffffffffffffffffffffffffffff166108fc829081150290604051600060405180830381858888f19350505050158015612d6b573d6000803e3d6000fd5b507f6304e1c0e6a866eff2e257afddc8be016c0c6f6264e47046379ec6a3a3cb2bde8482604051612d9d9291906147b2565b60405180910390a150505050565b612db3611111565b15612df3576040517f08c379a0000000000000000000000000000000000000000000000000000000008152600401612dea9061523a565b60405180910390fd5b565b6000612e168473ffffffffffffffffffffffffffffffffffffffff16613411565b15612f7f578373ffffffffffffffffffffffffffffffffffffffff1663150b7a02612e3f611e69565b8786866040518563ffffffff1660e01b8152600401612e6194939291906152af565b602060405180830381600087803b158015612e7b57600080fd5b505af1925050508015612eac57506040513d601f19601f82011682018060405250810190612ea99190615310565b60015b612f2f573d8060008114612edc576040519150601f19603f3d011682016040523d82523d6000602084013e612ee1565b606091505b50600081511415612f27576040517f08c379a0000000000000000000000000000000000000000000000000000000008152600401612f1e90614f30565b60405180910390fd5b805181602001fd5b63150b7a0260e01b7bffffffffffffffffffffffffffffffffffffffffffffffffffffffff1916817bffffffffffffffffffffffffffffffffffffffffffffffffffffffff191614915050612f84565b600190505b949350505050565b60007f01ffc9a7000000000000000000000000000000000000000000000000000000007bffffffffffffffffffffffffffffffffffffffffffffffffffffffff1916827bffffffffffffffffffffffffffffffffffffffffffffffffffffffff1916149050919050565b505050565b60606000600283600261300e9190614d98565b6130189190614abb565b67ffffffffffffffff81111561303157613030613dc4565b5b6040519080825280601f01601f1916602001820160405280156130635781602001600182028036833780820191505090505b5090507f30000000000000000000000000000000000000000000000000000000000000008160008151811061309b5761309a6149c3565b5b60200101907effffffffffffffffffffffffffffffffffffffffffffffffffffffffffffff1916908160001a9053507f7800000000000000000000000000000000000000000000000000000000000000816001815181106130ff576130fe6149c3565b5b60200101907effffffffffffffffffffffffffffffffffffffffffffffffffffffffffffff1916908160001a9053506000600184600261313f9190614d98565b6131499190614abb565b90505b60018111156131e9577f3031323334353637383961626364656600000000000000000000000000000000600f86166010811061318b5761318a6149c3565b5b1a60f81b8282815181106131a2576131a16149c3565b5b60200101907effffffffffffffffffffffffffffffffffffffffffffffffffffffffffffff1916908160001a905350600485901c9450806131e29061533d565b905061314c565b506000841461322d576040517f08c379a0000000000000000000000000000000000000000000000000000000008152600401613224906153b3565b60405180910390fd5b8091505092915050565b600073ffffffffffffffffffffffffffffffffffffffff168273ffffffffffffffffffffffffffffffffffffffff1614156132a7576040517f08c379a000000000000000000000000000000000000000000000000000000000815260040161329e9061541f565b60405180910390fd5b6132b08161297d565b156132f0576040517f08c379a00000000000000000000000000000000000000000000000000000000081526004016132e79061548b565b60405180910390fd5b6132fc60008383612acb565b6001600360008473ffffffffffffffffffffffffffffffffffffffff1673ffffffffffffffffffffffffffffffffffffffff168152602001908152602001600020600082825461334c9190614abb565b92505081905550816002600083815260200190815260200160002060006101000a81548173ffffffffffffffffffffffffffffffffffffffff021916908373ffffffffffffffffffffffffffffffffffffffff160217905550808273ffffffffffffffffffffffffffffffffffffffff16600073ffffffffffffffffffffffffffffffffffffffff167fddf252ad1be2c89b69c2b068fc378daa952ba7f163c4a11628f55a4df523b3ef60405160405180910390a461340d60008383612b52565b5050565b6000808273ffffffffffffffffffffffffffffffffffffffff163b119050919050565b6040518060a001604052806005905b61344b6134e7565b8152602001906001900390816134435790505090565b82805461346d90614139565b90600052602060002090601f01602090048101928261348f57600085556134d6565b82601f106134a857803560ff19168380011785556134d6565b828001600101855582156134d6579182015b828111156134d55782358255916020019190600101906134ba565b5b5090506134e39190613517565b5090565b6040518060400160405280600073ffffffffffffffffffffffffffffffffffffffff168152602001600081525090565b5b80821115613530576000816000905550600101613518565b5090565b6000604051905090565b600080fd5b600080fd5b60007fffffffff0000000000000000000000000000000000000000000000000000000082169050919050565b61357d81613548565b811461358857600080fd5b50565b60008135905061359a81613574565b92915050565b6000602082840312156135b6576135b561353e565b5b60006135c48482850161358b565b91505092915050565b60008115159050919050565b6135e2816135cd565b82525050565b60006020820190506135fd60008301846135d9565b92915050565b600081519050919050565b600082825260208201905092915050565b60005b8381101561363d578082015181840152602081019050613622565b8381111561364c576000848401525b50505050565b6000601f19601f8301169050919050565b600061366e82613603565b613678818561360e565b935061368881856020860161361f565b61369181613652565b840191505092915050565b600060208201905081810360008301526136b68184613663565b905092915050565b6000819050919050565b6136d1816136be565b81146136dc57600080fd5b50565b6000813590506136ee816136c8565b92915050565b60006020828403121561370a5761370961353e565b5b6000613718848285016136df565b91505092915050565b600073ffffffffffffffffffffffffffffffffffffffff82169050919050565b600061374c82613721565b9050919050565b61375c81613741565b82525050565b60006020820190506137776000830184613753565b92915050565b61378681613741565b811461379157600080fd5b50565b6000813590506137a38161377d565b92915050565b600080604083850312156137c0576137bf61353e565b5b60006137ce85828601613794565b92505060206137df858286016136df565b9150509250929050565b6000819050919050565b600061380e61380961380484613721565b6137e9565b613721565b9050919050565b6000613820826137f3565b9050919050565b600061383282613815565b9050919050565b61384281613827565b82525050565b600060208201905061385d6000830184613839565b92915050565b6000819050919050565b61387681613863565b811461388157600080fd5b50565b6000813590506138938161386d565b92915050565b600080fd5b600080fd5b600080fd5b60008083601f8401126138be576138bd613899565b5b8235905067ffffffffffffffff8111156138db576138da61389e565b5b6020830191508360018202830111156138f7576138f66138a3565b5b9250929050565b60008083601f84011261391457613913613899565b5b8235905067ffffffffffffffff8111156139315761393061389e565b5b60208301915083600182028301111561394d5761394c6138a3565b5b9250929050565b60008060008060008060008060008060c08b8d0312156139775761397661353e565b5b60006139858d828e01613884565b9a505060208b013567ffffffffffffffff8111156139a6576139a5613543565b5b6139b28d828e016138a8565b995099505060408b013567ffffffffffffffff8111156139d5576139d4613543565b5b6139e18d828e016138a8565b975097505060608b013567ffffffffffffffff811115613a0457613a03613543565b5b613a108d828e016138fe565b955095505060808b013567ffffffffffffffff811115613a3357613a32613543565b5b613a3f8d828e016138a8565b935093505060a0613a528d828e016136df565b9150509295989b9194979a5092959850565b600080600060608486031215613a7d57613a7c61353e565b5b6000613a8b86828701613794565b9350506020613a9c86828701613794565b9250506040613aad868287016136df565b9150509250925092565b600060208284031215613acd57613acc61353e565b5b6000613adb84828501613884565b91505092915050565b613aed81613863565b82525050565b6000602082019050613b086000830184613ae4565b92915050565b60008060408385031215613b2557613b2461353e565b5b6000613b3385828601613884565b9250506020613b4485828601613794565b9150509250929050565b600060208284031215613b6457613b6361353e565b5b6000613b7284828501613794565b91505092915050565b60008060408385031215613b9257613b9161353e565b5b6000613ba0858286016136df565b9250506020613bb185828601613794565b9150509250929050565b613bc4816136be565b82525050565b6000602082019050613bdf6000830184613bbb565b92915050565b60008060008060008060006080888a031215613c0457613c0361353e565b5b6000613c128a828b01613884565b975050602088013567ffffffffffffffff811115613c3357613c32613543565b5b613c3f8a828b016138a8565b9650965050604088013567ffffffffffffffff811115613c6257613c61613543565b5b613c6e8a828b016138a8565b9450945050606088013567ffffffffffffffff811115613c9157613c90613543565b5b613c9d8a828b016138fe565b925092505092959891949750929550565b6000613cb982613815565b9050919050565b613cc981613cae565b82525050565b6000602082019050613ce46000830184613cc0565b92915050565b613cf3816135cd565b8114613cfe57600080fd5b50565b600081359050613d1081613cea565b92915050565b60008060408385031215613d2d57613d2c61353e565b5b6000613d3b85828601613794565b9250506020613d4c85828601613d01565b9150509250929050565b60008060408385031215613d6d57613d6c61353e565b5b6000613d7b858286016136df565b9250506020613d8c858286016136df565b9150509250929050565b6000604082019050613dab6000830185613753565b613db86020830184613bbb565b9392505050565b600080fd5b7f4e487b7100000000000000000000000000000000000000000000000000000000600052604160045260246000fd5b613dfc82613652565b810181811067ffffffffffffffff82111715613e1b57613e1a613dc4565b5b80604052505050565b6000613e2e613534565b9050613e3a8282613df3565b919050565b600067ffffffffffffffff821115613e5a57613e59613dc4565b5b613e6382613652565b9050602081019050919050565b82818337600083830152505050565b6000613e92613e8d84613e3f565b613e24565b905082815260208101848484011115613eae57613ead613dbf565b5b613eb9848285613e70565b509392505050565b600082601f830112613ed657613ed5613899565b5b8135613ee6848260208601613e7f565b91505092915050565b60008060008060808587031215613f0957613f0861353e565b5b6000613f1787828801613794565b9450506020613f2887828801613794565b9350506040613f39878288016136df565b925050606085013567ffffffffffffffff811115613f5a57613f59613543565b5b613f6687828801613ec1565b91505092959194509250565b600080600060608486031215613f8b57613f8a61353e565b5b6000613f99868287016136df565b9350506020613faa86828701613794565b9250506040613fbb868287016136df565b9150509250925092565b600060059050919050565b600081905092915050565b6000819050919050565b613fee81613741565b82525050565b613ffd816136be565b82525050565b6040820160008201516140196000850182613fe5565b50602082015161402c6020850182613ff4565b50505050565b600061403e8383614003565b60408301905092915050565b6000602082019050919050565b61406081613fc5565b61406a8184613fd0565b925061407582613fdb565b8060005b838110156140a657815161408d8782614032565b96506140988361404a565b925050600181019050614079565b505050505050565b6000610140820190506140c46000830184614057565b92915050565b600080604083850312156140e1576140e061353e565b5b60006140ef85828601613794565b925050602061410085828601613794565b9150509250929050565b7f4e487b7100000000000000000000000000000000000000000000000000000000600052602260045260246000fd5b6000600282049050600182168061415157607f821691505b602082108114156141655761416461410a565b5b50919050565b7f4552433732313a20617070726f76616c20746f2063757272656e74206f776e6560008201527f7200000000000000000000000000000000000000000000000000000000000000602082015250565b60006141c760218361360e565b91506141d28261416b565b604082019050919050565b600060208201905081810360008301526141f6816141ba565b9050919050565b7f4552433732313a20617070726f76652063616c6c6572206973206e6f7420746f60008201527f6b656e206f776e6572206e6f7220617070726f76656420666f7220616c6c0000602082015250565b6000614259603e8361360e565b9150614264826141fd565b604082019050919050565b600060208201905081810360008301526142888161424c565b9050919050565b600081905092915050565b60006142a6838561428f565b93506142b3838584613e70565b82840190509392505050565b60006142cc82848661429a565b91508190509392505050565b60006142e4838561360e565b93506142f1838584613e70565b6142fa83613652565b840190509392505050565b600060c08201905061431a600083018c613ae4565b818103602083015261432d818a8c6142d8565b9050818103604083015261434281888a6142d8565b90506143516060830187613ae4565b81810360808301526143648185876142d8565b905061437360a0830184613bbb565b9a9950505050505050505050565b60008151905061439081613cea565b92915050565b6000602082840312156143ac576143ab61353e565b5b60006143ba84828501614381565b91505092915050565b7f4552433732313a2063616c6c6572206973206e6f7420746f6b656e206f776e6560008201527f72206e6f7220617070726f766564000000000000000000000000000000000000602082015250565b600061441f602e8361360e565b915061442a826143c3565b604082019050919050565b6000602082019050818103600083015261444e81614412565b9050919050565b7f416363657373436f6e74726f6c3a2063616e206f6e6c792072656e6f756e636560008201527f20726f6c657320666f722073656c660000000000000000000000000000000000602082015250565b60006144b1602f8361360e565b91506144bc82614455565b604082019050919050565b600060208201905081810360008301526144e0816144a4565b9050919050565b7f4e487b7100000000000000000000000000000000000000000000000000000000600052601160045260246000fd5b6000614521826136be565b91507fffffffffffffffffffffffffffffffffffffffffffffffffffffffffffffffff821415614554576145536144e7565b5b600182019050919050565b7f7374617274000000000000000000000000000000000000000000000000000000600082015250565b600061459560058361360e565b91506145a08261455f565b602082019050919050565b600060208201905081810360008301526145c481614588565b9050919050565b60006080820190506145e06000830189613ae4565b81810360208301526145f38187896142d8565b905081810360408301526146088185876142d8565b90506146176060830184613ae4565b979650505050505050565b7f4552433732313a20696e76616c696420746f6b656e2049440000000000000000600082015250565b600061465860188361360e565b915061466382614622565b602082019050919050565b600060208201905081810360008301526146878161464b565b9050919050565b7f4552433732313a2061646472657373207a65726f206973206e6f74206120766160008201527f6c6964206f776e65720000000000000000000000000000000000000000000000602082015250565b60006146ea60298361360e565b91506146f58261468e565b604082019050919050565b60006020820190508181036000830152614719816146dd565b9050919050565b7f536f756c46756e642e636c61696d46756e64734561726c793a2066756e64206460008201527f6f6573206e6f7420657869737400000000000000000000000000000000000000602082015250565b600061477c602d8361360e565b915061478782614720565b604082019050919050565b600060208201905081810360008301526147ab8161476f565b9050919050565b60006040820190506147c76000830185613bbb565b6147d46020830184613bbb565b9392505050565b7f546f6b656e20646f6573206e6f74206578697374000000000000000000000000600082015250565b600061481160148361360e565b915061481c826147db565b602082019050919050565b6000602082019050818103600083015261484081614804565b9050919050565b600067ffffffffffffffff82111561486257614861613dc4565b5b61486b82613652565b9050602081019050919050565b600061488b61488684614847565b613e24565b9050828152602081018484840111156148a7576148a6613dbf565b5b6148b284828561361f565b509392505050565b600082601f8301126148cf576148ce613899565b5b81516148df848260208601614878565b91505092915050565b6000602082840312156148fe576148fd61353e565b5b600082015167ffffffffffffffff81111561491c5761491b613543565b5b614928848285016148ba565b91505092915050565b7f536f756c46756e642e6465706f73697446756e643a206d61782063757272656e60008201527f6379207479706520726561636865642e00000000000000000000000000000000602082015250565b600061498d60308361360e565b915061499882614931565b604082019050919050565b600060208201905081810360008301526149bc81614980565b9050919050565b7f4e487b7100000000000000000000000000000000000000000000000000000000600052603260045260246000fd5b7f536f756c46756e642e6465706f73697446756e643a20616d6f756e74206d697360008201527f6d617463682e0000000000000000000000000000000000000000000000000000602082015250565b6000614a4e60268361360e565b9150614a59826149f2565b604082019050919050565b60006020820190508181036000830152614a7d81614a41565b9050919050565b6000606082019050614a996000830186613753565b614aa66020830185613753565b614ab36040830184613bbb565b949350505050565b6000614ac6826136be565b9150614ad1836136be565b9250827fffffffffffffffffffffffffffffffffffffffffffffffffffffffffffffffff03821115614b0657614b056144e7565b5b828201905092915050565b6000608082019050614b266000830187613bbb565b614b336020830186613753565b614b406040830185613bbb565b614b4d6060830184613753565b95945050505050565b7f4552433732313a207472616e736665722066726f6d20696e636f72726563742060008201527f6f776e6572000000000000000000000000000000000000000000000000000000602082015250565b6000614bb260258361360e565b9150614bbd82614b56565b604082019050919050565b60006020820190508181036000830152614be181614ba5565b9050919050565b7f4552433732313a207472616e7366657220746f20746865207a65726f2061646460008201527f7265737300000000000000000000000000000000000000000000000000000000602082015250565b6000614c4460248361360e565b9150614c4f82614be8565b604082019050919050565b60006020820190508181036000830152614c7381614c37565b9050919050565b6000614c85826136be565b9150614c90836136be565b925082821015614ca357614ca26144e7565b5b828203905092915050565b6000614cb982613721565b9050919050565b614cc981614cae565b8114614cd457600080fd5b50565b600081359050614ce681614cc0565b92915050565b60008060408385031215614d0357614d0261353e565b5b6000614d1185828601614cd7565b9250506020614d22858286016136df565b9150509250929050565b7f50657263656e7420746f6f206869676800000000000000000000000000000000600082015250565b6000614d6260108361360e565b9150614d6d82614d2c565b602082019050919050565b60006020820190508181036000830152614d9181614d55565b9050919050565b6000614da3826136be565b9150614dae836136be565b9250817fffffffffffffffffffffffffffffffffffffffffffffffffffffffffffffffff0483118215151615614de757614de66144e7565b5b828202905092915050565b7f4e487b7100000000000000000000000000000000000000000000000000000000600052601260045260246000fd5b6000614e2c826136be565b9150614e37836136be565b925082614e4757614e46614df2565b5b828204905092915050565b7f4552433732313a20617070726f766520746f2063616c6c657200000000000000600082015250565b6000614e8860198361360e565b9150614e9382614e52565b602082019050919050565b60006020820190508181036000830152614eb781614e7b565b9050919050565b7f4552433732313a207472616e7366657220746f206e6f6e20455243373231526560008201527f63656976657220696d706c656d656e7465720000000000000000000000000000602082015250565b6000614f1a60328361360e565b9150614f2582614ebe565b604082019050919050565b60006020820190508181036000830152614f4981614f0d565b9050919050565b7f536f756c46756e643a20736f756c20626f756e6420746f6b656e2063616e6e6f60008201527f74206265207472616e7366657272656400000000000000000000000000000000602082015250565b6000614fac60308361360e565b9150614fb782614f50565b604082019050919050565b60006020820190508181036000830152614fdb81614f9f565b9050919050565b600081905092915050565b7f416363657373436f6e74726f6c3a206163636f756e7420000000000000000000600082015250565b6000615023601783614fe2565b915061502e82614fed565b601782019050919050565b600061504482613603565b61504e8185614fe2565b935061505e81856020860161361f565b80840191505092915050565b7f206973206d697373696e6720726f6c6520000000000000000000000000000000600082015250565b60006150a0601183614fe2565b91506150ab8261506a565b601182019050919050565b60006150c182615016565b91506150cd8285615039565b91506150d882615093565b91506150e48284615039565b91508190509392505050565b7f5061757361626c653a206e6f7420706175736564000000000000000000000000600082015250565b600061512660148361360e565b9150615131826150f0565b602082019050919050565b6000602082019050818103600083015261515581615119565b9050919050565b7f536f756c46756e642e636c61696d46756e64734561726c793a20696e76616c6960008201527f6420616464726573730000000000000000000000000000000000000000000000602082015250565b60006151b860298361360e565b91506151c38261515c565b604082019050919050565b600060208201905081810360008301526151e7816151ab565b9050919050565b7f5061757361626c653a2070617573656400000000000000000000000000000000600082015250565b600061522460108361360e565b915061522f826151ee565b602082019050919050565b6000602082019050818103600083015261525381615217565b9050919050565b600081519050919050565b600082825260208201905092915050565b60006152818261525a565b61528b8185615265565b935061529b81856020860161361f565b6152a481613652565b840191505092915050565b60006080820190506152c46000830187613753565b6152d16020830186613753565b6152de6040830185613bbb565b81810360608301526152f08184615276565b905095945050505050565b60008151905061530a81613574565b92915050565b6000602082840312156153265761532561353e565b5b6000615334848285016152fb565b91505092915050565b6000615348826136be565b9150600082141561535c5761535b6144e7565b5b600182039050919050565b7f537472696e67733a20686578206c656e67746820696e73756666696369656e74600082015250565b600061539d60208361360e565b91506153a882615367565b602082019050919050565b600060208201905081810360008301526153cc81615390565b9050919050565b7f4552433732313a206d696e7420746f20746865207a65726f2061646472657373600082015250565b600061540960208361360e565b9150615414826153d3565b602082019050919050565b60006020820190508181036000830152615438816153fc565b9050919050565b7f4552433732313a20746f6b656e20616c7265616479206d696e74656400000000600082015250565b6000615475601c8361360e565b91506154808261543f565b602082019050919050565b600060208201905081810360008301526154a481615468565b905091905056fea2646970667358221220d36dd4bf25264aacc58fd54e91ba590d20228dbe58d6282d37d7d35b551d7dcf64736f6c63430008090033",
  "linkReferences": {},
  "deployedLinkReferences": {}
}